:020000040800F2
:1000000098070020D50100089D6700080318000824
:10001000996700086D040008C56B00080000000027
:10002000000000000000000000000000C967000898
:1000300005070008000000009F670008216800080D
:10004000EF010008EF010008EF010008EF010008D0
:10005000EF010008EF010008EF010008EF010008C0
:10006000EF010008EF010008EF010008EF010008B0
:10007000EF010008EF010008EF010008EF010008A0
:10008000EF010008EF010008EF010008EF01000890
:10009000EF010008EF010008EF010008EF01000880
:1000A000EF010008EF010008EF010008EF01000870
:1000B000EF010008EF010008EF010008EF01000860
:1000C000EF010008EF010008EF010008EF01000850
:1000D000EF010008856B0008EF010008EF01000840
:1000E000EF010008EF010008EF010008EF01000830
:1000F000EF010008EF010008EF010008EF01000820
:10010000EF010008EF010008EF010008EF0100080F
:10011000EF010008EF010008EF010008EF010008FF
:10012000EF010008EF010008EF010008EF010008EF
:1001300000F002F800F03FF80AA090E8000C8244BA
:100140008344AAF10107DA4501D100F034F8AFF297
:10015000090EBAE80F0013F0010F18BFFB1A43F0A5
:10016000010318475888000078880000103A24BF1F
:1001700078C878C1FAD8520724BF30C830C144BF0C
:1001800004680C607047000000230024002500264E
:10019000103A28BF78C1FBD8520728BF30C148BFEA
:1001A0000B607047782900F07780002070471FB5FA
:1001B0001FBD10B510BD00F027F91146FFF7F7FF7E
:1001C00006F068FD00F045F903B4FFF7F2FF03BC49
:1001D00006F016FD0948804709480047FEE7FEE79C
:1001E000FEE7FEE7FEE7FEE7FEE7FEE7FEE7FEE7E7
:1001F00004480549054A064B704700002968000875
:100200003101000898010020980700209803002081
:1002100098030020704700000FB4044910B503AAEA
:10022000029800F0C3F810BC5DF814FB1400002025
:100230002DE9F0410E460446002020622046E16888
:10024000884730B3252805D0D4E901219047206A9A
:10025000401CF2E7E168204600278847050018D0D7
:10026000A5F14100192802D820354FF40067324625
:10027000294620462760FFF795FF40B1012804D0AA
:10028000F61D26F007060836D8E7361DD6E72846BD
:10029000DAE7206ABDE8F08170B504460D462146D4
:1002A0001068AFF300802188090502D50F4A7A440F
:1002B00002E00E4A7A440E32002104F1240305E0E4
:1002C00000F00F060009965D5E54491C0028F7D126
:1002D00020780023000704D5702D02D009B1022335
:1002E00011322046BDE8704000F006B8E2860000FA
:1002F00070477047704770472DE9F0470D469946A3
:100300009246044600F124080168880604D5E06995
:1003100021F01001216000E00120A84201DD471B0F
:1003200000E00027A1697A1902EB0900081AA06110
:100330002078C00602D42046AFF30080002608E0F3
:10034000D4E901211AF806009047206A401C761C67
:1003500020624E45F4DB2078C0060AD52046AFF374
:10036000008006E0D4E9012130209047206A401C3B
:100370002062381EA7F10107F4DC07E0D4E901216F
:1003800018F805009047206A401C2062281EA5F13D
:100390000105F3DC2046AFF300802078000602D58B
:1003A0000220BDE8F0870120FBE70000074B70B595
:1003B0000D467B4400F011F80446284600F020F872
:1003C00010B14FF0FF3070BD204670BDC368000013
:1003D00001694A1C02610878704700B58FB0CDE909
:1003E00001310021059105497944CDE903101146F9
:1003F0006846FFF71DFF0FB000BD0000E5FFFFFFDF
:10040000007B00F080007047754600F02BF8AE4688
:1004100005006946534620F00700854618B020B510
:10042000FFF7E6FEBDE820404FF000064FF0000762
:100430004FF000084FF0000B21F00701AC46ACE88C
:10044000C009ACE8C009ACE8C009ACE8C0098D46F9
:10045000704710B50446AFF300802046BDE8104059
:10046000FFF7B2BE004870473801002000BFFEE72A
:1004700010B500241548006820F00F0013490860EB
:100480000846006840F00800086004E0601CC4B240
:10049000012006F0CDFB0E48006808B1C82CF5DB42
:1004A000C82C01DB012010BD002404E0601CC4B294
:1004B000012006F0BDFB0648006808B9F02CF5DB0A
:1004C000F02C01DB0120EEE70020ECE70008014002
:1004D000000121422DE9F05F00F0CEF800F0AAF80B
:1004E000FFF7C6FFCC2000F0D3F8BE2000F0D0F814
:1004F00000F08EF8834600F08BF80446072C08DDE8
:10050000E043C4B26FEA0B0000F0FF0B4FF0000AAB
:1005100001E04FF0010AA1464FEA09200FFA80F9E5
:1005200009EB0B000FFA80F9484606F01EFD07465E
:100530000022094B06F044FD054606F0B9FC0FFA0F
:1005400080F9BAF1000F02D04846BDE8F09FC9F12A
:10055000000000B2F9E700000000E43F00B585B0FC
:1005600000BF0E48806940F004000C4988610846CD
:10057000806900F00400009000BF00BF01200190DE
:10058000029003900320049001A9054800F090F91F
:1005900000F050F8FFF76CFF05B000BD00100240FE
:1005A0000008014010B51748006820F00F001549F9
:1005B00008600846006840F0030008600020124907
:1005C0000860022006F034FB01201049C1F88001C8
:1005D0000C48006820F00F000A49086008460068CF
:1005E00040F0080008600C2006F022FB0648803826
:1005F000006808B1012400E00024322006F018FB56
:10060000204610BD00080140800121420000214227
:1006100070B50026012508E0FFF7C4FF0446E0019D
:1006200040EA6600C6B2681CC5B2082DF4DD30464B
:1006300070BD000010B50D48006820F00F000B4998
:1006400008600846006840F0030008600020084980
:10065000086040F2EE2006F0EBFA01200549C1F8EF
:1006600080010F2006F0E4FA10BD000000080140F0
:10067000800121420000214210B5FFF7DBFFFFF7A8
:10068000F7FECC2000F004F8442000F001F810BD83
:1006900070B504461848006820F00F00164908603D
:1006A0000846006840F003000860012520E004F0DF
:1006B000010664106EB1002010490860022006F0A7
:1006C000B7FA01200E49C1F880013C2006F0B0FACB
:1006D0000CE00020094908603C2006F0A9FA01203E
:1006E0000749C1F88001022006F0A2FA681CC5B2D1
:1006F000082DDCDD70BD00000008014080012142B2
:10070000000021427047000070B50446002594F8AF
:100710002100022803D00420A0630125C1E0206845
:10072000006820F00E00216808602068006820F052
:100730000100216808605C492068884252D95A4902
:1007400078392068884201D1012047E05649643950
:100750002068884201D1102040E053495039206878
:10076000884201D1801539E04F493C3920688842E0
:1007700001D1801432E04C4928392068884202D1E6
:100780004FF480302AE0484914392068884202D169
:100790004FF4801022E044492068884201D140048F
:1007A0001CE042492068884201D1012016E03F49FF
:1007B00014312068884201D110200FE03B492831D4
:1007C0002068884201D1801508E038493C31206812
:1007D000884201D1801401E04FF480303349091F71
:1007E000086051E0304978392068884201D1012001
:1007F00047E02D4964392068884201D1102040E04B
:10080000294950392068884201D1801539E02649AC
:100810003C392068884201D1801432E022492839CD
:100820002068884202D14FF480302AE01E491439F2
:100830002068884202D14FF4801022E01A492068D3
:10084000884201D140041CE018492068884201D147
:10085000012016E0154914312068884201D110208A
:100860000FE0124928312068884201D1801508E044
:100870000E493C312068884201D1801401E04FF4D8
:100880008030094980394860012084F8210000BF88
:10089000002084F8200000BF606B10B12046616B1F
:1008A0008847284670BD00008000024008040240CE
:1008B0002DE9F847024600239C467BE14FF00108F2
:1008C00008FA03F4D1F8008008EA0400A0427DD1C0
:1008D000DFF8F4A2D1F80480A8EB0A09D0453AD099
:1008E00014DCB8F1030F50D009DCB8F1000F31D09F
:1008F000B8F1010F1CD0B8F1020F49D120E0B8F1D6
:10090000110F18D0B8F1120F42D11EE0B9F5881FAF
:1009100025D006DCB9F5803F20D0B9F5801F37D14E
:100920001AE0B9F5001F18D0B9F5041F30D117E04F
:10093000D1F80CC02DE0D1F80C8008F1040C28E0AF
:10094000D1F80C8008F1080C23E0D1F80C8008F1F4
:100950000C0C1EE000BF00BF00BF00BF00BF00BF07
:10096000D1F80880B8F1000F02D14FF0040C0BE071
:10097000D1F80880B8F1010F03D14FF0080C1461D1
:1009800002E04FF0080C546103E04FF0000C00E06F
:1009900000BF00BFFF2801D8904601E002F1040823
:1009A0004646FF2802D84FEA830803E0A3F108086F
:1009B0004FEA88084746D6F800804FF00F0909FA39
:1009C00007F928EA09080CFA07F900E07AE048EA92
:1009D0000908C6F80080D1F8048008F08058B8F102
:1009E000805F6FD100BFDFF8E481D8F8188048F04D
:1009F0000108DFF8D891C9F81880C846D8F81880DF
:100A000008F00108CDF8008000BF00BF4FEAB938F8
:100A10004FEA930958F829504FEA83784FEA18793A
:100A20004FF00F0808FA09F825EA0805DFF8A08159
:100A3000424502D14FF0000824E0DFF8988142459A
:100A400002D14FF001081DE0DFF88C81424502D150
:100A50004FF0020816E0DFF88481424502D14FF0E2
:100A600003080FE0DFF87881424502D14FF0040817
:100A700008E0DFF87081424502D14FF0050801E03F
:100A80004FF006084FEA83794FEA197908FA09F816
:100A900048EA0505DFF850814FEA930948F82950E4
:100AA000D1F8048008F48038B8F5803F0BD1DFF826
:100AB0003C81D8F8008048EA0008DFF83091C9F896
:100AC00000800AE075E0DFF82481D8F8008028EA89
:100AD0000008DFF81891C9F80080D1F8048008F404
:100AE0000038B8F5003F0ED1DFF8008108F10408A6
:100AF000D8F8008048EA0008DFF8F09009F104090E
:100B0000C9F800800DE0DFF8E48008F10408D8F8A7
:100B1000008028EA0008DFF8D49009F10409C9F838
:100B20000080D1F8048008F48018B8F5801F0ED139
:100B3000DFF8B88008F10808D8F8008048EA000813
:100B4000DFF8A89009F10809C9F800800DE0DFF886
:100B50009C8008F10808D8F8008028EA0008DFF82F
:100B60008C9009F10809C9F80080D1F8048008F4D4
:100B70000018B8F5001F0ED1DFF8708008F10C08DE
:100B8000D8F8008048EA0008DFF8609009F10C0905
:100B9000C9F800800DE0DFF8548008F10C08D8F89F
:100BA000008028EA0008DFF8449009F10C09C9F830
:100BB00000805B1CD1F8008028FA03F8B8F1000F20
:100BC0007FF47CAEBDE8F8870000111000100240F1
:100BD00000080140000C01400010014000140140D9
:100BE00000180140001C01400800014000040140C1
:100BF0000AB1016101E00B0403617047014800681C
:100C00007047000004000020034800680349097889
:100C10000844014908607047040000200C000020CF
:100C200010B50848006840F010000649086005202B
:100C300000F080F80F2000F007F800F02BF80020FB
:100C400010BD00000020024070B504460E48007838
:100C50004FF47A71B1FBF0F00C490968B1FBF0F583
:100C6000284600F0F7FB08B1012070BD102C07D218
:100C700000222146501E00F01EF80548046001E0E5
:100C80000120F2E70020F0E70C0000200000002027
:100C900008000020704701460846002809DB00F0E4
:100CA0001F0301229A4043099B0003F1E023C3F88C
:100CB000002100BF70472DE9F05F80460D461646C3
:100CC000002705F081FF074639462A46334601F0E2
:100CD0000700C0F1070ABAF1040F02D94FF0040A65
:100CE00001E0C0F1070AD14600F1040ABAF1070F8A
:100CF00002D24FF0000A01E0A0F1030AD4464FF0FF
:100D0000010A0AFA09FAAAF1010A0AEA020A0AFA27
:100D10000CFA4FF0010B0BFA0CFBABF1010B0BEAD9
:100D2000030B4AEA0B042146404605F055FFBDE897
:100D3000F09F000000BF00F00702064B19684FF655
:100D4000FF031940044B0B4343EA0221014B196096
:100D500000BF70470CED00E00000FA0570B50446D6
:100D60000D460CB9012070BD5A48006800F007001C
:100D7000A8420ED25748006820F007002843554982
:100D800008600846006800F00700A84201D0012072
:100D9000E9E7207800F0020002281DD1207800F059
:100DA0000400042805D14C48406840F4E0604A49FA
:100DB0004860207800F00800082805D146484068BF
:100DC00040F46050444948604348406820F0F000D7
:100DD000A168084340494860207800F0010078B3DA
:100DE0006068012806D13C48006800F4003090B9E2
:100DF0000120B8E76068022806D13748006800F093
:100E0000007040B90120AEE73348006800F00200EE
:100E100008B90120A7E73048406820F00300616866
:100E200008432D494860FFF7E9FE064609E0FFF751
:100E3000E5FE801B41F28831884202D9032092E707
:100E400007E02548406800F00C006168B0EB810FB6
:100E5000EDD12048006800F00700A8420ED91D48D7
:100E6000006820F0070028431A4908600846006817
:100E700000F00700A84201D0012074E7207800F0BC
:100E80000400042807D11448406820F4E060E168B9
:100E9000084311494860207800F00800082808D16C
:100EA0000D48406820F46050216940EAC1000A49B9
:100EB000486000F03FF808494968C1F30311074A48
:100EC000515CC8400649086006480068FFF7BCFE50
:100ED000002048E70020024000100240BC710008DA
:100EE0000000002008000020014800687047000052
:100EF0000000002000B5FFF7F7FF04494968C1F37F
:100F00000221034A515CC84000BD000000100240AD
:100F1000CC71000800B5FFF7E7FF04494968C1F349
:100F2000C221034A515CC84000BD000000100240CD
:100F3000CC710008F0B585B00FF26C0C9CE8E010A5
:100F400001A8A0E8E0101CA52D6800950021002252
:100F5000002300240020194D696801F00C05F5B14B
:100F6000042D02D0082D19D101E0154819E001AD7A
:100F7000C1F38346AC5D01F4803555B10F4D6D680A
:100F8000C5F340451DF805200D4D6543B5FBF2F353
:100F900002E00C4D04FB05F3184602E000BF0848D0
:100FA00000BF00BF05B0F0BD020304050607080935
:100FB0000A0B0C0D0E0F1010010200000010024071
:100FC00000127A0000093D00F8B504460CB9012072
:100FD000F8BD207800F00100002878D0F84840687B
:100FE00000F00C0004280CD0F548406800F00C001C
:100FF000082811D1F248406800F48030B0F5803FF5
:101000000AD1EF48006800F4003000285FD0606823
:1010100000285CD10120DBE700BF6068B0F5803FAD
:1010200006D1E748006840F48030E549086028E0D0
:10103000606858B9E248006820F48030E0490860F0
:101040000846006820F4802008601AE06068B0F567
:10105000A02F0BD1DA48006840F48020D8490860FE
:101060000846006840F4803008600AE0D448006810
:1010700020F48030D24908600846006820F48020BF
:10108000086000BF606888B1FFF7B8FD054606E05C
:10109000FFF7B4FD401B642801D9032098E7C84836
:1010A000006800F400300028F2D010E0FFF7A6FD41
:1010B000054606E0FFF7A2FD401B642801D9032086
:1010C00086E7BF48006800F400300028F2D120789D
:1010D00000F00200022857D1B948406800F00C0027
:1010E00050B1B748406800F00C00082818D1B44847
:1010F000406800F4803098B9B148006800F0020000
:1011000020B12069012801D0012061E7AC480068C6
:1011100020F0F800616940EAC100A949086033E0A5
:101120002069E8B10120A7490860FFF767FD05467F
:1011300006E0FFF763FD401B022801D9032047E7C3
:101140009F48006800F002000028F2D09C48006828
:1011500020F0F800616940EAC1009949086013E095
:10116000002098490860FFF749FD054606E0FFF7B3
:1011700045FD401B022801D9032029E7904800685B
:1011800000F002000028F2D1207800F008000828C2
:101190002DD1A069B8B101208B490860FFF72EFD61
:1011A000054606E0FFF72AFD401B022801D903206F
:1011B0000EE78348406A00F002000028F2D00120C8
:1011C00005F0EEFA13E000207F490860FFF716FDF6
:1011D000054606E0FFF712FD401B022801D9032057
:1011E000F6E67748406A00F002000028F2D1207845
:1011F00000F00400042873D100277148C06900F092
:10120000805070B900BF6E48C06940F080506C4992
:10121000C8610846C06900F08050009000BF00BF60
:1012200001276A48006800F48070B0B96748006818
:1012300040F4807065490860FFF7E0FC054606E071
:10124000FFF7DCFC401B642801D90320C0E65F489F
:10125000006800F480700028F2D000BFE068012828
:1012600006D15748006A40F001005549086227E05E
:10127000E06858B95248006A20F0010050490862FD
:101280000846006A20F00400086219E0E0680528BA
:101290000BD14B48006A40F00400494908620846F7
:1012A000006A40F0010008620AE04548006A20F048
:1012B0000100434908620846006A20F00400086201
:1012C00000BFE068A0B1FFF799FC054609E0FFF711
:1012D00095FC401B41F28831884202D9032077E611
:1012E00022E03748006A00F002000028EFD012E048
:1012F000FFF784FC054608E0FFF780FC401B41F245
:101300008831884201D9032062E62D48006A00F046
:1013100002000028F0D1012F05D12948C06920F032
:1013200080502749C86100BFE069C8B324484068BD
:1013300000F00C00082860D0E069022848D10020A5
:1013400020490866FFF75AFC054606E0FFF756FC01
:10135000401B022801D903203AE61948006800F032
:1013600000700028F2D1206AB0F5803F07D1144800
:10137000406820F40030A168084311494860D4E96E
:10138000080108430E49496821F4741108430C49C7
:10139000486001200B490866FFF730FC054607E06E
:1013A0003DE0FFF72BFC401B022801D903200FE68C
:1013B0000348006800F000700028F2D02FE0000021
:1013C000001002400000424280044242007000408F
:1013D000002014490866FFF711FC054606E0FFF7F8
:1013E0000DFC401B022801D90320F1E50E480068DE
:1013F00000F000700028F2D111E0E069012800D16E
:10140000E6E50948466806F48031206A814204D145
:1014100006F47011606A814201D00120D8E50020F5
:10142000D6E500000000424200100240042808D126
:101430004FF0E021096941F004014FF0E022116111
:1014400007E04FF0E021096921F004014FF0E022AC
:101450001161704770B504462546681EB0F1807F63
:1014600001D301200FE0681E4FF0E02148610F21F9
:101470004FF0FF3005F0B0FB00204FF0E021886115
:1014800007200861002070BD70470146002200233C
:1014900091F8392091F83A3042EA03007047000091
:1014A0002DE9F0470446206805682068C668206872
:1014B00047694FF00008C14605F00F08B8F1000F6A
:1014C0000AD105F0200038B106F0200020B12046F6
:1014D00005F000FABDE8F087B8F1000F6DD007F015
:1014E000010018B906F49070002866D005F00100DC
:1014F00030B106F4807018B1E06B40F00100E06399
:1015000005F0040030B107F0010018B1E06B40F0C5
:101510000200E06305F0020030B107F0010018B1ED
:10152000E06B40F00400E06305F0080030B107F024
:10153000010018B1E06B40F00800E063E06B68B3B5
:1015400005F0200028B106F0200010B1204605F07B
:10155000C1F920684069C0F38019E06B00F0080011
:1015600010B9B9F1000F22D0204605F093F9206898
:10157000406900F04000B0B12068406920F04000B0
:1015800021684861606B50B11748616B4863606BBC
:10159000FFF7BAF810B1606B416B88470CE020464A
:1015A000FFF772FF08E02046FFF76EFF04E02046D9
:1015B000FFF76AFF0020E0638CE705F0800030B1A0
:1015C00006F0800018B1204605F0A8FA82E705F081
:1015D000400030B106F0400018B1204605F06AF92D
:1015E00078E700BF76E700008168000810B5044680
:1015F0000CB9012010BDA06900B100E000BF94F853
:10160000390028B9002084F83800204600F028F876
:10161000242084F839002068C06820F40050216834
:10162000C860204605F0AAF92068006920F49040BF
:10163000216808612068406920F02A00216848611B
:101640002068C06840F400502168C8600020E06352
:10165000202084F8390084F83A000020CAE700000E
:1016600010B586B0044625492068884244D100BFA1
:101670002348806940F00400214988610846806958
:1016800000F00400019000BF00BF00BF0846806961
:1016900040F4804088610846806900F480400190F1
:1016A00000BF00BF00BF0846806940F001008861AC
:1016B0000846806900F00100019000BF00BF481596
:1016C000029002200390012004900320059002A9BB
:1016D0000C48FFF7EDF84FF4806002900020039073
:1016E00002A90848FFF7E4F82520FFF7D4FA0322FF
:1016F00011462520FFF7DFFA06B010BD0038014083
:10170000001002400008014010B5034693F83A006B
:1017100020282FD101B10AB9012010BD00BF93F8D4
:101720003800012801D10220F7E7012083F83800B2
:1017300000BF99629A85DA850020D863222083F859
:101740003A0000BF002083F8380000BF1868C06866
:1017500040F480701C68E0601868406940F0010047
:101760001C6860611868C06840F020001C68E06078
:101770000020D2E70220D0E71D4A0168914236D10D
:101780001C49098801F4004189BB1A49098801F400
:10179000804171B1184909780A2903D00021154AFE
:1017A000118024E01349098841F40041114A118055
:1017B0001DE0114909780D2906D10E49098841F427
:1017C00080410C4A118012E00B490978094A1288BD
:1017D000C2F30D02094B995406490988491C054A70
:1017E000118011460988C72901DD00211180704749
:1017F00000380140180000201A00002020000020BE
:10180000704700BFFEE7000000B585B000BF1C4870
:10181000806940F004001A4988610846806900F038
:101820000400009000BF00BF00BF0846806940F080
:10183000100088610846806900F01000009000BF29
:1018400000BF01200190002002900220039003209D
:10185000049001A90B48FFF72BF84FF400400190CA
:101860000120039001A90748FFF722F820200190EA
:101870000120039001A90448FFF71AF805B000BD44
:1018800000100240000801400010014070B50446FD
:1018900000261D480588408845431B48808846F639
:1018A0000401884216D118488079012812D10020FD
:1018B000154988712A2048812B20888100210846FB
:1018C00004F0F6FB0120104988712B2048812A2062
:1018D000888103E00021084604F0EAFB04F0FCFEE6
:1018E00000260DE04FF4807008490861400048610F
:1018F0000748046080204861086180000861761C08
:10190000AE42EFD370BD000028010020001001405E
:101910000C0C014010B50446002C66D16C4988714E
:10192000F02008804FF4A07048800846808849F273
:10193000413188420BD06648808846F604018842CF
:1019400005D06348808845F2103188421AD12C2096
:101950005F4908812A2048812B2088810846808899
:1019600046F60401884205D05948808845F2103176
:10197000884206D14FF4A070554908804FF4F070AA
:101980004880A1E05248808845F21051884210D129
:101990004FF430504E4908814FF4285048814FF49D
:1019A0002C5088814FF4F07008804FF448704880C4
:1019B0008AE04748808841F6631188420DD12C2087
:1019C000434908812B2048812A2088814FF4F070F8
:1019D00008804FF44870488076E022203C49088116
:1019E00020204881212088816EE0012038498871BB
:1019F0004FF4A0700880F02048800846808849F2A3
:101A00004131884205D03248808845F21031884201
:101A100007D12C202E4908812A2048812B2088813B
:101A20003FE02B48808846F60401884207D12C20ED
:101A3000274908812B2048812A20888131E02448C9
:101A4000808845F21051884210D14FF4305020491F
:101A500008814FF4285048814FF42C5088814FF46E
:101A6000487008804FF4F07048801AE01848808869
:101A700041F6631188420DD12C20154908812A2096
:101A800048812B2088814FF4487008804FF4F07013
:101A9000488006E022200E4908812120488120202C
:101AA00088810B48808846F60401884205D00848A2
:101AB000808845F21031884206D14FF4F070044915
:101AC00008804FF4A0704880002004F0C5F810BDD5
:101AD0002801002070B504460D461646D34880887C
:101AE00049F24131884205D0D048808845F2103112
:101AF000884240D1CD49488904F0DCFD4FF4807024
:101B0000CB490861400048612012CA490860802022
:101B1000C7494861086180000861401008614000C1
:101B20004861E0B2C34908608020C149486108614A
:101B300080000861BD49888904F0BCFD4FF48070C5
:101B4000BB490861400048612812BA4908608020FA
:101B5000B749486108618000086140100861400091
:101B60004861E8B2B34908608020B1494861086122
:101B7000800008613DE1AD48808845F210518842FF
:101B800050D1AA49488904F095FD4FF48070A849C6
:101B90000861400048612012A64908608020A449DD
:101BA0004861086180000861A0494989491C88B2E0
:101BB00004F080FD4FF480709D4908614000486149
:101BC000E0B29C4908608020994948610861800022
:101BD00008619649888904F06DFD4FF4807094493E
:101BE00008614000486128129249086080209049AD
:101BF00048610861800008618C498989491C88B264
:101C000004F058FD4FF48070894908614000486134
:101C1000E8B28849086080208549486108618000F1
:101C20000861E6E08148808841F6631188427DD1F1
:101C30007E48807920B97D480088401E001B84B210
:101C40007A49488904F036FD4FF48070784908617C
:101C5000400048612012774908608020744948613B
:101C60000861800008614010086140004861E0B2EE
:101C70007049086080206E494861086180000861F1
:101C8000401008614000486120126A4908608020C5
:101C900067494861086180000861401008614000A0
:101CA0004861E0B263490860802061494861086189
:101CB000800008615D49888904F0FCFC4FF4807065
:101CC0005B4908614000486128125A490860802039
:101CD0005749486108618000086140100861400070
:101CE0004861E8B253490860802051494861086161
:101CF00080000861401008614000486128124D4989
:101D0000086080204A4948610861800008614010ED
:101D1000086140004861E8B24649086080204449B3
:101D2000486108618000086163E0FFE73F48808800
:101D300046F60401884249D13C488079012804D103
:101D40003A480088401E001B84B23849488904F094
:101D5000B1FC4FF4807036490861400048612012A0
:101D60003449086080203249486108618000086178
:101D70004010086140004861E0B22E4908608020B0
:101D80002B4948610861800008612849888904F06E
:101D900091FC4FF480702649086140004861281288
:101DA0002449086080202249486108618000086158
:101DB0004010086140004861E8B21E490860802078
:101DC0001B49486108618000086112E0174880796A
:101DD000012804D115480088401E001B84B2134915
:101DE0004889214604F080FC10498889294604F07E
:101DF0007BFC4FF480700E494861400048610B48FD
:101E000000890C4908608020094948610861800008
:101E10000861401008614000486106480660802063
:101E2000486108618000086170BD00002801002041
:101E3000001001400C0C01402DE9FC4F05460E46F8
:101E400017469846DDF82C90002001902C48808899
:101E500046F60401884229D129488079012825D1F4
:101E6000AB46354626480088C01B401E86B2474612
:101E700023480088A0EB0B00401E1FFA80F80020CA
:101E80001F4988712A2048812B20888143463A4681
:101E900031462846CDF80090FFF7CEFF01201849C3
:101EA00088712B2048812A20888127E0781B401CDC
:101EB00080B2019034461FE02146284604F0F8F82D
:101EC00004F00AFC4FF0000A11E04FF480700D4955
:101ED0000861400048610C48C0F8009080204861CB
:101EE0000861800008610AF101001FFA80FA019878
:101EF0008245EADB601C84B24445DDDDBDE8FC8F31
:101F000028010020001001400C0C014000B585B0F4
:101F100000BFFE48806940F00800FC49886108461F
:101F2000806900F00800009000BF00BF00BF0846B5
:101F3000806940F0100088610846806900F0100058
:101F4000009000BF00BF4FF4F860019001200290A4
:101F500003900320049001A9ED48FEF7A9FC4FF679
:101F6000FF70019001A9EB48FEF7A2FC00BFEA490F
:101F7000486820F0E06040F08060486000BF322098
:101F800004F04AFE0121002004F0AEFB322004F0F0
:101F900043FE002003F0EEFDE0498880084680887B
:101FA000FF280ADB084680884FF6FF71884204D07C
:101FB000DA488088B0F5134F7ED1D32004F07AFB45
:101FC00003F0A0FD03F09EFD03F09CFDD349888043
:101FD000084680884FF6FF7101EA0020CF498880CB
:101FE00003F090FDCD4989880843CC498880084694
:101FF000808849F2413188425ED0BF2004F05AFB0C
:1020000003F080FD03F07EFD03F07CFD03F07AFD1C
:10201000C2498880084680884FF6FF7101EA002097
:10202000BE49888003F06EFDBC4989880843BB49DE
:1020300088800846808846F60401884274D0D420FF
:1020400004F038FB03F05EFD03F05CFD03F05AFD85
:10205000B2498880084680884FF6FF7101EA002067
:10206000AE49888003F04EFDAC4989880843AB49EE
:1020700088800846808845F21031884254D04FF459
:102080005A4004F017FB03F03DFD4FF45B4004F0B1
:1020900011FB03F037FDA1498880084680884FF680
:1020A000FF7101EA00209D4988804FF45C4004F0F4
:1020B00001FB03F027FD00E036E0984989880843DA
:1020C0009649888008468088B0F5004F02D145F2D5
:1020D000105088809148808845F21051884223D062
:1020E000A12004F0E7FA03F00DFD8C49888003F08D
:1020F00009FD8A498880084680884FF6FF7101EA09
:1021000000208649888003F0FDFC844989880843C3
:10211000824988800846808845F26171884203D1EF
:1021200041F663107D4988807C4881887CA0FEF759
:1021300073F87A48808849F2413188427ED1CF20B5
:1021400004F0B8FA002004F0A3FAC12004F0A0FAC9
:10215000302004F09DFAED2004F0ACFA642004F085
:1021600097FA032004F094FA122004F091FA8120E7
:1021700004F08EFAE82004F09DFA852004F088FA35
:10218000102004F085FA7A2004F082FACB2004F0C3
:1021900091FA392004F07CFA2C2004F079FA00201E
:1021A00004F076FA342004F073FA022004F070FA96
:1021B000F72004F07FFA202004F06AFAEA2004F005
:1021C00079FA002004F064FA002004F061FAC020DB
:1021D00004F070FA1B2004F05BFAC12004F06AFAE4
:1021E000012004F055FAC52004F064FA302004F010
:1021F0004FFA302004F04CFAC72004F05BFAB72005
:1022000004F046FA362004F055FA482004F040FA6B
:102210003A2004F04FFA552004F03AFAB12004F0C5
:1022200049FA002004F034FA1A2004F031FAB620FA
:1022300004F040FA0A2004F02BFA00E0AAE0A22001
:1022400004F026FAF22004F035FA002004F020FA17
:10225000262004F02FFA012004F01AFAE02004F0FE
:1022600029FA0F2004F014FA2A2004F011FA282089
:1022700004F00EFA082004F00BFA0E2004F008FA1D
:10228000082004F005FA542004F002FAA92004F012
:10229000FFF9432004F0FCF90A2004F0F9F90F20BB
:1022A00004F0F6F9002004F0F3F9002004F0F0F94E
:1022B000002004F0EDF9002004F0EAF9E12004F038
:1022C000F9F9002004F0E4F9152004F0E1F91720F1
:1022D00004F0DEF9072004F0DBF9112004F0D8F94E
:1022E000062004F0D5F92B2004F0D2F9562004F092
:1022F000CFF93C2004F0CCF9052004F0C9F91020F6
:1023000004F0C6F90F2004F0C3F911E000100240F8
:1023100000100140000C0140000001402801002095
:10232000204C43442049443A25780D0A000000001F
:102330003F2004F0ADF93F2004F0AAF90F2004F08B
:10234000A7F92B2004F0B6F9002004F0A1F9002031
:1023500004F09EF9012004F09BF93F2004F098F965
:102360002A2004F0A7F9002004F092F9002004F0DC
:102370008FF9002004F08CF9EF2004F089F9112086
:1023800004F098F9782004F047FC292004F092F931
:1023900003F099BBFE48808846F6040188427CD150
:1023A000112004F087F9142004F036FCD02004F04A
:1023B00081F9072004F06CF9422004F069F91D202E
:1023C00004F066F9D12004F075F9002004F060F9FA
:1023D0001A2004F05DF9092004F05AF9D22004F023
:1023E00069F9012004F054F9222004F051F9C020C9
:1023F00004F060F9102004F04BF93B2004F048F998
:10240000002004F045F9022004F042F9112004F004
:102410003FF9C52004F04EF9032004F039F9C82033
:1024200004F048F9002004F033F9252004F030F9D5
:10243000212004F02DF9052004F02AF9002004F0F1
:1024400027F90A2004F024F9652004F021F9252059
:1024500004F01EF9772004F01BF9502004F018F95D
:102460000F2004F015F9002004F012F9F82004F010
:1024700021F9012004F00CF9FE2004F01BF90020E2
:1024800004F006F9022004F003F9202004F012F908
:10249000362004F00FF9082000E02CE004F0F8F8F2
:1024A0003A2004F007F9552004F0F2F82B2004F04C
:1024B00001F9002004F0ECF8002004F0E9F8012014
:1024C00004F0E6F83F2004F0E3F82A2004F0F2F8E4
:1024D000002004F0DDF8002004F0DAF8012004F018
:1024E000D7F8DF2004F0D4F8782004F095FB2920F9
:1024F00004F0E0F84CE7A648808845F210318842A5
:1025000040F07C87ED2004F0D5F8012004F0C0F8FD
:10251000FE2004F0BDF8EE2004F0CCF8DE2004F03C
:10252000B7F8212004F0B4F8F12004F0C3F801203A
:1025300004F0AEF8DF2004F0BDF8102004F0A8F895
:10254000C42004F0B7F88F2004F0A2F8C62004F0ED
:10255000B1F8002004F09CF8E22004F099F8E220A1
:1025600004F096F8E22004F093F8BF2004F0A2F8FB
:10257000AA2004F08DF8B02004F09CF80D2004F09F
:1025800087F8002004F084F80D2004F081F8002082
:1025900004F07EF8112004F07BF8002004F078F8B5
:1025A000192004F075F8002004F072F8212004F0DE
:1025B0006FF8002004F06CF82D2004F069F800207A
:1025C00004F066F83D2004F063F8002004F060F8A1
:1025D0005D2004F05DF8002004F05AF85D2004F05E
:1025E00057F8002004F054F8B12004F063F880207C
:1025F00004F04EF8002004F04BF88B2004F048F86B
:10260000002004F045F8962004F042F8002004F081
:102610003FF8B22004F04EF8002004F039F8002012
:1026200004F036F8022004F033F8002004F030F80B
:10263000032004F02DF8002004F02AF8B32004F061
:1026400039F8002004F024F8002004F021F80020DC
:1026500004F01EF8002004F01BF8002004F018F825
:10266000002004F015F8002004F012F8002004F017
:102670000FF8002004F00CF8002004F009F8002006
:1026800004F006F8002004F003F8002004F000F83D
:10269000002003F0FDFF002003F0FAFF002003F00C
:1026A000F7FF002003F0F4FF002003F0F1FF00200B
:1026B00003F0EEFF002003F0EBFF002003F0E8FF43
:1026C000002003F0E5FF002003F0E2FF002003F00C
:1026D000DFFFB42003F0EEFF8B2003F0D9FF0020D2
:1026E00003F0D6FF962003F0D3FF002003F0D0FFC5
:1026F000A12003F0CDFF002003F0CAFFB52003F0B6
:10270000D9FF022003F0C4FF002003F0C1FF032023
:1027100003F0BEFF002003F0BBFF042003F0B8FF6E
:10272000002003F0B5FFB62003F0C4FF002003F043
:10273000AFFF002003F0ACFFB72003F0BBFF002089
:1027400003F0A6FF002003F0A3FF3F2003F0A0FF4B
:10275000002003F09DFF5E2003F09AFF002003F0AD
:1027600097FF642003F094FF002003F091FF8C207A
:1027700003F08EFF002003F08BFFAC2003F088FFF6
:10278000002003F085FFDC2003F082FF002001E041
:102790002801002003F07CFF702003F079FF002067
:1027A00003F076FF902003F073FF002003F070FF2A
:1027B000EB2003F06DFF002003F06AFFDC2003F044
:1027C00067FF002003F064FFB82003F073FF0020D0
:1027D00003F05EFF002003F05BFF002003F058FFD2
:1027E000002003F055FF002003F052FF002003F00B
:1027F0004FFF002003F04CFF002003F049FFBA20F8
:1028000003F058FF242003F043FF002003F040FFB3
:10281000002003F03DFF002003F03AFFC12003F049
:1028200049FF202003F034FF002003F031FF542043
:1028300003F02EFF002003F02BFFFF2003F028FF02
:10284000002003F025FFC22003F034FF0A2003F02C
:102850001FFF002003F01CFF042003F019FF0020DD
:1028600003F016FFC32003F025FF3C2003F010FF08
:10287000002003F00DFF3A2003F00AFF002003F0D0
:1028800007FF392003F004FF002003F001FF372089
:1028900003F0FEFE002003F0FBFE3C2003F0F8FEF8
:1028A000002003F0F5FE362003F0F2FE002003F0D6
:1028B000EFFE322003F0ECFE002003F0E9FE2F20B3
:1028C00003F0E6FE002003F0E3FE2C2003F0E0FE20
:1028D000002003F0DDFE292003F0DAFE002003F0E3
:1028E000D7FE262003F0D4FE002003F0D1FE2420E2
:1028F00003F0CEFE002003F0CBFE242003F0C8FE40
:10290000002003F0C5FE232003F0C2FE002003F0E8
:10291000BFFE3C2003F0BCFE002003F0B9FE3620D1
:1029200003F0B6FE002003F0B3FE322003F0B0FE49
:10293000002003F0ADFE2F2003F0AAFE002003F0DC
:10294000A7FE2C2003F0A4FE002003F0A1FE292006
:1029500003F09EFE002003F09BFE262003F098FE6D
:10296000002003F095FE242003F092FE002003F0E7
:102970008FFE242003F08CFE002003F089FE23202C
:1029800003F086FE002003F083FEC42003F092FED5
:10299000622003F07DFE002003F07AFE052003F0A4
:1029A00077FE002003F074FE842003F071FE002007
:1029B00003F06EFEF02003F06BFE002003F068FED3
:1029C000182003F065FE002003F062FEA42003F04F
:1029D0005FFE002003F05CFE182003F059FE00208B
:1029E00003F056FE502003F053FE002003F050FE8B
:1029F0000C2003F04DFE002003F04AFE172003F0E8
:102A000047FE002003F044FE952003F041FE002025
:102A100003F03EFEF32003F03BFE002003F038FEFF
:102A2000E62003F035FE002003F032FEC52003F05F
:102A300041FE322003F02CFE002003F029FE44204A
:102A400003F026FE002003F023FE652003F020FEA5
:102A5000002003F01DFE762003F01AFE002003F094
:102A600017FE882003F014FE002003F011FEC6209C
:102A700003F020FE202003F00BFE002003F008FEF0
:102A8000172003F005FE002003F002FE012003F0F2
:102A9000FFFD002003F0FCFDC72003F00BFE00202B
:102AA00003F0F6FD002003F0F3FD002003F0F0FD3D
:102AB000002003F0EDFDC82003F0FCFD002003F032
:102AC000E7FD002003F0E4FD002003F0E1FD00201D
:102AD00003F0DEFDC92003F0EDFD002003F0D8FD7A
:102AE000002003F0D5FD002003F0D2FD002003F00C
:102AF000CFFD002003F0CCFD002003F0C9FD002035
:102B000003F0C6FD002003F0C3FD002003F0C0FD6C
:102B1000002003F0BDFD002003F0BAFD002003F00B
:102B2000B7FD002003F0B4FD002003F0B1FD00204C
:102B300003F0AEFD002003F0ABFDE02003F0BAFD92
:102B4000162003F0A5FD002003F0A2FD1C2003F0D9
:102B50009FFD002003F09CFD212003F099FD002043
:102B600003F096FD362003F093FD002003F090FD66
:102B7000462003F08DFD002003F08AFD522003F073
:102B800087FD002003F084FD642003F081FD002018
:102B900003F07EFD7A2003F07BFD002003F078FD3A
:102BA0008B2003F075FD002003F072FD992003F0E7
:102BB0006FFD002003F06CFDA82003F069FD0020EC
:102BC00003F066FDB92003F063FD002003F060FD13
:102BD000C42003F05DFD002003F05AFDCA2003F07D
:102BE00057FD002003F054FDD22003F051FD0020DA
:102BF00003F04EFDD92003F04BFD002003F048FD0B
:102C0000E02003F045FD002003F042FDF32003F037
:102C10003FFD002003F03CFDE12003F04BFD1620BA
:102C200003F036FD002003F033FD1C2003F030FDDF
:102C3000002003F02DFD222003F02AFD002003F0E8
:102C400027FD362003F024FD002003F021FD452060
:102C500003F01EFD002003F01BFD522003F018FDC1
:102C6000002003F015FD642003F012FD002003F0A6
:102C70000FFD7A2003F00CFD002003F009FD8B20EE
:102C800003F006FD002003F003FD992003F000FD92
:102C9000002003F0FDFCA82003F0FAFC002003F064
:102CA000F7FCB92003F0F4FC002003F0F1FCC42091
:102CB00003F0EEFC002003F0EBFCCA2003F0E8FC7C
:102CC000002003F0E5FCD22003F0E2FC002003F03A
:102CD000DFFCD82003F0DCFC002003F0D9FCE0206E
:102CE00003F0D6FC002003F0D3FCF32003F0D0FC6B
:102CF000002003F0CDFCE22003F0DCFC052003F013
:102D0000C7FC002003F0C4FC0B2003F0C1FC002032
:102D100003F0BEFC1B2003F0BBFC002003F0B8FC5A
:102D2000342003F0B5FC002003F0B2FC442003F093
:102D3000AFFC002003F0ACFC4F2003F0A9FC002006
:102D400003F0A6FC612003F0A3FC002003F0A0FC2C
:102D5000792003F09DFC002003F09AFC882003F00A
:102D600097FC002003F094FC972003F091FC0020D6
:102D700003F08EFCA62003F08BFC002003F088FCFF
:102D8000B72003F085FC002003F082FCC22003F092
:102D90007FFC002003F07CFCC72003F079FC0020BE
:102DA00003F076FCD12003F073FC002003F070FCEC
:102DB000D62003F06DFC002003F06AFCDD2003F058
:102DC00067FC002003F064FCF32003F061FC0020AA
:102DD00003F05EFCE32003F06DFC052003F058FCDB
:102DE000002003F055FC0A2003F052FC002003F001
:102DF0004FFC1C2003F04CFC002003F049FC332066
:102E000003F046FC002003F043FC442003F040FCA8
:102E1000002003F03DFC502003F03AFC002003F0BA
:102E200037FC622003F034FC002003F031FC7820F2
:102E300003F02EFC002003F02BFC882003F028FC7C
:102E4000002003F025FC972003F022FC002003F073
:102E50001FFCA62003F01CFC002003F019FCB72087
:102E600003F016FC002003F013FCC22003F010FC5A
:102E7000002003F00DFCC72003F00AFC002003F043
:102E800007FCD12003F004FC002003F001FCD52056
:102E900003F0FEFB002003F0FBFBDD2003F0F8FB5A
:102EA000002003F0F5FBF32003F0F2FB002003F019
:102EB000EFFBE42003F0FEFB012003F0E9FB002020
:102EC00003F0E6FB012003F0E3FB002003F0E0FB4E
:102ED000022003F0DDFB002003F0DAFB2A2003F0E0
:102EE000D7FB002003F0D4FB3C2003F0D1FB0020F3
:102EF00003F0CEFB4B2003F0CBFB002003F0C8FB1C
:102F00005D2003F0C5FB002003F0C2FB742003F03A
:102F1000BFFB002003F0BCFB842003F0B9FB0020C2
:102F200003F0B6FB932003F0B3FB002003F0B0FBEB
:102F3000A22003F0ADFB002003F0AAFBB32003F0B6
:102F4000A7FB002003F0A4FBBE2003F0A1FB0020A0
:102F500003F09EFBC42003F09BFB002003F098FBD2
:102F6000CD2003F095FB002003F092FBD32003F06B
:102F70008FFB002003F08CFBDD2003F089FB002099
:102F800003F086FBF32003F083FB002003F080FBBB
:102F9000E52003F08FFB002003F07AFB002003F014
:102FA00077FB002003F074FB002003F071FB02208C
:102FB00003F06EFB002003F06BFB292003F068FB9D
:102FC000002003F065FB3C2003F062FB002003F0CF
:102FD0005FFB4B2003F05CFB002003F059FB5D20FE
:102FE00003F056FB002003F053FB742003F050FB6A
:102FF000002003F04DFB842003F04AFB002003F087
:1030000047FB932003F044FB002003F041FBA22088
:1030100003F03EFB002003F03BFBB32003F038FB42
:10302000002003F035FBBE2003F032FB002003F04C
:103030002FFBC42003F02CFB002003F029FBCD2044
:1030400003F026FB002003F023FBD32003F020FB3A
:10305000002003F01DFBDC2003F01AFB002003F02E
:1030600017FBF32003F014FB002003F011FBE62014
:1030700003F020FB112003F00BFB002003F008FB02
:10308000342003F005FB002003F002FB562003F080
:10309000FFFA002003F0FCFA762003F0F9FA002092
:1030A00003F0F6FA772003F0F3FA002003F0F0FAC9
:1030B000662003F0EDFA002003F0EAFA882003F01E
:1030C000E7FA002003F0E4FA992003F0E1FA002087
:1030D00003F0DEFABB2003F0DBFA002003F0D8FA9D
:1030E000992003F0D5FA002003F0D2FA662003F00D
:1030F000CFFA002003F0CCFA552003F0C9FA0020E3
:1031000003F0C6FA552003F0C3FA002003F0C0FA1A
:10311000452003F0BDFA002003F0BAFA432003F083
:10312000B7FA002003F0B4FA442003F0B1FA00200B
:1031300003F0AEFAE72003F0BDFA322003F0A8FA5C
:10314000002003F0A5FA552003F0A2FA002003F0B6
:103150009FFA762003F09CFA002003F099FA66208B
:1031600003F096FA002003F093FA672003F090FA38
:10317000002003F08DFA672003F08AFA002003F0A4
:1031800087FA872003F084FA002003F081FA99205F
:1031900003F07EFA002003F07BFABB2003F078FAFC
:1031A000002003F075FA992003F072FA002003F072
:1031B0006FFA772003F06CFA002003F069FA4420DC
:1031C00003F066FA002003F063FA562003F060FA79
:1031D000002003F05DFA232003F05AFA002003F0E8
:1031E00057FA332003F054FA002003F051FA452037
:1031F00003F04EFA002003F04BFAE82003F05AFAED
:10320000002003F045FA002003F042FA992003F071
:103210003FFA002003F03CFA872003F039FA00203F
:1032200003F036FA882003F033FA002003F030FA76
:10323000772003F02DFA002003F02AFA662003F02D
:1032400027FA002003F024FA882003F021FA002056
:1032500003F01EFAAA2003F01BFA002003F018FA6C
:10326000BB2003F015FA002003F012FA992003F0B6
:103270000FFA002003F00CFA662003F009FA002090
:1032800003F006FA552003F003FA002003F000FAD9
:10329000552003F0FDF9002003F0FAF9442003F073
:1032A000F7F9002003F0F4F9442003F0F1F90020CD
:1032B00003F0EEF9552003F0EBF9002003F0E8F9F4
:1032C000E92003F0F7F9AA2003F0E2F9002003F067
:1032D000DFF9002003F0DCF9002003F0D9F9002029
:1032E00003F0E8F9AA2003F0D3F9CF2003F0E2F9C4
:1032F000002003F0CDF9002003F0CAF9002003F00C
:10330000C7F9002003F0C4F9002003F0C1F9002040
:1033100003F0BEF9002003F0BBF9002003F0B8F978
:10332000002003F0B5F9002003F0B2F9002003F00B
:10333000AFF9002003F0ACF9002003F0A9F9002058
:1033400003F0A6F9002003F0A3F9002003F0A0F990
:10335000002003F09DF9F02003F0ACF9002003F009
:1033600097F9502003F094F9002003F091F9002020
:1033700003F08EF9002003F08BF9F32003F09AF9A3
:10338000002003F085F9F92003F094F9062003F0FA
:103390007FF9102003F07CF9292003F079F900204F
:1033A00003F076F93A2003F085F9552003F070F91F
:1033B000112003F07FF9642003F02EFC292003F094
:1033C00079F9352003F076F9002003F061F95120F6
:1033D00003F070F9FF2003F05BF9532003F06AF962
:1033E0002C2003F055F9552003F064F9822003F0F6
:1033F0004FF92C2003F05EF902F065BBFE4880888F
:1034000045F2105188427DD155214FF4704003F0B0
:103410006BF9AA214FF2010003F066F952214FF235
:10342000020003F061F908214FF2030003F05CF998
:1034300001214FF2040003F057F90D214FF4304001
:1034400003F052F90D214BF2010003F04DF90D216B
:103450004BF2020003F048F934214FF4364003F0F8
:1034600043F934214BF2016003F03EF934214BF271
:10347000026003F039F90D214FF4314003F034F9C3
:103480000D214BF2011003F02FF90D214BF2021028
:1034900003F02AF934214FF4374003F025F93421A1
:1034A0004BF2017003F020F934214BF2027003F06B
:1034B0001BF900214FF4324003F016F900214BF2C2
:1034C000012003F011F900214BF2022003F00CF966
:1034D00024214FF4384003F007F924214BF6010072
:1034E00003F002F924214BF6020003F0FDF801215C
:1034F0004FF43F4003F0F8F80F214FF4334003F04E
:10350000F3F800E0FDE30F214BF2013003F0ECF89B
:103510000F214BF2023003F0E7F834214FF4394029
:1035200003F0E2F834214BF6011003F0DDF834210A
:103530004BF6021003F0D8F808214FF4354003F0A1
:10354000D3F808214BF2015003F0CEF808214BF2DA
:10355000025003F0C9F803214FF4424003F0C4F8CD
:1035600024214FF43A4003F0BFF824214BF6012008
:1035700003F0BAF824214BF6022003F0B5F800213D
:103580004FF43C4003F0B0F878214BF6014003F0D3
:10359000ABF800214BF6024003F0A6F800214FF4EF
:1035A0003D4003F0A1F878214BF6015003F09CF860
:1035B00000214BF6025003F097F800214FF43E40F3
:1035C00003F092F864214BF6016003F08DF80021BE
:1035D0004FF4514003F088F833214DF2011003F00D
:1035E00083F800214DF2021003F07EF834214DF2F1
:1035F000031003F079F800214DF2041003F074F881
:103600003A214DF2051003F06FF800214DF206103B
:1036100003F06AF84A214DF2071003F065F8002123
:103620004DF2081003F060F85C214DF2091003F030
:103630005BF800214DF20A1003F056F881214DF29B
:103640000B1003F051F800214DF20C1003F04CF870
:10365000A6214DF20D1003F047F800214DF20E1097
:1036600003F042F8E5214DF20F1003F03DF801217F
:103670004DF2101003F038F813214DF2111003F041
:1036800033F801214DF2121003F02EF854214DF2BF
:10369000131003F029F801214DF2141003F024F85F
:1036A00082214DF2151003F01FF801214DF2161082
:1036B00003F01AF8CA214DF2171003F015F8022191
:1036C0004DF2181003F010F800214DF2191003F01C
:1036D0000BF802214DF21A1003F006F801214DF209
:1036E0001B1003F001F802214DF21C1002F0FCFF48
:1036F00034214DF21D1002F0F7FF02214DF21E1091
:1037000002F0F2FF67214DF21F1002F0EDFF0221DF
:103710004DF2201002F0E8FF84214DF2211002F05A
:10372000E3FF02214DF2221002F0DEFFA4214DF250
:10373000231002F0D9FF02214DF2241002F0D4FF31
:10374000B7214DF2251002F0CFFF02214DF22610D5
:1037500002F0CAFFCF214DF2271002F0C5FF02216F
:103760004DF2281002F0C0FFDE214DF2291002F0C8
:10377000BBFF02214DF22A1002F0B6FFF2214DF2FA
:103780002B1002F0B1FF02214DF22C1002F0ACFF21
:10379000FE214DF22D1002F0A7FF03214DF22E1055
:1037A00002F0A2FF10214DF22F1002F09DFF032125
:1037B0004DF2301002F098FF33214DF2311002F03B
:1037C00093FF03214DF2321002F08EFF6D214DF276
:1037D000331002F089FF00214FF4524002F084FFC1
:1037E00033214DF2012002F07FFF00214DF2022033
:1037F00002F07AFF342101E0280100204DF203207D
:1038000002F072FF00214DF2042002F06DFF3A2118
:103810004DF2052002F068FF00214DF2062002F073
:1038200063FF4A214DF2072002F05EFF00214DF2B6
:10383000082002F059FF5C214DF2092002F054FFEC
:1038400000214DF20A2002F04FFF81214DF20B20A2
:1038500002F04AFF00214DF20C2002F045FFA621A4
:103860004DF20D2002F040FF00214DF20E2002F03B
:103870003BFFE5214DF20F2002F036FF01214DF212
:10388000102002F031FF13214DF2112002F02CFF25
:1038900001214DF2122002F027FF54214DF2132096
:1038A00002F022FF01214DF2142002F01DFF8221BF
:1038B0004DF2152002F018FF01214DF2162002F002
:1038C00013FFCA214DF2172002F00EFF02214DF224
:1038D000182002F009FF00214DF2192002F004FF28
:1038E00002214DF21A2002F0FFFE01214DF21B20B1
:1038F00002F0FAFE02214DF21C2002F0F5FE342106
:103900004DF21D2002F0F0FE02214DF21E2002F0C9
:10391000EBFE67214DF21F2002F0E6FE02214DF280
:10392000202002F0E1FE84214DF2212002F0DCFE95
:1039300002214DF2222002F0D7FEA4214DF22320D5
:1039400002F0D2FE02214DF2242002F0CDFEB7217A
:103950004DF2252002F0C8FE02214DF2262002F091
:10396000C3FECF214DF2272002F0BEFE02214DF210
:10397000282002F0B9FEDE214DF2292002F0B4FE2B
:1039800002214DF22A2002F0AFFEF2214DF22B204F
:1039900002F0AAFE02214DF22C2002F0A5FEFE212B
:1039A0004DF22D2002F0A0FE03214DF22E2002F058
:1039B0009BFE10214DF22F2002F096FE03214DF2C6
:1039C000302002F091FE33214DF2312002F08CFEC6
:1039D00003214DF2322002F087FE6D214DF233209B
:1039E00002F082FE00214FF4534002F07DFE3321AD
:1039F0004DF2013002F078FE00214DF2023002F06B
:103A000073FE34214DF2033002F06EFE00214DF2C0
:103A1000043002F069FE3A214DF2053002F064FEF6
:103A200000214DF2063002F05FFE4A214DF20730D0
:103A300002F05AFE00214DF2083002F055FE5C21E2
:103A40004DF2093002F050FE00214DF20A3002F032
:103A50004BFE81214DF20B3002F046FE00214DF26B
:103A60000C3002F041FEA6214DF20D3002F03CFE7A
:103A700000214DF20E3002F037FEE5214DF20F30FD
:103A800002F032FE01214DF2103002F02DFE132122
:103A90004DF2113002F028FE01214DF2123002F0F9
:103AA00023FE54214DF2133002F01EFE01214DF28F
:103AB000143002F019FE82214DF2153002F014FE8E
:103AC00001214DF2163002F00FFECA214DF21730DF
:103AD00002F00AFE02214DF2183002F005FE00212C
:103AE0004DF2193002F000FE02214DF21A3002F0C0
:103AF000FBFD01214DF21B3002F0F6FD02214DF2DB
:103B00001C3002F0F1FD34214DF21D3002F0ECFDCD
:103B100002214DF21E3002F0E7FD67214DF21F3009
:103B200002F0E2FD02214DF2203002F0DDFD8421A1
:103B30004DF2213002F0D8FD02214DF2223002F088
:103B4000D3FDA4214DF2233002F0CEFD02214DF22F
:103B5000243002F0C9FDB7214DF2253002F0C4FD3A
:103B600002214DF2263002F0BFFDCF214DF2273069
:103B700002F0BAFD02214DF2283002F0B5FDDE213F
:103B80004DF2293002F0B0FD02214DF22A3002F050
:103B9000ABFDF2214DF22B3002F0A6FD02214DF2D9
:103BA0002C3002F0A1FDFE214DF22D3002F09CFDE3
:103BB00003214DF22E3002F097FD10214DF22F30EF
:103BC00002F092FD03214DF2303002F08DFD3321E1
:103BD0004DF2313002F088FD03214DF2323002F017
:103BE00083FD6D214DF2333002F07EFD00214FF454
:103BF000544002F079FD33214DF2014002F074FD92
:103C000000214DF2024002F06FFD34214DF20340DD
:103C100002F06AFD00214DF2044002F065FD3A21F8
:103C20004DF2054002F060FD00214DF2064002F029
:103C30005BFD4A214DF2074002F056FD00214DF296
:103C4000084002F051FD5C214DF2094002F04CFDAC
:103C500000214DF20A4002F047FD81214DF20B4058
:103C600002F042FD00214DF20C4002F03DFDA62184
:103C70004DF20D4002F038FD00214DF20E4002F0F1
:103C800033FDE5214DF20F4002F02EFD01214DF2F2
:103C9000104002F029FD13214DF2114002F024FDE5
:103CA00001214DF2124002F01FFD54214DF213404C
:103CB00002F01AFD01214DF2144002F015FD82219F
:103CC0004DF2154002F010FD01214DF2164002F0B8
:103CD0000BFDCA214DF2174002F006FD02214DF204
:103CE000184002F001FD00214DF2194002F0FCFCE9
:103CF00002214DF21A4002F0F7FC01214DF21B4067
:103D000000E006E302F0F0FC02214DF21C4002F05C
:103D1000EBFC34214DF21D4002F0E6FC02214DF295
:103D20001E4002F0E1FC67214DF21F4002F0DCFC76
:103D300002214DF2204002F0D7FC84214DF22140B7
:103D400002F0D2FC02214DF2224002F0CDFCA4216F
:103D50004DF2234002F0C8FC02214DF2244002F053
:103D6000C3FCB7214DF2254002F0BEFC02214DF20A
:103D7000264002F0B9FCCF214DF2274002F0B4FCFE
:103D800002214DF2284002F0AFFCDE214DF2294025
:103D900002F0AAFC02214DF22A4002F0A5FCF22119
:103DA0004DF22B4002F0A0FC02214DF22C4002F01B
:103DB0009BFCFE214DF22D4002F096FC03214DF2BA
:103DC0002E4002F091FC10214DF22F4002F08CFCAD
:103DD00003214DF2304002F087FC33214DF2314097
:103DE00002F082FC03214DF2324002F07DFC6D2195
:103DF0004DF2334002F078FC00214FF4554002F0C0
:103E000073FC33214DF2015002F06EFC00214DF2A3
:103E1000025002F069FC34214DF2035002F064FCC0
:103E200000214DF2045002F05FFC3A214DF20550A2
:103E300002F05AFC00214DF2065002F055FC4A21D6
:103E40004DF2075002F050FC00214DF2085002F0F4
:103E50004BFC5C214DF2095002F046FC00214DF272
:103E60000A5002F041FC81214DF20B5002F03CFC63
:103E700000214DF20C5002F037FCA6214DF20D50FE
:103E800002F032FC00214DF20E5002F02DFCE52133
:103E90004DF20F5002F028FC01214DF2105002F0BB
:103EA00023FC13214DF2115002F01EFC01214DF2B2
:103EB000125002F019FC54214DF2135002F014FC80
:103EC00001214DF2145002F00FFC82214DF21550E9
:103ED00002F00AFC01214DF2165002F005FCCA2145
:103EE0004DF2175002F000FC02214DF2185002F082
:103EF000FBFB00214DF2195002F0F6FB02214DF2BE
:103F00001A5002F0F1FB01214DF21B5002F0ECFBC4
:103F100002214DF21C5002F0E7FB34214DF21D50FE
:103F200002F0E2FB02214DF21E5002F0DDFB6721A0
:103F30004DF21F5002F0D8FB02214DF2205002F04A
:103F4000D3FB84214DF2215002F0CEFB02214DF231
:103F5000225002F0C9FBA4214DF2235002F0C4FB11
:103F600002214DF2245002F0BFFBB7214DF2255043
:103F700002F0BAFB02214DF2265002F0B5FBCF2130
:103F80004DF2275002F0B0FB02214DF2285002F012
:103F9000ABFBDE214DF2295002F0A6FB02214DF2CF
:103FA0002A5002F0A1FBF2214DF22B5002F09CFBB3
:103FB00002214DF22C5002F097FBFE214DF22D50C4
:103FC00002F092FB03214DF22E5002F08DFB1021E6
:103FD0004DF22F5002F088FB03214DF2305002F0D9
:103FE00083FB33214DF2315002F07EFB03214DF271
:103FF000325002F079FB6D214DF2335002F074FB28
:1040000000214FF4564002F06FFB33214DF2016066
:1040100002F06AFB00214DF2026002F065FB3421E0
:104020004DF2036002F060FB00214DF2046002F0EB
:104030005BFB3A214DF2056002F056FB00214DF288
:10404000066002F051FB4A214DF2076002F04CFB82
:1040500000214DF2086002F047FB5C214DF209603F
:1040600002F042FB00214DF20A6002F03DFB81218B
:104070004DF20B6002F038FB00214DF20C6002F0B3
:1040800033FBA6214DF20D6002F02EFB00214DF214
:104090000E6002F029FBE5214DF20F6002F024FBD7
:1040A00001214DF2106002F01FFB13214DF211604F
:1040B00002F01AFB01214DF2126002F015FB5421AF
:1040C0004DF2136002F010FB01214DF2146002F07A
:1040D0000BFB82214DF2156002F006FB01214DF22F
:1040E000166002F001FBCA214DF2176002F0FCFAE3
:1040F00002214DF2186002F0F7FA00214DF219602A
:1041000002F0F2FA02214DF21A6002F0EDFA0121FA
:104110004DF21B6002F0E8FA02214DF21C6002F041
:10412000E3FA34214DF21D6002F0DEFA02214DF275
:104130001E6002F0D9FA67214DF21F6002F0D4FA36
:1041400002214DF2206002F0CFFA84214DF221606D
:1041500002F0CAFA02214DF2226002F0C5FAA4214F
:104160004DF2236002F0C0FA02214DF2246002F009
:10417000BBFAB7214DF2256002F0B6FA02214DF2EA
:10418000266002F0B1FACF214DF2276002F0ACFABE
:1041900002214DF2286002F0A7FADE214DF22960DB
:1041A00002F0A2FA02214DF22A6002F09DFAF221F9
:1041B0004DF22B6002F098FA02214DF22C6002F0D1
:1041C00093FAFE214DF22D6002F08EFA03214DF29A
:1041D0002E6002F089FA10214DF22F6002F084FA6D
:1041E00003214DF2306002F07FFA33214DF231604D
:1041F00002F07AFA03214DF2326002F075FA6D2175
:104200004DF2336002F070FA55214FF4704002F025
:104210006BFAAA214FF2010002F066FA52214FF226
:10422000020002F061FA08214FF2030002F05CFA8A
:1042300000214FF2040002F057FACC214FF4314034
:1042400002F052FA00214BF2011002F04DFA052162
:104250004FF4364002F048FA70214FF4374002F034
:1042600043FA70214BF2017002F03EFA01214FF443
:10427000384002F039FA03214BF6010002F034FA1B
:1042800003214BF6020002F02FFA03214BF6030044
:1042900002F02AFA02214FF43C4002F025FA0021F4
:1042A0004BF6014002F020FA00214BF6024002F0EA
:1042B0001BFAD0214FF4494002F016FA02214CF6C5
:1042C000011002F011FA50214CF6021002F00CFA23
:1042D00050214CF6031002F007FA50214CF604105E
:1042E00002F002FA00214FF4545002F0FDF955217A
:1042F0004FF4685002F0F8F94FF4885002F0DAF900
:10430000782002F095FC4FF4245002F0D3F901F02C
:10431000DABBFE48808849F2253188427ED147F6D3
:10432000F001E52002F0E0F94FF48071012002F085
:10433000DBF94FF4E061022002F0D6F941F23001DE
:10434000032002F0D1F90021042002F0CDF940F25F
:104350000221082002F0C8F90021092002F0C4F966
:1043600000210A2002F0C0F900210C2002F0BCF963
:1043700000210D2002F0B8F900210F2002F0B4F95D
:104380000021102002F0B0F90721112002F0ACF951
:104390000021122002F0A8F90021132002F0A4F954
:1043A0000021072002F0A0F941F29061102002F0F4
:1043B0009BF940F22721112002F096F99D2112204D
:1043C00002F092F94FF4C851132002F08DF9252123
:1043D000292002F089F90D212B2002F085F907210F
:1043E000302002F081F940F20331312002F07CF9F3
:1043F0000321322002F078F940F20621352002F044
:1044000073F90821362002F06FF940F20641372097
:1044100002F06AF94FF44171382000E057E002F0F1
:1044200063F90721392002F05FF940F202613C2074
:1044300002F05AF908213D2002F056F900215020DF
:1044400002F052F9EF21512002F04EF900215220E2
:1044500002F04AF940F23F11532002F045F94FF4BF
:104460002741602002F040F90121612002F03CF96F
:1044700000216A2002F038F90021802002F034F98E
:104480000021812002F030F90021822002F02CF975
:104490000021832002F028F90021842002F024F971
:1044A0000021852002F020F91021902002F01CF953
:1044B0004FF4C061922002F017F940F23311072047
:1044C00002F012F92221002002F00EF91FE78F48B6
:1044D000808849F2283188427ED141F28F01EC2058
:1044E00002F002F941F23421EF2002F0FDF84FF41E
:1044F0008071012002F0F8F84FF4E061022002F030
:10450000F3F841F23001032002F0EEF8002104201C
:1045100002F0EAF840F20221082002F0E5F800215A
:10452000092002F0E1F800210A2002F0DDF8012163
:104530000C2002F0D9F800210D2002F0D5F800215E
:104540000F2002F0D1F80021102002F0CDF8072151
:10455000112002F0C9F80021122002F0C5F8002154
:10456000132002F0C1F80121072002F0BDF832202B
:1045700002F052FB41F29041102002F0B5F840F2F7
:104580002721112002F0B0F8322002F045FB8A21E9
:10459000122002F0A9F8322002F03EFB4FF4D05175
:1045A000132002F0A1F80621292002F09DF80D2128
:1045B0002B2002F099F8322002F02EFB002120205F
:1045C00002F092F80021212002F08EF8322002F051
:1045D00023FB0021302000E074E002F085F840F277
:1045E0000461312002F080F840F20531322002F0FF
:1045F0007BF80021352002F077F840F6094136209B
:1046000002F072F84FF40171372002F06DF840F2B9
:104610000131382002F068F840F20771392002F0C9
:1046200063F800213C2002F05FF840F60A213D20AB
:1046300002F05AF8322002F0EFFA0021502002F086
:1046400053F8EF21512002F04FF80021522002F0E0
:104650004BF840F23F11532002F046F84FF4274147
:10466000602002F041F80121612002F03DF80021B4
:104670006A2002F039F80021802002F035F800218C
:10468000812002F031F80021822002F02DF8002173
:10469000832002F029F80021842002F025F800216F
:1046A000852002F021F81021902002F01DF84FF42F
:1046B000C061922002F018F840F23311072002F096
:1046C00013F824E61148808849F2203188427DD1D0
:1046D0000021084602F008F84FF48071012002F032
:1046E00003F84FF4E061022001F0FEFF41F23001D7
:1046F000032001F0F9FF0021042001F0F5FF40F252
:104700000221082001F0F0FF002101E02801002033
:10471000092001F0E9FF00210A2001F0E5FF012155
:104720000C2001F0E1FF00210D2001F0DDFF002150
:104730000F2001F0D9FF322002F06EFA40F2011191
:10474000072001F0D1FF322002F066FA4FF48651C3
:10475000102001F0C9FF0721112001F0C5FF4FF41F
:104760008871122001F0C0FF4FF43061132001F076
:10477000BBFF0021292001F0B7FF44F210012B20DC
:1047800001F0B2FF0021502001F0AEFFEF215120D7
:1047900001F0AAFF0021522001F0A6FF40F23F11D4
:1047A000532001F0A1FF4FF41C51602001F09CFF49
:1047B0000121612001F098FF00216A2001F094FF9F
:1047C0000021802001F090FF002100E031E08120F5
:1047D00001F08AFF0021822001F086FF0021832062
:1047E00001F082FF0021842001F07EFF002185205E
:1047F00001F07AFF1021902001F076FF0021922035
:1048000001F072FF0121932001F06EFF4FF48871D7
:10481000952001F069FF0021972001F065FF00213C
:10482000982001F061FF40F27311072001F05CFF56
:104830006DE5FE48808849F2313188427DD141F2F0
:104840001401E72001F050FF4FF48071012001F0C6
:104850004BFF4FF40071022001F046FF41F2380196
:10486000032001F041FF40F20221082001F03CFF4B
:104870000021092001F038FF00210A2001F034FF57
:1048800000210C2001F030FF00210D2001F02CFF51
:1048900000210F2001F028FF0021102001F024FF4B
:1048A0000721112001F020FF0021122001F01CFF40
:1048B0000021132001F018FFC82002F0ADF941F2E9
:1048C0009061102001F010FF40F22721112001F02B
:1048D0000BFF322002F0A0F90C21122001F004FF9E
:1048E000322002F099F94FF40061132001F0FCFE30
:1048F0001121292001F0F8FE0B212B2001F0F4FEFC
:10490000322002F089F90021202001F0EDFE40F272
:104910003F11212001F0E8FE0021302001F0E4FEEB
:104920004FF48371312001F0DFFE0021322001F0CD
:10493000DBFE4FF40171352000E064E001F0D4FEAD
:1049400041F20A61362001F0CFFE40F207713720B4
:1049500001F0CAFE4FF48371382001F0C5FE40F229
:104960000771392001F0C0FE40F202413C2001F005
:10497000BBFE40F60F413D2001F0B6FE0021502065
:1049800001F0B2FEEF21512001F0AEFE00215220D5
:1049900001F0AAFE40F23F11532001F0A5FE4FF4B2
:1049A0001C51602001F0A0FE0121612001F09CFE5D
:1049B00000216A2001F098FE0021802001F094FE81
:1049C0000021812001F090FE0021822001F08CFE68
:1049D0000021832001F088FE0021842001F084FE64
:1049E0000021852001F080FE1021902001F07CFE46
:1049F0004FF4C061922001F077FE40F2331107209E
:104A000001F072FE83E48948808845F208418842BB
:104A10007ED14FF48071012001F066FE4FF4E06119
:104A2000022001F061FE41F23001032001F05CFE42
:104A30000021042001F058FE40F20721082001F077
:104A400053FE0021092001F04FFE00210A2001F051
:104A50004BFE00210C2001F047FE00210D2001F04B
:104A600043FE00210F2001F03FFE142002F0D4F895
:104A700041F2B061102001F037FE0121112001F058
:104A800033FE0121172001F02FFE4FF49C711220FC
:104A900001F02AFE4FF40061132001F025FE0921E8
:104AA000292001F021FE09212A2001F01DFE00210C
:104AB000A42001F019FE0021502001F015FEEF2185
:104AC000512001F011FE0021522001F00DFE40F2B4
:104AD0003F11532001F008FE4FF41C51602001F0FB
:104AE00003FE0121612001F0FFFD00216A2001F099
:104AF000FBFD0021802001F0F7FD0021812001F065
:104B0000F3FD0021822001F0EFFD0021832000E071
:104B100023E001F0E9FD0021842001F0E5FD002102
:104B2000852001F0E1FD1321902001F0DDFD002141
:104B3000922001F0D9FD0321932001F0D5FD4FF41F
:104B40008871952001F0D0FD40F27311072001F02B
:104B5000CBFD322002F060F8B8E43448808841F29E
:104B6000055188427ED10021072001F0BDFD322091
:104B700002F052F84FF48E71122001F0B5FD0121C0
:104B8000A42001F0B1FD0F21082001F0ADFD0821A6
:104B90000A2001F0A9FD08210D2001F0A5FD40F239
:104BA0000771302001F0A0FD0721312001F09CFDAC
:104BB00040F20361322001F097FD4FF4E0613320B1
:104BC00001F092FD40F20221342001F08DFD02211E
:104BD000352001F089FD41F60F71362001F084FD8A
:104BE00040F20771372001F07FFD0021382001F0ED
:104BF0007BFD0021392001F077FD40F207713A205A
:104C000001F072FD00213B2001F06EFD07213C20E8
:104C100001F06AFD00213D2001F066FD322001F027
:104C2000FBFF0121072001F05FFD01E028010020CA
:104C30000121172001F058FD322001F0EDFF4FF463
:104C4000BD51102001F050FD40F21721112001F05C
:104C50004BFD4FF48F71122001F046FD4FF470614F
:104C6000132000E097E001F03FFD00212A2001F031
:104C70003BFD0A21292001F037FD4FF49F711220DE
:104C800001F032FD0021502001F02EFDEF215120D6
:104C900001F02AFD0021522001F026FD40F23F11D3
:104CA000532001F021FD4FF41C51602001F01CFD48
:104CB0000121612001F018FD00216A2001F014FD9E
:104CC0000021802001F010FD0021812001F00CFD69
:104CD0000021822001F008FD0021832001F004FD65
:104CE0000021842001F000FD0021852001F0FCFC62
:104CF0001321902001F0F8FC4FF44071922001F054
:104D0000F3FC0521932001F0EFFC0021952001F038
:104D1000EBFC0021972001F0E7FC0021982001F036
:104D2000E3FC4FF48071012001F0DEFC4FF4E06100
:104D3000022001F0D9FC41F23801032001F0D4FC3B
:104D40000021042001F0D0FC00210C2001F0CCFC5B
:104D500000210F2001F0C8FC0021202001F0C4FC3C
:104D60000021212001F0C0FC2121072001F0BCFC22
:104D7000142001F051FF6121072001F0B5FC14203F
:104D800001F04AFF40F27311072001F0ADFC14203E
:104D900001F042FF95E4FE4880884BF205518842BD
:104DA0007ED10021084601F09FFC0021084601F059
:104DB0009BFC0021084601F097FC0021084601F009
:104DC00093FC0121A42001F08FFC142001F024FFAA
:104DD0004FF41C51602001F087FC40F202210820B2
:104DE00001F082FC4FF40571302001F07DFC43F2AC
:104DF0001571312001F078FC40F20461322001F09D
:104E000073FC40F61661332001F06EFC42F2112172
:104E1000342001F069FC4FF4A851352001F064FC06
:104E200048F20751362001F05FFC41F2074137207C
:104E300001F05AFC41F20341382001F055FC2021D9
:104E4000392001F051FC1A21902001F04DFC002185
:104E5000102001F049FC0721112001F045FC002140
:104E6000122001F041FC0021132001F03DFC142030
:104E700001F0D2FE4FF4E661102001F035FC40F263
:104E80003711112001F030FC142001F0C5FE4FF461
:104E9000DC71122001F028FC142001F0BDFE00E0BE
:104EA00083E04FF47061132001F01EFC80212A2062
:104EB00001F01AFC4821292001F016FC142001F011
:104EC000ABFE4FF48071012001F00EFC4FF4E06165
:104ED000022001F009FC41F23801032001F004FC3A
:104EE00040F20221082001F0FFFB00210A2001F01E
:104EF000FBFB00210C2001F0F7FB00210D2001F04D
:104F0000F3FB30210E2001F0EFFB0021502001F0D7
:104F1000EBFBEF21512001F0E7FB0021522001F0D3
:104F2000E3FB40F23F11532001F0DEFB4FF41C5134
:104F3000602001F0D9FB0121612001F0D5FB0021A7
:104F40006A2001F0D1FB1121902001F0CDFB4FF43C
:104F5000C061922001F0C8FB40F20241932001F0B1
:104F6000C3FB0221942001F0BFFB142001F054FE8A
:104F70000121072001F0B8FB142001F04DFE612152
:104F8000072001F0B1FB40F27311072001F0ACFBE8
:104F90000021202001F0A8FB0021212001F0A4FB2A
:104FA0002221002001F0A0FB42E4794880884CF2E5
:104FB000055188427ED10021084601F095FB002171
:104FC000084601F091FB142001F026FE002108465E
:104FD00001F08AFB0021084601F086FB002108460B
:104FE00001F082FB0021084601F07EFB0121A42094
:104FF00001F07AFB142001F00FFE4FF41C516020E9
:1050000001F072FB40F60601082001F06DFB40F252
:105010000371302001F068FB0121312001F064FBB5
:105020000421322001F060FB4FF48171332001F044
:105030005BFB4FF44071342001F056FB40F203114A
:10504000352001F051FB1F21362001F04DFB40F2CD
:105050000371372001F048FB0121382001F044FBA7
:105060000421392001F040FB1521902001F03CFB88
:105070004FF48261102001F037FB40F247211120EC
:1050800001F032FB4FF4DE71122001F02DFB4FF4E2
:105090006061132001F028FB782001F0BDFD4FF482
:1050A0008071012001F020FB4FF40071022001F01B
:1050B0001BFB00E050E041F23001032001F014FB43
:1050C00008210A2001F010FB00210C2001F00CFB4C
:1050D00020210E2001F008FB00210F2001F004FB2D
:1050E0000021202001F000FB0021212001F0FCFA2A
:1050F0003D212A2001F0F8FA142001F08DFD2D2128
:10510000292001F0F1FA0021502001F0EDFA4DF2D2
:10511000EF01512001F0E8FA0021522001F0E4FAF9
:1051200040F23F11532001F0DFFA0021612001F02D
:10513000DBFA00216A2001F0D7FA4FF44071922087
:1051400001F0D2FA0521932001F0CEFA4FF48071DC
:10515000072001F0C9FA55E40D48808848F6891106
:1051600088427DD10121002001F0BEFA4AF6A40157
:10517000032001F0B9FA00210C2001F0B5FA40F645
:105180000C010D2001F0B0FA4FF42C510E2001E07B
:105190002801002001F0A8FAB0211E2001F0A4FA95
:1051A00042F63F31012001F09FFA4FF4C061022026
:1051B00001F09AFA0021102001F096FA46F27801E7
:1051C000112001F091FA0021052001F08DFA002153
:1051D000062001F089FA4EF61C71162001F084FABF
:1051E0000321172001F080FA40F23321072001F05B
:1051F0007BFA00210B2001F077FA00210F2001F04B
:1052000073FA0021412001F06FFA0021422001F0E1
:105210006BFA0021482001F067FA40F23F11492063
:1052200001F062FA00214A2001F05EFA00214B20D1
:1052300001F05AFA4FF46F41442001F055FA002171
:10524000452001F051FA40F23F11462001F04CFA9E
:1052500040F20771302001F047FA4FF4017100E08D
:1052600040E0312001F040FA4FF40171322001F0AA
:105270003BFA40F20251332001F036FA40F2075176
:10528000342001F031FA4FF40171352001F02CFA8D
:105290004FF40171362001F027FA40F20251372015
:1052A00001F022FA40F202313A2001F01DFA40F2F8
:1052B00002313B2001F018FA0021232001F014FAFA
:1052C0000021242001F010FA4FF40041252001F0C4
:1052D0000BFA00214F2001F007FA00214E2001F0C7
:1052E00003FAF0E3FE48808844F2315188427DD1D0
:1052F0000121002001F0F8F90A2001F08DFC41F2B3
:105300002861102001F0F0F90E21122001F0ECF9D3
:1053100040F63921132001F0E7F90A2001F07CFC66
:105320004021112001F0E0F95021152001F0DCF9B5
:105330000A2001F071FC1E21122001F0D5F90A208B
:1053400001F06AFC4FF4B151102001F0CDF942F6A2
:105350003921132001F0C8F90A2001F05DFC4FF457
:105360008071012001F0C0F94FF44071022001F07A
:10537000BBF941F23801032001F0B6F940F20221F5
:10538000082001F0B1F908210A2001F0ADF900214F
:10539000302001F0A9F940F20241312001F0A4F9D6
:1053A0004FF48371322001F09FF940F20351332012
:1053B00001F09AF94FF48271342001F095F940F22E
:1053C0000131352001F090F940F20771362001F0EB
:1053D0008BF940F20531372001F086F94FF4027164
:1053E000382001F081F940F60B7100E03CE03920F3
:1053F00001F07AF90221412001F076F94FF41C51B5
:10540000602001F071F90121612001F06DF94FF484
:105410000471902001F068F94FF48571922001F039
:1054200063F90421932001F05FF94FF48071A0200B
:1054300001F05AF90121072001F056F92121072036
:1054400001F052F92321072001F04EF93321072002
:1054500001F04AF940F23311072001F045F900212B
:10546000A02001F041F92EE39D48808844F2355197
:1054700088427CD13021152001F036F910219A2084
:1054800001F032F92021112001F02EF943F22841D8
:10549000102001F029F90221122001F025F941F232
:1054A0003801132001F020F9282001F0B5FB12216A
:1054B000084601F019F9282001F0AEFB43F2204123
:1054C000102001F011F943F23801132001F00CF91A
:1054D000462001F0A1FB0021302001F005F940F247
:1054E0000241312001F000F940F20731322001F091
:1054F000FBF84FF44171332001F0F6F80421342019
:1055000001F0F2F840F20141352001F0EDF840F2EF
:105510000771362001F0E8F840F20531372001F03C
:10552000E3F84FF4C261382001F0DEF84FF4C261B5
:10553000392001F0D9F84FF48071012001F0D4F83E
:105540004FF44071022001F0CFF841F23001032006
:1055500001F0CAF840F60801082001F0C5F808215A
:105560000A2001F0C1F84FF41C51602000E033E044
:1055700001F0BAF80121612001F0B6F84FF49F71F3
:10558000902001F0B1F84FF48071922001F0ACF856
:105590004FF48071932001F0A7F84FF44051A02000
:1055A00001F0A2F81021A32001F09EF801210720AC
:1055B00001F09AF82121072001F096F82321072015
:1055C00001F092F83321072001F08EF840F23311F8
:1055D000072001F089F876E24148808841F663119E
:1055E0008842F8D1E22001F065F84FF480703D491F
:1055F0000861400048611D203B490860802039490E
:1056000048610861800008614010086140004861FD
:1056100002203549086080203249486108618000D5
:105620000861401008614000486104202E4908606C
:1056300080202C494861086180000861642001F0E5
:10564000F7FAE02001F036F84FF480702549086140
:1056500040004861012024490860802021494861B8
:105660000861800008610A2001F0D6FAE02001F00C
:1056700021F84FF480701B49086140004861032005
:105680001949086080201749486108618000086155
:105690000C2001F0C1FA012001F00CF80A2001F001
:1056A000BBFAE62001F006F84FF480700D4908615E
:1056B000400048612F200C4908608020094948615A
:1056C0000861800008614010086140004861FF20C7
:1056D000054908608020034948610861800005E0B1
:1056E00028010020001001400C0C0140086140100E
:1056F000086140004861FF20F94908608020F949AD
:105700004861086180000861B02000F0D3FF4FF4C9
:105710008070F4490861400048612020F049086029
:105720008020F049486108618000086140100861EC
:10573000400048610020EA4908608020E94948614A
:105740000861800008614010086140004861032042
:10575000E34908608020E3494861086180000861EE
:10576000401008614000486140F21F30DC49086089
:105770008020DC49486108618000086140100861B0
:10578000400048610120D64908608020D549486121
:10579000086180000861401008614000486140F2E3
:1057A000DF10CF4908608020CE4948610861800041
:1057B000086140100861400048610020C849086045
:1057C0008020C8494861086180000861B42000F069
:1057D00071FF4FF48070C3490861400048610420A4
:1057E000BF4908608020BF494861086180000861A6
:1057F000401008614000486140F21F40B84908600D
:105800008020B84948610861800008614010086143
:10581000400048610020B24908608020B1494861D9
:1058200008618000086140100861400048612E2036
:10583000AB4908608020AB4948610861800008617D
:1058400040100861400048610020A54908608020A0
:10585000A449486108618000086140100861400067
:10586000486100209E49086080209E494861086187
:10587000800008614010086140004861002098499C
:1058800008608020974948610861800008614010E5
:1058900008614000486100209149086080209149DA
:1058A0004861086180000861B62000F003FF4FF4F2
:1058B00080708C4908614000486102208849086076
:1058C00080208849486108618000086140100861B3
:1058D000400048614FF4037081490860802081498D
:1058E000486108618000086140100861400048611B
:1058F00000207B49086080207A4948610861800067
:105900000861401008614000486117207449086030
:105910008020744948610861800008614010086176
:105920004000486115206E49086080206D4948613B
:105930000861800008614010086140004861002053
:1059400067490860802067494861086180000861F4
:1059500040100861400048610020614908608020D3
:1059600060494861086180000861F02000F0A2FEF3
:105970004FF480705B49086140004861032058493A
:10598000086080205749486108618000086129202B
:1059900000F090FED02000F08DFE4FF48070514951
:1059A00008614000486100204D49086080204D4951
:1059B0004861086180000861BE2000F07BFE4FF462
:1059C00080704849086140004861052044490860EA
:1059D00080204449486108618000086140100861E6
:1059E00040004861FE203E49086080203D494861F2
:1059F0000861800008614010086140004861012092
:105A00003749086080203749486108618000086193
:105A10004010086140004861002031490860802042
:105A20003049486108618000086140100861400009
:105A3000486100202A49086080202A49486108619D
:105A4000800008614010086140004861002024493E
:105A50000860802023494861086180000861B820FF
:105A600000F028FE4FF480701E4908614000486134
:105A700003201B49086080201A49486108618000A2
:105A80000861401008614000486101201449086025
:105A9000802014494861086180000861BA2000F044
:105AA00009FE4FF480700F490861400048610120F1
:105AB0000B49086080200B4948610861800008613B
:105AC000642000F05FF80020FBF724FF0120064966
:105AD00008604FF6FF70FBF7D9FE05B000BD00006F
