:020000040800F2
:10000000500900202D020008C1740008DF240008F8
:10001000BD74000801080008257A000800000000EF
:10002000000000000000000000000000ED74000867
:100030003908000800000000C37400084575000876
:10004000470200084702000847020008470200086C
:10005000470200084702000847020008470200085C
:10006000470200084702000847020008470200084C
:10007000470200084702000847020008470200083C
:10008000470200084702000847020008470200082C
:10009000470200084702000847020008470200081C
:1000A000470200084702000847020008470200080C
:1000B0004702000847020008A5750008470200082B
:1000C00047020008470200084702000847020008EC
:1000D00047020008E57900084702000847020008C7
:1000E00047020008470200084702000847020008CC
:1000F00047020008470200084702000847020008BC
:1001000047020008470200084702000847020008AB
:10011000470200084702000847020008470200089B
:10012000470200084702000847020008470200088B
:1001300000F002F800F06BF80AA090E8000C82448E
:100140008344AAF10107DA4501D100F060F8AFF26B
:10015000090EBAE80F0013F0010F18BFFB1A43F0A5
:1001600001031847F0AD000010AE00000A444FF044
:10017000000C10F8013B13F0070408BF10F8014B06
:100180001D1108BF10F8015B641E05D010F8016B4B
:10019000641E01F8016BF9D113F0080F1EBF10F8AF
:1001A000014BAD1C0C1B09D16D1E58BF01F801CBD2
:1001B000FAD505E014F8016B01F8016B6D1EF9D555
:1001C0009142D6D37047000000230024002500266A
:1001D000103A28BF78C1FBD8520728BF30C148BFAA
:1001E0000B607047642900F09F80752900F09C80A7
:1001F000782900F0D580632900F02982732900F066
:100200002E82002070471FB51FBD10B510BD00F035
:1002100059FA1146FFF7F7FF07F074FC00F077FA80
:1002200003B4FFF7F2FF03BC07F021FC0948804745
:1002300009480047FEE7FEE7FEE7FEE7FEE7FEE7C8
:10024000FEE7FEE7FEE7FEE704480549054A064BE0
:10025000704700004D750008310100085003002070
:100260005009002050050020500500207047000074
:100270000FB4044910B503AA029800F0F5F910BCB8
:100280005DF814FB1400002070B504468569006811
:10029000C10601D5302600E02026C00707D070BD7A
:1002A000D4E9012130469047206A401C20626D1E2F
:1002B000F6D570BD70B5044685690078C00707D1D2
:1002C00070BDD4E9012120209047206A401C2062A3
:1002D0006D1EF6D570BD70B50C460546012A05D0D9
:1002E0002878800600D5EA69002302E0012305E0B2
:1002F0005B1C934202D2E05C0028F9D1A869E618A1
:10030000C01AA861286A184428622846FFF7BCFF73
:1003100004E0D5E9012114F8010B9047B442F8D369
:100320002846FFF7C7FF70BD2DE9F04106460024BF
:1003300010687529314616A510D0AFF3008000284B
:1003400002DA404213A507E031688A0701D512A5F9
:1003500002E0490704D511A5012401E0AFF30080B4
:1003600000210A2206F1240709E0B0FBF2FCB0FBF1
:10037000F2F302FB1C00303078541846491C002868
:10038000F3D123462A463046BDE8F04100F0FCB8E0
:10039000000000002D0000002B00000020000000E5
:1003A00070B504460D4621461068AFF300802188E1
:1003B000090502D50F4A7A4402E00E4A7A440E3209
:1003C000002104F1240305E000F00F060009965D0A
:1003D0005E54491C0028F7D120780023000704D57B
:1003E000702D02D009B1022311322046BDE87040C1
:1003F00000F0CAB8CCAA00002DE9F05F8946044697
:100400004FF0000ADFF874B1FB44C0F820A020468A
:10041000E1688847002874D0252806D0D4E9012156
:100420009047206A401C2062F1E700265F46204684
:10043000E16888472028054607DB312D05D2781969
:1004400010F8200C08B10643F1E7B00701D526F0FB
:100450000406C4F81CA00027C4F818A02A2D09D04F
:10046000284607F0FDFA38B304EB8708303DC8F89A
:10047000185019E059F8041B204604EB87029161DB
:10048000E1688847012F054618D1E069002820DA85
:1004900026F020061DE0D8F8180000EB800005EBE0
:1004A00040003038C8F818002046E1688847054603
:1004B00007F0D6FA0028EED1012F0AD02E2D08D150
:1004C0002046E16888477F1C0546022F46F020063B
:1004D000C4DBA069002803DA404246F00106A061AF
:1004E000F00701D026F010066C2D0BD0682D09D036
:1004F0004C2D39D06A2D35D0742D35D07A2D33D08E
:1005000016E038E0E1682F4620468847B8420546A5
:1005100009D16C2F26D04FF48060E1680643204655
:100520008847054604E06C2F1AD04FF480700643CC
:100530000DB3A5F14100192802D8203546F4006614
:100540004A462946204626604E46FFF74BFE80B1BC
:1005500001280BD0F61D26F0070000F1080956E728
:100560004020E4E78020D8E70020D6E706F1040920
:100570004DE7284652E7206ABDE8F09FA2AA000096
:1005800070477047704770472DE9F0470D46994610
:100590009246044600F124080168880604D5E06903
:1005A00021F01001216000E00120A84201DD471B7D
:1005B00000E00027A1697A1902EB0900081AA0617E
:1005C0002078C00602D42046FFF75EFE002608E031
:1005D000D4E901211AF806009047206A401C761CD5
:1005E00020624E45F4DB2078C0060AD52046FFF78E
:1005F0004BFE06E0D4E9012130209047206A401CE0
:100600002062381EA7F10107F4DC07E0D4E90121DC
:1006100018F805009047206A401C2062281EA5F1AA
:100620000105F3DC2046FFF745FE2078000602D5E1
:100630000220BDE8F0870120FBE710B5436913B144
:10064000AFF3008001E0FFF746FE012010BD1278F5
:1006500000F124010A7000224A700122EDE71168BE
:100660004FF0FF32E9E70000074B70B50D467B44C1
:1006700000F011F80446284600F020F810B14FF0C1
:10068000FF3070BD204670BD7774000001694A1CC0
:1006900002610878704700B58FB0CDE901310021C3
:1006A000059105497944CDE9031011466846FFF7E5
:1006B000A3FE0FB000BD0000E5FFFFFF007B00F0D0
:1006C00080007047754600F02BF8AE46050069467D
:1006D000534620F00700854618B020B5FFF7B4FD5B
:1006E000BDE820404FF000064FF000074FF0000833
:1006F0004FF0000B21F00701AC46ACE8C009ACE8B4
:10070000C009ACE8C009ACE8C0098D46704710B517
:100710000446AFF300802046BDE81040FFF780BDDF
:1007200000487047F002002070B50446002520689C
:10073000806800F00100F0B12068806820F00100BE
:100740002168886000F068FF05460EE000F064FF55
:10075000401B022809D9A06A40F01000A062E06A9C
:1007600040F00100E062012070BD2068806800F068
:1007700001000028EAD10020F6E7000038B5044661
:100780000025002000902068806800F0010080BBF8
:100790002068806840F00100216888601648006881
:1007A0001649B0FBF1F0009002E00098401E009066
:1007B00000980028F9D100F02FFF054613E000F063
:1007C0002BFF401B02280ED9A06A40F01000A06247
:1007D000E06A40F00100E06200BF002084F82400DD
:1007E00000BF012038BD2068806800F001000028AB
:1007F000E5D00020F6E700000000002040420F0096
:1008000000BFFEE71CB50A480A490860084600F028
:10081000EDFB00200090022001900022694605486F
:1008200000F0A2FB0021034800F038FC1CBD0000D2
:10083000007400409C020020704700003EB5044652
:10084000009401200190072002906946074800F0BB
:10085000A9F8064800F0F0FA0A21044800F034FA3A
:10086000024800F04FF980B23EBD00006C0200204B
:100870002DE9F04107460C460025002608E03846E1
:10088000FFF7DCFF0544052007F0FEF8701CC6B238
:10089000A642F4DBB5FBF4F080B2BDE8F0810000C5
:1008A000F8B5044600260020009000BF94F824000C
:1008B000012801D10220F8BD012084F8240000BFE6
:1008C0002046FFF731FF0646002E62D1A06A20F4D1
:1008D000885040F00200A062022000F04DFF304935
:1008E0000968B1FBF0F04000009002E00098401E63
:1008F000009000980028F9D12046FFF73FFF2068BC
:10090000806840F008002168886000F085FE054698
:1009100011E000F081FE401B0A280CD9A06A20F0EB
:10092000020040F01000A06200BF002084F8240004
:1009300000BF0120BFE72068806800F008000028A1
:10094000E7D12068806840F004002168886000F0EA
:1009500063FE054611E000F05FFE401B0A280CD93B
:10096000A06A20F0020040F01000A06200BF00204A
:1009700084F8240000BF01209DE72068806800F013
:1009800004000028E7D1A06A20F0020040F0010036
:10099000A06200BF002084F8240000BF30468AE730
:1009A0000000002038B5024600230020009000BF60
:1009B00092F82400012801D1022038BD012082F8DC
:1009C000240000BF4868072812D21068406B0C79D9
:1009D000641E04EB84051F24AC40A0430D796D1EFA
:1009E00005EB85050C68AC4020431468606327E084
:1009F00048680D2812D21068006B0C79E41F04EBD4
:100A000084051F24AC40A0430D79ED1F05EB85053F
:100A10000C68AC4020431468206311E01068C06A81
:100A20000C790D3C04EB84051F24AC40A0430D79E8
:100A30000D3D05EB85050C68AC4020431468E06271
:100A400008680A2812D31068C0680C780A3C04EBC6
:100A500044050724AC40A0430D780A3D05EB45054D
:100A60008C68AC4020431468E0600FE010680069B7
:100A70000C7804EB44050724AC40A0430D7805EB4B
:100A800045058C68AC402043146820610868102834
:100A900002D00868112827D1174C1068A0421ED137
:100AA0001068806800F40000F0B91068806840F4B5
:100AB00000001468A0600868102815D10F4800686D
:100AC0000F4CB0FBF4F000EB80004000009002E01F
:100AD0000098401E009000980028F9D104E0906A28
:100AE00040F020009062012300BF002082F8240023
:100AF00000BF184661E7000000240140000000200C
:100B000040420F0001460868C06C70472DE9F04173
:100B10000446002700250026A84614B90120BDE898
:100B2000F081A06810B1207D00B100BFA06A30B98B
:100B30000020E06284F82400204600F097F8204668
:100B4000FFF7F2FD0746A06A00F01000002873D1FD
:100B5000002F7ED1A06A20F4885040F00200A062ED
:100B60003F4AD4E90001904208D1E069B0F5402F36
:100B700002D14FF4002002E0E06900E0E0690143A7
:100B8000207B41EA40000643A068B0F5807F02D098
:100B9000A068012802D14FF4807000E000200543D6
:100BA000207D012811D1207B38B9A069401E4FF467
:100BB000006141EA4030054307E0A06A40F02000B0
:100BC000A062E06A40F00100E0622068406820F422
:100BD00069402843216848602068806821490840AE
:100BE000304321688860A068B0F5807F02D0A0689B
:100BF000012802D14FF4807000E00020B0F5807F22
:100C000003D1208A401E4FEA00582068C06A20F4B1
:100C1000700040EA08002168C862206880681249B4
:100C20000840B04209D10020E062A06A20F0020032
:100C300040F00100A06211E00BE0A06A20F0020089
:100C400040F01000A062E06A40F00100E06201277D
:100C500004E0A06A40F01000A062012738465EE779
:100C6000003C0140FDF7E1FFFE0E1FFF10B586B00E
:100C7000044600BF1248806940F400701049886142
:100C80000846806900F40070019000BF00BF00BFFB
:100C90000846806940F0040088610846806900F0D9
:100CA0000400019000BF00BF0220029003200390C7
:100CB0000020049002A9034800F000FB06B010BD1C
:100CC0000010024000080140F8B504460D46002619
:100CD00000200090002700F09FFC064620688068F6
:100CE00000F4807050B1A06A40F02000A06200BF04
:100CF000002084F8240000BF0120F8BD206840686F
:100D000000F48070F8B92068C06A00F47000D0B9AF
:100D100012E0681C80B125B100F07EFC801BA84267
:100D20000AD9A06A40F00400A06200BF002084F845
:100D3000240000BF0320E0E72068006800F0020004
:100D40000028E6D050E0022000F016FD3649096880
:100D5000B1FBF0F021680969344A114091B921686A
:100D6000C9689211114069B921680969304A114076
:100D700031B92168C9689211114009B9142117E0ED
:100D8000292115E021680969294A114021B9216802
:100D9000C9689211114041B121680969254A114081
:100DA00029B92168C968114009B9542100E0FC2122
:100DB00000FB01F715E0681C80B125B100F02CFCA8
:100DC000801BA8420AD9A06A40F00400A06200BFBC
:100DD000002084F8240000BF03208EE70098401C08
:100DE00000900098B842E6D36FF0120021680860C6
:100DF000A06A40F40070A0622068806800F460205F
:100E0000B0F5602F0DD1207B58B9A06A20F4807016
:100E1000A062A06A00F4805018B9A06A40F00100F6
:100E2000A062002069E7000000000020244992240D
:100E3000922449124992240070B50446002500BF4F
:100E400094F82400012801D1022070BD012084F80B
:100E5000240000BF2046FFF791FC0546002D77D106
:100E6000A06A40F20121884340F48070A0623C49AE
:100E70002068884208D13B48006800F4702008B917
:100E8000012002E0002000E0012078B1A06A20F4F7
:100E90008010A0622068406800F4806000B3A06AFF
:100EA00020F4005040F48050A06219E0A06A40F4A1
:100EB0008010A0622B49091F2068884203D028496E
:100EC0002068884204D12748006800F4806000E070
:100ED000002028B1A06A20F4005040F48050A062A5
:100EE000A06A00F4805020B1E06A20F00600E062C1
:100EF00001E00020E06200BF002084F8240000BF71
:100F0000C01E216808602068806800F46020B0F589
:100F1000602F16D112492068884208D11148006814
:100F200000F4702008B9012002E0002000E0012058
:100F300038B12068806840F4A000216888600CE027
:100F400006E02068806840F480102168886004E032
:100F500000BF002084F8240000BF284675E7000089
:100F60000028014004240140F0B5034600BF587931
:100F7000012801D10220F0BD0120587100BF0220DC
:100F800018711868046802F0100640F6FE70B04050
:100F90008443D1E9000640EA060502F0100005FA94
:100FA00000F00443186804601868006802F0100735
:100FB000C026BE40B0431E6830601868006802F06A
:100FC0001007C026BE40B0431E6830600120187173
:100FD00000BF0020587100BF00BFCCE7024611B926
:100FE0001068C06A70471068006BFBE710B50446D4
:100FF0000CB9012010BD207920B900206071204675
:1010000000F008F8022020710020206101202071EA
:101010000020EFE710B586B0044600BF1248C06953
:1010200040F000501049C8610846C06900F0005007
:10103000019000BF00BF00BF0846806940F0040077
:1010400088610846806900F00400019000BF00BF7D
:1010500010200290032003900020049002A903486E
:1010600000F02CF906B010BD00100240000801404D
:1010700038B50446002000902068009029B902F19C
:101080000800009D2844009004E002F11400009D37
:101090002844009000980360002038BD10B5024637
:1010A00000BF5079012801D1022010BD01205071EC
:1010B00000BF022010711068006801F010040123C5
:1010C000A34018431368186061B91068006800F005
:1010D0003C003C2816D11068406840F001001368BD
:1010E00058600FE01068006800F4701301F01004FD
:1010F0003C20A040834205D11068406840F00200C7
:10110000136858600120107100BF0020507100BFAB
:1011100000BFCAE770B50446002594F821000228F4
:1011200003D00420A0630125C1E02068006820F0FE
:101130000E00216808602068006820F00100216826
:1011400008605C492068884252D95A497839206839
:10115000884201D1012047E056496439206888421D
:1011600001D1102040E0534950392068884201D114
:10117000801539E04F493C392068884201D18014FC
:1011800032E04C4928392068884202D14FF480303F
:101190002AE0484914392068884202D14FF480106F
:1011A00022E044492068884201D140041CE04249C1
:1011B0002068884201D1012016E03F49143120689F
:1011C000884201D110200FE03B4928312068884235
:1011D00001D1801508E038493C312068884201D1AE
:1011E000801401E04FF480303349091F086051E05A
:1011F000304978392068884201D1012047E02D49E3
:1012000064392068884201D1102040E029495039D2
:101210002068884201D1801539E026493C39206890
:10122000884201D1801432E022492839206888425E
:1012300002D14FF480302AE01E49143920688842D8
:1012400002D14FF4801022E01A492068884201D16F
:1012500040041CE018492068884201D1012016E0B2
:10126000154914312068884201D110200FE012493D
:1012700028312068884201D1801508E00E493C31B0
:101280002068884201D1801401E04FF48030094980
:1012900080394860012084F8210000BF002084F8D4
:1012A000200000BF606B10B12046616B8847284664
:1012B00070BD000080000240080402402DE9F8479C
:1012C000024600239C467BE14FF0010808FA03F434
:1012D000D1F8008008EA0400A0427DD1DFF8F4A232
:1012E000D1F80480A8EB0A09D0453AD014DCB8F153
:1012F000030F50D009DCB8F1000F31D0B8F1010F65
:101300001CD0B8F1020F49D120E0B8F1110F18D06C
:10131000B8F1120F42D11EE0B9F5881F25D006DCC6
:10132000B9F5803F20D0B9F5801F37D11AE0B9F563
:10133000001F18D0B9F5041F30D117E0D1F80CC048
:101340002DE0D1F80C8008F1040C28E0D1F80C80D5
:1013500008F1080C23E0D1F80C8008F10C0C1EE019
:1013600000BF00BF00BF00BF00BF00BFD1F80880B2
:10137000B8F1000F02D14FF0040C0BE0D1F8088057
:10138000B8F1010F03D14FF0080C146102E04FF0E7
:10139000080C546103E04FF0000C00E000BF00BFF8
:1013A000FF2801D8904601E002F104084646FF28D4
:1013B00002D84FEA830803E0A3F108084FEA88083F
:1013C0004746D6F800804FF00F0909FA07F928EAD6
:1013D00009080CFA07F900E07AE048EA0908C6F8BB
:1013E0000080D1F8048008F08058B8F1805F6FD198
:1013F00000BFDFF8E481D8F8188048F00108DFF872
:10140000D891C9F81880C846D8F8188008F00108A3
:10141000CDF8008000BF00BF4FEAB9384FEA93090A
:1014200058F829504FEA83784FEA18794FF00F089F
:1014300008FA09F825EA0805DFF8A081424502D13B
:101440004FF0000824E0DFF89881424502D14FF0C8
:1014500001081DE0DFF88C81424502D14FF00208FF
:1014600016E0DFF88481424502D14FF003080FE017
:10147000DFF87881424502D14FF0040808E0DFF838
:101480007081424502D14FF0050801E04FF0060897
:101490004FEA83794FEA197908FA09F848EA05050D
:1014A000DFF850814FEA930948F82950D1F80480B9
:1014B00008F48038B8F5803F0BD1DFF83C81D8F8CC
:1014C000008048EA0008DFF83091C9F800800AE09F
:1014D00075E0DFF82481D8F8008028EA0008DFF8FA
:1014E0001891C9F80080D1F8048008F40038B8F5E4
:1014F000003F0ED1DFF8008108F10408D8F8008021
:1015000048EA0008DFF8F09009F10409C9F8008002
:101510000DE0DFF8E48008F10408D8F8008028EA3C
:101520000008DFF8D49009F10409C9F80080D1F867
:10153000048008F48018B8F5801F0ED1DFF8B88059
:1015400008F10808D8F8008048EA0008DFF8A890F9
:1015500009F10809C9F800800DE0DFF89C8008F166
:101560000808D8F8008028EA0008DFF88C9009F114
:101570000809C9F80080D1F8048008F40018B8F50B
:10158000001F0ED1DFF8708008F10C08D8F8008039
:1015900048EA0008DFF8609009F10C09C9F80080FA
:1015A0000DE0DFF8548008F10C08D8F8008028EA34
:1015B0000008DFF8449009F10C09C9F800805B1CB1
:1015C000D1F8008028FA03F8B8F1000F7FF47CAE60
:1015D000BDE8F8870000111000100240000801402B
:1015E000000C0140001001400014014000180140AF
:1015F000001C0140080001400004014002469368BD
:101600000B400BB1012000E0002070470AB10161DE
:1016100001E00B0403617047014800687047000057
:101620000400002003480068034909780844014980
:1016300008607047040000200C00002010B5084826
:10164000006840F0100006490860052000F080F8AE
:101650000F2000F007F800F02BF8002010BD00006C
:101660000020024070B504460E4800784FF47A71AD
:10167000B1FBF0F00C490968B1FBF0F5284600F029
:1016800027FD08B1012070BD102C07D20022214691
:10169000501E00F01EF80548046001E00120F2E74A
:1016A0000020F0E70C0000200000002008000020CF
:1016B000704701460846002809DB00F01F0301229D
:1016C0009A4043099B0003F1E023C3F8002100BFC7
:1016D00070472DE9F05F80460D461646002706F05C
:1016E000A3F9074639462A46334601F00700C0F100
:1016F000070ABAF1040F02D94FF0040A01E0C0F161
:10170000070AD14600F1040ABAF1070F02D24FF0DE
:10171000000A01E0A0F1030AD4464FF0010A0AFAD8
:1017200009FAAAF1010A0AEA020A0AFA0CFA4FF0C7
:10173000010B0BFA0CFBABF1010B0BEA030B4AEAB2
:101740000B042146404606F077F9BDE8F09F000003
:1017500000BF00F00702064B19684FF6FF0319405F
:10176000044B0B4343EA0221014B196000BF704751
:101770000CED00E00000FA052DE9F04385B00646C7
:1017800042A30FCB01AC0FC444A0006800904FF0FF
:101790000008002500270024A146042E36D004DCD2
:1017A000012E3BD0022E6BD15FE0082E32D0102EDE
:1017B00066D13B484468006800F0807000B301A81F
:1017C000C4F38341475C04F4803070B1344840680E
:1017D000C0F340401DF8008004F4803040B131482F
:1017E000B0FBF8F000FB07F502E02F4807FB00F51F
:1017F0002B48406800F48000B0F5800F01D1A94665
:1018000003E068000321B0FBF1F93AE000F0D0F901
:10181000814636E000F0CCF9814632E02048046A87
:1018200004F44070B0F5807F05D104F0020010B1DF
:101830004FF4004918E004F44070B0F5007F07D180
:101840001748406A00F0020010B149F640490BE029
:1018500004F44070B0F5407F06D11148006800F4F0
:10186000003008B14FF224490BE000F091F90C4927
:101870004968C1F38131491C4900B0FBF1F900E02E
:1018800000BF00BF484605B0BDE8F0830203040571
:10189000060708090A0B0C0D0E0F101001020000BC
:1018A0000010024000127A0000093D00F8B504461D
:1018B000002700260025207800F00100002869D0CC
:1018C0004248C06900F0805070B900BF3F48C0690D
:1018D00040F080503D49C8610846C06900F0805022
:1018E000009000BF00BF01273948006800F48070F5
:1018F000B0B93748006840F4807035490860FFF798
:101900008BFE064606E0FFF787FE801B642801D9A0
:101910000320F8BD2E48006800F480700028F2D043
:101920002A48006A00F440752DB3A08800F4407086
:10193000A84220D02548006A20F44075012025499E
:101940000860002008602148056205F0010090B1A0
:10195000FFF762FE064608E0FFF75EFE801B41F2DD
:101960008831884201D90320D3E71848006A00F083
:1019700002000028F0D01548006A20F44070616829
:10198000084312490862012F04D10846C06920F0BB
:101990008050C861207800F00200022807D10B486F
:1019A000406820F44040A168084308494860207816
:1019B00000F01000102807D10448406820F480008F
:1019C00061690843014948600020A2E70010024015
:1019D000007000404004424270B504460D460CB908
:1019E000012070BD5A48006800F00700A8420ED2DE
:1019F0005748006820F0070028435549086008460A
:101A0000006800F00700A84201D00120E9E7207833
:101A100000F0020002281DD1207800F00400042804
:101A200005D14C48406840F4E0604A49486020785D
:101A300000F00800082805D14648406840F460508E
:101A4000444948604348406820F0F000A1680843DA
:101A500040494860207800F0010078B360680128B0
:101A600006D13C48006800F4003090B90120B8E786
:101A70006068022806D13748006800F0007040B95D
:101A80000120AEE73348006800F0020008B90120E9
:101A9000A7E73048406820F00300616808432D49FB
:101AA0004860FFF7B9FD064609E0FFF7B5FD801B6A
:101AB00041F28831884202D9032092E707E02548A5
:101AC000406800F00C006168B0EB810FEDD1204858
:101AD000006800F00700A8420ED91D48006820F0F9
:101AE000070028431A4908600846006800F007000C
:101AF000A84201D0012074E7207800F004000428F7
:101B000007D11448406820F4E060E16808431149B7
:101B10004860207800F00800082808D10D48406887
:101B200020F46050216940EAC1000A49486000F091
:101B30003FF808494968C1F30311074A515CC8409E
:101B40000649086006480068FFF78CFD002048E75A
:101B50000020024000100240AE9600080000002065
:101B600008000020014800687047000000000020C5
:101B700000B5FFF7F7FF04494968C1F30221034AA2
:101B8000515CC84000BD000000100240BE96000835
:101B900000B5FFF7E7FF04494968C1F3C221034AD2
:101BA000515CC84000BD000000100240BE96000815
:101BB000F0B585B00FF26C0C9CE8E01001A8A0E82D
:101BC000E0101CA52D6800950021002200230024B0
:101BD0000020194D696801F00C05F5B1042D02D003
:101BE000082D19D101E0154819E001ADC1F3834674
:101BF000AC5D01F4803555B10F4D6D68C5F34045BE
:101C00001DF805200D4D6543B5FBF2F302E00C4DC8
:101C100004FB05F3184602E000BF084800BF00BF00
:101C200005B0F0BD02030405060708090A0B0C0DF8
:101C30000E0F1010010200000010024000127A0086
:101C400000093D00F8B504460CB90120F8BD207824
:101C500000F00100002878D0F848406800F00C003F
:101C600004280CD0F548406800F00C00082811D179
:101C7000F248406800F48030B0F5803F0AD1EF4868
:101C8000006800F4003000285FD0606800285CD154
:101C90000120DBE700BF6068B0F5803F06D1E74870
:101CA000006840F48030E549086028E0606858B971
:101CB000E248006820F48030E04908600846006887
:101CC00020F4802008601AE06068B0F5A02F0BD1E6
:101CD000DA48006840F48020D84908600846006867
:101CE00040F4803008600AE0D448006820F4803076
:101CF000D24908600846006820F48020086000BFD0
:101D0000606888B1FFF788FC054606E0FFF784FCB1
:101D1000401B642801D9032098E7C848006800F4F4
:101D200000300028F2D010E0FFF776FC054606E010
:101D3000FFF772FC401B642801D9032086E7BF48E7
:101D4000006800F400300028F2D1207800F0020092
:101D5000022857D1B948406800F00C0050B1B7488C
:101D6000406800F00C00082818D1B448406800F41E
:101D7000803098B9B148006800F0020020B12069B5
:101D8000012801D0012061E7AC48006820F0F8008C
:101D9000616940EAC100A949086033E02069E8B1FF
:101DA0000120A7490860FFF737FC054606E0FFF76A
:101DB00033FC401B022801D9032047E79F480068F5
:101DC00000F002000028F2D09C48006820F0F800E3
:101DD000616940EAC1009949086013E00020984910
:101DE0000860FFF719FC054606E0FFF715FC401BED
:101DF000022801D9032029E79048006800F002007A
:101E00000028F2D1207800F0080008282DD1A06920
:101E1000B8B101208B490860FFF7FEFB054606E0DC
:101E2000FFF7FAFB401B022801D903200EE7834885
:101E3000406A00F002000028F2D0012005F042FBC9
:101E400013E000207F490860FFF7E6FB054606E047
:101E5000FFF7E2FB401B022801D90320F6E6774892
:101E6000406A00F002000028F2D1207800F004005F
:101E7000042873D100277148C06900F0805070B900
:101E800000BF6E48C06940F080506C49C861084688
:101E9000C06900F08050009000BF00BF01276A4871
:101EA000006800F48070B0B96748006840F4807042
:101EB00065490860FFF7B0FB054606E0FFF7ACFB9D
:101EC000401B642801D90320C0E65F48006800F485
:101ED00080700028F2D000BFE068012806D1574882
:101EE000006A40F001005549086227E0E06858B9EF
:101EF0005248006A20F00100504908620846006A12
:101F000020F00400086219E0E06805280BD14B4876
:101F1000006A40F00400494908620846006A40F03F
:101F2000010008620AE04548006A20F001004349C8
:101F300008620846006A20F00400086200BFE068FA
:101F4000A0B1FFF769FB054609E0FFF765FB401B01
:101F500041F28831884202D9032077E622E03748EF
:101F6000006A00F002000028EFD012E0FFF754FBF7
:101F7000054608E0FFF750FB401B41F288318842DC
:101F800001D9032062E62D48006A00F00200002813
:101F9000F0D1012F05D12948C06920F08050274990
:101FA000C86100BFE069C8B32448406800F00C0075
:101FB000082860D0E069022848D10020204908663E
:101FC000FFF72AFB054606E0FFF726FB401B022829
:101FD00001D903203AE61948006800F00070002893
:101FE000F2D1206AB0F5803F07D11448406820F450
:101FF0000030A168084311494860D4E9080108434A
:102000000E49496821F4741108430C4948600120C5
:102010000B490866FFF700FB054607E03DE0FFF7C8
:10202000FBFA401B022801D903200FE60348006891
:1020300000F000700028F2D02FE0000000100240F5
:1020400000004242800442420070004000201449D7
:102050000866FFF7E1FA054606E0FFF7DDFA401BE8
:10206000022801D90320F1E50E48006800F0007055
:102070000028F2D111E0E069012800D1E6E5094825
:10208000466806F48031206A814204D106F470115A
:10209000606A814201D00120D8E50020D6E5000029
:1020A0000000424200100240042808D14FF0E02115
:1020B000096941F004014FF0E022116107E04FF09F
:1020C000E021096921F004014FF0E022116170471D
:1020D00070B504462546681EB0F1807F01D301200B
:1020E0000FE0681E4FF0E02148610F214FF0FF30F4
:1020F00005F0A2FC00204FF0E02188610720086174
:10210000002070BD10B504460CB9012010BD94F834
:102110003D0028B9002084F83C00204600F00CF86F
:10212000022084F83D00211D206805F05DFA0120A1
:1021300084F83D000020E9E7704701460868C06860
:1021400040F001000B68D8600868806800F0070262
:10215000062A05D00868006840F001000B68186086
:1021600000207047704701460022002391F8392073
:1021700091F83A3042EA0300704700002DE9F04739
:102180000446206805682068C668206847694FF0E3
:102190000008C14605F00F08B8F1000F0AD105F09C
:1021A000200038B106F0200020B1204605F0C2FA28
:1021B000BDE8F087B8F1000F6DD007F0010018B945
:1021C00006F49070002866D005F0010030B106F4E6
:1021D000807018B1E06B40F00100E06305F004008E
:1021E00030B107F0010018B1E06B40F00200E0638D
:1021F00005F0020030B107F0010018B1E06B40F0CB
:102200000400E06305F0080030B107F0010018B1E8
:10221000E06B40F00800E063E06B68B305F020007D
:1022200028B106F0200010B1204605F083FA20689E
:102230004069C0F38019E06B00F0080010B9B9F1F3
:10224000000F22D0204605F055FA2068406900F0C2
:102250004000B0B12068406920F04000216848612A
:10226000606B50B11748616B4863606BFEF752FFBB
:1022700010B1606B416B88470CE02046FFF772FF9E
:1022800008E02046FFF76EFF04E02046FFF76AFFF4
:102290000020E0638CE705F0800030B106F080009C
:1022A00018B1204605F06AFB82E705F0400030B126
:1022B00006F0400018B1204605F02CFA78E700BF80
:1022C00076E70000E176000810B504460CB901205D
:1022D00010BDA06900B100E000BF94F8390028B932
:1022E000002084F83800204600F028F8242084F8E4
:1022F00039002068C06820F400502168C86020467A
:1023000005F06CFA2068006920F4904021680861AB
:102310002068406920F02A00216848612068C06870
:1023200040F400502168C8600020E063202084F859
:10233000390084F83A000020CAE7000010B586B0E2
:10234000044625492068884244D100BF234880695B
:1023500040F00400214988610846806900F00400CB
:10236000019000BF00BF00BF0846806940F4804074
:1023700088610846806900F48040019000BF00BF7A
:1023800000BF0846806940F0010088610846806906
:1023900000F00100019000BF00BF4815029002202C
:1023A0000390012004900320059002A90C48FEF739
:1023B00085FF4FF4806002900020039002A9084836
:1023C000FEF77CFF2520FFF774F903221146252034
:1023D000FFF77FF906B010BD003801400010024041
:1023E0000008014010B5034693F83A0020282FD189
:1023F00001B10AB9012010BD00BF93F838000128CF
:1024000001D10220F7E7012083F8380000BF99626C
:102410009A85DA850020D863222083F83A0000BF2D
:10242000002083F8380000BF1868C06840F480704E
:102430001C68E0601868406940F001001C68606139
:102440001868C06840F020001C68E0600020D2E7F7
:102450000220D0E71D4A0168914236D11C49098803
:1024600001F4004189BB1A49098801F4804171B126
:10247000184909780A2903D00021154A118024E05F
:102480001349098841F40041114A11801DE01149A6
:1024900009780D2906D10E49098841F480410C4A7A
:1024A000118012E00B490978094A1288C2F30D0223
:1024B000094B995406490988491C054A118011465F
:1024C0000988C72901DD00211180704700380140CB
:1024D000180000201A00002054010020704700BF9F
:1024E000FEE7000000B585B000BF1C48806940F0E1
:1024F00004001A4988610846806900F004000090D1
:1025000000BF00BF00BF0846806940F0100088612E
:102510000846806900F01000009000BF00BF012055
:10252000019000200290022003900320049001A952
:102530000B48FEF7C3FE4FF40040019001200390CA
:1025400001A90748FEF7BAFE202001900120039060
:1025500001A90448FEF7B2FE05B000BD001002401C
:10256000000801400010014010B50446012C01D1C3
:10257000244908702348007868B320212248FFF7D7
:102580003DF858B14FF400412048FFF737F828B123
:1025900001211E48FFF732F801281CD10A2005F05E
:1025A00073FA00201749087020211748FFF726F812
:1025B00008B9012010BD4FF400411448FFF71EF880
:1025C00008B90220F6E701211048FFF717F80128A3
:1025D00015D10320EEE720210B48FFF70FF8012863
:1025E0000DD1C1030948FFF709F8012807D10121DE
:1025F0000648FFF703F810B90120024908700020CF
:10260000D8E7000020000020001001400008014031
:1026100070B5044600261D480588408845431B4880
:10262000808846F60401884216D11848807901282E
:1026300012D10020154988712A2048812B208881D9
:102640000021084604F08CFB0120104988712B20E2
:1026500048812A20888103E00021084604F080FB9D
:1026600004F0A6FE00260DE04FF4807008490861D2
:10267000400048610748046080204861086180008C
:102680000861761CAE42EFD370BD00005C020020F2
:10269000001001400C0C014010B50446002C66D11E
:1026A0006C498871F02008804FF4A070488008467B
:1026B000808849F2413188420BD06648808846F6CE
:1026C0000401884205D06348808845F21031884271
:1026D0001AD12C205F4908812A2048812B2088812B
:1026E0000846808846F60401884205D0594880880B
:1026F00045F21031884206D14FF4A0705549088048
:102700004FF4F0704880A1E05248808845F21051A3
:10271000884210D14FF430504E4908814FF4285070
:1027200048814FF42C5088814FF4F07008804FF4AA
:10273000487048808AE04748808841F663118842A3
:102740000DD12C20434908812B2048812A208881E3
:102750004FF4F07008804FF44870488076E02220F3
:102760003C49088120204881212088816EE0012099
:10277000384988714FF4A0700880F02048800846DE
:10278000808849F24131884205D03248808845F23C
:102790001031884207D12C202E4908812A204881F7
:1027A0002B2088813FE02B48808846F60401884230
:1027B00007D12C20274908812B2048812A20888195
:1027C00031E02448808845F21051884210D14FF4FE
:1027D0003050204908814FF4285048814FF42C5044
:1027E00088814FF4487008804FF4F07048801AE0F8
:1027F0001848808841F6631188420DD12C20154974
:1028000008812A2048812B2088814FF44870088055
:102810004FF4F070488006E022200E490881212004
:102820004881202088810B48808846F60401884230
:1028300005D00848808845F21031884206D14FF40F
:10284000F070044908804FF4A0704880002004F024
:102850005BF810BD5C02002070B504460D461646BC
:10286000D348808849F24131884205D0D0488088D9
:1028700045F21031884240D1CD49488904F086FDA7
:102880004FF48070CB490861400048612012CA496A
:1028900008608020C74948610861800008614010D5
:1028A000086140004861E0B2C34908608020C14926
:1028B0004861086180000861BD49888904F066FDAF
:1028C0004FF48070BB490861400048612812BA4942
:1028D00008608020B74948610861800008614010A5
:1028E000086140004861E8B2B34908608020B149FE
:1028F00048610861800008613DE1AD48808845F28B
:102900001051884250D1AA49488904F03FFD4FF444
:102910008070A8490861400048612012A6490860FB
:102920008020A4494861086180000861A049498964
:10293000491C88B204F02AFD4FF480709D4908615B
:1029400040004861E0B29C49086080209949486194
:102950000861800008619649888904F017FD4FF4EA
:1029600080709449086140004861281292490860CB
:102970008020904948610861800008618C498989FC
:10298000491C88B204F002FD4FF480708949086147
:1029900040004861E8B28849086080208549486164
:1029A000086180000861E6E08148808841F6631193
:1029B00088427DD17E48807920B97D480088401EBC
:1029C000001B84B27A49488904F0E0FC4FF480701F
:1029D00078490861400048612012774908608020EA
:1029E0007449486108618000086140100861400036
:1029F0004861E0B27049086080206E494861086112
:102A000080000861401008614000486120126A4956
:102A100008608020674948610861800008614010B3
:102A2000086140004861E0B2634908608020614964
:102A300048610861800008615D49888904F0A6FC4E
:102A40004FF480705B4908614000486128125A4980
:102A50000860802057494861086180000861401083
:102A6000086140004861E8B253490860802051493C
:102A700048610861800008614010086140004861B9
:102A800028124D49086080204A4948610861800049
:102A900008614010086140004861E8B2464908609A
:102AA00080204449486108618000086163E0FFE7D5
:102AB0003F48808846F60401884249D13C488079E5
:102AC000012804D13A480088401E001B84B23849CE
:102AD000488904F05BFC4FF480703649086140007F
:102AE00048612012344908608020324948610861F9
:102AF000800008614010086140004861E0B22E4942
:102B0000086080202B4948610861800008612849DD
:102B1000888904F03BFC4FF480702649086140002E
:102B200048612812244908608020224948610861D0
:102B3000800008614010086140004861E8B21E4909
:102B4000086080201B49486108618000086112E02C
:102B500017488079012804D115480088401E001BC1
:102B600084B213494889214604F02AFC1049888917
:102B7000294604F025FC4FF480700E49486140005E
:102B800048610B4800890C49086080200949486168
:102B900008618000086140100861400048610648F3
:102BA00006608020486108618000086170BD0000F7
:102BB0005C020020001001400C0C014000B585B003
:102BC00000BFFE48806940F00800FC498861084663
:102BD000806900F00800009000BF00BF00BF0846F9
:102BE000806940F0100088610846806900F010009C
:102BF000009000BF00BF4FF4F860019001200290E8
:102C000003900320049001A9ED48FEF757FB4FF60F
:102C1000FF70019001A9EB48FEF750FB00BFEA49A5
:102C2000486820F0E06040F08060486000BF3220DB
:102C300004F02AFF0121002004F0C2FB322004F03E
:102C400023FF002003F0EEFDE049888008468088DD
:102C5000FF280ADB084680884FF6FF71884204D0BF
:102C6000DA488088B0F5134F7ED1D32004F08EFB74
:102C700003F0A0FD03F09EFD03F09CFDD349888086
:102C8000084680884FF6FF7101EA0020CF4988800E
:102C900003F090FDCD4989880843CC4988800846D7
:102CA000808849F2413188425ED0BF2004F06EFB3B
:102CB00003F080FD03F07EFD03F07CFD03F07AFD60
:102CC000C2498880084680884FF6FF7101EA0020DB
:102CD000BE49888003F06EFDBC4989880843BB4922
:102CE00088800846808846F60401884274D0D42043
:102CF00004F04CFB03F05EFD03F05CFD03F05AFDB5
:102D0000B2498880084680884FF6FF7101EA0020AA
:102D1000AE49888003F04EFDAC4989880843AB4931
:102D200088800846808845F21031884254D04FF49C
:102D30005A4004F02BFB03F03DFD4FF45B4004F0E0
:102D400025FB03F037FDA1498880084680884FF6AF
:102D5000FF7101EA00209D4988804FF45C4004F037
:102D600015FB03F027FD00E036E098498988084309
:102D70009649888008468088B0F5004F02D145F218
:102D8000105088809148808845F21051884223D0A5
:102D9000A12004F0FBFA03F00DFD8C49888003F0BC
:102DA00009FD8A498880084680884FF6FF7101EA4C
:102DB00000208649888003F0FDFC84498988084307
:102DC000824988800846808845F26171884203D133
:102DD00041F663107D4988807C4881887CA0FDF79E
:102DE00047FA7A48808849F2413188427ED1CF2023
:102DF00004F0CCFA002004F0B7FAC12004F0B4FAD1
:102E0000302004F0B1FAED2004F0C0FA642004F0A0
:102E1000ABFA032004F0A8FA122004F0A5FA8120EE
:102E200004F0A2FAE82004F0B1FA852004F09CFA3C
:102E3000102004F099FA7A2004F096FACB2004F0DE
:102E4000A5FA392004F090FA2C2004F08DFA002025
:102E500004F08AFA342004F087FA022004F084FA9D
:102E6000F72004F093FA202004F07EFAEA2004F020
:102E70008DFA002004F078FA002004F075FAC020E2
:102E800004F084FA1B2004F06FFAC12004F07EFAEB
:102E9000012004F069FAC52004F078FA302004F02B
:102EA00063FA302004F060FAC72004F06FFAB7200C
:102EB00004F05AFA362004F069FA482004F054FA73
:102EC0003A2004F063FA552004F04EFAB12004F0E1
:102ED0005DFA002004F048FA1A2004F045FAB62002
:102EE00004F054FA0A2004F03FFA00E0AAE0A2201D
:102EF00004F03AFAF22004F049FA002004F034FA1F
:102F0000262004F043FA012004F02EFAE02004F019
:102F10003DFA0F2004F028FA2A2004F025FA282090
:102F200004F022FA082004F01FFA0E2004F01CFA24
:102F3000082004F019FA542004F016FAA92004F02D
:102F400013FA432004F010FA0A2004F00DFA0F20BF
:102F500004F00AFA002004F007FA002004F004FA52
:102F6000002004F001FA002004F0FEF9E12004F052
:102F70000DFA002004F0F8F9152004F0F5F91720F7
:102F800004F0F2F9072004F0EFF9112004F0ECF955
:102F9000062004F0E9F92B2004F0E6F9562004F0AD
:102FA000E3F93C2004F0E0F9052004F0DDF91020FD
:102FB00004F0DAF90F2004F0D7F911E00010024014
:102FC00000100140000C0140000001405C020020A4
:102FD000204C43442049443A25780D0A0000000063
:102FE0003F2004F0C1F93F2004F0BEF90F2004F0A7
:102FF000BBF92B2004F0CAF9002004F0B5F9002039
:1030000004F0B2F9012004F0AFF93F2004F0ACF96C
:103010002A2004F0BBF9002004F0A6F9002004F0F7
:10302000A3F9002004F0A0F9EF2004F09DF911208D
:1030300004F0ACF9782004F027FD292004F0A6F96B
:1030400003F099BBFE48808846F6040188427CD193
:10305000112004F09BF9142004F016FDD02004F098
:1030600095F9072004F080F9422004F07DF91D2035
:1030700004F07AF9D12004F089F9002004F074F901
:103080001A2004F071F9092004F06EF9D22004F03E
:103090007DF9012004F068F9222004F065F9C020D0
:1030A00004F074F9102004F05FF93B2004F05CF99F
:1030B000002004F059F9022004F056F9112004F020
:1030C00053F9C52004F062F9032004F04DF9C8203B
:1030D00004F05CF9002004F047F9252004F044F9DD
:1030E000212004F041F9052004F03EF9002004F00D
:1030F0003BF90A2004F038F9652004F035F9252061
:1031000004F032F9772004F02FF9502004F02CF964
:103110000F2004F029F9002004F026F9F82004F02B
:1031200035F9012004F020F9FE2004F02FF90020E9
:1031300004F01AF9022004F017F9202004F026F90F
:10314000362004F023F9082000E02CE004F00CF90C
:103150003A2004F01BF9552004F006F92B2004F066
:1031600015F9002004F000F9002004F0FDF801201A
:1031700004F0FAF83F2004F0F7F82A2004F006F9EA
:10318000002004F0F1F8002004F0EEF8012004F033
:10319000EBF8DF2004F0E8F8782004F075FC292033
:1031A00004F0F4F84CE7A648808845F210318842D4
:1031B00040F07C87ED2004F0E9F8012004F0D4F819
:1031C000FE2004F0D1F8EE2004F0E0F8DE2004F058
:1031D000CBF8212004F0C8F8F12004F0D7F8012042
:1031E00004F0C2F8DF2004F0D1F8102004F0BCF89D
:1031F000C42004F0CBF88F2004F0B6F8C62004F009
:10320000C5F8002004F0B0F8E22004F0ADF8E220A8
:1032100004F0AAF8E22004F0A7F8BF2004F0B6F802
:10322000AA2004F0A1F8B02004F0B0F80D2004F0BA
:103230009BF8002004F098F80D2004F095F8002089
:1032400004F092F8112004F08FF8002004F08CF8BC
:10325000192004F089F8002004F086F8212004F0F9
:1032600083F8002004F080F82D2004F07DF8002081
:1032700004F07AF83D2004F077F8002004F074F8A8
:103280005D2004F071F8002004F06EF85D2004F079
:103290006BF8002004F068F8B12004F077F8802083
:1032A00004F062F8002004F05FF88B2004F05CF872
:1032B000002004F059F8962004F056F8002004F09D
:1032C00053F8B22004F062F8002004F04DF800201A
:1032D00004F04AF8022004F047F8002004F044F813
:1032E000032004F041F8002004F03EF8B32004F07D
:1032F0004DF8002004F038F8002004F035F80020E4
:1033000004F032F8002004F02FF8002004F02CF82C
:10331000002004F029F8002004F026F8002004F032
:1033200023F8002004F020F8002004F01DF800200D
:1033300004F01AF8002004F017F8002004F014F844
:10334000002004F011F8002004F00EF8002004F032
:103350000BF8002004F008F8002004F005F8002025
:1033600004F002F8002003F0FFFF002003F0FCFF50
:10337000002003F0F9FF002003F0F6FF002003F027
:10338000F3FFB42004F002F88B2003F0EDFF0020DF
:1033900003F0EAFF962003F0E7FF002003F0E4FFCC
:1033A000A12003F0E1FF002003F0DEFFB52003F0D1
:1033B000EDFF022003F0D8FF002003F0D5FF03202B
:1033C00003F0D2FF002003F0CFFF042003F0CCFF76
:1033D000002003F0C9FFB62003F0D8FF002003F05F
:1033E000C3FF002003F0C0FFB72003F0CFFF002091
:1033F00003F0BAFF002003F0B7FF3F2003F0B4FF53
:10340000002003F0B1FF5E2003F0AEFF002003F0C8
:10341000ABFF642003F0A8FF002003F0A5FF8C2081
:1034200003F0A2FF002003F09FFFAC2003F09CFFFD
:10343000002003F099FFDC2003F096FF002001E05C
:103440005C02002003F090FF702003F08DFF00204D
:1034500003F08AFF902003F087FF002003F084FF31
:10346000EB2003F081FF002003F07EFFDC2003F05F
:103470007BFF002003F078FFB82003F087FF0020D7
:1034800003F072FF002003F06FFF002003F06CFFD9
:10349000002003F069FF002003F066FF002003F026
:1034A00063FF002003F060FF002003F05DFFBA20FF
:1034B00003F06CFF242003F057FF002003F054FFBB
:1034C000002003F051FF002003F04EFFC12003F065
:1034D0005DFF202003F048FF002003F045FF54204B
:1034E00003F042FF002003F03FFFFF2003F03CFF0A
:1034F000002003F039FFC22003F048FF0A2003F048
:1035000033FF002003F030FF042003F02DFF0020E4
:1035100003F02AFFC32003F039FF3C2003F024FF0F
:10352000002003F021FF3A2003F01EFF002003F0EB
:103530001BFF392003F018FF002003F015FF372090
:1035400003F012FF002003F00FFF3C2003F00CFFFC
:10355000002003F009FF362003F006FF002003F0EF
:1035600003FF322003F000FF002003F0FDFE2F20B8
:1035700003F0FAFE002003F0F7FE2C2003F0F4FE27
:10358000002003F0F1FE292003F0EEFE002003F0FE
:10359000EBFE262003F0E8FE002003F0E5FE2420E9
:1035A00003F0E2FE002003F0DFFE242003F0DCFE47
:1035B000002003F0D9FE232003F0D6FE002003F004
:1035C000D3FE3C2003F0D0FE002003F0CDFE3620D9
:1035D00003F0CAFE002003F0C7FE322003F0C4FE51
:1035E000002003F0C1FE2F2003F0BEFE002003F0F8
:1035F000BBFE2C2003F0B8FE002003F0B5FE29200E
:1036000003F0B2FE002003F0AFFE262003F0ACFE74
:10361000002003F0A9FE242003F0A6FE002003F002
:10362000A3FE242003F0A0FE002003F09DFE232033
:1036300003F09AFE002003F097FEC42003F0A6FEDC
:10364000622003F091FE002003F08EFE052003F0BF
:103650008BFE002003F088FE842003F085FE00200E
:1036600003F082FEF02003F07FFE002003F07CFEDA
:10367000182003F079FE002003F076FEA42003F06A
:1036800073FE002003F070FE182003F06DFE002092
:1036900003F06AFE502003F067FE002003F064FE92
:1036A0000C2003F061FE002003F05EFE172003F003
:1036B0005BFE002003F058FE952003F055FE00202D
:1036C00003F052FEF32003F04FFE002003F04CFE07
:1036D000E62003F049FE002003F046FEC52003F07B
:1036E00055FE322003F040FE002003F03DFE442052
:1036F00003F03AFE002003F037FE652003F034FEAD
:10370000002003F031FE762003F02EFE002003F0AF
:103710002BFE882003F028FE002003F025FEC620A3
:1037200003F034FE202003F01FFE002003F01CFEF7
:10373000172003F019FE002003F016FE012003F00D
:1037400013FE002003F010FEC72003F01FFE002030
:1037500003F00AFE002003F007FE002003F004FE41
:10376000002003F001FEC82003F010FE002003F04B
:10377000FBFD002003F0F8FD002003F0F5FD002024
:1037800003F0F2FDC92003F001FE002003F0ECFD80
:10379000002003F0E9FD002003F0E6FD002003F027
:1037A000E3FD002003F0E0FD002003F0DDFD00203C
:1037B00003F0DAFD002003F0D7FD002003F0D4FD74
:1037C000002003F0D1FD002003F0CEFD002003F027
:1037D000CBFD002003F0C8FD002003F0C5FD002054
:1037E00003F0C2FD002003F0BFFDE02003F0CEFD9A
:1037F000162003F0B9FD002003F0B6FD1C2003F0F5
:10380000B3FD002003F0B0FD212003F0ADFD00204A
:1038100003F0AAFD362003F0A7FD002003F0A4FD6D
:10382000462003F0A1FD002003F09EFD522003F08E
:103830009BFD002003F098FD642003F095FD00201F
:1038400003F092FD7A2003F08FFD002003F08CFD41
:103850008B2003F089FD002003F086FD992003F002
:1038600083FD002003F080FDA82003F07DFD0020F3
:1038700003F07AFDB92003F077FD002003F074FD1A
:10388000C42003F071FD002003F06EFDCA2003F098
:103890006BFD002003F068FDD22003F065FD0020E1
:1038A00003F062FDD92003F05FFD002003F05CFD12
:1038B000E02003F059FD002003F056FDF32003F053
:1038C00053FD002003F050FDE12003F05FFD1620C2
:1038D00003F04AFD002003F047FD1C2003F044FDE7
:1038E000002003F041FD222003F03EFD002003F004
:1038F0003BFD362003F038FD002003F035FD452068
:1039000003F032FD002003F02FFD522003F02CFDC8
:10391000002003F029FD642003F026FD002003F0C1
:1039200023FD7A2003F020FD002003F01DFD8B20F5
:1039300003F01AFD002003F017FD992003F014FD99
:10394000002003F011FDA82003F00EFD002003F07D
:103950000BFDB92003F008FD002003F005FDC42095
:1039600003F002FD002003F0FFFCCA2003F0FCFC82
:10397000002003F0F9FCD22003F0F6FC002003F055
:10398000F3FCD82003F0F0FC002003F0EDFCE02075
:1039900003F0EAFC002003F0E7FCF32003F0E4FC72
:1039A000002003F0E1FCE22003F0F0FC052003F02E
:1039B000DBFC002003F0D8FC0B2003F0D5FC00203A
:1039C00003F0D2FC1B2003F0CFFC002003F0CCFC62
:1039D000342003F0C9FC002003F0C6FC442003F0AF
:1039E000C3FC002003F0C0FC4F2003F0BDFC00200E
:1039F00003F0BAFC612003F0B7FC002003F0B4FC34
:103A0000792003F0B1FC002003F0AEFC882003F025
:103A1000ABFC002003F0A8FC972003F0A5FC0020DD
:103A200003F0A2FCA62003F09FFC002003F09CFC06
:103A3000B72003F099FC002003F096FCC22003F0AD
:103A400093FC002003F090FCC72003F08DFC0020C5
:103A500003F08AFCD12003F087FC002003F084FCF3
:103A6000D62003F081FC002003F07EFCDD2003F073
:103A70007BFC002003F078FCF32003F075FC0020B1
:103A800003F072FCE32003F081FC052003F06CFCE2
:103A9000002003F069FC0A2003F066FC002003F01C
:103AA00063FC1C2003F060FC002003F05DFC33206D
:103AB00003F05AFC002003F057FC442003F054FCB0
:103AC000002003F051FC502003F04EFC002003F0D6
:103AD0004BFC622003F048FC002003F045FC7820FA
:103AE00003F042FC002003F03FFC882003F03CFC84
:103AF000002003F039FC972003F036FC002003F08F
:103B000033FCA62003F030FC002003F02DFCB7208E
:103B100003F02AFC002003F027FCC22003F024FC61
:103B2000002003F021FCC72003F01EFC002003F05E
:103B30001BFCD12003F018FC002003F015FCD5205D
:103B400003F012FC002003F00FFCDD2003F00CFC5E
:103B5000002003F009FCF32003F006FC002003F032
:103B600003FCE42003F012FC012003F0FDFB002025
:103B700003F0FAFB012003F0F7FB002003F0F4FB55
:103B8000022003F0F1FB002003F0EEFB2A2003F0FB
:103B9000EBFB002003F0E8FB3C2003F0E5FB0020FA
:103BA00003F0E2FB4B2003F0DFFB002003F0DCFB23
:103BB0005D2003F0D9FB002003F0D6FB742003F056
:103BC000D3FB002003F0D0FB842003F0CDFB0020CA
:103BD00003F0CAFB932003F0C7FB002003F0C4FBF3
:103BE000A22003F0C1FB002003F0BEFBB32003F0D2
:103BF000BBFB002003F0B8FBBE2003F0B5FB0020A8
:103C000003F0B2FBC42003F0AFFB002003F0ACFBD9
:103C1000CD2003F0A9FB002003F0A6FBD32003F086
:103C2000A3FB002003F0A0FBDD2003F09DFB0020A0
:103C300003F09AFBF32003F097FB002003F094FBC2
:103C4000E52003F0A3FB002003F08EFB002003F02F
:103C50008BFB002003F088FB002003F085FB022093
:103C600003F082FB002003F07FFB292003F07CFBA4
:103C7000002003F079FB3C2003F076FB002003F0EA
:103C800073FB4B2003F070FB002003F06DFB5D2005
:103C900003F06AFB002003F067FB742003F064FB71
:103CA000002003F061FB842003F05EFB002003F0A2
:103CB0005BFB932003F058FB002003F055FBA22090
:103CC00003F052FB002003F04FFBB32003F04CFB4A
:103CD000002003F049FBBE2003F046FB002003F068
:103CE00043FBC42003F040FB002003F03DFBCD204C
:103CF00003F03AFB002003F037FBD32003F034FB42
:103D0000002003F031FBDC2003F02EFB002003F049
:103D10002BFBF32003F028FB002003F025FBE6201B
:103D200003F034FB112003F01FFB002003F01CFB09
:103D3000342003F019FB002003F016FB562003F09B
:103D400013FB002003F010FB762003F00DFB002096
:103D500003F00AFB772003F007FB002003F004FBCD
:103D6000662003F001FB002003F0FEFA882003F038
:103D7000FBFA002003F0F8FA992003F0F5FA00208E
:103D800003F0F2FABB2003F0EFFA002003F0ECFAA4
:103D9000992003F0E9FA002003F0E6FA662003F028
:103DA000E3FA002003F0E0FA552003F0DDFA0020EA
:103DB00003F0DAFA552003F0D7FA002003F0D4FA22
:103DC000452003F0D1FA002003F0CEFA432003F09F
:103DD000CBFA002003F0C8FA442003F0C5FA002013
:103DE00003F0C2FAE72003F0D1FA322003F0BCFA64
:103DF000002003F0B9FA552003F0B6FA002003F0D2
:103E0000B3FA762003F0B0FA002003F0ADFA662092
:103E100003F0AAFA002003F0A7FA672003F0A4FA3F
:103E2000002003F0A1FA672003F09EFA002003F0BF
:103E30009BFA872003F098FA002003F095FA992066
:103E400003F092FA002003F08FFABB2003F08CFA03
:103E5000002003F089FA992003F086FA002003F08D
:103E600083FA772003F080FA002003F07DFA4420E3
:103E700003F07AFA002003F077FA562003F074FA80
:103E8000002003F071FA232003F06EFA002003F003
:103E90006BFA332003F068FA002003F065FA45203E
:103EA00003F062FA002003F05FFAE82003F06EFAF4
:103EB000002003F059FA002003F056FA992003F08D
:103EC00053FA002003F050FA872003F04DFA002047
:103ED00003F04AFA882003F047FA002003F044FA7E
:103EE000772003F041FA002003F03EFA662003F049
:103EF0003BFA002003F038FA882003F035FA00205E
:103F000003F032FAAA2003F02FFA002003F02CFA73
:103F1000BB2003F029FA002003F026FA992003F0D1
:103F200023FA002003F020FA662003F01DFA002097
:103F300003F01AFA552003F017FA002003F014FAE0
:103F4000552003F011FA002003F00EFA442003F08C
:103F50000BFA002003F008FA442003F005FA0020D1
:103F600003F002FA552003F0FFF9002003F0FCF9FA
:103F7000E92003F00BFAAA2003F0F6F9002003F081
:103F8000F3F9002003F0F0F9002003F0EDF9002030
:103F900003F0FCF9AA2003F0E7F9CF2003F0F6F9CB
:103FA000002003F0E1F9002003F0DEF9002003F027
:103FB000DBF9002003F0D8F9002003F0D5F9002048
:103FC00003F0D2F9002003F0CFF9002003F0CCF980
:103FD000002003F0C9F9002003F0C6F9002003F027
:103FE000C3F9002003F0C0F9002003F0BDF9002060
:103FF00003F0BAF9002003F0B7F9002003F0B4F998
:10400000002003F0B1F9F02003F0C0F9002003F024
:10401000ABF9502003F0A8F9002003F0A5F9002027
:1040200003F0A2F9002003F09FF9F32003F0AEF9AA
:10403000002003F099F9F92003F0A8F9062003F015
:1040400093F9102003F090F9292003F08DF9002056
:1040500003F08AF93A2003F099F9552003F084F926
:10406000112003F093F9642003F00EFD292003F0E2
:104070008DF9352003F08AF9002003F075F95120FD
:1040800003F084F9FF2003F06FF9532003F07EF969
:104090002C2003F069F9552003F078F9822003F011
:1040A00063F92C2003F072F902F065BBFE488088AA
:1040B00045F2105188427DD155214FF4704003F0F4
:1040C0007FF9AA214FF2010003F07AF952214FF251
:1040D000020003F075F908214FF2030003F070F9B4
:1040E00001214FF2040003F06BF90D214FF4304031
:1040F00003F066F90D214BF2010003F061F90D2187
:104100004BF2020003F05CF934214FF4364003F027
:1041100057F934214BF2016003F052F934214BF28C
:10412000026003F04DF90D214FF4314003F048F9DE
:104130000D214BF2011003F043F90D214BF2021057
:1041400003F03EF934214FF4374003F039F93421BC
:104150004BF2017003F034F934214BF2027003F09A
:104160002FF900214FF4324003F02AF900214BF2DD
:10417000012003F025F900214BF2022003F020F981
:1041800024214FF4384003F01BF924214BF60100A1
:1041900003F016F924214BF6020003F011F9012176
:1041A0004FF43F4003F00CF90F214FF4334003F07C
:1041B00007F900E0FDE30F214BF2013003F000F9B5
:1041C0000F214BF2023003F0FBF834214FF4394059
:1041D00003F0F6F834214BF6011003F0F1F8342126
:1041E0004BF6021003F0ECF808214FF4354003F0D1
:1041F000E7F808214BF2015003F0E2F808214BF2F6
:10420000025003F0DDF803214FF4424003F0D8F8E8
:1042100024214FF43A4003F0D3F824214BF6012037
:1042200003F0CEF824214BF6022003F0C9F8002158
:104230004FF43C4003F0C4F878214BF6014003F002
:10424000BFF800214BF6024003F0BAF800214FF40A
:104250003D4003F0B5F878214BF6015003F0B0F87B
:1042600000214BF6025003F0ABF800214FF43E4022
:1042700003F0A6F864214BF6016003F0A1F80021D9
:104280004FF4514003F09CF833214DF2011003F03C
:1042900097F800214DF2021003F092F834214DF20C
:1042A000031003F08DF800214DF2041003F088F89C
:1042B0003A214DF2051003F083F800214DF206106B
:1042C00003F07EF84A214DF2071003F079F800213F
:1042D0004DF2081003F074F85C214DF2091003F060
:1042E0006FF800214DF20A1003F06AF881214DF2B7
:1042F0000B1003F065F800214DF20C1003F060F88C
:10430000A6214DF20D1003F05BF800214DF20E10C6
:1043100003F056F8E5214DF20F1003F051F801219A
:104320004DF2101003F04CF813214DF2111003F070
:1043300047F801214DF2121003F042F854214DF2DA
:10434000131003F03DF801214DF2141003F038F87A
:1043500082214DF2151003F033F801214DF21610B1
:1043600003F02EF8CA214DF2171003F029F80221AC
:104370004DF2181003F024F800214DF2191003F04B
:104380001FF802214DF21A1003F01AF801214DF224
:104390001B1003F015F802214DF21C1003F010F869
:1043A00034214DF21D1003F00BF802214DF21E10C6
:1043B00003F006F867214DF21F1003F001F8022107
:1043C0004DF2201002F0FCFF84214DF2211002F08A
:1043D000F7FF02214DF2221002F0F2FFA4214DF26C
:1043E000231002F0EDFF02214DF2241002F0E8FF4D
:1043F000B7214DF2251002F0E3FF02214DF2261005
:1044000002F0DEFFCF214DF2271002F0D9FF02218A
:104410004DF2281002F0D4FFDE214DF2291002F0F7
:10442000CFFF02214DF22A1002F0CAFFF2214DF215
:104430002B1002F0C5FF02214DF22C1002F0C0FF3C
:10444000FE214DF22D1002F0BBFF03214DF22E1084
:1044500002F0B6FF10214DF22F1002F0B1FF032140
:104460004DF2301002F0ACFF33214DF2311002F06A
:10447000A7FF03214DF2321002F0A2FF6D214DF291
:10448000331002F09DFF00214FF4524002F098FFDC
:1044900033214DF2012002F093FF00214DF2022062
:1044A00002F08EFF342101E05C0200204DF2032077
:1044B00002F086FF00214DF2042002F081FF3A2134
:1044C0004DF2052002F07CFF00214DF2062002F0A3
:1044D00077FF4A214DF2072002F072FF00214DF2D2
:1044E000082002F06DFF5C214DF2092002F068FF08
:1044F00000214DF20A2002F063FF81214DF20B20D2
:1045000002F05EFF00214DF20C2002F059FFA621BF
:104510004DF20D2002F054FF00214DF20E2002F06A
:104520004FFFE5214DF20F2002F04AFF01214DF22D
:10453000102002F045FF13214DF2112002F040FF40
:1045400001214DF2122002F03BFF54214DF21320C5
:1045500002F036FF01214DF2142002F031FF8221DA
:104560004DF2152002F02CFF01214DF2162002F031
:1045700027FFCA214DF2172002F022FF02214DF23F
:10458000182002F01DFF00214DF2192002F018FF43
:1045900002214DF21A2002F013FF01214DF21B20DF
:1045A00002F00EFF02214DF21C2002F009FF34211F
:1045B0004DF21D2002F004FF02214DF21E2002F0F8
:1045C000FFFE67214DF21F2002F0FAFE02214DF29C
:1045D000202002F0F5FE84214DF2212002F0F0FEB1
:1045E00002214DF2222002F0EBFEA4214DF2232005
:1045F00002F0E6FE02214DF2242002F0E1FEB72196
:104600004DF2252002F0DCFE02214DF2262002F0C0
:10461000D7FECF214DF2272002F0D2FE02214DF22B
:10462000282002F0CDFEDE214DF2292002F0C8FE46
:1046300002214DF22A2002F0C3FEF2214DF22B207E
:1046400002F0BEFE02214DF22C2002F0B9FEFE2146
:104650004DF22D2002F0B4FE03214DF22E2002F087
:10466000AFFE10214DF22F2002F0AAFE03214DF2E1
:10467000302002F0A5FE33214DF2312002F0A0FEE1
:1046800003214DF2322002F09BFE6D214DF23320CA
:1046900002F096FE00214FF4534002F091FE3321C8
:1046A0004DF2013002F08CFE00214DF2023002F09A
:1046B00087FE34214DF2033002F082FE00214DF2DC
:1046C000043002F07DFE3A214DF2053002F078FE12
:1046D00000214DF2063002F073FE4A214DF2073000
:1046E00002F06EFE00214DF2083002F069FE5C21FE
:1046F0004DF2093002F064FE00214DF20A3002F062
:104700005FFE81214DF20B3002F05AFE00214DF286
:104710000C3002F055FEA6214DF20D3002F050FE95
:1047200000214DF20E3002F04BFEE5214DF20F302C
:1047300002F046FE01214DF2103002F041FE13213D
:104740004DF2113002F03CFE01214DF2123002F028
:1047500037FE54214DF2133002F032FE01214DF2AA
:10476000143002F02DFE82214DF2153002F028FEA9
:1047700001214DF2163002F023FECA214DF217300E
:1047800002F01EFE02214DF2183002F019FE002147
:104790004DF2193002F014FE02214DF21A3002F0EF
:1047A0000FFE01214DF21B3002F00AFE02214DF2F4
:1047B0001C3002F005FE34214DF21D3002F000FEE7
:1047C00002214DF21E3002F0FBFD67214DF21F3039
:1047D00002F0F6FD02214DF2203002F0F1FD8421BD
:1047E0004DF2213002F0ECFD02214DF2223002F0B8
:1047F000E7FDA4214DF2233002F0E2FD02214DF24B
:10480000243002F0DDFDB7214DF2253002F0D8FD55
:1048100002214DF2263002F0D3FDCF214DF2273098
:1048200002F0CEFD02214DF2283002F0C9FDDE215A
:104830004DF2293002F0C4FD02214DF22A3002F07F
:10484000BFFDF2214DF22B3002F0BAFD02214DF2F4
:104850002C3002F0B5FDFE214DF22D3002F0B0FDFE
:1048600003214DF22E3002F0ABFD10214DF22F301E
:1048700002F0A6FD03214DF2303002F0A1FD3321FC
:104880004DF2313002F09CFD03214DF2323002F046
:1048900097FD6D214DF2333002F092FD00214FF46F
:1048A000544002F08DFD33214DF2014002F088FDAD
:1048B00000214DF2024002F083FD34214DF203400D
:1048C00002F07EFD00214DF2044002F079FD3A2114
:1048D0004DF2054002F074FD00214DF2064002F059
:1048E0006FFD4A214DF2074002F06AFD00214DF2B2
:1048F000084002F065FD5C214DF2094002F060FDC8
:1049000000214DF20A4002F05BFD81214DF20B4087
:1049100002F056FD00214DF20C4002F051FDA6219F
:104920004DF20D4002F04CFD00214DF20E4002F020
:1049300047FDE5214DF20F4002F042FD01214DF20D
:10494000104002F03DFD13214DF2114002F038FD00
:1049500001214DF2124002F033FD54214DF213407B
:1049600002F02EFD01214DF2144002F029FD8221BA
:104970004DF2154002F024FD01214DF2164002F0E7
:104980001FFDCA214DF2174002F01AFD02214DF21F
:10499000184002F015FD00214DF2194002F010FD03
:1049A00002214DF21A4002F00BFD01214DF21B4095
:1049B00000E006E302F004FD02214DF21C4002F08B
:1049C000FFFC34214DF21D4002F0FAFC02214DF2B1
:1049D0001E4002F0F5FC67214DF21F4002F0F0FC92
:1049E00002214DF2204002F0EBFC84214DF22140E7
:1049F00002F0E6FC02214DF2224002F0E1FCA4218B
:104A00004DF2234002F0DCFC02214DF2244002F082
:104A1000D7FCB7214DF2254002F0D2FC02214DF225
:104A2000264002F0CDFCCF214DF2274002F0C8FC19
:104A300002214DF2284002F0C3FCDE214DF2294054
:104A400002F0BEFC02214DF22A4002F0B9FCF22134
:104A50004DF22B4002F0B4FC02214DF22C4002F04A
:104A6000AFFCFE214DF22D4002F0AAFC03214DF2D5
:104A70002E4002F0A5FC10214DF22F4002F0A0FCC8
:104A800003214DF2304002F09BFC33214DF23140C6
:104A900002F096FC03214DF2324002F091FC6D21B0
:104AA0004DF2334002F08CFC00214FF4554002F0EF
:104AB00087FC33214DF2015002F082FC00214DF2BF
:104AC000025002F07DFC34214DF2035002F078FCDC
:104AD00000214DF2045002F073FC3A214DF20550D2
:104AE00002F06EFC00214DF2065002F069FC4A21F2
:104AF0004DF2075002F064FC00214DF2085002F024
:104B00005FFC5C214DF2095002F05AFC00214DF28D
:104B10000A5002F055FC81214DF20B5002F050FC7E
:104B200000214DF20C5002F04BFCA6214DF20D502D
:104B300002F046FC00214DF20E5002F041FCE5214E
:104B40004DF20F5002F03CFC01214DF2105002F0EA
:104B500037FC13214DF2115002F032FC01214DF2CD
:104B6000125002F02DFC54214DF2135002F028FC9B
:104B700001214DF2145002F023FC82214DF2155018
:104B800002F01EFC01214DF2165002F019FCCA2160
:104B90004DF2175002F014FC02214DF2185002F0B1
:104BA0000FFC00214DF2195002F00AFC02214DF2D7
:104BB0001A5002F005FC01214DF21B5002F000FCDE
:104BC00002214DF21C5002F0FBFB34214DF21D502E
:104BD00002F0F6FB02214DF21E5002F0F1FB6721BC
:104BE0004DF21F5002F0ECFB02214DF2205002F07A
:104BF000E7FB84214DF2215002F0E2FB02214DF24D
:104C0000225002F0DDFBA4214DF2235002F0D8FB2C
:104C100002214DF2245002F0D3FBB7214DF2255072
:104C200002F0CEFB02214DF2265002F0C9FBCF214B
:104C30004DF2275002F0C4FB02214DF2285002F041
:104C4000BFFBDE214DF2295002F0BAFB02214DF2EA
:104C50002A5002F0B5FBF2214DF22B5002F0B0FBCE
:104C600002214DF22C5002F0ABFBFE214DF22D50F3
:104C700002F0A6FB03214DF22E5002F0A1FB102101
:104C80004DF22F5002F09CFB03214DF2305002F008
:104C900097FB33214DF2315002F092FB03214DF28C
:104CA000325002F08DFB6D214DF2335002F088FB43
:104CB00000214FF4564002F083FB33214DF2016096
:104CC00002F07EFB00214DF2026002F079FB3421FC
:104CD0004DF2036002F074FB00214DF2046002F01B
:104CE0006FFB3A214DF2056002F06AFB00214DF2A4
:104CF000066002F065FB4A214DF2076002F060FB9E
:104D000000214DF2086002F05BFB5C214DF209606E
:104D100002F056FB00214DF20A6002F051FB8121A6
:104D20004DF20B6002F04CFB00214DF20C6002F0E2
:104D300047FBA6214DF20D6002F042FB00214DF22F
:104D40000E6002F03DFBE5214DF20F6002F038FBF2
:104D500001214DF2106002F033FB13214DF211607E
:104D600002F02EFB01214DF2126002F029FB5421CA
:104D70004DF2136002F024FB01214DF2146002F0A9
:104D80001FFB82214DF2156002F01AFB01214DF24A
:104D9000166002F015FBCA214DF2176002F010FBFD
:104DA00002214DF2186002F00BFB00214DF2196058
:104DB00002F006FB02214DF21A6002F001FB012114
:104DC0004DF21B6002F0FCFA02214DF21C6002F071
:104DD000F7FA34214DF21D6002F0F2FA02214DF291
:104DE0001E6002F0EDFA67214DF21F6002F0E8FA52
:104DF00002214DF2206002F0E3FA84214DF221609D
:104E000002F0DEFA02214DF2226002F0D9FAA4216A
:104E10004DF2236002F0D4FA02214DF2246002F038
:104E2000CFFAB7214DF2256002F0CAFA02214DF205
:104E3000266002F0C5FACF214DF2276002F0C0FAD9
:104E400002214DF2286002F0BBFADE214DF229600A
:104E500002F0B6FA02214DF22A6002F0B1FAF22114
:104E60004DF22B6002F0ACFA02214DF22C6002F000
:104E7000A7FAFE214DF22D6002F0A2FA03214DF2B5
:104E80002E6002F09DFA10214DF22F6002F098FA88
:104E900003214DF2306002F093FA33214DF231607C
:104EA00002F08EFA03214DF2326002F089FA6D2190
:104EB0004DF2336002F084FA55214FF4704002F055
:104EC0007FFAAA214FF2010002F07AFA52214FF242
:104ED000020002F075FA08214FF2030002F070FAA6
:104EE00000214FF2040002F06BFACC214FF4314064
:104EF00002F066FA00214BF2011002F061FA05217E
:104F00004FF4364002F05CFA70214FF4374002F063
:104F100057FA70214BF2017002F052FA01214FF45E
:104F2000384002F04DFA03214BF6010002F048FA36
:104F300003214BF6020002F043FA03214BF6030073
:104F400002F03EFA02214FF43C4002F039FA00210F
:104F50004BF6014002F034FA00214BF6024002F019
:104F60002FFAD0214FF4494002F02AFA02214CF6E0
:104F7000011002F025FA50214CF6021002F020FA3E
:104F800050214CF6031002F01BFA50214CF604108D
:104F900002F016FA00214FF4545002F011FA552194
:104FA0004FF4685002F00CFA4FF4885002F0EEF91A
:104FB000782002F075FD4FF4245002F0E7F901F07B
:104FC000DABBFE48808849F2253188427ED147F617
:104FD000F001E52002F0F4F94FF48071012002F0B5
:104FE000EFF94FF4E061022002F0EAF941F23001FA
:104FF000032002F0E5F90021042002F0E1F940F27B
:105000000221082002F0DCF90021092002F0D8F981
:1050100000210A2002F0D4F900210C2002F0D0F97E
:1050200000210D2002F0CCF900210F2002F0C8F978
:105030000021102002F0C4F90721112002F0C0F96C
:105040000021122002F0BCF90021132002F0B8F96F
:105050000021072002F0B4F941F29061102002F023
:10506000AFF940F22721112002F0AAF99D21122068
:1050700002F0A6F94FF4C851132002F0A1F925213E
:10508000292002F09DF90D212B2002F099F907212A
:10509000302002F095F940F20331312002F090F90E
:1050A0000321322002F08CF940F20621352002F073
:1050B00087F90821362002F083F940F206413720B3
:1050C00002F07EF94FF44171382000E057E002F021
:1050D00077F90721392002F073F940F202613C2090
:1050E00002F06EF908213D2002F06AF900215020FB
:1050F00002F066F9EF21512002F062F900215220FE
:1051000002F05EF940F23F11532002F059F94FF4DA
:105110002741602002F054F90121612002F050F98A
:1051200000216A2002F04CF90021802002F048F9A9
:105130000021812002F044F90021822002F040F990
:105140000021832002F03CF90021842002F038F98C
:105150000021852002F034F91021902002F030F96E
:105160004FF4C061922002F02BF940F23311072076
:1051700002F026F92221002002F022F91FE78F48D1
:10518000808849F2283188427ED141F28F01EC209B
:1051900002F016F941F23421EF2002F011F94FF438
:1051A0008071012002F00CF94FF4E061022002F05E
:1051B00007F941F23001032002F002F90021042036
:1051C00002F0FEF840F20221082002F0F9F8002176
:1051D000092002F0F5F800210A2002F0F1F801217F
:1051E0000C2002F0EDF800210D2002F0E9F800217A
:1051F0000F2002F0E5F80021102002F0E1F807216D
:10520000112002F0DDF80021122002F0D9F800216F
:10521000132002F0D5F80121072002F0D1F8322046
:1052200002F032FC41F29041102002F0C9F840F245
:105230002721112002F0C4F8322002F025FC8A2137
:10524000122002F0BDF8322002F01EFC4FF4D051C3
:10525000132002F0B5F80621292002F0B1F80D2143
:105260002B2002F0ADF8322002F00EFC00212020AD
:1052700002F0A6F80021212002F0A2F8322002F06C
:1052800003FC0021302000E074E002F099F840F2C5
:105290000461312002F094F840F20531322002F02E
:1052A0008FF80021352002F08BF840F609413620B6
:1052B00002F086F84FF40171372002F081F840F2D5
:1052C0000131382002F07CF840F20771392002F0F9
:1052D00077F800213C2002F073F840F60A213D20C7
:1052E00002F06EF8322002F0CFFB0021502002F0D5
:1052F00067F8EF21512002F063F80021522002F0FC
:105300005FF840F23F11532002F05AF84FF4274162
:10531000602002F055F80121612002F051F80021CF
:105320006A2002F04DF80021802002F049F80021A7
:10533000812002F045F80021822002F041F800218E
:10534000832002F03DF80021842002F039F800218A
:10535000852002F035F81021902002F031F84FF44A
:10536000C061922002F02CF840F23311072002F0C5
:1053700027F824E61148808849F2203188427DD1FF
:105380000021084602F01CF84FF48071012002F061
:1053900017F84FF4E061022002F012F841F23001F8
:1053A000032002F00DF80021042002F009F840F279
:1053B0000221082002F004F8002101E05C02002034
:1053C000092001F0FDFF00210A2001F0F9FF012171
:1053D0000C2001F0F5FF00210D2001F0F1FF00216C
:1053E0000F2001F0EDFF322002F04EFB40F20111E0
:1053F000072001F0E5FF322002F046FB4FF4865112
:10540000102001F0DDFF0721112001F0D9FF4FF43A
:105410008871122001F0D4FF4FF43061132001F0A5
:10542000CFFF0021292001F0CBFF44F210012B20F7
:1054300001F0C6FF0021502001F0C2FFEF215120F2
:1054400001F0BEFF0021522001F0BAFF40F23F11EF
:10545000532001F0B5FF4FF41C51602001F0B0FF64
:105460000121612001F0ACFF00216A2001F0A8FFBA
:105470000021802001F0A4FF002100E031E0812024
:1054800001F09EFF0021822001F09AFF002183207D
:1054900001F096FF0021842001F092FF0021852079
:1054A00001F08EFF1021902001F08AFF0021922050
:1054B00001F086FF0121932001F082FF4FF48871F3
:1054C000952001F07DFF0021972001F079FF002158
:1054D000982001F075FF40F27311072001F070FF72
:1054E0006DE5FE48808849F2313188427DD141F234
:1054F0001401E72001F064FF4FF48071012001F0F6
:105500005FFF4FF40071022001F05AFF41F23801B1
:10551000032001F055FF40F20221082001F050FF66
:105520000021092001F04CFF00210A2001F048FF72
:1055300000210C2001F044FF00210D2001F040FF6C
:1055400000210F2001F03CFF0021102001F038FF66
:105550000721112001F034FF0021122001F030FF5B
:105560000021132001F02CFFC82002F08DFA41F237
:105570009061102001F024FF40F22721112001F05A
:105580001FFF322002F080FA0C21122001F018FFD8
:10559000322002F079FA4FF40061132001F010FF7D
:1055A0001121292001F00CFF0B212B2001F008FF15
:1055B000322002F069FA0021202001F001FF40F2C0
:1055C0003F11212001F0FCFE0021302001F0F8FE07
:1055D0004FF48371312001F0F3FE0021322001F0FD
:1055E000EFFE4FF40171352000E064E001F0E8FEC9
:1055F00041F20A61362001F0E3FE40F207713720E4
:1056000001F0DEFE4FF48371382001F0D9FE40F244
:105610000771392001F0D4FE40F202413C2001F034
:10562000CFFE40F60F413D2001F0CAFE0021502080
:1056300001F0C6FEEF21512001F0C2FE00215220F0
:1056400001F0BEFE40F23F11532001F0B9FE4FF4CD
:105650001C51602001F0B4FE0121612001F0B0FE78
:1056600000216A2001F0ACFE0021802001F0A8FE9C
:105670000021812001F0A4FE0021822001F0A0FE83
:105680000021832001F09CFE0021842001F098FE7F
:105690000021852001F094FE1021902001F090FE61
:1056A0004FF4C061922001F08BFE40F233110720CD
:1056B00001F086FE83E48948808845F208418842EB
:1056C0007ED14FF48071012001F07AFE4FF4E06149
:1056D000022001F075FE41F23001032001F070FE5E
:1056E0000021042001F06CFE40F20721082001F0A7
:1056F00067FE0021092001F063FE00210A2001F06D
:105700005FFE00210C2001F05BFE00210D2001F066
:1057100057FE00210F2001F053FE142002F0B4F9CF
:1057200041F2B061102001F04BFE0121112001F087
:1057300047FE0121172001F043FE4FF49C71122017
:1057400001F03EFE4FF40061132001F039FE092103
:10575000292001F035FE09212A2001F031FE002127
:10576000A42001F02DFE0021502001F029FEEF21A0
:10577000512001F025FE0021522001F021FE40F2CF
:105780003F11532001F01CFE4FF41C51602001F02A
:1057900017FE0121612001F013FE00216A2001F0B3
:1057A0000FFE0021802001F00BFE0021812001F07E
:1057B00007FE0021822001F003FE0021832000E08B
:1057C00023E001F0FDFD0021842001F0F9FD00211E
:1057D000852001F0F5FD1321902001F0F1FD00215D
:1057E000922001F0EDFD0321932001F0E9FD4FF43B
:1057F0008871952001F0E4FD40F27311072001F05B
:10580000DFFD322002F040F9B8E43448808841F2EC
:10581000055188427ED10021072001F0D1FD3220C0
:1058200002F032F94FF48E71122001F0C9FD01210E
:10583000A42001F0C5FD0F21082001F0C1FD0821C1
:105840000A2001F0BDFD08210D2001F0B9FD40F254
:105850000771302001F0B4FD0721312001F0B0FDC7
:1058600040F20361322001F0ABFD4FF4E0613320E0
:1058700001F0A6FD40F20221342001F0A1FD022139
:10588000352001F09DFD41F60F71362001F098FDA5
:1058900040F20771372001F093FD0021382001F01C
:1058A0008FFD0021392001F08BFD40F207713A2075
:1058B00001F086FD00213B2001F082FD07213C2004
:1058C00001F07EFD00213D2001F07AFD322002F042
:1058D000DBF80121072001F073FD01E05C020020EC
:1058E0000121172001F06CFD322002F0CDF84FF4B9
:1058F000BD51102001F064FD40F21721112001F08C
:105900005FFD4FF48F71122001F05AFD4FF470616A
:10591000132000E097E001F053FD00212A2001F060
:105920004FFD0A21292001F04BFD4FF49F711220F9
:1059300001F046FD0021502001F042FDEF215120F1
:1059400001F03EFD0021522001F03AFD40F23F11EE
:10595000532001F035FD4FF41C51602001F030FD63
:105960000121612001F02CFD00216A2001F028FDB9
:105970000021802001F024FD0021812001F020FD84
:105980000021822001F01CFD0021832001F018FD80
:105990000021842001F014FD0021852001F010FD7C
:1059A0001321902001F00CFD4FF44071922001F082
:1059B00007FD0521932001F003FD0021952001F052
:1059C000FFFC0021972001F0FBFC0021982001F052
:1059D000F7FC4FF48071012001F0F2FC4FF4E0611C
:1059E000022001F0EDFC41F23801032001F0E8FC57
:1059F0000021042001F0E4FC00210C2001F0E0FC77
:105A000000210F2001F0DCFC0021202001F0D8FC57
:105A10000021212001F0D4FC2121072001F0D0FC3D
:105A2000142002F031F86121072001F0C9FC142094
:105A300002F02AF840F27311072001F0C1FC142093
:105A400002F022F895E4FE4880884BF20551884226
:105A50007ED10021084601F0B3FC0021084601F088
:105A6000AFFC0021084601F0ABFC0021084601F024
:105A7000A7FC0121A42001F0A3FC142002F004F8EB
:105A80004FF41C51602001F09BFC40F202210820E1
:105A900001F096FC4FF40571302001F091FC43F2C7
:105AA0001571312001F08CFC40F20461322001F0CC
:105AB00087FC40F61661332001F082FC42F211218E
:105AC000342001F07DFC4FF4A851352001F078FC22
:105AD00048F20751362001F073FC41F207413720AC
