:020000040800F2
:1000000020B90020E1010008E5010008E70100082F
:10001000E9010008EB010008ED0100080000000004
:10002000000000000000000000000000EF010008D8
:10003000F10100080000000067020008F1760008E6
:10004000F7010008F7010008F7010008F7010008B0
:10005000F7010008F7010008F7010008F7010008A0
:10006000F7010008F7010008F7010008F701000890
:10007000F7010008F7010008F7010008F701000880
:10008000F7010008F7010008F7010008F701000870
:10009000F7010008F7010008F7010008F701000860
:1000A000F7010008F7010008F7010008F701000850
:1000B000F7010008F7010008F7010008F701000840
:1000C000F7010008F7010008F7010008F701000830
:1000D000F701000861870008F7010008F701000830
:1000E000F7010008F7010008F7010008F701000810
:1000F000F7010008F7010008F7010008F701000800
:10010000F7010008F7010008F7010008F7010008EF
:10011000F7010008F7010008F7010008F7010008DF
:10012000F7010008F7010008F7010008F7010008CF
:1001300000F002F800F045F80AA090E8000C8244B4
:100140008344AAF10107DA4501D100F03AF8AFF291
:10015000090EBAE80F0013F0010F18BFFB1A43F0A5
:10016000010318478CBC0000ACBC0000103A24BF4F
:1001700078C878C1FAD8520724BF30C830C144BF0C
:1001800004680C607047000000230024002500264E
:10019000103A28BF78C1FBD8520728BF30C148BFEA
:1001A0000B607047642900F00381782900F03C81DE
:1001B000732900F0D882002070471FB51FBD10B50D
:1001C00010BD00F0F3FA1146FFF7F7FF08F03AFC14
:1001D00000F011FB03B4FFF7F2FF03BC08F00DFBC6
:1001E00008480047FEE7FEE7FEE7FEE7FEE7FEE71A
:1001F000FEE7FEE7FEE7FEE703480449044A054B35
:10020000704700003101000820B3002020B9002011
:1002100020B5002020B50020EFF3108072B67047A3
:1002200080F310887047204C204D25604FF000046B
:1002300084F309881E4C4FF0010525701D4C4FF0CA
:100240008055256062B6FEE730B41A4C4FF08055F9
:10025000256030BC704730B4164C4FF08055256097
:1002600030BC704700BF72B6EFF3098028B1203868
:1002700080E8F00F10490968086000B50F48804712
:100280005DF804EB0E480F490A7802700A480E49DF
:100290000A680260106890E8F00F203080F3098847
:1002A0004EF0040E62B6704720ED00E00000FFFF44
:1002B0009600002004ED00E09C0000202565000869
:1002C0008B0000208C000020A4000020704700005C
:1002D0000FB4044910B503AA029800F049FA10BC03
:1002E0005DF814FB240000200FB41CB5074B06AAD0
:1002F0007B4469460090059800F00BFA002069469F
:1003000000F01AFA1CBC5DF814FB00004504000064
:1003100070B5044685690068C10601D5302600E045
:100320002026C00707D070BDD4E901213046904790
:10033000206A401C20626D1EF6D570BD70B5044663
:1003400085690078C00707D170BDD4E9012120205C
:100350009047206A401C20626D1EF6D570BD70B5B6
:100360000C460546012A05D02878800600D5EA69A2
:10037000002302E0012305E05B1C934202D2E05C13
:100380000028F9D1A869E618C01AA861286A18449B
:1003900028622846FFF7BCFF04E0D5E9012114F8E4
:1003A000010B9047B442F8D32846FFF7C7FF70BD52
:1003B0002DE9F0410646002410687529314616A53E
:1003C00010D0AFF30080002802DA404213A507E006
:1003D00031688A0701D512A502E0490704D511A5A5
:1003E000012401E0AFF3008000210A2206F1240776
:1003F00009E0B0FBF2FCB0FBF2F302FB1C00303072
:1004000078541846491C0028F3D123462A46304622
:10041000BDE8F04100F01FB9000000002D00000011
:100420002B0000002000000070B504460D46214658
:100430001068AFF300802188090502D50F4A7A447D
:1004400002E00E4A7A440E32002104F1240305E052
:1004500000F00F060009965D5E54491C0028F7D194
:1004600020780023000704D5702D02D009B10223A3
:1004700011322046BDE8704000F0EDB8F8B8000039
:100480002DE9F05F894604464FF0000ADFF824B1F9
:10049000FB44C0F820A02046E168884700287DD0B2
:1004A000252806D0D4E901219047206A401C20620B
:1004B000F1E700255F462046E16888472028064688
:1004C00007DB312E05D2B81910F8200C08B105430E
:1004D000F1E7A80701D525F00405C4F81CA0002702
:1004E000C4F818A02A2E09D0304608F07FF938B396
:1004F00004EB8708303EC8F8186019E059F8041B6F
:10050000204604EB87029161E1688847012F064687
:1005100018D1E069002820DA25F020051DE0D8F880
:10052000180000EB800006EB40003038C8F81800D7
:100530002046E1688847064608F058F90028EED1C1
:10054000012F0AD02E2E08D12046E16888477F1C53
:100550000646022F45F02005C4DBA069002803DA17
:10056000404245F00105A061E80701D025F01005E3
:10057000A6B1A6F14100192802D8203645F400653D
:100580004A463146204625604D46FFF70BFE60B1D6
:10059000012807D0ED1D25F0070000E007E000F17D
:1005A000080978E705F1040975E730467AE7206A1B
:1005B000BDE8F09FCEB800004FF0013C50F8042B8E
:1005C00051F8043B9A4221D1A2EB0C03934313EA66
:1005D000CC1317D150F8042B51F8043B9A4215D193
:1005E000A2EB0C03934313EACC130BD150F8042B6A
:1005F00051F8043B9A4209D1A2EB0C03934313EA4E
:10060000CC13DBD04FF00000704700BFD01A01BA06
:10061000B1FA81F101F0180122FA01F0CB40C1F1E9
:100620002001DBB2C0B2C01A2CFA01F3D11A9143F7
:1006300011EAC311E6D170477047704770477047A1
:1006400010B500F0A7F8006810BD10B5044600F022
:10065000A1F8046010BD2DE9F0470D469946924679
:10066000044600F124080168880604D5E06921F0F9
:100670001001216000E00120A84201DD471B00E0DD
:100680000027A1697A1902EB0900081AA0612078F5
:10069000C00602D42046FFF73BFE002608E0D4E95E
:1006A00001211AF806009047206A401C761C20623F
:1006B0004E45F4DB2078C0060AD52046FFF728FE19
:1006C00006E0D4E9012130209047206A401C2062D6
:1006D000381EA7F10107F4DC07E0D4E9012118F87E
:1006E00005009047206A401C2062281EA5F10105E4
:1006F000F3DC2046FFF722FE2078000602D5022018
:10070000BDE8F0870120FBE701694A1C0261087817
:10071000704700B58FB0CDE9013100210591054941
:100720007944CDE9031011466846FFF7A9FE0FB0E2
:1007300000BD0000E5FFFFFF0A6802F8010B0A6038
:10074000704710B5436913B1AFF3008001E0FFF7C4
:1007500006FE012010BD127800F124010A7000226B
:100760004A700122EDE711684FF0FF32E9E700001F
:10077000074B70B50D467B44FFF7CBFF0446284678
:1007800000F00CF810B14FF0FF3070BD204670BD86
:100790006382000000487047C0B20020007B00F078
:1007A0008000704700487047C0B200207546FFF7D0
:1007B000F9FFAE4605006946534620F0070085461E
:1007C00018B020B5FFF718FDBDE820404FF0000637
:1007D0004FF000074FF000084FF0000B21F0070129
:1007E000AC46ACE8C009ACE8C009ACE8C009ACE86C
:1007F000C0098D46704710B50446AFF3008020460F
:10080000BDE81040FFF7E6BC10B500F0C1FE10BD1A
:100810002DE9F04107460C460026002509E0360286
:100820003919491B491E88B200F008F80644681CB3
:10083000C5B2A542F3DB3046BDE8F08170B5044691
:10084000002600F055FF2546E11704EB116109125F
:10085000A02202EB4101C8B200F016FF00F094FFA5
:10086000E11704EB11610912A4EB0121C8B200F0F9
:100870000BFF00F089FF00F03BFFA12000F004FF18
:1008800000F082FF002000F0C7FE064600F056FF91
:10089000304670BD2DE9F04105460E46174600244E
:1008A00009E0E20026FA02F2D1B22A1990B200F071
:1008B00006F8601CC4B2BC42F3DBBDE8F08170B541
:1008C00004460E4600F014FF2546E11704EB1161C3
:1008D0000912A02202EB4101C8B200F0D5FE00F0DF
:1008E00053FFE11704EB11610912A4EB0121C8B217
:1008F00000F0CAFE00F048FF304600F0C5FE00F0F0
:1009000043FF00F01BFF0A2007F0A8FF70BD10B5E1
:10091000052007F0D9FF10BD10B500200F49086071
:100920000F48006820F470400D49086008460068D0
:1009300040F440500860FFF7EAFF00200949C1F881
:100940008C01FFF7E4FF012004490860FFF7DFFF97
:1009500000200449C1F8800110BD0000800122423E
:1009600000100140000022420F48806940F0100052
:100970000D4988610D4800684FF20F0188430B490B
:1009800008600846006843F203010843074908600D
:100990000846C06840F00200C8600846C06840F0E1
:1009A0000800C860704700000010024000100140BD
:1009B00010B500200F4908600F48006820F470400F
:1009C0000D4908600846006840F440500860FFF791
:1009D0009EFF01200949C1F88C01FFF798FF012013
:1009E00004490860FFF793FF00200449C1F8800123
:1009F00010BD000080012242001001400000224290
:100A000070B5054600241648006820F4704014496B
:100A100008600846006840F4004008601E2007F0A7
:100A200053FF002612E000200E490860FFF76FFF19
:100A300001200D49C1F880016006040E0948743890
:100A4000006808B1601CC4B2701CC6B2082EEADB94
:100A500015B9FFF7ADFF01E0FFF75EFF204670BD5F
:100A600000100140800122420000224270B504467D
:100A70001348006820F47040114908600846006877
:100A800040F44050086000200E490860FFF73FFF27
:100A9000002512E0E0090B490C3108606006040EE5
:100AA00001200949C1F88001FFF731FF0020054905
:100AB0000860FFF72CFF681CC5B2082DEADB70BD8B
:100AC00000100140800122420000224210B50F4870
:100AD000006820F470400D4908600846006840F442
:100AE0004050086001200A4908600A49C1F88001A5
:100AF0001E2007F0E9FE002005490860FFF707FF08
:100B000000200449C1F8800110BD00000010014020
:100B10008C0122420000224210B50E48006820F4E9
:100B200070400C4908600846006840F44050086076
:100B30000120094908601E2007F0C6FE0020074971
:100B4000C1F88C01FFF7E3FE012003490C31086076
:100B500010BD00000010014080012242000022422E
:100B600010B500241348006820F470401149086053
:100B70000846006840F40040086001200E49086003
:100B80000E49C1F88001FFF7C2FE09E0601CC4B243
:100B9000FA2C03DDFFF7C0FF012010BDFFF7B7FE01
:100BA0000548803800680028F0D103490C390860F6
:100BB00000BFF2E7001001408C01224200002242F7
:100BC0001CB54A48806940F010004849886148488F
:100BD000006820F0F000464908600846006840F0D0
:100BE000800008600846C06840F00200C8600846FF
:100BF000406820F4700048600846406840F44010A7
:100C000048600846C06840F40050C860FFF7ACFE7A
:100C1000002038490860142007F020FE01203649E2
:100C2000C1F8B401322007F019FE00208DF8000051
:100C30000122694600F058FA01226946A42000F01A
:100C400053FA16208DF8000001226946802000F03A
:100C50004BFA0C208DF8000001226946882000F034
:100C600043FA02226946A12000F056F89DF80000E0
:100C700030280DD19DF80100032809D19DF801000D
:100C80009DF8002000EB02211CA0FFF721FB2AE0C9
:100C90000422694648F2401000F0F2FA00208DF874
:100CA0000400694618A0FFF713FB1A480099016079
:100CB00002208DF800000122694648F2400000F051
:100CC00011FC0122694648F2470000F0D9FA0A20D7
:100CD00007F0C4FD00208DF800000122694648F2AB
:100CE000400000F0FFFB00201CBD0000001002408F
:100CF00000100140B401224200002242435450201F
:100D000049443A25780D0A004354502049443A2575
:100D1000730D0A00670000202DE9F04106460F46DA
:100D20001546FFF7D3FE7020FFF7A0FEFFF718FF70
:100D3000F0B2FFF79BFEFFF713FFFFF7C7FE71202E
:100D4000FFF794FEFFF70CFF00240BE0691EA142A1
:100D500001D0012100E000210846FFF751FE38557F
:100D6000601CC4B2AC42F1DBFFF7D6FEBDE8F081F7
:100D700071B583B0002001900026D3480078401C54
:100D8000D1490870084600780A2190FBF1F201FB76
:100D9000120018B1CC4800780A287DDACBA1CC48E3
:100DA000FFF70AFCD8B9012203A948F24E1000F05F
:100DB00067FA9DF80C0000F08000A8B19DF80C00C7
:100DC00000F00F00C349097888420DDC0020019033
:100DD000012201A948F24E1000F084FB04E0012238
:100DE00003A90220FFF798FF9DF80C0000F00F0008
:100DF000002851D09DF80C0000F00F00B54909788B
:100E0000884249DC9DF80C0000F00F01FF2088406B
:100E1000C4B2B14890F82050E043C0B240F0C000E6
:100E2000AD4981F8200008468289AA480078401E12
:100E30000C3121F81020A848C28AA6480078401E2C
:100E40000A3121F81020042007F008FD002001904D
:100E5000ABE0A14890F820009DF8042001219140CA
:100E6000084000282FD099A19948FFF7A5FBE8BBBF
:100E70009A499DF8042031F81200042202A900F0DA
:100E8000FFF9954890F8300000F00100E0B19DF8BE
:100E900008009DF8091000E0C5E000EB012081B2D8
:100EA0008D480C309DF8042020F812109DF80A009F
:100EB0009DF80B1000EB012081B2874816309DF899
:100EC000042020F812106BE09DF808009DF809102E
:100ED00000EB012081B2804816309DF8042020F8F4
:100EE00012109DF80A009DF80B1000E00CE000EBDA
:100EF00001207B490988081A81B277480C309DF897
:100F0000042020F812104BE076499DF8042031F8B7
:100F10001200042202A9FFF7FFFE6F4890F830008C
:100F200000F00100E0B19DF809009DF8081001F003
:100F30000F0100EB0120684916319DF8042021F8CB
:100F400012009DF80B009DF80A1001F00F0100EB54
:100F5000012061490C319DF8042021F812001FE0A6
:100F60009DF809009DF8081001F00F0100EB012029
:100F70005B490988081A81B257480C309DF8042053
:100F800020F812109DF80B009DF80A1001F00F01D7
:100F900000EB0120504916319DF8042021F8120081
:100FA0009DF80400401CC0B201909DF8040049491E
:100FB00009788842FFF64DAF0126474880894849A5
:100FC0000988884205DC4448C08A454949888842E6
:100FD00026DD9DF80C0000F00F0001280ADD3E48D8
:100FE000C0893D4988810846008BC8820020364967
:100FF000087018E037480078401E37490C3131F846
:1010000010000C39888133480078401E163131F8C1
:1010100010001639C8828020039081F8205002E029
:1010200000202949087029A12948FFF7C5FA08BB03
:101030009DF80C0000F08F0080283BD1264890F8E6
:10104000200000F0800040B1234890F8200020F0FC
:101050008000214981F820002CE04FF6FF701E49E6
:101060008881C882084690F8200000F0E00081F8EE
:1010700020001FE09DF80C0000F01F00D0B91648BA
:1010800090F8200000F0800040B1134890F8200054
:1010900020F08000104981F820000BE04FF6FF702F
:1010A0000D498881C882084690F8200000F0E000D1
:1010B00081F8200004480078F02802DD0A20024967
:1010C0000870304604B070BD6D0000203931310029
:1010D000670000206C0000203000002030BC0008B9
:1010E000B00E002026BC00082DE9F04105460E4652
:1010F00017464FF00008FFF7E9FC7020FFF7B6FC39
:10110000FFF72EFDE8B2FFF7B1FCFFF729FD002441
:101110000BE0305DFFF7AAFCFFF722FD8046B8F137
:10112000000F00D003E0601CC4B2BC42F1DB00BF82
:10113000FFF7F2FC4046BDE8F08100001CB54248D4
:10114000806940F01000404988614048006820F004
:10115000F0003E4908600846006840F03000086032
:101160000846C06840F00200C8600846406820F4A5
:10117000700048600846406840F4401048600846E7
:10118000C06840F40050C860FFF7EEFB0020304913
:1011900008600A2007F062FB01202E49C1F8B40163
:1011A0000A2007F05BFB2948006820F0F00027497F
:1011B00008600846006840F0800008600846C06883
:1011C00020F00200C860642007F048FB0422694652
:1011D00048F2401000F054F800208DF804006946F1
:1011E0001DA0FFF775F81FA16846FFF7E5F940BBA2
:1011F00002208DF800000122694648F2400000F00C
:1012000071F90122694648F2470000F039F89DF86B
:101210000000602807DA9DF8001014A0FFF758F8C6
:10122000012000F031F90A2007F018FB00208DF8AA
:1012300000000122694648F2400000F053F9002006
:101240001CBD0020FCE7000000100240001001401F
:10125000B4012242000022424354502049443A251E
:10126000730D0A00393134370000000044656661AF
:10127000756C74205665723A25640D0A00000000F2
:101280002DE9F04105460F461646FFF71FFC2820C2
:10129000FFF7ECFBFFF764FC2812FFF7E7FBFFF713
:1012A0005FFCE8B2FFF7E2FBFFF75AFCFFF70EFC2A
:1012B0002920FFF7DBFBFFF753FC00240BE0711E36
:1012C000A14201D0012100E000210846FFF798FB70
:1012D0003855601CC4B2B442F1DBFFF71DFCBDE819
:1012E000F081000031B582B0002400256348007809
:1012F000401C62490870084600780A2190FBF1F210
:1013000001FB120018B15D4800780A287DDA01223D
:1013100002A948F24E10FFF7B3FF9DF8080000F055
:101320000F0000286BD09DF8080000F00F00062881
:1013300065DA9DF8080000F00F01FF208840C0B278
:1013400000909DF80000C043C0B240F0C0004C497E
:1013500081F82000002444E0494890F82000012151
:10136000A140084020B3474931F81400042201A9E4
:10137000FFF786FF424890F8300000F00100C0B14E
:101380009DF804009DF8051000EB012081B23C4857
:10139000163020F814109DF806009DF8071000EB99
:1013A0000120C0F5487081B235480C3020F8141087
:1013B00015E09DF804009DF8051000EB012081B2B6
:1013C0002F480C3020F814109DF806009DF80710E7
:1013D00000EB012081B22A48163020F81410601C5E
:1013E000C4B2052CB8DB01252548808920B92448E2
:1013F000C08A08B9002002900020204908709DF89A
:10140000080000F0800000B100E00DE09DF8080049
:1014100000F00F00062807DA00200090012269463C
:1014200048F24E1000F05EF89DF8080000F08F00C2
:1014300080281AD1124890F8200000F0800040B1B6
:101440000F4890F8200020F080000D4981F820001E
:101450000BE04FF6FF700A498881C882084690F871
:10146000200000F0E00081F8200004480078F02817
:1014700002DD0A200149087028463EBD66000020B2
:10148000300000201CBC000838B5054600240020B0
:101490008DF800008DF8015000BF09E09DF80000B4
:1014A0000F49095D0844C0B28DF80000601CC4B249
:1014B000B82CF3D39DF80000C043401CC0B28DF897
:1014C0000000B822064948F2470000F00BF802225B
:1014D000694648F2FF0000F005F8002038BD000022
:1014E00064BB00082DE9F04104460E4617464FF054
:1014F0000008FFF7EBFA2820FFF7B8FAFFF730FBF8
:101500002012FFF7B3FAFFF72BFBE0B2FFF7AEFABA
:10151000FFF726FB00250BE0705DFFF7A7FAFFF74A
:101520001FFB8046B8F1000F00D003E0681CC5B275
:10153000BD42F1DB00BFFFF7EFFA4046BDE8F081A6
:1015400010B500200F4908600F48406820F4704033
:101550000D4948600846406840F44050486000200B
:101560000A49C1F8AC01022007F0AEF90120054993
:101570000860022007F0A8F900200449C1F8B00172
:1015800010BD0000B00122420010014000002242C4
:101590000B48806940F0100009498861094840689B
:1015A00020F47F20074948600846406840F44C30EA
:1015B00048600846C06840F4C050C86070470000EA
:1015C000001002400010014010B500200F490860D3
:1015D0000F48406820F470400D4948600846406854
:1015E00040F44050486001200A49C1F8AC01022093
:1015F00007F06AF9012005490860022007F064F944
:1016000000200449C1F8B00110BD0000B001224221
:10161000001001400000224270B505460024174822
:10162000406820F47040154948600846406840F41E
:1016300000404860002616E00020114908600220A2
:1016400007F042F901200F49C1F8B0016006040E0D
:101650000B488438006808B1601CC4B2012007F050
:1016600033F9701CC6B2082EE6DB15B9FFF7ACFFE4
:1016700001E0FFF765FF204670BD0000001001404B
:10168000B00122420000224270B50446154840686D
:1016900020F47040134948600846406840F44050C8
:1016A0004860002010490860002517E0E0090E4955
:1016B000091F08606006040E022007F005F90120EA
:1016C0000A49C1F8B001022007F0FEF800200649DF
:1016D0000860022007F0F8F8681CC5B2082DE5DBA9
:1016E00070BD000000100140B00122420000224203
:1016F00010B50F48406820F470400D494860084616
:10170000406840F44050486001200A4908600A4996
:10171000C1F8B001042007F0D7F80020054908609F
:10172000042007F0D1F800200349C1F8B00110BD32
:1017300000100140AC0122420000224210B50F48C7
:10174000406820F470400D4948600846406840F405
:101750004050486000200A4908600A49C1F8AC01BD
:10176000042007F0B1F8012005490860042007F0C3
:10177000ABF801200349C1F8AC0110BD00100140D5
:10178000B00122420000224210B5002414484068F3
:1017900020F47040124948600846406840F4004018
:1017A000486001200F49086007F08EF801200E49BB
:1017B000C1F8B00107F088F807E0601CC4B2FA2C49
:1017C00003DDFFF7BBFF012010BD0648803800682D
:1017D0000028F2D10349091D086000BFF4E70000AA
:1017E00000100140AC01224200002242014649069D
:1017F000084A926942F00102064B9A61064A526811
:1018000022F0E062044B5A601A4652680A435A605A
:1018100070470000001002400000014010B51E4853
:10182000806940F004001C4988610846806940F0E6
:10183000100088610120FFF7D9FF1848006820F0E8
:101840000F00164908600846006840F0080008606C
:10185000081D006820F07040091D086008460068F7
:1018600040F0004008600D480C30006840F4004033
:101870000A490C3108600A48006820F470000849E1
:1018800008600846006840F4000008600846C06828
:1018900040F02000C86010BD001002400008014068
:1018A0000010014010B5044614B101201B49087016
:1018B0001A48007808B31A48006838B11948006817
:1018C00020B118483C380068012816D10A2006F0DB
:1018D000C5FF0020114908701148006808B90120AF
:1018E00010BD1048006808B90220F9E70D483C38DF
:1018F0000068012810D10320F2E709480068012898
:101900000AD108480068012806D106483C3800681A
:1019100010B90120014908700020E1E72E000020E5
:10192000140122423C01214270B5044600260E48B3
:101930000588408845430021084603F02BFA03F050
:101940002BFD00BF0DE04FF4807008490861400096
:101950004861074804608020486108618000086190
:10196000761CAE42EFD370BDB00E002000100140D7
:101970000C0C014010B5044649488471002C45D137
:10198000F020474908804FF4A070488008468088BE
:1019900045F21051884210D14FF43050404908812F
:1019A0004FF4285048814FF42C5088814FF4F07048
:1019B00008804FF4487048801AE03948808841F622
:1019C000631188420DD12C20354908812B20488194
:1019D0002A2088814FF4F07008804FF448704880C6
:1019E00006E02C202E4908812A2048812B2088815E
:1019F0002B48808845F2103188424CD14FF4A070BA
:101A0000274908804FF4F070488044E04FF4A070FC
:101A100023490880F02048800846808845F210510C
:101A2000884210D14FF430501D4908814FF428509E
:101A300048814FF42C5088814FF4487008804FF44F
:101A4000F07048801AE01648808841F66311884299
:101A50000DD12C20124908812A2048812B20888111
:101A60004FF4487008804FF4F070488006E02C2056
:101A70000B4908812A2048812B20888108488088CA
:101A800045F21031884206D14FF4F07004490880C5
:101A90004FF4A0704880002002F0ACFF10BD0000A1
:101AA000B00E00202DE9FF4F84B081468A46002009
:101AB000039002900698A0EB09050798A0EB0A0690
:101AC000CDF80490CDF800A0002D01DD012705E040
:101AD0000DB9002702E04FF0FF376D42002E02DD06
:101AE0004FF0010806E016B94FF0000802E04FF091
:101AF000FF387642B54201DD2C4600E034464FF017
:101B0000000B21E0009A91B2019A90B200F022F805
:101B10000398284403900298304402900398A0420E
:101B200005DD0398001B039001983844019002984A
:101B3000A04205DD0298001B0290009840440090EE
:101B40000BF101001FFA80FB601C8345DADD08B051
:101B5000BDE8F08F30B504460D462946204603F017
:101B600019F903F019FC4FF480700749086140002F
:101B7000486106480088064908608020024948619B
:101B800008618000086130BD001001402A0000207B
:101B90000C0C01402DE9F04306460F469046002408
:101BA00045460320A0EB48093CE07A1B91B232196C
:101BB00090B2FFF7CFFF3A1B91B2721990B2FFF7C4
:101BC000C9FF3A1991B2721990B2FFF7C3FF7A199F
:101BD00091B2321990B2FFF7BDFF7A1991B2321B60
:101BE00090B2FFF7B7FF3A1991B2721B90B2FFF7AC
:101BF000B1FF7A1B91B2321B90B2FFF7ABFF3A1BD9
:101C000091B2721B90B2FFF7A5FF641CB9F1000FEF
:101C100003DAA000801D814404E0601B80000A30CC
:101C200081446D1EAC42C0DDBDE8F08330B5034693
:101C30000C4615469B48808845F21051884250D189
:101C40009849488903F096FB4FF4807096490861E3
:101C50004000486118129549086080209249486107
:101C60000861800008618F494989491C88B203F0E6
:101C700081FB4FF480708C49086140004861D8B204
:101C80008A490860802088494861086180000861AD
:101C90008449888903F06EFB4FF4807082490861A3
:101CA0004000486120128149086080207E494861D7
:101CB0000861800008617B498989491C88B203F06A
:101CC00059FB4FF480707849086140004861E0B2E8
:101CD0007649086080207449486108618000086185
:101CE000C3E07048808841F6631188427DD16D4819
:101CF000807920B96B480088401EC01A83B26949B8
:101D0000488903F037FB4FF4807067490861400051
:101D1000486118126549086080206349486108617C
:101D2000800008614010086140004861D8B25F49F6
:101D3000086080205C4948610861800008614010AB
:101D400008614000486118125849086080205649CF
:101D500048610861800008614010086140004861E6
:101D6000D8B25249086080204F494861086180001C
:101D700008614C49888903F0FDFA4FF480704A49A4
:101D800008614000486120124849086080204649A7
:101D900048610861800008614010086140004861A6
:101DA000E0B24249086080203F49486108618000F4
:101DB0000861401008614000486120123B490860FA
:101DC000802039494861086180000861401008613D
:101DD00040004861E0B235490860802032494861DE
:101DE00008618000086140E0FFE72E49488903F060
:101DF000C1FA4FF480702C49086140004861181204
:101E00002A490860802028494861086180000861EB
:101E10004010086140004861D8B224490860802021
:101E2000214948610861800008611E49888903F0E2
:101E3000A1FA4FF480701C490861400048612012EB
:101E40001A490860802018494861086180000861CB
:101E50004010086140004861E0B2144908608020E9
:101E6000114948610861800008614FF480700E4993
:101E70004861400048610B4800890C490860802097
:101E8000094948610861800008614010086140000C
:101E9000486106480560802048610861800008614B
:101EA00030BD0000B00E0020001001400C0C0140BD
:101EB0002DE9F04F05460E4617469846DDF824A05A
:101EC0004FF0000B781B401C1FFA80FB34461EE0CD
:101ED0002146284602F05EFF03F05EFA4FF000094B
:101EE00011E04FF480700C490861400048610B48D4
:101EF000C0F800A08020486108618000086109F1F5
:101F000001001FFA80F9D945EBDB601C84B244451F
:101F1000DEDDBDE8F08F0000001001400C0C014038
:101F200010B5FE48806940F00800FC498861084609
:101F3000806940F0100088610846806940F0010027
:101F400088610120FFF752FCF54840686FF30B00F1
:101F5000F34948600846406840F233310843F0498D
:101F600048600846006820F07F4008600846006826
:101F700040F04C5008600846C06840F4F860C86003
:101F80004FF03330E7490860091F08604FF6FF70D3
:101F9000E44908310860322006F060FC012100208D
:101FA00003F002FA322006F059FCD32003F0E2F9E4
:101FB00002F084FCDC49888002F080FCDA498880E9
:101FC00002F07CFCD8498880084680884FF6FF7173
:101FD00001EA0020D449888002F070FCD249898847
:101FE0000843D14988800846808849F241318842B7
:101FF0007DD0042003F0BEF902F060FCCA4988805D
:1020000002F05CFCC849888002F058FCC649888010
:10201000084680884FF6FF7101EA0020C249888097
:1020200002F04CFCC04989880843BF4988800846B3
:10203000808848F25251884203D147F28970BA49E8
:102040008880B948808847F289718842D0D0D420EE
:1020500003F090F902F032FCB349888002F02EFCC4
:10206000B149888002F02AFCAF4988800846808800
:102070004FF6FF7101EA0020AB49888002F01EFC98
:10208000A94989880843A84988800846808845F27C
:102090001031884262D055214FF4704003F084F92A
:1020A000AA214FF2010003F07FF952214FF2020002
:1020B00003F07AF908214FF2030003F075F90121CA
:1020C0004FF2040003F070F94FF4454003F052F969
:1020D00002F0F4FB94498880084680884FF6FF712F
:1020E00001EA0020904988804CF2015000E035E080
:1020F00003F040F902F0E2FB8B49898808438A49E2
:102100008880052006F0AAFB8748808845F2105198
:10211000884223D0A12003F02DF902F0CFFB8249A1
:10212000888002F0CBFB80498880084680884FF683
:10213000FF7101EA00207C49888002F0BFFB7A49E8
:1021400089880843784988800846808845F261710B
:10215000884203D141F663107349888072488188B0
:1021600072A0FEF7B5F87048808849F24131884284
:102170007ED1CF2003F0FEF8002003F0E9F8C12063
:1021800003F0E6F8302003F0E3F8ED2003F0F2F876
:10219000642003F0DDF8032003F0DAF8122003F0E6
:1021A000D7F8812003F0D4F8E82003F0E3F8852085
:1021B00003F0CEF8102003F0CBF87A2003F0C8F833
:1021C000CB2003F0D7F8392003F0C2F82C2003F01D
:1021D000BFF8002003F0BCF8342003F0B9F8022067
:1021E00003F0B6F8F72003F0C5F8202003F0B0F8AC
:1021F000EA2003F0BFF8002003F0AAF8002003F063
:10220000A7F8C02003F0B6F81B2003F0A1F8C12006
:1022100003F0B0F8012003F09BF8C52003F0AAF802
:10222000302003F095F8302003F092F8C72003F037
:10223000A1F8B72003F08CF8362003F09BF8482073
:1022400003F086F83A2003F095F8552003F080F863
:10225000B12003F08FF8002003F07AF81A2003F081
:1022600077F8B62003F086F80A2003F071F800E052
:10227000A8E0A22003F06CF8F22003F07BF8002025
:1022800003F066F8262003F075F8012003F060F8EB
:10229000E02003F06FF80F2003F05AF82A2003F033
:1022A00057F8282003F054F8082003F051F80E20C6
:1022B00003F04EF8082003F04BF8542003F048F8E0
:1022C000A92003F045F8432003F042F80A2003F068
:1022D0003FF80F2003F03CF8002003F039F800200D
:1022E00003F036F8002003F033F8002003F030F854
:1022F000E12003F03FF8002003F02AF8152003F056
:1023000027F8172003F024F8072003F021F8112004
:1023100003F01EF8062003F01BF80FE00010024047
:1023200000100140040C0140B00E0020204C43443A
:102330002049443A25780D0A000000002B2003F0C4
:1023400007F8562003F004F83C2003F001F80520BC
:1023500002F0FEFF102002F0FBFF0F2002F0F8FF5A
:102360003F2002F0F5FF3F2002F0F2FF0F2002F0C5
:10237000EFFF2B2002F0FEFF002002F0E9FF00201B
:1023800002F0E6FF012002F0E3FF3F2002F0E0FF51
:102390002A2002F0EFFF002002F0DAFF002002F016
:1023A000D7FF002002F0D4FFEF2002F0D1FF112070
:1023B00002F0E0FF782006F051FA292002F0DAFF5F
:1023C00002F05FBAFE48808847F2897188427CD16A
:1023D000112002F0CFFF782006F040FA362002F0FC
:1023E000C9FF002002F0B4FF3A2002F0C3FF05202D
:1023F00002F0AEFFB22002F0BDFF0C2002F0A8FFF9
:102400000C2002F0A5FF002002F0A2FF332002F012
:102410009FFF332002F09CFFB72002F0ABFF352076
:1024200002F096FFBB2002F0A5FF322002F090FFE1
:10243000C02002F09FFF0C2002F08AFFC22002F0B1
:1024400099FF012002F084FFC32002F093FF1020C7
:1024500002F07EFFC42002F08DFF202002F078FF02
:10246000C62002F087FF0F2002F072FFD02002F09A
:1024700081FFA42002F06CFFA12002F069FFE020A0
:1024800002F078FFD02002F063FF002002F060FF2E
:10249000022002F05DFF072002F05AFF0A2002F03E
:1024A00057FF282002F054FF322002F051FF442051
:1024B00002F04EFF422002F04BFF062002F048FFE0
:1024C0000E2002F045FF122000E056E002F040FF2F
:1024D000142002F03DFF172002F03AFFE12002F045
:1024E00049FFD02002F034FF002002F031FF02202B
:1024F00002F02EFF072002F02BFF0A2002F028FF37
:10250000282002F025FF312002F022FF542002F0A3
:102510001FFF472002F01CFF0E2002F019FF1C20B5
:1025200002F016FF172002F013FF1B2002F010FF2D
:102530001E2002F00DFF2A2002F01CFF002002F0F6
:1025400007FF002002F004FF002002F001FFEF204F
:1025500002F0FEFE2B2002F00DFF002002F0F8FE3C
:10256000002002F0F5FE012002F0F2FE3F2002F012
:10257000EFFE292002F0FEFE22E79148808845F216
:102580001031884240F07C87ED2002F0F3FE0120FC
:1025900002F0DEFEFE2002F0DBFEEE2002F0EAFE9C
:1025A000DE2002F0D5FE212002F0D2FEF12002F062
:1025B000E1FE012002F0CCFEDF2002F0DBFE102065
:1025C00002F0C6FEC42002F0D5FE8F2002F0C0FE4D
:1025D000C62002F0CFFE002002F0BAFEE22002F098
:1025E000B7FEE22002F0B4FEE22002F0B1FEBF200E
:1025F00002F0C0FEAA2002F0ABFEB02002F0BAFE4C
:102600000D2002F0A5FE002002F0A2FE0D2002F037
:102610009FFE002002F09CFE112002F099FE002097
:1026200002F096FE192002F093FE002002F090FEC8
:10263000212002F08DFE002002F08AFE2D2002F003
:1026400087FE002002F084FE3D2002F081FE002083
:1026500002F07EFE5D2002F07BFE002002F078FE9C
:102660005D2002F075FE002002F072FEB12002F043
:1026700081FE802002F06CFE002002F069FE8B20BB
:1026800002F066FE002002F063FE962002F060FE7B
:10269000002002F05DFEB22002F06CFE002002F08D
:1026A00057FE002002F054FE022002F051FE0020EE
:1026B00002F04EFE032002F04BFE002002F048FE26
:1026C000B32002F057FE002002F042FE002002F08C
:1026D0003FFE002002F03CFE002002F039FE002008
:1026E00002F036FE002002F033FE002002F030FE41
:1026F000002002F02DFE002002F02AFE002002F051
:1027000027FE002002F024FE002002F021FE00201F
:1027100002F01EFE002002F01BFE002002F018FE58
:10272000002002F015FE002002F012FE002002F050
:102730000FFE002002F00CFE002002F009FE002037
:1027400002F006FE002002F003FE002002F000FE70
:10275000002002F0FDFDB42002F00CFE8B2002F000
:10276000F7FD002002F0F4FD962002F0F1FD0020BC
:1027700002F0EEFDA12002F0EBFD002002F0E8FDEA
:10278000B52002F0F7FD022002F0E2FD002002F089
:10279000DFFD032002F0DCFD002002F0D9FD042063
:1027A00002F0D6FD002002F0D3FDB62002F0E2FDDB
:1027B000002002F0CDFD002002F0CAFDB72001E0AC
:1027C000B00E002002F0D6FD002002F0C1FD002076
:1027D00002F0BEFD3F2002F0BBFD002002F0B8FD7C
:1027E0005E2002F0B5FD002002F0B2FD642002F090
:1027F000AFFD002002F0ACFD8C2002F0A9FD00200E
:1028000002F0A6FDAC2002F0A3FD002002F0A0FD26
:10281000DC2002F09DFD002002F09AFD702002F005
:1028200097FD002002F094FD902002F091FD002021
:1028300002F08EFDEB2002F08BFD002002F088FDFF
:10284000DC2002F085FD002002F082FDB82002F0BD
:1028500091FD002002F07CFD002002F079FD0020B7
:1028600002F076FD002002F073FD002002F070FD02
:10287000002002F06DFD002002F06AFD002002F051
:1028800067FDBA2002F076FD242002F061FD0020F1
:1028900002F05EFD002002F05BFD002002F058FD1A
:1028A000C12002F067FD202002F052FD002002F05E
:1028B0004FFD542002F04CFD002002F049FDFF20A6
:1028C00002F046FD002002F043FDC22002F052FD5E
:1028D0000A2002F03DFD002002F03AFD042002F043
:1028E00037FD002002F034FDC32002F043FD3C2000
:1028F00002F02EFD002002F02BFD3A2002F028FD10
:10290000002002F025FD392002F022FD002002F017
:102910001FFD372002F01CFD002002F019FD3C20B5
:1029200002F016FD002002F013FD362002F010FD2B
:10293000002002F00DFD322002F00AFD002002F01E
:1029400007FD2F2002F004FD002002F001FD2C20E5
:1029500002F0FEFC002002F0FBFC292002F0F8FC53
:10296000002002F0F5FC262002F0F2FC002002F02C
:10297000EFFC242002F0ECFC002002F0E9FC242013
:1029800002F0E6FC002002F0E3FC232002F0E0FC71
:10299000002002F0DDFC3C2002F0DAFC002002F016
:1029A000D7FC362002F0D4FC002002F0D1FC32200B
:1029B00002F0CEFC002002F0CBFC2F2002F0C8FC7D
:1029C000002002F0C5FC2C2002F0C2FC002002F026
:1029D000BFFC292002F0BCFC002002F0B9FC26203C
:1029E00002F0B6FC002002F0B3FC242002F0B0FCA0
:1029F000002002F0ADFC242002F0AAFC002002F02E
:102A0000A7FC232002F0A4FC002002F0A1FCC420BB
:102A100002F0B0FC622002F09BFC002002F098FC67
:102A2000052002F095FC002002F092FC842002F0C8
:102A30008FFC002002F08CFCF02002F089FC0020CA
:102A400002F086FC182002F083FC002002F080FCDB
:102A5000A42002F07DFC002002F07AFC182002F095
:102A600077FC002002F074FC502002F071FC002082
:102A700002F06EFC0C2002F06BFC002002F068FCFF
:102A8000172002F065FC002002F062FC952002F0A5
:102A90005FFC002002F05CFCF32002F059FC0020F7
:102AA00002F056FCE62002F053FC002002F050FC3D
:102AB000C52002F05FFC322002F04AFC002002F048
:102AC00047FC442002F044FC002002F041FC652059
:102AD00002F03EFC002002F03BFC762002F038FCC5
:102AE000002002F035FC882002F032FC002002F0C9
:102AF0002FFCC62002F03EFC202002F029FC002022
:102B000002F026FC172002F023FC002002F020FC3B
:102B1000012002F01DFC002002F01AFCC72002F088
:102B200029FC002002F014FC002002F011FC00201F
:102B300002F00EFC002002F00BFCC82002F01AFC90
:102B4000002002F005FC002002F002FC002002F050
:102B5000FFFB002002F0FCFBC92002F00BFC002070
:102B600002F0F6FB002002F0F3FB002002F0F0FB85
:102B7000002002F0EDFB002002F0EAFB002002F052
:102B8000E7FB002002F0E4FB002002F0E1FB002064
:102B900002F0DEFB002002F0DBFB002002F0D8FB9D
:102BA000002002F0D5FB002002F0D2FB002002F052
:102BB000CFFB002002F0CCFB002002F0C9FBE0209C
:102BC00002F0D8FB162002F0C3FB002002F0C0FB8D
:102BD0001C2002F0BDFB002002F0BAFB212002F015
:102BE000B7FB002002F0B4FB362002F0B1FB00205E
:102BF00002F0AEFB462002F0ABFB002002F0A8FB87
:102C0000522002F0A5FB002002F0A2FB642002F09B
:102C10009FFB002002F09CFB7A2002F099FB002031
:102C200002F096FB8B2002F093FB002002F090FB59
:102C3000992002F08DFB002002F08AFBA82002F010
:102C400087FB002002F084FBB92002F081FB00200A
:102C500002F07EFBC42002F07BFB002002F078FB38
:102C6000CA2002F075FB002002F072FBD22002F0B5
:102C70006FFB002002F06CFBD92002F069FB002002
:102C800002F066FBE02002F063FB002002F060FB34
:102C9000F32002F05DFB002002F05AFBE12002F07D
:102CA00069FB162002F054FB002002F051FB1C20AF
:102CB00002F04EFB002002F04BFB222002F048FB0A
:102CC000002002F045FB362002F042FB002002F01B
:102CD0003FFB452002F03CFB002002F039FB522074
:102CE00002F036FB002002F033FB642002F030FBE0
:102CF000002002F02DFB7A2002F02AFB002002F0D7
:102D000027FB8B2002F024FB002002F021FB9920FE
:102D100002F01EFB002002F01BFBA82002F018FBB3
:102D2000002002F015FBB92002F012FB002002F097
:102D30000FFBC42002F00CFB002002F009FBCA20AC
:102D400002F006FB002002F003FBD22002F000FBA1
:102D5000002002F0FDFAD82002F0FAFA002002F07A
:102D6000F7FAE02002F0F4FA002002F0F1FAF32082
:102D700002F0EEFA002002F0EBFAE22002F0FAFA9A
:102D8000052002F0E5FA002002F0E2FA0B2002F042
:102D9000DFFA002002F0DCFA1B2002F0D9FA002052
:102DA00002F0D6FA342002F0D3FA002002F0D0FA72
:102DB000442002F0CDFA002002F0CAFA4F2002F0BF
:102DC000C7FA002002F0C4FA612002F0C1FA002024
:102DD00002F0BEFA792002F0BBFA002002F0B8FA45
:102DE000882002F0B5FA002002F0B2FA972002F033
:102DF000AFFA002002F0ACFAA62002F0A9FA0020F7
:102E000002F0A6FAB72002F0A3FA002002F0A0FA1E
:102E1000C22002F09DFA002002F09AFAC72002F0C8
:102E200097FA002002F094FAD12002F091FA0020E3
:102E300002F08EFAD62002F08BFA002002F088FA17
:102E4000DD2002F085FA002002F082FAF32002F081
:102E50007FFA002002F07CFAE32002F08BFA0520D2
:102E600002F076FA002002F073FA0A2002F070FAFB
:102E7000002002F06DFA1C2002F06AFA002002F035
:102E800067FA332002F064FA002002F061FA44206D
:102E900002F05EFA002002F05BFA502002F058FACD
:102EA000002002F055FA622002F052FA002002F0EF
:102EB0004FFA782002F04CFA002002F049FA8820FC
:102EC00002F046FA002002F043FA972002F040FA9E
:102ED000002002F03DFAA62002F03AFA002002F0AB
:102EE00037FAB72002F034FA002002F031FAC2209B
:102EF00002F02EFA002002F02BFAC72002F028FA86
:102F0000002002F025FAD12002F022FA002002F07F
:102F10001FFAD52002F01CFA002002F019FADD2079
:102F200002F016FA002002F013FAF32002F010FA71
:102F3000002002F00DFAE42002F01CFA012002F059
:102F400007FA002002F004FA012002F001FA002042
:102F500002F0FEF9022002F0FBF9002002F0F8F97D
:102F60002A2002F0F5F9002002F0F2F93C2002F0EC
:102F7000EFF9002002F0ECF94B2002F0E9F9002013
:102F800002F0E6F95D2002F0E3F9002002F0E0F93A
:102F9000742002F0DDF9002002F0DAF9842002F05A
:102FA000D7F9002002F0D4F9932002F0D1F90020E3
:102FB00002F0CEF9A22002F0CBF9002002F0C8F90D
:102FC000B32002F0C5F9002002F0C2F9BE2002F0E1
:102FD000BFF9002002F0BCF9C42002F0B9F90020CA
:102FE00002F0B6F9CD2002F0B3F9002002F0B0F9FA
:102FF000D32002F0ADF9002002F0AAF9DD2002F0A2
:10300000A7F9002002F0A4F9F32002F0A1F90020B2
:1030100002F09EF9E52002F0ADF9002002F098F9E7
:10302000002002F095F9002002F092F9002002F051
:103030008FF9022002F08CF9002002F089F9292092
:1030400002F086F9002002F083F93C2002F080F9BA
:10305000002002F07DF94B2002F07AF9002002F006
:1030600077F95D2002F074F9002002F071F9742004
:1030700002F06EF9002002F06BF9842002F068F98A
:10308000002002F065F9932002F062F9002002F0BE
:103090005FF9A22002F05CF9002002F059F9B32098
:1030A00002F056F9002002F053F9BE2002F050F968
:1030B000002002F04DF9C42002F04AF9002002F08D
:1030C00047F9CD2002F044F9002002F041F9D32065
:1030D00002F03EF9002002F03BF9DC2002F038F962
:1030E000002002F035F9F32002F032F9002002F05E
:1030F0002FF9E62002F03EF9112002F029F9002014
:1031000002F026F9342002F023F9002002F020F921
:10311000562002F01DF9002002F01AF9762002F084
:1031200017F9002002F014F9772002F011F90020BD
:1031300002F00EF9662002F00BF9002002F008F907
:10314000882002F005F9002002F002F9992002F02F
:10315000FFF8002002F0FCF8BB2002F0F9F8002094
:1031600002F0F6F8992002F0F3F8002002F0F0F8EF
:10317000662002F0EDF8002002F0EAF8552002F097
:10318000E7F8002002F0E4F8552002F0E1F8002012
:1031900002F0DEF8452002F0DBF8002002F0D8F85B
:1031A000432002F0D5F8002002F0D2F8442002F0CB
:1031B000CFF8002002F0CCF8E72002F0DBF8322054
:1031C00002F0C6F8002002F0C3F8552002F0C0F863
:1031D000002002F0BDF8762002F0BAF8002002F0DC
:1031E000B7F8662002F0B4F8002002F0B1F86720CA
:1031F00002F0AEF8002002F0ABF8672002F0A8F869
:10320000002002F0A5F8872002F0A2F8002002F0CA
:103210009FF8992002F09CF8002002F099F8BB205A
:1032200002F096F8002002F093F8992002F090F84E
:10323000002002F08DF8772002F08AF8002002F0DA
:1032400087F8442002F084F8002002F081F856202C
:1032500002F07EF8002002F07BF8232002F078F8DC
:10326000002002F075F8332002F072F8002002F01E
:103270006FF8452002F06CF8002002F069F8E820B1
:1032800002F078F8002002F063F8002002F060F805
:10329000992002F05DF8002002F05AF8872002F031
:1032A00057F8002002F054F8882002F051F800206E
:1032B00002F04EF8772002F04BF8002002F048F8B8
:1032C000662002F045F8002002F042F8882002F063
:1032D0003FF8002002F03CF8AA2002F039F8002064
:1032E00002F036F8BB2002F033F8002002F030F88C
:1032F000992002F02DF8002002F02AF8662002F052
:1033000027F8002002F024F8552002F021F80020D0
:1033100002F01EF8552002F01BF8002002F018F809
:10332000442002F015F8002002F012F8442002F0C8
:103330000FF8002002F00CF8552002F009F80020E8
:1033400002F006F8E92002F015F8AA2002F000F8D1
:10335000002001F0FDFF002001F0FAFF002001F045
:10336000F7FF002002F006F8AA2001F0F1FFCF20BD
:1033700002F000F8002001F0EBFF002001F0E8FF70
:10338000002001F0E5FF002001F0E2FF002001F045
:10339000DFFF002001F0DCFF002001F0D9FF00205A
:1033A00001F0D6FF002001F0D3FF002001F0D0FF94
:1033B000002001F0CDFF002001F0CAFF002001F045
:1033C000C7FF002001F0C4FF002001F0C1FF002072
:1033D00001F0BEFF002001F0BBFFF02001F0CAFFAA
:1033E000002001F0B5FF502001F0B2FF002001F0F5
:1033F000AFFF002001F0ACFF002001F0A9FFF32097
:1034000001F0B8FF002001F0A3FFF92001F0B2FFA6
:10341000062001F09DFF102001F09AFF292001F005
:1034200097FF002001F094FF3A2001F0A3FF552000
:1034300001F08EFF112001F09DFF642005F00EFACF
:10344000292001F097FF352001F094FF002001F0C2
:103450007FFF512001F08EFFFF2001F079FF532004
:1034600001F088FF2C2001F073FF552001F082FF4E
:10347000822001F06DFF2C2001F07CFF01F001BAE9
:10348000FE48808845F2105188427DD155214FF485
:10349000704001F089FFAA214FF2010001F084FF82
:1034A00052214FF2020001F07FFF08214FF203008A
:1034B00001F07AFF01214FF2040001F075FF0D21A8
:1034C0004FF4304001F070FF0D214BF2010001F08C
:1034D0006BFF0D214BF2020001F066FF34214FF427
:1034E000364001F061FF34214BF2016001F05CFFD6
:1034F00034214BF2026001F057FF0D214FF43140AF
:1035000001F052FF0D214BF2011001F04DFF0D2192
:103510004BF2021001F048FF34214FF4374001F024
:1035200043FF34214BF2017001F03EFF34214BF296
:10353000027001F039FF00214FF4324001F034FFF6
:1035400000214BF2012001F02FFF00214BF202205D
:1035500001F02AFF24214FF4384001F025FF2421F7
:103560004BF6010001F020FF24214BF6020001F090
:103570001BFF01214FF43F4001F016FF0F214FF4D4
:10358000334001F011FF00E0FDE30F214BF2013069
:1035900001F00AFF0F214BF2023001F005FF342148
:1035A0004FF4394001F000FF34214BF6011001F0D7
:1035B000FBFE34214BF6021001F0F6FE08214FF419
:1035C000354001F0F1FE08214BF2015001F0ECFE14
:1035D00008214BF2025001F0E7FE03214FF4424074
:1035E00001F0E2FE24214FF43A4001F0DDFE2421F7
:1035F0004BF6012001F0D8FE24214BF6022001F009
:10360000D3FE00214FF43C4001F0CEFE78214BF672
:10361000014001F0C9FE00214BF6024001F0C4FE5A
:1036200000214FF43D4001F0BFFE78214BF60150E0
:1036300001F0BAFE00214BF6025001F0B5FE002168
:103640004FF43E4001F0B0FE64214BF6016001F002
:10365000ABFE00214FF4514001F0A6FE33214DF2A4
:10366000011001F0A1FE00214DF2021001F09CFEBC
:1036700034214DF2031001F097FE00214DF20410A9
:1036800001F092FE3A214DF2051001F08DFE00216D
:103690004DF2061001F088FE4A214DF2071001F0AC
:1036A00083FE00214DF2081001F07EFE5C214DF2F8
:1036B000091001F079FE00214DF20A1001F074FEAC
:1036C00081214DF20B1001F06FFE00214DF20C1024
:1036D00001F06AFEA6214DF20D1001F065FE0021F9
:1036E0004DF20E1001F060FEE5214DF20F1001F0D9
:1036F0005BFE01214DF2101001F056FE13214DF238
:10370000111001F051FE01214DF2121001F04CFE9A
:1037100054214DF2131001F047FE01214DF2141017
:1037200001F042FE82214DF2151001F03DFE012113
:103730004DF2161001F038FECA214DF2171001F0BB
:1037400033FE02214DF2181001F02EFE00214DF241
:10375000191001F029FE02214DF21A1001F024FE89
:1037600001214DF21B1001F01FFE02214DF21C1031
:1037700001F01AFE34214DF21D1001F015FE022158
:103780004DF21E1001F010FE67214DF21F1001F0E6
:103790000BFE02214DF2201001F006FE84214DF2B5
:1037A000211001F001FE02214DF2221001F0FCFD7A
:1037B000A4214DF2231001F0F7FD02214DF2241057
:1037C00001F0F2FDB7214DF2251001F0EDFD0221CF
:1037D0004DF2261001F0E8FDCF214DF2271001F047
:1037E000E3FD02214DF2281001F0DEFDDE214DF255
:1037F000291001F0D9FD02214DF22A1001F0D4FD6B
:10380000F2214DF22B1001F0CFFD02214DF22C10D0
:1038100001F0CAFDFE214DF22D1001F0C5FD03217E
:103820004DF22E1001F0C0FD10214DF22F1001F0CD
:10383000BBFD03214DF2301001F0B6FD33214DF2F6
:10384000311001F0B1FD03214DF2321001F0ACFD59
:103850006D214DF2331001F0A7FD00214FF45240CD
:1038600001F0A2FD33214DF2012001F09DFD002168
:103870004DF2022001F098FD342101E0B00E00204D
:103880004DF2032001F090FD00214DF2042001F0E3
:103890008BFD3A214DF2052001F086FD00214DF20D
:1038A000062001F081FD4A214DF2072001F07CFD48
:1038B00000214DF2082001F077FD5C214DF2092036
:1038C00001F072FD00214DF20A2001F06DFD812111
:1038D0004DF20B2001F068FD00214DF20C2001F0AB
:1038E00063FDA6214DF20D2001F05EFD00214DF299
:1038F0000E2001F059FDE5214DF20F2001F054FD9D
:1039000001214DF2102001F04FFD13214DF2112045
:1039100001F04AFD01214DF2122001F045FD542134
:103920004DF2132001F040FD01214DF2142001F071
:103930003BFD82214DF2152001F036FD01214DF2B3
:10394000162001F031FDCA214DF2172001F02CFDA7
:1039500002214DF2182001F027FD00214DF219201F
:1039600001F022FD02214DF21A2001F01DFD01217E
:103970004DF21B2001F018FD02214DF21C2001F038
:1039800013FD34214DF21D2001F00EFD02214DF2F8
:103990001E2001F009FD67214DF21F2001F004FDFA
:1039A00002214DF2202001F0FFFC84214DF2212064
:1039B00001F0FAFC02214DF2222001F0F5FCA421D5
:1039C0004DF2232001F0F0FC02214DF2242001F001
:1039D000EBFCB7214DF2252001F0E6FC02214DF26F
:1039E000262001F0E1FCCF214DF2272001F0DCFC84
:1039F00002214DF2282001F0D7FCDE214DF22920D2
:103A000001F0D2FC02214DF22A2001F0CDFCF2217E
:103A10004DF22B2001F0C8FC02214DF22C2001F0C8
:103A2000C3FCFE214DF22D2001F0BEFC03214DF21E
:103A30002E2001F0B9FC10214DF22F2001F0B4FC32
:103A400003214DF2302001F0AFFC33214DF2312043
:103A500001F0AAFC03214DF2322001F0A5FC6D21FA
:103A60004DF2332001F0A0FC00214FF4534001F04F
:103A70009BFC33214DF2013001F096FC00214DF208
:103A8000023001F091FC34214DF2033001F08CFC46
:103A900000214DF2043001F087FC3A214DF205304F
:103AA00001F082FC00214DF2063001F07DFC4A213C
:103AB0004DF2073001F078FC00214DF2083001F0A2
:103AC00073FC5C214DF2093001F06EFC00214DF2D7
:103AD0000A3001F069FC81214DF20B3001F064FCE9
:103AE00000214DF20C3001F05FFCA6214DF20D30AB
:103AF00001F05AFC00214DF20E3001F055FCE52199
:103B00004DF20F3001F050FC01214DF2103001F068
:103B10004BFC13214DF2113001F046FC01214DF216
:103B2000123001F041FC54214DF2133001F03CFC05
:103B300001214DF2143001F037FC82214DF2153095
:103B400001F032FC01214DF2163001F02DFCCA21AA
:103B50004DF2173001F028FC02214DF2183001F02F
:103B600023FC00214DF2193001F01EFC02214DF220
:103B70001A3001F019FC01214DF21B3001F014FC48
:103B800002214DF21C3001F00FFC34214DF21D30AA
:103B900001F00AFC02214DF21E3001F005FC672104
:103BA0004DF21F3001F000FC02214DF2203001F0F7
:103BB000FBFB84214DF2213001F0F6FB02214DF296
:103BC000223001F0F1FBA4214DF2233001F0ECFB97
:103BD00002214DF2243001F0E7FBB7214DF22530F0
:103BE00001F0E2FB02214DF2263001F0DDFBCF2196
:103BF0004DF2273001F0D8FB02214DF2283001F0C0
:103C0000D3FBDE214DF2293001F0CEFB02214DF233
:103C10002A3001F0C9FBF2214DF22B3001F0C4FB38
:103C200002214DF22C3001F0BFFBFE214DF22D3070
:103C300001F0BAFB03214DF22E3001F0B5FB10214B
:103C40004DF22F3001F0B0FB03214DF2303001F086
:103C5000ABFB33214DF2313001F0A6FB03214DF2D5
:103C6000323001F0A1FB6D214DF2333001F09CFBAD
:103C700000214FF4544001F097FB33214DF20140F5
:103C800001F092FB00214DF2024001F08DFB342146
:103C90004DF2034001F088FB00214DF2044001F099
:103CA00083FB3A214DF2054001F07EFB00214DF2ED
:103CB000064001F079FB4A214DF2074001F074FB08
:103CC00000214DF2084001F06FFB5C214DF20940EC
:103CD00001F06AFB00214DF20A4001F065FB8121F1
:103CE0004DF20B4001F060FB00214DF20C4001F061
:103CF0005BFBA6214DF20D4001F056FB00214DF279
:103D00000E4001F051FBE5214DF20F4001F04CFB5C
:103D100001214DF2104001F047FB13214DF21140FB
:103D200001F042FB01214DF2124001F03DFB542114
:103D30004DF2134001F038FB01214DF2144001F027
:103D400033FB82214DF2154001F02EFB01214DF293
:103D5000164001F029FBCA214DF2174001F024FB67
:103D600002214DF2184001F01FFB00214DF21940D5
:103D700001F01AFB02214DF21A4001F015FB01215E
:103D80004DF21B4000E005E301F00EFB02214DF275
:103D90001C4001F009FB34214DF21D4001F004FBF1
:103DA00002214DF21E4001F0FFFA67214DF21F4043
:103DB00001F0FAFA02214DF2204001F0F5FA8421D7
:103DC0004DF2214001F0F0FA02214DF2224001F0C3
:103DD000EBFAA4214DF2234001F0E6FA02214DF264
:103DE000244001F0E1FAB7214DF2254001F0DCFA60
:103DF00002214DF2264001F0D7FACF214DF22740A3
:103E000001F0D2FA02214DF2284001F0CDFADE2174
:103E10004DF2294001F0C8FA02214DF22A4001F08A
:103E2000C3FAF2214DF22B4001F0BEFA02214DF20D
:103E30002C4001F0B9FAFE214DF22D4001F0B4FA08
:103E400003214DF22E4001F0AFFA10214DF22F4028
:103E500001F0AAFA03214DF2304001F0A5FA332116
:103E60004DF2314001F0A0FA03214DF2324001F051
:103E70009BFA6D214DF2334001F096FA00214FF488
:103E8000554001F091FA33214DF2015001F08CFAC6
:103E900000214DF2025001F087FA34214DF2035017
:103EA00001F082FA00214DF2045001F07DFA3A212E
:103EB0004DF2055001F078FA00214DF2065001F064
:103EC00073FA4A214DF2075001F06EFA00214DF2CB
:103ED000085001F069FA5C214DF2095001F064FAD2
:103EE00000214DF20A5001F05FFA81214DF20B5092
:103EF00001F05AFA00214DF20C5001F055FAA621BA
:103F00004DF20D5001F050FA00214DF20E5001F02B
:103F10004BFAE5214DF20F5001F046FA01214DF226
:103F2000105001F041FA13214DF2115001F03CFA0A
:103F300001214DF2125001F037FA54214DF2135085
:103F400001F032FA01214DF2145001F02DFA8221D4
:103F50004DF2155001F028FA01214DF2165001F0F2
:103F600023FACA214DF2175001F01EFA02214DF238
:103F7000185001F019FA00214DF2195001F014FA0D
:103F800002214DF21A5001F00FFA01214DF21B509F
:103F900001F00AFA02214DF21C5001F005FA342119
:103FA0004DF21D5001F000FA02214DF21E5001F0B9
:103FB000FBF967214DF21F5001F0F6F902214DF295
:103FC000205001F0F1F984214DF2215001F0ECF97B
:103FD00002214DF2225001F0E7F9A4214DF22350C5
:103FE00001F0E2F902214DF2245001F0DDF9B72190
:103FF0004DF2255001F0D8F902214DF2265001F082
:10400000D3F9CF214DF2275001F0CEF902214DF224
:10401000285001F0C9F9DE214DF2295001F0C4F910
:1040200002214DF22A5001F0BFF9F2214DF22B503E
:1040300001F0BAF902214DF22C5001F0B5F9FE2140
:104040004DF22D5001F0B0F903214DF22E5001F048
:10405000ABF910214DF22F5001F0A6F903214DF2DA
:10406000305001F0A1F933214DF2315001F09CF9AB
:1040700003214DF2325001F097F96D214DF233508A
:1040800001F092F900214FF4564001F08DF93321EF
:104090004DF2016001F088F900214DF2026001F05B
:1040A00083F934214DF2036001F07EF900214DF2D5
:1040B000046001F079F93A214DF2056001F074F9DC
:1040C00000214DF2066001F06FF94A214DF20760C0
:1040D00001F06AF900214DF2086001F065F95C21F8
:1040E0004DF2096001F060F900214DF20A6001F023
:1040F0005BF981214DF20B6001F056F900214DF280
:104100000C6001F051F9A6214DF20D6001F04CF95F
:1041100000214DF20E6001F047F9E5214DF20F60EC
:1041200001F042F901214DF2106001F03DF9132137
:104130004DF2116001F038F901214DF2126001F0E9
:1041400033F954214DF2136001F02EF901214DF2A3
:10415000146001F029F982214DF2156001F024F973
:1041600001214DF2166001F01FF9CA214DF21760CE
:1041700001F01AF902214DF2186001F015F9002141
:104180004DF2196001F010F902214DF21A6001F0B0
:104190000BF901214DF21B6001F006F902214DF2ED
:1041A0001C6001F001F934214DF21D6001F0FCF8B2
:1041B00002214DF21E6001F0F7F867214DF21F60F9
:1041C00001F0F2F802214DF2206001F0EDF88421B7
:1041D0004DF2216001F0E8F802214DF2226001F079
:1041E000E3F8A4214DF2236001F0DEF802214DF244
:1041F000246001F0D9F8B7214DF2256001F0D4F820
:1042000002214DF2266001F0CFF8CF214DF2276058
:1042100001F0CAF802214DF2286001F0C5F8DE2154
:104220004DF2296001F0C0F802214DF22A6001F040
:10423000BBF8F2214DF22B6001F0B6F802214DF2ED
:104240002C6001F0B1F8FE214DF22D6001F0ACF8C8
:1042500003214DF22E6001F0A7F810214DF22F60DE
:1042600001F0A2F803214DF2306001F09DF83321F6
:104270004DF2316001F098F803214DF2326001F007
:1042800093F86D214DF2336001F08EF855214FF413
:10429000704001F089F8AA214FF2010001F084F882
:1042A00052214FF2020001F07FF808214FF2030083
:1042B00001F07AF800214FF2040001F075F8CC21EA
:1042C0004FF4314001F070F800214BF2011001F081
:1042D0006BF805214FF4364001F066F870214FF479
:1042E000374001F061F870214BF2017001F05CF889
:1042F00001214FF4384001F057F803214BF601003B
:1043000001F052F803214BF6020001F04DF80321B1
:104310004BF6030001F048F802214FF43C4001F055
:1043200043F800214BF6014001F03EF800214BF626
:10433000024001F039F8D0214FF4494001F034F83F
:1043400002214CF6011001F02FF850214CF602101A
:1043500001F02AF850214CF6031001F025F8502105
:104360004CF6041001F020F800214FF4545001F0F5
:104370001BF855214FF4685001F016F84FF488509F
:1043800000F0F8FF782004F09FFA4FF4245000F07A
:10439000F1FF76E2FE48808841F663118842F8D149
:1043A000E22000F0E7FF4FF48070FA490861400016
:1043B00048611D20F84908608020F649486108617D
:1043C0008000086140100861400048610220F24905
:1043D00008608020EF494861086180000861401052
:1043E0000861400048610420EB4908608020E949E9
:1043F0004861086180000861642004F065FAE020EB
:1044000000F0B8FF4FF48070E24908614000486155
:104410000120E14908608020DE4948610861800090
:1044200008610A2004F01AFAE02000F0A3FF4FF41C
:104430008070D8490861400048610320D64908606F
:104440008020D44948610861800008610C2004F094
:1044500005FA012000F08EFF0A2004F0FFF9E620A3
:1044600000F088FF4FF48070CA490861400048613D
:104470002F20C94908608020C64948610861800032
:1044800008614010086140004861FF20C24908608F
:104490008020C049486108618000086140100861BF
:1044A00040004861FF20BC4908608020B94948614C
:1044B000086180000861B02000F05CFF4FF480705C
:1044C000B4490861400048612020B3490860802059
:1044D000B0494861086180000861401008614000EF
:1044E00048610020AC4908608020AA494861086101
:1044F0008000086140100861400048610320A6491F
:1045000008608020A349486108618000086140106C
:1045100008614000486140F21F309F4908608020D8
:104520009C494861086180000861401008614000B2
:1045300048610120984908608020964948610861D7
:1045400080000861401008614000486140F2DF10BF
:104550009149086080208F494861086180000861A6
:10456000401008614000486100208B4908608020AD
:1045700088494861086180000861B42000F0FAFEB3
:104580004FF48070834908614000486104208249EB
:10459000086080207F494861086180000861401000
:1045A00008614000486140F21F407B49086080205C
:1045B0007849486108618000086140100861400046
:1045C0004861002074490860802072494861086190
:1045D0008000086140100861400048612E206E494B
:1045E000086080206B4948610861800008614010C4
:1045F00008614000486100206749086080206549E3
:10460000486108618000086140100861400048610D
:1046100000206149086080205E494861086180008F
:104620000861401008614000486100205A49086054
:104630008020584948610861800008614010086185
:104640004000486100205449086080205149486179
:10465000086180000861B62000F08CFE4FF4807085
:104660004C4908614000486102204B4908608020A5
:1046700048494861086180000861401008614000B5
:1046800048614FF403704449086080204149486103
:104690000861800008614010086140004861002006
:1046A0003D49086080203B494861086180000861FD
:1046B0004010086140004861172037490860802099
:1046C0003449486108618000086140100861400079
:1046D000486115203049086080202E4948610861F2
:1046E00080000861401008614000486100202A49AC
:1046F00008608020274948610861800008614010F7
:104700000861400048610020234908608020214959
:104710004861086180000861F02000F02BFE4FF432
:1047200080701C4908614000486103201A490860F4
:10473000802018494861086180000861292000F044
:1047400019FED02000F016FE4FF480701149086168
:104750004000486100201049086080200D494861F0
:10476000086180000861BE2000F004FE4FF48070F4
:104770000849086140004861052007490860802019
:10478000044948610861800008614010086105E043
:10479000B00E0020001001400C0C014040004861A8
:1047A000FE203D49086080203C4948610861800046
:1047B00008614010086140004861012036490860E6
:1047C0008020364948610861800008614010086116
:1047D0004000486100203049086080202F4948612E
:1047E00008618000086140100861400048610020B5
:1047F00029490860802029494861086180000861D2
:104800004010086140004861002023490860802072
:1048100022494861086180000861B82000F0AAFDC3
:104820004FF480701D4908614000486103201A4917
:1048300008608020194948610861800008614010C3
:104840000861400048610120134908608020134935
:104850004861086180000861BA2000F08BFD4FF4C8
:1048600080700E4908614000486101200A490860D3
:1048700080200A494861086180000861642000F0D6
:104880004FF80020FDF776F80120054908604FF643
:10489000FF70FDF749F810BD0C0C014000100140FD
:1048A000A801224210B50246012000E050430B1E31
:1048B000A1F10104E1B2F9D110BD000008B54FF03B
:1048C000883015490860091D08604FF6FF701249CD
:1048D0000C3108608815114908614000486140208A
:1048E0004861022004F08EFA0B480830006880B25C
:1048F0000090402009490861C00008614FF0333042
:1049000005490860091D08604FF6FF7002490C3127
:104910000860BDF8000008BD000C01400010014017
:104920002DE9F0410446BE2000F024FD4FF48070D4
:104930002D4908614000486105202C49086080200D
:104940002949486108618000086140100861400001
:104950004861204604F0BCFE05464FF06632244B09
:1049600004F006FF074604F06FFE2049086080202F
:104970001D494861086180000861401008614000DD
:104980004861012019490860802017494861086181
:10499000800008614010086140004861FF20134911
:1049A000086080201049486108618000086140105B
:1049B00008614000486100200C49086080200A49D5
:1049C000486108618000086140100861400048614A
:1049D0000020064908608020034948610861800082
:1049E0000861BDE8F0810000001001400C0C01409E
:1049F00066660440F0B5054600240027E248807949
:104A0000012805D1E048808841F66311884208D129
:104A1000DD488079F0B9DC48808841F6631188422E
:104A200018D1082D15D2DFE805F00406080A0C0E8F
:104A3000101206250DE007250BE0042509E00525E9
:104A400007E0012505E0002503E0032501E002253C
:104A500000BF00BF082D1CD2DFE805F00406090CDA
:104A60000F12151800BF14E044F0800411E044F068
:104A700040040EE044F0C0040BE044F0200408E0E1
:104A800044F0600405E044F0A00402E044F0E004D7
:104A900000BF00BFBC48808845F21051884202D157
:104AA0004FF4585700E03627B748808849F2413123
:104AB000884205D0B448808847F28971884201D184
:104AC00044F008042146384600F06EFCAE48808869
:104AD00041F6631188421DD004F0200068B1AA4855
:104AE0000088A9494988884214DAA748068840887E
:104AF000A5490880084646800CE0A3480088A249E2
:104B00004988884206DDA048068840889E4908807A
:104B1000084646809C48808845F2105188427DD1E5
:104B20009949488900F026FC4FF480709749086144
:104B30004000486100209649086080209349486100
:104B400008618000086190494989491C88B200F0D9
:104B500011FC4FF480708D490861400048610020CD
:104B60008B4908608020894948610861800008619C
:104B700085494989891C88B200F0FCFB4FF480709C
:104B800082490861400048617F480088401E001249
:104B90007F49086080207D49486108618000086184
:104BA00079494989C91C88B200F0E4FB4FF4807050
:104BB000764908614000486173480078401EC0B2E1
:104BC000734908608020714948610861800008616C
:104BD0006D49888900F0CEFB4FF480706B49086105
:104BE0004000486100206A490860802067494861A8
:104BF00008618000086164498989491C88B200F015
:104C0000B9FB4FF4807061490861400048610020A1
:104C10005F49086080205D49486100E033E0086139
:104C20008000086158498989891C88B200F0A2FB7C
:104C30004FF48070554908614000486152484088EF
:104C4000401E0012524908608020504948610861A6
:104C5000800008614C498989C91C88B200F08AFB30
:104C60004FF48070494908614000486146488078A7
:104C7000401EC0B24649086080204449486108612E
:104C8000800008617FE04049488900F073FB4FF4E1
:104C900080703E4908614000486100203C4908603E
:104CA00080203A494861086180000861401008612D
:104CB000400048610020364908608020334948613F
:104CC00008618000086140100861400048612E487A
:104CD0000088401E00122E49086080202B49486140
:104CE0000861800008614010086140004861264862
:104CF0000078401EC0B226490860802023494861E0
:104D00000861800008612049888900F033FB4FF476
:104D100080701E4908614000486100201C490860FD
:104D200080201A49486108618000086140100861CC
:104D300040004861002016490860802013494861FE
:104D400008618000086140100861400048610E4819
:104D50004088401E00120E49086080200B494861BF
:104D60000861800008614010086140004861064801
:104D70008078401EC0B2064908608020034948611F
:104D8000086180000861F0BDB00E002000100140F5
:104D90000C0C014010B503460C46B248808841F621
:104DA000631188427ED1AF48807900283FD1AD4859
:104DB0000088401EC01A83B2AA49488900F0DAFA76
:104DC0004FF48070A8490861400048610020A7495D
:104DD00008608020A4494861086180000861401093
:104DE0000861400048610020A049086080209E4979
:104DF0004861086180000861401008614000486116
:104E000018129A490860802097494861086180001B
:104E100008614010086140004861D8B293490860B9
:104E200080209149486108618000086141E08D4916
:104E3000488900F09FFA4FF480708B490861400068
:104E400048611812894908608020874948610861D3
:104E5000800008614010086140004861D8B2834971
:104E60000860802080494861086180000861401026
:104E70000861400048617B480088401E00127B4961
:104E8000086080207849486108618000086140100E
:104E900008614000486173480078401EC0B2734901
:104EA000086000E046E080206F49486108618000AA
:104EB00008616C49888900F05DFA4FF480706A4996
:104EC00008614000486120126849086080206649F6
:104ED0004861086180000861401008614000486135
:104EE000E0B26249086080205F4948610861800043
:104EF000086140100861400048615A484088401EDF
:104F000000125A49086080205749486108618000B2
:104F10000861401008614000486152488078401E96
:104F2000C0B25249086080204F4948610861800042
:104F3000086196E04B48808845F21051884250D174
:104F40004849488900F016FA4FF4807046490861D4
:104F50004000486118124549086080204249486174
:104F60000861800008613F494989491C88B200F006
:104F700001FA4FF480703C49086140004861D8B2A2
:104F80003A4908608020384948610861800008611A
:104F90003449888900F0EEF94FF480703249086195
:104FA0004000486120123149086080202E49486144
:104FB0000861800008612B498989491C88B200F08A
:104FC000D9F94FF480702849086140004861E0B287
:104FD00026490860802024494861086180000861F2
:104FE0003FE02049488900F0C5F94FF480701E4920
:104FF00008614000486118121C49086080201A4965
:105000004861086180000861401008614000486103
:10501000D8B21649086080201349486108618000B1
:1050200008611049888900F0A5F94FF480700E4995
:1050300008614000486120120C49086080200A493C
:1050400048610861800008614010086140004861C3
:10505000E0B2064908608020034948610861800089
:10506000086110BDB00E0020001001400C0C014082
:105070002DE9F84F80460E4617461C46B34620469B
:10508000E31704EB5373DB1021464FEAE47C04EB97
:105090005C7C4FEAEC0CA4EBCC0CBCF1000F02D012
:1050A0004FF0010C01E04FF0000C6344224604EB8A
:1050B000D27C4FEA6C0C03FB0CF3DBB20093A7F13C
:1050C0002000C7B2002556E00C2C07D107EB4700A3
:1050D0002B4901EB800010F8059013E0102C05D14E
:1050E000284800EB071010F805900BE0182C07D1AA
:1050F00007EBC700244901EB800010F8059001E0A0
:10510000BDE8F88F4FF0000A2FE009F0800030B1C1
:105110001E48028831464046FCF788FD07E00A98A1
:1051200028B91B48028831464046FCF77FFD4FEA0C
:1051300049604FEA1069701C86B216484088B04238
:1051400000DCDDE7A6EB0B00A0420AD15E4608F1C9
:1051500001001FFA80F80F480088404500DCCFE7C7
:1051600006E00AF1010000F0FF0ABAF1080FCCDBFB
:1051700000BF681CC5B200988542A5DB00BFBFE731
:1051800096A300080AA80008FAAD00082A0000202B
:105190002C000020B00E00202DE9FF4F81B0074603
:1051A00091461E460E9D4FF0000A002439E0301B48
:1051B000401EC1B20A20FFF775FBB9FBF0F00A21CF
:1051C000B0FBF1F201FB1208BAF1000F16D1701E0C
:1051D000A04213DDB8F1000F0ED10020AB4605EB65
:1051E000DB71491001FB0471009088B22B4620222C
:1051F0000299FFF73DFF12E04FF0010A0020AB4695
:1052000005EBDB71491001FB0471009088B208F1D5
:105210003001CAB22B460299FFF72AFF00BF601C7B
:10522000C4B2B442C3DB05B0BDE8F08F2DE9F84746
:1052300004460D4690469946DDE9096704F0FF0AE9
:1052400008EB04001FFA80F809EB05001FFA80F94B
:1052500016E0444502DB5446A81985B24D4500DBF3
:1052600014E0002000903A78334629462046FFF7A4
:10527000FFFE304606EBD07104EB61018CB27F1C5F
:1052800038787E2802DC38782028E2DA00BFBDE8D2
:10529000F8872DE9FF4F82B0064692461F46DDE9AA
:1052A0000F480020019000254DE0781B401EC1B240
:1052B0000A20FFF7F7FABAFBF0F00A21B0FBF1F28F
:1052C00001FB1209019850BB781EA84227DDB9F1F5
:1052D000000F22D108F0800078B108F00100A34649
:1052E00004EBDB71491001FB0561009088B2234695
:1052F00030220399FFF7BCFE0EE008F00100A34640
:1053000004EBDB71491001FB0561009088B2234674
:1053100020220399FFF7ACFE13E00120019008F072
:105320000100A34604EBDB71491001FB056100900D
:1053300088B209F13001CAB223460399FFF798FEFB
:1053400000BF681CC5B2BD42AFDB06B0BDE8F08F40
:105350004FF48071054A11614900516104490860A8
:105360008021516111618900116170470010014075
:105370000C0C01404FF48071054A516149005161A4
:1053800004490860802151611161890011617047F1
:10539000001001400C0C014000B502490889FFF7DC
:1053A000E9FF00BDB00E002010B504460B462046B4
:1053B000FFF7E0FF4FF48070054908614000486145
:1053C000044803608020486108618000086110BDC6
:1053D000001001400C0C01401848806940F00400A6
:1053E000164988610846806940F0200088611448A9
:1053F000006820F00F00124908600846006840F07D
:10540000030008600E480830006840F480700C49C2
:10541000083108600B48006820F470600949086092
:105420000846006840F44070086006480C30006888
:1054300040F0040003490C3108607047001002403E
:10544000040801400014014000B50020154908611E
:10545000C8601420486100208861C861084600685F
:1054600040F001000860084640680F4908400D49B7
:105470004860084600680D4908400A490860084627
:10548000006820F4802008600846406820F4FE0090
:1054900048600020886000214FF0006000F058F85C
:1054A00000BD0000001002400000FFF8FFFFF6FE04
:1054B0002DE9F0410746884614461D46284600F06F
:1054C00033F8C5F1040007FA00F60F20284100EA7E
:1054D0000800064306F00F06E21704EBD2625211F1
:1054E000920002F1E022D2F800212146E31704EBFA
:1054F000D3635B11A4EB431C012303FA0CF31A439F
:105500002046E31704EBD3635B119B0003F1E02318
:10551000C3F800210348005D40EA06100149085520
:10552000BDE8F08100E400E00146072323EA010220
:105530001202054B18684FF6FF031840034B18433F
:105540001043014B186070470CED00E00000FA05B5
:10555000024A0A400243024B1A60704780FFFF1F55
:1055600008ED00E02DE9F04106460D4600271348FE
:10557000007820B1102028700020BDE8F081FAF7F3
:105580004BFE07460E48046884B1006840680C4929
:1055900008600520207026810020606009A0E0607E
:1055A0003846FAF73DFE0020287004E03846FAF746
:1055B00037FE722028702046DFE7000089000020B7
:1055C000780000203F0000002DE9F04F89B005462B
:1055D0000F4691469A46129E002002908C48007811
:1055E00028B102203070002009B0BDE8F08F894852
:1055F000007818B10D2030700020F5E728780528D4
:1056000003D0012030700020EEE709F0800BBBF1E1
:10561000000F04D009F07F094FF0010801E04FF0BE
:105620000008FAF7F9FD0290B9F1000F4AD0B9F17C
:10563000010F68D0B9F1020F03D0B9F1030F76D191
:1056400020E0288900EA0704BC420FD1B8F1010F1D
:1056500002D12889A04328816F48006804850298F8
:10566000FAF7DEFD002030702046BDE74B463A4693
:1056700004A92846CDF800A001F0D4FA0298FAF760
:10568000CFFD69E0288900EA07047CB1B8F1010F79
:1056900002D12889A04328815F48006804850298C8
:1056A000FAF7BEFD0020307020469DE74B463A4693
:1056B00004A92846CDF800A001F0B4FA0298FAF740
:1056C000AFFD49E0288927EA0004BC420FD1B8F1B8
:1056D000010F02D12889204328814F4800680485A2
:1056E0000298FAF79DFD0020307020467CE74B467B
:1056F0003A4604A92846CDF800A001F093FA029892
:10570000FAF78EFD28E0288927EA000484B1B8F171
:10571000010F02D12889204328813F480068048571
:105720000298FAF77DFD0020307020465CE70BE020
:105730004B463A4604A92846CDF800A001F072FA7B
:105740000298FAF76DFD07E00298FAF769FD002468
:105750006F203070204647E700BF01F059FCFAF790
:105760005BFD02902C48006890F8310020B32A4875
:10577000006890F83100039000202749096881F8FB
:10578000310004A801F0FAFA00202349096881F8E1
:1057900030000298FAF744FD00240398012805D050
:1057A000022802D10E20307003E000BF0A203070C2
:1057B00000BF00BF204617E717480068048DB8F106
:1057C000010F1ED1B9F1000F0ED0B9F1010F0CD0AD
:1057D000B9F1020F03D0B9F1030F0AD100E000BF05
:1057E0002889A04328810BE000BF28892043288115
:1057F00006E00298FAF714FD6F2030700020F3E6FF
:1058000000BF0298FAF70CFD002030702046EBE64E
:10581000890000208A0000209C0000202DE9FC5F08
:105820000446894692461E460020009020780528AE
:1058300004D0012030700020BDE8FC9FFAF7ECFC9A
:105840000090BAF1000F03D0BAF1010F0AD104E0C1
:10585000208920EA090020810BE0208940EA090024
:10586000208106E00098FAF7DBFC71203070002000
:10587000E2E700BF4FF0000B656855E0A87C40B33D
:10588000012838D0022802D0032844D111E0208911
:10589000298A00EA0107288AB84209D139462846F0
:1058A00001F03EFA8046B8F1010F01D14FF0010B33
:1058B00038E02089298A00EA01074FB13946284695
:1058C00001F02EFA8046B8F1010F01D14FF0010B23
:1058D00028E0288A218920EA0107288AB84209D1CC
:1058E0003946284601F01CFA8046B8F1010F01D173
:1058F0004FF0010B16E0288A218920EA01074FB1F9
:105900003946284601F00CFA8046B8F1010F01D162
:105910004FF0010B06E00098FAF782FC6F20307020
:10592000002089E700BF2D68002DA7D10098FAF765
:1059300077FCBBF1010F01D101F06AFBFAF76CFCB7
:105940000090208901900098FAF76AFC00203070DE
:10595000019871E710B500F015F801F04BFA01F06D
:1059600073FA01F093FA01F01BFA01F0ADF901F0BE
:1059700027FB01F0CBFA01F0F1FA00F093FF00F001
:1059800007F810BD0020014908807047D0000020B2
:105990007047000006480078012808D105480078C3
:1059A000FF2804D203480078401C02490870704761
:1059B000960000208900002010B500241A480078C5
:1059C000012830D1FAF728FC04461848007820B1A5
:1059D00016480078401E1549087014480078F8B938
:1059E00013480078E0B901F04DFB124812490978DC
:1059F00050F82100114908600F48007810490978D3
:105A000088420DD00D480068806B401C0B49096826
:105A100088630C480068401C0A490860FAF71BFCC0
:105A20002046FAF7FDFB10BD9600002089000020FB
:105A30008A000020D81300208C000020A400002041
:105A40008B0000207000002070B5054600260F482E
:105A5000007808B1002070BDFAF7DEFB06460C485E
:105A60000468006820B10A48006840680849086076
:105A70003046FAF7D5FB3CB1012020700020208190
:105A80006560204601F0C0F82046E4E78900002068
:105A9000740000202DE9F04105460F4614464FF0F2
:105AA00000082878012804D0012020700020BDE8DB
:105AB000F0813648007818B1022020700020F6E707
:105AC0003348007818B10D2020700020EFE7FAF776
:105AD000A3FB80466E6846B1002068604046FAF736
