:020000040800F2
:1000000070070020554700086D0300086F030008C3
:1000100073030008770300087B030008000000005A
:100020000000000000000000000000007F03000846
:100030008103000800000000830300088503000816
:100040006F4700086F4700086F4700086F470008B8
:100050006F4700086F4700086F4700086F470008A8
:100060006F4700086F4700086F4700086F47000898
:100070006F4700086F4700086F4700086F47000888
:100080006F4700086F4700086F4700086F47000878
:100090006F4700086F4700086F4700086F47000868
:1000A0006F4700086F4700086F4700086F47000858
:1000B0006F4700086F4700086F4700086F47000848
:1000C0006F4700086F4700086F4700086F47000838
:1000D0006F470008C94600086F4700086F470008CF
:1000E0006F4700086F4700086F4700086F47000818
:1000F0006F4700086F4700086F4700086F47000808
:100100006F4700086F4700086F4700086F470008F7
:100110006F4700086F4700086F4700086F470008E7
:100120006F4700086F4700086F4700086F470008D7
:1001300000F002F800F03FF80AA090E8000C8244BA
:100140008344AAF10107DA4501D100F034F8AFF297
:10015000090EBAE80F0013F0010F18BFFB1A43F0A5
:10016000010318474870000068700000103A24BF6F
:1001700078C878C1FAD8520724BF30C830C144BF0C
:1001800004680C607047000000230024002500264E
:10019000103A28BF78C1FBD8520728BF30C148BFEA
:1001A0000B607047782905F03181002070471FB53A
:1001B0001FBD10B510BD05F083FA1146FFF7F7FF1C
:1001C00000F008F805F0A1FA03B4FFF7F2FF03BC52
:1001D00004F020FA86B0002404F0B2F94FF416506F
:1001E00004F026FA00F0C0F901F04FFA4FF478401D
:1001F0004A4908804A4882884AA103A805F0CAF8FB
:100200008BE00C2C41D2DFE804F0060B0F13181D15
:1002100022272C31363B4FF6FF7001F016FA34E0FE
:10022000002001F012FA30E01F2001F00EFA2CE05D
:100230004FF4784001F009FA27E04FF61F0001F073
:1002400004FA22E04FF4FC6001F0FFF91DE047F6EC
:10025000FF7001F0FAF918E04FF6E07001F0F5F9DF
:1002600013E04FF6074001F0F0F90EE048F230409D
:1002700001F0EBF909E04CF2186001F0E6F904E056
:100280004BF6404001F0E1F900BF00BF4FF4784069
:100290002249088026A018210B46C822CDE900106B
:1002A00028211E2004F012F925A010210B46C82297
:1002B000CDE9001046211E2004F008F923A01021EA
:1002C0000B46C822CDE900105A211E2004F0FEF88A
:1002D00003A810210B46C822CDE900106E211E2074
:1002E00004F0F4F81DA00C210B46C822CDE9001043
:1002F00082211E2004F0EAF8601CC4B20C2C00D14C
:1003000000241948006808B9012000E000201649BF
:1003100008604FF47A7004F050F972E7140000207E
:10032000380000204C43442049443A2530345800DA
:100330004D696E692053544D3332205E5F5E00007C
:100340005446544C434420544553540041544F4D5B
:1003500040414C49454E54454B0000003230313449
:100360002F332F3700000000A0012142704700BF4B
:10037000FEE700BFFEE700BFFEE700BFFEE77047F5
:1003800070477047704700000CB500200190009046
:100390006C48006840F480306A49086000BF6948D2
:1003A000006800F4003000900198401C0190009813
:1003B00018B90198B0F5A06FF1D16248006800F457
:1003C000003010B10120009001E000200090009862
:1003D000012843D15C48006840F010005A49086089
:1003E0000846006820F0030008600846006840F0F6
:1003F0000200086053484068524948600846406817
:1004000048600846406840F480604860084640689C
:1004100020F47C1048600846406840F4E8104860CA
:100420000846006840F08070086000BF45480068DA
:1004300000F000700028F9D04248406820F0030026
:10044000404948600846406840F00200486000BFEC
:100450003C48406800F00C000828F9D10CBD10B5EC
:10046000FFF792FF10BD10B53648006840F001005C
:1004700034490860084640683449084031494860BA
:1004800008460068324908402E490860084600685E
:1004900020F4802008600846406820F4FE00486090
:1004A0004FF41F008860FFF7DAFF4FF00060294922
:1004B000086010BD10B5002100200022214B5B68B0
:1004C00003F00C0121B1042906D0082928D107E046
:1004D000214B224C236027E01F4B204C236023E05C
:1004E000184B5B6803F47010164B5B6803F48032A2
:1004F000022303EB904022B9194B4343174C23606E
:100500000DE0104B5B6803F4003323B1144B4343FD
:10051000124C236003E0104B4343104C236003E074
:100520000D4B0E4C236000BF00BF064B5B68C3F34E
:1005300003130C4CE15C094B1B68CB40074C236058
:1005400010BD000000100240002002400000FFF833
:10055000FFFFF6FE08ED00E000127A000000002028
:1005600000093D000400002008B50121242004F00A
:100570002DFC4FF48070ADF8000010208DF80300C2
:1005800003208DF802006946094804F063F94FF42E
:100590008071074804F00BFA0420ADF800006946AA
:1005A000044804F057F90421024804F000FA08BD99
:1005B00000080140001401404FF48071F84A516175
:1005C00049005161F749086080215161116189003A
:1005D000116170474FF48071F14A11614900516116
:1005E000F0490860802151611161890011617047F3
:1005F00000BF011EA0F10102D0B2FAD1704700B5D0
:100600004FF08830E7490C390860091D0860002068
:10061000E44908608815E2490861400048614020CB
:1006200048610220FFF7E4FFDE48001F006883B244
:100630004020DB490861C00008614FF03330D949E0
:100640000C390860091D08604FF6FF70D549086035
:10065000184600BD10B504460B462046FFF7ACFF18
:100660004FF48070CE49086140004861CD48036076
:100670008020486108618000086110BD10B5044603
:100680002046FFF799FFFFF7BAFF10BD00B5C64936
:100690000889FFF791FF00BD4FF48071C04A1161D6
:1006A00049005161BF490860802151611161890091
:1006B0001161704730B5014601F01F04C1F34513C5
:1006C000CA0AE50205EB43151544A8B230BD10B5C2
:1006D00003460C46B448808841F6631188427DD1B8
:1006E000B148807900283FD1AF480088401EC01A29
:1006F00083B2AD494889FFF75FFF4FF48070A84986
:100700000861400048610020A64908608020A44993
:10071000486108618000086140100861400048613C
:100720000020A049086080209D4948610861800040
:10073000086140100861400048611812994908603A
:100740008020974948610861800008614010086175
:1007500040004861D8B293490860802090494861C0
:1007600008618000086141E08F494889FFF724FF54
:100770004FF480708A490861400048611812894925
:100780000860802086494861086180000861401047
:10079000086140004861D8B28249086080208049E1
:1007A00048610861800008614010086140004861AC
:1007B0007D480088401E00127A49086080207849F0
:1007C000486108618000086140100861400048618C
:1007D00075480078401EC0B2724900E047E00860EA
:1007E00080206F4948610861800008616E498889EE
:1007F000FFF7E2FE4FF480706949086140004861EC
:1008000020126849086080206549486108618000BD
:1008100008614010086140004861E0B26149086029
:1008200080205F49486108618000086140100861CC
:10083000400048615C484088401E001259490860E9
:1008400080205749486108618000086140100861B4
:100850004000486154488078401EC0B25149086049
:1008600080204F49486108618000086196E04E4849
:10087000808845F21051884250D14B494889FFF792
:100880009BFE4FF480704649086140004861181291
:10089000444908608020424948610861800008613D
:1008A00041494989491C88B2FFF786FE4FF48070A0
:1008B0003B49086140004861D8B23A49086080204D
:1008C0003749486108618000086137498889FFF726
:1008D00073FE4FF480703249086140004861201275
:1008E0003049086080202E49486108618000086115
:1008F0002D498989491C88B2FFF75EFE4FF480704C
:100900002749086140004861E0B22649086080201C
:10091000234948610861800008613FE02249488915
:10092000FFF74AFE4FF480701D490861400048619E
:1009300018121C490860802019494861086180002C
:1009400008614010086140004861D8B2154908604C
:100950008020134948610861800008611249888934
:10096000FFF72AFE4FF480700D490861400048618E
:1009700020120C4908608020094948610861800004
:1009800008614010086140004861E0B20549086014
:1009900080200349486108618000086110BD0000A3
:1009A000001001400C0C0140380000202DE9F041FE
:1009B00005460E46FE480088A84203DDFC484088F4
:1009C000B04202DC0020BDE8F08131462846FFF746
:1009D0007EFEF748808845F21051884204D14FF4DA
:1009E0003850FFF7E9FD02E02E20FFF7E5FDFFF7A5
:1009F00006FE0446EE48808841F66311884201D124
:100A00002046E0E7FFF7FBFD0446FFF7F8FD8046D0
:100A1000E7B24FF6FF7000EA0727E012C002B912F2
:100A200040EA411040EAE820CDE700B5E048808880
:100A300045F21051884204D14FF42450FFF7BCFD19
:100A400002E02920FFF7B8FD00BD00B5D848808836
:100A500045F21051884204D14FF42050FFF7ACFD0D
:100A600002E02820FFF7A8FD00BDF0B505460024F0
:100A70000027CF488079012805D1CD48808841F6EC
:100A80006311884208D1CA488079F0B9C848808883
:100A900041F66311884218D1082D15D2DFE805F020
:100AA0000406080A0C0E101206250DE007250BE0BF
:100AB000042509E0052507E0012505E0002503E000
:100AC000032501E0022500BF00BF082D1CD2DFE88E
:100AD00005F00406090C0F12151800BF14E044F0CD
:100AE000800411E044F040040EE044F0C0040BE048
:100AF00044F0200408E044F0600405E044F0A00461
:100B000002E044F0E00400BF00BFA948808845F23D
:100B10001051884202D14FF4585700E03627A448BC
:100B2000808849F24131884205D0A148808847F247
:100B30008971884201D144F0080421463846FFF704
:100B400089FD9B48808841F6631188421DD004F0DE
:100B5000200068B19648008895494988884214DA8F
:100B600093480688408892490880084646800CE0F1
:100B70008F4800888E494988884206DD8C4806885F
:100B800040888B490880084646808948808845F21D
:100B9000105188427ED186494889FFF70DFD4FF4F8
:100BA00080708449086140004861002082490860E3
:100BB0008020804948610861800008617C4949893A
:100BC000491C88B2FFF7F8FC4FF48070794908613E
:100BD00040004861002078490860802075494861DC
:100BE00008618000086172494989891C88B2FFF751
:100BF000E3FC4FF480706F490861400048616C4825
:100C00000088401E00126C490860802069494861D4
:100C100008618000086166494989C91C88B2FFF7EC
:100C2000CBFC4FF480706349086140004861604824
:100C30000078401EC0B26049086080205D4948616C
:100C40000861800008615A498889FFF7B5FC4FF4B4
:100C5000807058490861400048610020564908608A
:100C600080205449486108618000086150498989A1
:100C7000491C88B2FFF7A0FC4FF480704D49086111
:100C80004000486100204C49086080204949486183
:100C9000086100E032E08000086145498989891CCB
:100CA00088B2FFF789FC4FF4807042490861400028
:100CB00048613F484088401E00123F49086080203C
:100CC0003C49486108618000086139498989C91C2B
:100CD00088B2FFF771FC4FF480703649086140001C
:100CE000486133488078401EC0B233490860802094
:100CF0003049486108618000086186E02C494889D4
:100D0000FFF75AFC4FF480702A490861400048619F
:100D10000020294908608020264948610861800038
:100D200008614010086140004861002022490860C5
:100D300080202049486108618000086140100861F6
:100D4000400048611A480088401E00121A49086095
:100D500080201849486108618000086140100861DE
:100D60004000486112480078401EC0B21249086035
:100D70008020104948610861800008610C49888919
:100D8000FFF71AFC4FF480700A490861400048617F
:100D900000200949086080200649486108618000F8
:100DA000086140100861400048610020024905E0E8
:100DB00038000020001001400C0C01400860802029
:100DC000FE494861086180000861401008614000E8
:100DD0004861FB484088401E0012FA4908608020A4
:100DE000F6494861086180000861401008614000D0
:100DF0004861F3488078401EC0B2F2490860802004
:100E0000EE494861086180000861F0BD30B50446D4
:100E10000D4629462046FFF75AFCFFF737FC4FF4F2
:100E20008070E649086140004861E7480088E5496C
:100E300008608020E149486108618000086130BD98
:100E400030B503460C461546DD48808845F2105102
:100E5000884250D1DA494889FFF7AEFB4FF48070E1
:100E6000D6490861400048611812D64908608020C0
:100E7000D2494861086180000861D1494989491C0B
:100E800088B2FFF799FB4FF48070CC4908614000AD
:100E90004861D8B2CB4908608020C84948610861E0
:100EA00080000861C6498889FFF786FB4FF480708F
:100EB000C2490861400048612012C2490860802090
:100EC000BE494861086180000861BD498989491CA3
:100ED00088B2FFF771FB4FF48070B8490861400099
:100EE0004861E0B2B74908608020B44948610861B0
:100EF00080000861C3E0B248808841F663118842EF
:100F00007DD1AF48807920B9AD480088401EC01A15
:100F100083B2AB494889FFF74FFB4FF48070A74974
:100F20000861400048611812A64908608020A34962
:100F30004861086180000861401008614000486114
:100F4000D8B2A049086080209C49486108618000AF
:100F50000861401008614000486118129949086012
:100F6000802096494861086180000861401008614E
:100F700040004861D8B29349086080208F49486199
:100F80000861800008618E498889FFF715FB4FF4DE
:100F900080708A49086140004861201289490860D0
:100FA000802086494861086180000861401008611E
:100FB00040004861E0B28349086080207F49486171
:100FC00008618000086140100861400048612012FB
:100FD0007C49086080207949486108618000086187
:100FE0004010086140004861E0B276490860802006
:100FF0007249486108618000086140E0FFE770497C
:101000004889FFF7D9FA4FF480706C4908614000B5
:10101000486118126B49086080206849486108617E
:10102000800008614010086140004861D8B26549FD
:10103000086080206149486108618000086160495A
:101040008889FFF7B9FA4FF480705C490861400065
:10105000486120125B490860802058494861086156
:10106000800008614010086140004861E0B25549C5
:1010700008608020514948610861800008614FF490
:1010800080704E494861400048614D4800894D4993
:10109000086080204949486108618000086140106B
:1010A0000861400048614748056080204861086148
:1010B0008000086130BD2DE9F0410446BE20FFF7F5
:1010C0007BFA4FF480703D4908614000486105207B
:1010D0003C49086080203949486108618000086106
:1010E0004010086140004861204604F050FB05466E
:1010F0004FF06632354B04F05DFB074604F01AFBF7
:101100003049086080202D494861086180000861ED
:10111000401008614000486101202A490860802091
:10112000264948610861800008614010086140005C
:101130004861FF20234908608020204948610861F8
:1011400080000861401008614000486100201D498E
:1011500008608020194948610861800008614010DA
:10116000086140004861002016490860802013494A
:101170004861086180000861BDE8F08110B504464F
:101180000F488471002C50D1F0200D4908804FF495
:10119000A07048800846808845F2105188421BD1D3
:1011A0004FF43050064908814FF4285048814FF4DD
:1011B0002C5088814FF4F070088009E00010014045
:1011C000380000200C0C014014000020666604402A
:1011D0004FF4487048801AE0FE48808841F6631159
:1011E00088420DD12C20FB4908812B2048812A20E0
:1011F00088814FF4F07008804FF44870488006E012
:101200002C20F44908812A2048812B208881F1482C
:10121000808845F2103188424CD14FF4A070ED49DE
:1012200008804FF4F070488044E04FF4A070E94922
:101230000880F02048800846808845F21051884296
:1012400010D14FF43050E34908814FF428504881C1
:101250004FF42C5088814FF4487008804FF4F070A0
:1012600048801AE0DB48808841F6631188420DD13E
:101270002C20D84908812A2048812B2088814FF4CE
:10128000487008804FF4F070488006E02C20D14967
:1012900008812A2048812B208881CE48808845F209
:1012A0001031884206D14FF4F070CA4908804FF4DB
:1012B000A07048800020FFF7D8FB10BD2DE9F04159
:1012C00004460D461646A019401E87B2E818401E77
:1012D0001FFA80F8BF48808841F6631188427DD1AB
:1012E000BC488079012879D0BA480088801B001B4F
:1012F00084B2E818401E83B2B6494889FFF75CF90A
:101300004FF48070B4490861400048612012B3492D
:1013100008608020B0494861086180000861401081
:10132000086140004861E0B2AC4908608020AA49E9
:101330004861086180000861401008614000486110
:10134000A019401E0012A54908608020A2494861EA
:101350000861800008614010086140004861A019E0
:10136000401EC0B29D49086080209B4948610861C9
:101370008000086197498889FFF71EF94FF4807053
:10138000954908614000486128129449086080200E
:10139000914948610861800008614010086140007F
:1013A0004861E8B28D49086080208B494861086136
:1013B00080000861401008614000486118128749A8
:1013C00008608020844948610861800008614010FD
:1013D000086140004861D8B2804900E007E0086039
:1013E00080207D4948610861800008612BE17948CF
:1013F000808845F2105188427ED176494889FFF7AE
:10140000DBF84FF480707449086140004861201295
:101410007249086080207049486108618000086155
:101420006C494989491C88B2FFF7C6F84FF48070AF
:101430006949086140004861E0B26849086080205D
:101440006549486108618000086162494989891CD1
:1014500088B2FFF7B1F84FF480705F49086140002F
:10146000486138125D49086080205B494861086125
:101470008000086157494989C91C88B2FFF79CF868
:101480004FF480705449086140004861F8B25349F4
:1014900008608020504948610861800008614D491A
:1014A0008889FFF789F84FF480704B490861400044
:1014B000486128124949086080204749486108610D
:1014C0008000086143498989491C88B2FFF774F894
:1014D0004FF480704049086140004861E8B23F49DC
:1014E000086080203C4948610861800008613949F2
:1014F0008989891C88B200E028E0FFF75DF84FF485
:10150000807035490861400048614FEA282033491E
:1015100008608020304948610861800008612D49D9
:101520008989C91C88B2FFF747F84FF480702A49AF
:1015300008614000486108F0FF00284908608020E9
:10154000254948610861800008617CE0214948899B
:10155000FFF732F84FF480701F490861400048617E
:1015600020121E49086080201B49486108618000E4
:1015700008614010086140004861E0B21749086006
:1015800080201549486108618000086140100861A9
:101590004000486138121149086080200E494861B6
:1015A0000861800008614010086140004861F8B29D
:1015B0000A49086080200849486108618000086184
:1015C00004498889FEF7F8FF4FF4807002490861EA
:1015D000400005E038000020001001400C0C0140E4
:1015E00048612812FE4908608020FE494861086170
:1015F000800008614010086140004861E8B2F84985
:1016000008608020F7494861086180000861401047
:101610000861400048614FEA2820F14908608020B5
:10162000F04948610861800008614010086140008D
:10163000486108F0FF00EA4908608020E9494861F4
:10164000086180000861BDE8F08170B5044600269D
:10165000E54805884088454300210846FFF737F8EC
:10166000FFF714F800BF0DE04FF48070DD4908610A
:1016700040004861DA4804608020486108618000C9
:101680000861761CAE42EFD370BD08B50121192068
:1016900003F09CFB0121D54803F0ADF94FF4F8604D
:1016A000ADF8000010208DF8030003208DF8020033
:1016B0006946CC4803F0CEF84FF4F861C94803F00E
:1016C00076F94FF6FF70ADF800006946C4480C3853
:1016D00003F0C0F84FF6FF71C1480C3803F067F90A
:1016E000322002F06AFF01210020FEF7B3FF322012
:1016F00002F063FFD320FEF75FFFFEF780FFBA49D9
:101700008880FEF77CFFB8498880FEF778FFB649ED
:101710008880084680884FF6FF7101EA0020B249B0
:101720008880FEF76CFFB04989880843AE498880FD
:101730000846808849F2413188427DD00420FEF776
:101740003BFFFEF75CFFA8498880FEF758FFA649DB
:101750008880FEF754FFA4498880084680884FF6A9
:10176000FF7101EA0020A0498880FEF748FF9E49EA
:10177000898808439C4988800846808848F25251ED
:10178000884203D147F289709749888096488088BB
:1017900047F289718842D0D0D420FEF70DFFFEF7C2
:1017A0002EFF91498880FEF72AFF8F498880FEF737
:1017B00026FF8D498880084680884FF6FF7101EA30
:1017C000002089498880FEF71AFF874989880843E5
:1017D000854988800846808845F2103188425FD06C
:1017E00055214FF47040FEF735FFAA214FF201005A
:1017F000FEF730FF52214FF20200FEF72BFF0821C7
:101800004FF20300FEF726FF01214FF20400FEF71E
:1018100021FF4FF44540FEF7CFFEFEF7F0FE724980
:101820008880084680884FF6FF7101EA00206E49E3
:1018300088804CF2015000E032E0FEF7BDFEFEF77A
:10184000DEFE6949898808436749888008468088A0
:1018500045F21051884223D0A120FEF7ADFEFEF7DD
:10186000CEFE61498880FEF7CAFE5F49888008463F
:1018700080884FF6FF7101EA00205B498880FEF7FF
:10188000BEFE5949898808435749888008468088A0
:1018900045F26171884203D141F663105249888054
:1018A0005148818852A003F069FD4F48808849F271
:1018B000413188427ED1CF20FEF77EFE0020FEF728
:1018C00089FEC120FEF786FE3020FEF783FEED2064
:1018D000FEF772FE6420FEF77DFE0320FEF77AFE1F
:1018E0001220FEF777FE8120FEF774FEE820FEF757
:1018F00063FE8520FEF76EFE1020FEF76BFE7A2059
:10190000FEF768FECB20FEF757FE3920FEF762FE99
:101910002C20FEF75FFE0020FEF75CFE3420FEF771
:1019200059FE0220FEF756FEF720FEF745FE202066
:10193000FEF750FEEA20FEF73FFE0020FEF74AFECB
:101940000020FEF747FEC020FEF736FE1B20FEF704
:1019500041FEC120FEF730FE0120FEF73BFEC52010
:10196000FEF72AFE3020FEF735FE3020FEF732FE6D
:10197000C720FEF721FEB720FEF72CFE3620FEF72B
:101980001BFE4820FEF726FE3A20FEF715FE5520E6
:10199000FEF720FEB120FEF70FFE0020FEF71AFE34
:1019A0001A20FEF717FEB620FEF706FE0A20FEF705
:1019B00011FE00E0A9E0A220FEF70CFEF220FEF7E7
:1019C000FBFD0020FEF706FE2620FEF7F5FD0120B8
:1019D000FEF700FEE020FEF7EFFD0F2010E0000014
:1019E0000C0C0140001001403800002000023000C3
:1019F000204C43442049443A25780D0A0000000059
:101A0000FEF7E8FD2A20FEF7E5FD2820FEF7E2FDBF
:101A10000820FEF7DFFD0E20FEF7DCFD0820FEF7B4
:101A2000D9FD5420FEF7D6FDA920FEF7D3FD4320B3
:101A3000FEF7D0FD0A20FEF7CDFD0F20FEF7CAFD10
:101A40000020FEF7C7FD0020FEF7C4FD0020FEF7D2
:101A5000C1FD0020FEF7BEFDE120FEF7ADFD002038
:101A6000FEF7B8FD1520FEF7B5FD1720FEF7B2FD15
:101A70000720FEF7AFFD1120FEF7ACFD0620FEF7B4
:101A8000A9FD2B20FEF7A6FD5620FEF7A3FD3C2066
:101A9000FEF7A0FD0520FEF79DFD1020FEF79AFD44
:101AA0000F20FEF797FD3F20FEF794FD3F20FEF745
:101AB00091FD0F20FEF78EFD2B20FEF77DFD00200F
:101AC000FEF788FD0020FEF785FD0120FEF782FD70
:101AD0003F20FEF77FFD2A20FEF76EFD0020FEF777
:101AE00079FD0020FEF776FD0020FEF773FDEF2064
:101AF000FEF770FD1120FEF75FFD782002F05DFD1E
:101B00002920FEF759FD02F05FBAFE48808847F2AF
:101B1000897188427ED11120FEF74EFD782002F0B7
:101B20004CFD3620FEF748FD0020FEF753FD3A201D
:101B3000FEF742FD0520FEF74DFDB220FEF73CFD0D
:101B40000C20FEF747FD0C20FEF744FD0020FEF7B9
:101B500041FD3320FEF73EFD3320FEF73BFDB7206D
:101B6000FEF72AFD3520FEF735FDBB20FEF724FDEC
:101B70003220FEF72FFDC020FEF71EFD0C20FEF7E1
:101B800029FDC220FEF718FD0120FEF723FDC3202A
:101B9000FEF712FD1020FEF71DFDC420FEF70CFD20
:101BA0002020FEF717FDC620FEF706FD0F20FEF7EA
:101BB00011FDD020FEF700FDA420FEF70BFDA120B3
:101BC000FEF708FDE020FEF7F7FCD020FEF702FD4F
:101BD0000020FEF7FFFC0220FEF7FCFC0720FEF7CA
:101BE000F9FC0A20FEF7F6FC2820FEF7F3FC322071
:101BF000FEF7F0FC4420FEF7EDFC4220FEF7EAFC85
:101C00000620FEF7E7FC0E20FEF7E4FC1220FEF7AC
:101C1000E1FC00E054E01420FEF7DCFC1720FEF7A6
:101C2000D9FCE120FEF7C8FCD020FEF7D3FC002051
:101C3000FEF7D0FC0220FEF7CDFC0720FEF7CAFC21
:101C40000A20FEF7C7FC2820FEF7C4FC3120FEF76F
:101C5000C1FC5420FEF7BEFC4720FEF7BBFC0E2063
:101C6000FEF7B8FC1C20FEF7B5FC1720FEF7B2FC0F
:101C70001B20FEF7AFFC1E20FEF7ACFC2A20FEF76F
:101C80009BFC0020FEF7A6FC0020FEF7A3FC002032
:101C9000FEF7A0FCEF20FEF79DFC2B20FEF78CFC4E
:101CA0000020FEF797FC0020FEF794FC0120FEF7D1
:101CB00091FC3F20FEF78EFC2920FEF77DFC22E7F9
:101CC0009048808845F21031884240F07C87ED20B2
:101CD000FEF772FC0120FEF77DFCFE20FEF77AFC89
:101CE000EE20FEF769FCDE20FEF774FC2120FEF7F3
:101CF00071FCF120FEF760FC0120FEF76BFCDF2099
:101D0000FEF75AFC1020FEF765FCC420FEF754FCD9
:101D10008F20FEF75FFCC620FEF74EFC0020FEF78A
:101D200059FCE220FEF756FCE220FEF753FCE220CD
:101D3000FEF750FCBF20FEF73FFCAA20FEF74AFC4E
:101D4000B020FEF739FC0D20FEF744FC0020FEF722
:101D500041FC0D20FEF73EFC0020FEF73BFC11206D
:101D6000FEF738FC0020FEF735FC1920FEF732FCA8
:101D70000020FEF72FFC2120FEF72CFC0020FEF7B0
:101D800029FC2D20FEF726FC0020FEF723FC3D2039
:101D9000FEF720FC0020FEF71DFC5D20FEF71AFC7C
:101DA0000020FEF717FC5D20FEF714FC0020FEF774
:101DB00011FCB120FEF700FC8020FEF70BFC002098
:101DC000FEF708FC8B20FEF705FC0020FEF702FC66
:101DD0009620FEF7FFFB0020FEF7FCFBB220FEF78B
:101DE000EBFB0020FEF7F6FB0020FEF7F3FB0220E2
:101DF000FEF7F0FB0020FEF7EDFB0320FEF7EAFB09
:101E00000020FEF7E7FBB320FEF7D6FB0020FEF72D
:101E1000E1FB0020FEF7DEFB0020FEF7DBFB0020ED
:101E2000FEF7D8FB0020FEF7D5FB0020FEF7D2FB23
:101E30000020FEF7CFFB0020FEF7CCFB0020FEF7D2
:101E4000C9FB0020FEF7C6FB0020FEF7C3FB002005
:101E5000FEF7C0FB0020FEF7BDFB0020FEF7BAFB3B
:101E60000020FEF7B7FB0020FEF7B4FB0020FEF7D2
:101E7000B1FB0020FEF7AEFB0020FEF7ABFB00201D
:101E8000FEF7A8FB0020FEF7A5FB0020FEF7A2FB53
:101E90000020FEF79FFB0020FEF79CFBB420FEF71E
:101EA0008BFB8B20FEF796FB0020FEF793FB962022
:101EB000FEF790FB0020FEF78DFBA120FEF78AFBCA
:101EC0000020FEF787FBB520FEF776FB0220FEF729
:101ED00081FB0020FEF77EFB0320FEF77BFB00204A
:101EE000FEF778FB0420FEF775FB0020FEF772FB7F
:101EF000B620FEF761FB0020FEF76CFB0020FEF72A
:101F000069FB01E038000020B720FEF755FB0020F8
:101F1000FEF760FB0020FEF75DFB3F20FEF75AFB5B
:101F20000020FEF757FB5E20FEF754FB0020FEF773
:101F300051FB6420FEF74EFB0020FEF74BFB8C208C
:101F4000FEF748FB0020FEF745FBAC20FEF742FB06
:101F50000020FEF73FFBDC20FEF73CFB0020FEF7F5
:101F600039FB7020FEF736FB0020FEF733FB902094
:101F7000FEF730FB0020FEF72DFBEB20FEF72AFBDF
:101F80000020FEF727FBDC20FEF724FB0020FEF7F5
:101F900021FBB820FEF710FB0020FEF71BFB002002
:101FA000FEF718FB0020FEF715FB0020FEF712FBE2
:101FB0000020FEF70FFB0020FEF70CFB0020FEF7D1
:101FC00009FB0020FEF706FBBA20FEF7F5FA2420F5
:101FD000FEF700FB0020FEF7FDFA0020FEF7FAFAFC
:101FE0000020FEF7F7FAC120FEF7E6FA2020FEF700
:101FF000F1FA0020FEF7EEFA5420FEF7EBFA00208B
:10200000FEF7E8FAFF20FEF7E5FA0020FEF7E2FA15
:10201000C220FEF7D1FA0A20FEF7DCFA0020FEF714
:10202000D9FA0420FEF7D6FA0020FEF7D3FAC3202F
:10203000FEF7C2FA3C20FEF7CDFA0020FEF7CAFAFE
:102040003A20FEF7C7FA0020FEF7C4FA3920FEF75F
:10205000C1FA0020FEF7BEFA3720FEF7BBFA0020D7
:10206000FEF7B8FA3C20FEF7B5FA0020FEF7B2FA08
:102070003620FEF7AFFA0020FEF7ACFA3220FEF76A
:10208000A9FA0020FEF7A6FA2F20FEF7A3FA0020F7
:10209000FEF7A0FA2C20FEF79DFA0020FEF79AFA30
:1020A0002920FEF797FA0020FEF794FA2620FEF783
:1020B00091FA0020FEF78EFA2420FEF78BFA00201A
:1020C000FEF788FA2420FEF785FA0020FEF782FA50
:1020D0002320FEF77FFA0020FEF77CFA3C20FEF773
:1020E00079FA0020FEF776FA3620FEF773FA002020
:1020F000FEF770FA3220FEF76DFA0020FEF76AFA5A
:102100002F20FEF767FA0020FEF764FA2C20FEF776
:1021100061FA0020FEF75EFA2920FEF75BFA002044
:10212000FEF758FA2620FEF755FA0020FEF752FA7D
:102130002420FEF74FFA0020FEF74CFA2420FEF789
:1021400049FA0020FEF746FA2320FEF743FA002062
:10215000FEF740FAC420FEF72FFA6220FEF73AFAA3
:102160000020FEF737FA0520FEF734FA0020FEF7CC
:1021700031FA8420FEF72EFA0020FEF72BFAF02029
:10218000FEF728FA0020FEF725FA1820FEF722FABB
:102190000020FEF71FFAA420FEF71CFA0020FEF72D
:1021A00019FA1820FEF716FA0020FEF713FA50204D
:1021B000FEF710FA0020FEF70DFA0C20FEF70AFADF
:1021C0000020FEF707FA1720FEF704FA0020FEF7BA
:1021D00001FA9520FEF7FEF90020FEF7FBF9F32047
:1021E000FEF7F8F90020FEF7F5F9E620FEF7F2F920
:1021F0000020FEF7EFF9C520FEF7DEF93220FEF7EA
:10220000E9F90020FEF7E6F94420FEF7E3F90020A3
:10221000FEF7E0F96520FEF7DDF90020FEF7DAF9B8
:102220007620FEF7D7F90020FEF7D4F98820FEF7D4
:10223000D1F90020FEF7CEF9C620FEF7BDF9202027
:10224000FEF7C8F90020FEF7C5F91720FEF7C2F91E
:102250000020FEF7BFF90120FEF7BCF90020FEF7D1
:10226000B9F9C720FEF7A8F90020FEF7B3F900205E
:10227000FEF7B0F90020FEF7ADF90020FEF7AAF94D
:10228000C820FEF799F90020FEF7A4F90020FEF718
:10229000A1F90020FEF79EF90020FEF79BF9C92066
:1022A000FEF78AF90020FEF795F90020FEF792F973
:1022B0000020FEF78FF90020FEF78CF90020FEF7D2
:1022C00089F90020FEF786F90020FEF783F9002047
:1022D000FEF780F90020FEF77DF90020FEF77AF97D
:1022E0000020FEF777F90020FEF774F90020FEF7D2
:1022F00071F90020FEF76EF90020FEF76BF900205F
:10230000FEF768F9E020FEF757F91620FEF762F9AC
:102310000020FEF75FF91C20FEF75CF90020FEF7B5
:1023200059F92120FEF756F90020FEF753F936201F
:10233000FEF750F90020FEF74DF94620FEF74AF966
:102340000020FEF747F95220FEF744F90020FEF77F
:1023500041F96420FEF73EF90020FEF73BF97A20B0
:10236000FEF738F90020FEF735F98B20FEF732F939
:102370000020FEF72FF99920FEF72CF90020FEF738
:1023800029F9A820FEF726F90020FEF723F9B92045
:10239000FEF720F90020FEF71DF9C420FEF71AF918
:1023A0000020FEF717F9CA20FEF714F90020FEF707
:1023B00011F9D220FEF70EF90020FEF70BF9D92013
:1023C000FEF708F90020FEF705F9E020FEF702F914
:1023D0000020FEF7FFF8F320FEF7FCF80020FEF7E0
:1023E000F9F8E120FEF7E8F81620FEF7F3F80020F0
:1023F000FEF7F0F81C20FEF7EDF80020FEF7EAF8F3
:102400002220FEF7E7F80020FEF7E4F83620FEF77A
:10241000E1F80020FEF7DEF84520FEF7DBF80020AB
:10242000FEF7D8F85220FEF7D5F80020FEF7D2F8D4
:102430006420FEF7CFF80020FEF7CCF87A20FEF7F4
:10244000C9F80020FEF7C6F88B20FEF7C3F800207D
:10245000FEF7C0F89920FEF7BDF80020FEF7BAF8A5
:10246000A820FEF7B7F80020FEF7B4F8B920FEF771
:10247000B1F80020FEF7AEF8C420FEF7ABF800205C
:10248000FEF7A8F8CA20FEF7A5F80020FEF7A2F88C
:10249000D220FEF79FF80020FEF79CF8D820FEF728
:1024A00099F80020FEF796F8E020FEF793F8002058
:1024B000FEF790F8F320FEF78DF80020FEF78AF87B
:1024C000E220FEF779F80520FEF784F80020FEF7F9
:1024D00081F80B20FEF77EF80020FEF77BF81B202A
:1024E000FEF778F80020FEF775F83420FEF772F852
:1024F0000020FEF76FF84420FEF76CF80020FEF78E
:1025000069F84F20FEF766F80020FEF763F86120B7
:10251000FEF760F80020FEF75DF87920FEF75AF824
:102520000020FEF757F88820FEF754F80020FEF749
:1025300051F89720FEF74EF80020FEF74BF8A62042
:10254000FEF748F80020FEF745F8B720FEF742F8FE
:102550000020FEF73FF8C220FEF73CF80020FEF70F
:1025600039F8C720FEF736F80020FEF733F8D120FF
:10257000FEF730F80020FEF72DF8D620FEF72AF8F7
:102580000020FEF727F8DD20FEF724F80020FEF7F4
:1025900021F8F320FEF71EF80020FEF71BF8E320D9
:1025A000FEF70AF80520FEF715F80020FEF712F8EE
:1025B0000A20FEF70FF80020FEF70CF81C20FEF7AB
:1025C00009F80020FEF706F83320FEF703F8002094
:1025D000FEF700F84420FDF7FDFF0020FDF7FAFFAD
:1025E0005020FDF7F7FF0020FDF7F4FF6220FDF714
:1025F000F1FF0020FDF7EEFF7820FDF7EBFF002054
:10260000FDF7E8FF8820FDF7E5FF0020FDF7E2FF7A
:102610009720FDF7DFFF0020FDF7DCFFA620FDF788
:10262000D9FF0020FDF7D6FFB720FDF7D3FF00202C
:10263000FDF7D0FFC220FDF7CDFF0020FDF7CAFF58
:10264000C720FDF7C7FF0020FDF7C4FFD120FDF72D
:10265000C1FF0020FDF7BEFFD520FDF7BBFF002026
:10266000FDF7B8FFDD20FDF7B5FF0020FDF7B2FF55
:10267000F320FDF7AFFF0020FDF7ACFFE420FDF7EE
:102680009BFF0120FDF7A6FF0020FDF7A3FF01201F
:10269000FDF7A0FF0020FDF79DFF0220FDF79AFF48
:1026A0000020FDF797FF2A20FDF794FF0020FDF79B
:1026B00091FF3C20FDF78EFF0020FDF78BFF4B20A4
:1026C000FDF788FF0020FDF785FF5D20FDF782FF05
:1026D0000020FDF77FFF7420FDF77CFF0020FDF751
:1026E00079FF8420FDF776FF0020FDF773FF93202C
:1026F000FDF770FF0020FDF76DFFA220FDF76AFFD8
:102700000020FDF767FFB320FDF764FF0020FDF711
:1027100061FFBE20FDF75EFF0020FDF75BFFC420D8
:10272000FDF758FF0020FDF755FFCD20FDF752FFC4
:102730000020FDF74FFFD320FDF74CFF0020FDF7F1
:1027400049FFDD20FDF746FF0020FDF743FFF320A2
:10275000FDF740FF0020FDF73DFFE520FDF72CFFD2
:102760000020FDF737FF0020FDF734FF0020FDF7C4
:1027700031FF0020FDF72EFF0220FDF72BFF002088
:10278000FDF728FF2920FDF725FF0020FDF722FF98
:102790003C20FDF71FFF0020FDF71CFF4B20FDF73D
:1027A00019FF0020FDF716FF5D20FDF713FF002045
:1027B000FDF710FF7420FDF70DFF0020FDF70AFF65
:1027C0008420FDF707FF0020FDF704FF9320FDF7AD
:1027D00001FF0020FDF7FEFEA220FDF7FBFE00201A
:1027E000FDF7F8FEB320FDF7F5FE0020FDF7F2FE41
:1027F000BE20FDF7EFFE0020FDF7ECFEC420FDF744
:10280000E9FE0020FDF7E6FECD20FDF7E3FE002007
:10281000FDF7E0FED320FDF7DDFE0020FDF7DAFE38
:10282000DC20FDF7D7FE0020FDF7D4FEF320FDF7F6
:10283000D1FE0020FDF7CEFEE620FDF7BDFE112003
:10284000FDF7C8FE0020FDF7C5FE3420FDF7C2FEEF
:102850000020FDF7BFFE5620FDF7BCFE0020FDF76F
:10286000B9FE7620FDF7B6FE0020FDF7B3FE772017
:10287000FDF7B0FE0020FDF7ADFE6620FDF7AAFED5
:102880000020FDF7A7FE8820FDF7A4FE0020FDF73D
:10289000A1FE9920FDF79EFE0020FDF79BFEBB20C8
:1028A000FDF798FE0020FDF795FE9920FDF792FEBA
:1028B0000020FDF78FFE6620FDF78CFE0020FDF75F
:1028C00089FE5520FDF786FE0020FDF783FE55208A
:1028D000FDF780FE0020FDF77DFE4520FDF77AFE26
:1028E0000020FDF777FE4320FDF774FE0020FDF782
:1028F00071FE4420FDF76EFE0020FDF76BFEE72021
:10290000FDF75AFE3220FDF765FE0020FDF762FE5E
:102910005520FDF75FFE0020FDF75CFE7620FDF7F9
:1029200059FE0020FDF756FE6620FDF753FE0020FD
:10293000FDF750FE6720FDF74DFE0020FDF74AFE33
:102940006720FDF747FE0020FDF744FE8720FDF7D6
:1029500041FE0020FDF73EFE9920FDF73BFE0020E2
:10296000FDF738FEBB20FDF735FE0020FDF732FEF7
:102970009920FDF72FFE0020FDF72CFE7720FDF7B4
:1029800029FE0020FDF726FE4420FDF723FE00204F
:10299000FDF720FE5620FDF71DFE0020FDF71AFE74
:1029A0002320FDF717FE0020FDF714FE3320FDF76E
:1029B00011FE0020FDF70EFE4520FDF70BFE002066
:1029C000FDF708FEE820FDF7F7FD0020FDF702FE09
:1029D0000020FDF7FFFD9920FDF7FCFD0020FDF72D
:1029E000F9FD8720FDF7F6FD0020FDF7F3FD8820B7
:1029F000FDF7F0FD0020FDF7EDFD7720FDF7EAFD86
:102A00000020FDF7E7FD6620FDF7E4FD0020FDF75F
:102A1000E1FD8820FDF7DEFD0020FDF7DBFDAA20AB
:102A2000FDF7D8FD0020FDF7D5FDBB20FDF7D2FD59
:102A30000020FDF7CFFD9920FDF7CCFD0020FDF72C
:102A4000C9FD6620FDF7C6FD0020FDF7C3FD55203A
:102A5000FDF7C0FD0020FDF7BDFD5520FDF7BAFDD7
:102A60000020FDF7B7FD4420FDF7B4FD0020FDF781
:102A7000B1FD4420FDF7AEFD0020FDF7ABFD552074
:102A8000FDF7A8FD0020FDF7A5FDE920FDF794FD69
:102A9000AA20FDF79FFD0020FDF79CFD0020FDF71B
:102AA00099FD0020FDF796FD0020FDF785FDAA2089
:102AB000FDF790FDCF20FDF77FFD0020FDF78AFD9B
:102AC0000020FDF787FD0020FDF784FD0020FDF7C5
:102AD00081FD0020FDF77EFD0020FDF77BFD00203D
:102AE000FDF778FD0020FDF775FD0020FDF772FD74
:102AF0000020FDF76FFD0020FDF76CFD0020FDF7C5
:102B000069FD0020FDF766FD0020FDF763FD002054
:102B1000FDF760FD0020FDF75DFD0020FDF75AFD8B
:102B2000F020FDF749FD0020FDF754FD5020FDF792
:102B300051FD0020FDF74EFD0020FDF74BFD00206C
:102B4000FDF748FDF320FDF737FD0020FDF742FDBE
:102B5000F920FDF731FD0620FDF73CFD1020FDF7C3
:102B600039FD2920FDF736FD0020FDF733FD3A2021
:102B7000FDF722FD5520FDF72DFD1120FDF71CFD71
:102B8000642001F01AFD2920FDF716FD3520FDF720
:102B900013FD0020FDF71EFD5120FDF70DFDFF2068
:102BA000FDF718FD5320FDF707FD2C20FDF712FD62
:102BB0005520FDF701FD8220FDF70CFD2C20FDF7CF
:102BC000FBFC01F001BAFE48808845F210518842B2
:102BD0007ED155214FF47040FDF73CFDAA214FF204
:102BE0000100FDF737FD52214FF20200FDF732FDE3
:102BF00008214FF20300FDF72DFD01214FF20400E3
:102C0000FDF728FD0D214FF43040FDF723FD0D2188
:102C10004BF20100FDF71EFD0D214BF20200FDF706
:102C200019FD34214FF43640FDF714FD34214BF2E9
:102C30000160FDF70FFD34214BF20260FDF70AFD44
:102C40000D214FF43140FDF705FD0D214BF2011030
:102C5000FDF700FD0D214BF20210FDF7FBFC3421C6
:102C60004FF43740FDF7F6FC34214BF20170FDF7CD
:102C7000F1FC34214BF20270FDF7ECFC00214FF423
:102C80003240FDF7E7FC00214BF20120FDF7E2FCAA
:102C900000214BF20220FDF7DDFC24214FF43840E7
:102CA000FDF7D8FC24214BF60100FDF7D3FC2421CD
:102CB0004BF60200FDF7CEFC01214FF43F40FDF73B
:102CC000C9FC0F214FF43340FDF7C4FC0F2100E095
:102CD000FEE34BF20130FDF7BDFC0F214BF2023059
:102CE000FDF7B8FC34214FF43940FDF7B3FC342133
:102CF0004BF60110FDF7AEFC34214BF60210FDF748
:102D0000A9FC08214FF43540FDF7A4FC08214BF243
:102D10000150FDF79FFC08214BF20250FDF79AFC91
:102D200003214FF44240FDF795FC24214FF43A4033
:102D3000FDF790FC24214BF60120FDF78BFC2421AC
:102D40004BF60220FDF786FC00214FF43C40FDF7D6
:102D500081FC78214BF60140FDF77CFC00214BF60D
:102D60000240FDF777FC00214FF43D40FDF772FC77
:102D700078214BF60150FDF76DFC00214BF6025017
:102D8000FDF768FC00214FF43E40FDF763FC642131
:102D90004BF60160FDF75EFC00214FF45140FDF75A
:102DA00059FC33214DF20110FDF754FC00214DF286
:102DB0000210FDF74FFC34214DF20310FDF74AFCE1
:102DC00000214DF20410FDF745FC3A214DF20510AB
:102DD000FDF740FC00214DF20610FDF73BFC4A21B7
:102DE0004DF20710FDF736FC00214DF20810FDF7FB
:102DF00031FC5C214DF20910FDF72CFC00214DF255
:102E00000A10FDF727FC81214DF20B10FDF722FC83
:102E100000214DF20C10FDF71DFCA6214DF20D1006
:102E2000FDF718FC00214DF20E10FDF713FCE52113
:102E30004DF20F10FDF70EFC01214DF21010FDF7C1
:102E400009FC13214DF21110FDF704FC01214DF294
:102E50001210FDF7FFFB54214DF21310FDF7FAFBA2
:102E600001214DF21410FDF7F5FB82214DF21510F2
:102E7000FDF7F0FB01214DF21610FDF7EBFBCA2127
:102E80004DF21710FDF7E6FB02214DF21810FDF789
:102E9000E1FB00214DF21910FDF7DCFB02214DF2A0
:102EA0001A10FDF7D7FB01214DF21B10FDF7D2FBE5
:102EB00002214DF21C10FDF7CDFB34214DF21D1007
:102EC000FDF7C8FB02214DF21E10FDF7C3FB672181
:102ED0004DF21F10FDF7BEFB02214DF22010FDF751
:102EE000B9FB84214DF22110FDF7B4FB02214DF214
:102EF0002210FDF7AFFBA4214DF22310FDF7AAFB32
:102F000002214DF22410FDF7A5FBB7214DF225104B
:102F1000FDF7A0FB02214DF22610FDF79BFBCF2110
:102F20004DF22710FDF796FB02214DF22810FDF718
:102F300091FBDE214DF22910FDF78CFB02214DF2B1
:102F40002A10FDF787FBF2214DF22B10FDF782FBD3
:102F500002214DF22C10FDF77DFBFE214DF22D10CC
:102F6000FDF778FB03214DF22E10FDF773FB1021C6
:102F70004DF22F10FDF76EFB03214DF23010FDF7DF
:102F800069FB33214DF23110FDF764FB03214DF253
:102F90003210FDF75FFB6D214DF23310FDF75AFB48
:102FA00000214FF45240FDF755FB33214DF2012033
:102FB000FDF750FB00214DF20220FDF74BFB01E035
:102FC0003800002034214DF20320FDF743FB00219F
:102FD0004DF20420FDF73EFB3A214DF20520FDF7AE
:102FE00039FB00214DF20620FDF734FB4A214DF25A
:102FF0000720FDF72FFB00214DF20820FDF72AFBEB
:103000005C214DF20920FDF725FB00214DF20A203D
:10301000FDF720FB81214DF20B20FDF71BFB00216A
:103020004DF20C20FDF716FBA6214DF20D20FDF709
:1030300011FB00214DF20E20FDF70CFBE5214DF2B6
:103040000F20FDF707FB01214DF21020FDF702FBD9
:1030500013214DF21120FDF7FDFA01214DF212204E
:10306000FDF7F8FA54214DF21320FDF7F3FA012190
:103070004DF21420FDF7EEFA82214DF21520FDF7F6
:10308000E9FA01214DF21620FDF7E4FACA214DF2CA
:103090001720FDF7DFFA02214DF21820FDF7DAFACA
:1030A00000214DF21920FDF7D5FA02214DF21A2028
:1030B000FDF7D0FA01214DF21B20FDF7CBFA0221DA
:1030C0004DF21C20FDF7C6FA34214DF21D20FDF70C
:1030D000C1FA02214DF21E20FDF7BCFA67214DF224
:1030E0001F20FDF7B7FA02214DF22020FDF7B2FABA
:1030F00084214DF22120FDF7ADFA02214DF222206C
:10310000FDF7A8FAA4214DF22320FDF7A3FA02212E
:103110004DF22420FDF79EFAB7214DF22520FDF750
:1031200099FA02214DF22620FDF794FACF214DF2B3
:103130002720FDF78FFA02214DF22820FDF78AFAA9
:10314000DE214DF22920FDF785FA02214DF22A20D9
:10315000FDF780FAF2214DF22B20FDF77BFA0221D8
:103160004DF22C20FDF776FAFE214DF22D20FDF7D1
:1031700071FA03214DF22E20FDF76CFA10214DF269
:103180002F20FDF767FA03214DF23020FDF762FA98
:1031900033214DF23120FDF75DFA03214DF232204B
:1031A000FDF758FA6D214DF23320FDF753FA002157
:1031B0004FF45340FDF74EFA33214DF20130FDF745
:1031C00049FA00214DF20230FDF744FA34214DF264
:1031D0000330FDF73FFA00214DF20430FDF73AFAD3
:1031E0003A214DF20530FDF735FA00214DF2063057
:1031F000FDF730FA4A214DF20730FDF72BFA002196
:103200004DF20830FDF726FA5C214DF20930FDF74A
:1032100021FA00214DF20A30FDF71CFA81214DF20E
:103220000B30FDF717FA00214DF20C30FDF712FAC2
:10323000A6214DF20D30FDF70DFA00214DF20E30B2
:10324000FDF708FAE5214DF20F30FDF703FA0121F1
:103250004DF21030FDF7FEF913214DF21130FDF75C
:10326000F9F901214DF21230FDF7F4F954214DF234
:103270001330FDF7EFF901214DF21430FDF7EAF9B3
:1032800082214DF21530FDF7E5F901214DF216309E
:10329000FDF7E0F9CA214DF21730FDF7DBF9022105
:1032A0004DF21830FDF7D6F900214DF21930FDF737
:1032B000D1F902214DF21A30FDF7CCF901214DF27E
:1032C0001B30FDF7C7F902214DF21C30FDF7C2F9A2
:1032D00034214DF21D30FDF7BDF902214DF21E30B3
:1032E000FDF7B8F967214DF21F30FDF7B3F9022160
:1032F0004DF22030FDF7AEF984214DF22130FDF77B
:10330000A9F902214DF22230FDF7A4F9A4214DF2D2
:103310002330FDF79FF902214DF22430FDF79AF991
:10332000B7214DF22530FDF795F902214DF22630F7
:10333000FDF790F9CF214DF22730FDF78BF90221EF
:103340004DF22830FDF786F9DE214DF22930FDF7E8
:1033500081F902214DF22A30FDF77CF9F2214DF27C
:103360002B30FDF777F902214DF22C30FDF772F981
:10337000FE214DF22D30FDF76DF903214DF22E3077
:10338000FDF768F910214DF22F30FDF763F90321A5
:103390004DF23030FDF75EF933214DF23130FDF75B
:1033A00059F903214DF23230FDF754F96D214DF2F8
:1033B0003330FDF74FF900214FF45440FDF74AF93F
:1033C00033214DF20140FDF745F900214DF2024055
:1033D000FDF740F934214DF20340FDF73BF90021A0
:1033E0004DF20440FDF736F93A214DF20540FDF764
:1033F00031F900214DF20640FDF72CF94A214DF23A
:103400000740FDF727F900214DF20840FDF722F9AA
:103410005C214DF20940FDF71DF900214DF20A40F3
:10342000FDF718F981214DF20B40FDF713F900214A
:103430004DF20C40FDF70EF9A6214DF20D40FDF7BF
:1034400009F900214DF20E40FDF704F9E5214DF296
:103450000F40FDF7FFF801214DF21040FDF7FAF89B
:1034600013214DF21140FDF7F5F801214DF2124004
:10347000FDF7F0F854214DF21340FDF7EBF8012170
:103480004DF21440FDF7E6F882214DF21540FDF7AC
:10349000E1F801214DF21640FDF7DCF8CA214DF2AA
:1034A0001740FDF7D7F802214DF21840FDF7D2F88A
:1034B00000214DF21940FDF7CDF802214DF21A40DE
:1034C000FDF7C8F801214DF21B40FDF7C3F800E0FD
:1034D00003E302214DF21C40FDF7BCF834214DF20C
:1034E0001D40FDF7B7F802214DF21E40FDF7B2F87E
:1034F00067214DF21F40FDF7ADF802214DF220404B
:10350000FDF7A8F884214DF22140FDF7A3F8022130
:103510004DF22240FDF79EF8A4214DF22340FDF725
:1035200099F802214DF22440FDF794F8B7214DF2AD
:103530002540FDF78FF802214DF22640FDF78AF86D
:10354000CF214DF22740FDF785F802214DF22840AA
:10355000FDF780F8DE214DF22940FDF77BF80221CE
:103560004DF22A40FDF776F8F2214DF22B40FDF79F
:1035700071F802214DF22C40FDF76CF8FE214DF25E
:103580002D40FDF767F803214DF22E40FDF762F85C
:1035900010214DF22F40FDF75DF803214DF2304030
:1035A000FDF758F833214DF23140FDF753F8032170
:1035B0004DF23240FDF74EF86D214DF23340FDF7EC
:1035C00049F800214FF45540FDF744F833214DF2FE
:1035D0000150FDF73FF800214DF20250FDF73AF897
:1035E00034214DF20350FDF735F800214DF204501F
:1035F000FDF730F83A214DF20550FDF72BF8002188
:103600004DF20650FDF726F84A214DF20750FDF71E
:1036100021F800214DF20850FDF71CF85C214DF215
:103620000950FDF717F800214DF20A50FDF712F886
:1036300081214DF20B50FDF70DF800214DF20C5099
:10364000FDF708F8A6214DF20D50FDF703F8002113
:103650004DF20E50FCF7FEFFE5214DF20F50FCF746
:10366000F9FF01214DF21050FCF7F4FF13214DF248
:103670001150FCF7EFFF01214DF21250FCF7EAFF69
:1036800054214DF21350FCF7E5FF01214DF2145087
:10369000FCF7E0FF82214DF21550FCF7DBFF012122
:1036A0004DF21650FCF7D6FFCA214DF21750FCF729
:1036B000D1FF02214DF21850FCF7CCFF00214DF252
:1036C0001950FCF7C7FF02214DF21A50FCF7C2FF58
:1036D00001214DF21B50FCF7BDFF02214DF21C50A1
:1036E000FCF7B8FF34214DF21D50FCF7B3FF022167
:1036F0004DF21E50FCF7AEFF67214DF21F50FCF754
:10370000A9FF02214DF22050FCF7A4FF84214DF2C5
:103710002150FCF79FFF02214DF22250FCF79AFF47
:10372000A4214DF22350FCF795FF02214DF22450C5
:10373000FCF790FFB7214DF22550FCF78BFF0221DB
:103740004DF22650FCF786FFCF214DF22750FCF7B3
:1037500081FF02214DF22850FCF77CFFDE214DF263
:103760002950FCF777FF02214DF22A50FCF772FF37
:10377000F2214DF22B50FCF76DFF02214DF22C503F
:10378000FCF768FFFE214DF22D50FCF763FF03218B
:103790004DF22E50FCF75EFF10214DF22F50FCF73A
:1037A00059FF03214DF23050FCF754FF33214DF205
:1037B0003150FCF74FFF03214DF23250FCF74AFF26
:1037C0006D214DF23350FCF745FF00214FF4564078
:1037D000FCF740FF33214DF20160FCF73BFF002175
:1037E0004DF20260FCF736FF34214DF20360FCF726
:1037F00031FF00214DF20460FCF72CFF3A214DF21D
:103800000560FCF727FF00214DF20660FCF722FF60
:103810004A214DF20760FCF71DFF00214DF20860C0
:10382000FCF718FF5C214DF20960FCF713FF002143
:103830004DF20A60FCF70EFF81214DF20B60FCF7A0
:1038400009FF00214DF20C60FCF704FFA6214DF2A8
:103850000D60FCF7FFFE00214DF20E60FCF7FAFE52
:10386000E5214DF20F60FCF7F5FE01214DF21060ED
:10387000FCF7F0FE13214DF21160FCF7EBFE012185
:103880004DF21260FCF7E6FE54214DF21360FCF796
:10389000E1FE01214DF21460FCF7DCFE82214DF2C5
:1038A0001560FCF7D7FE01214DF21660FCF7D2FE41
:1038B000CA214DF21760FCF7CDFE02214DF21860CF
:1038C000FCF7C8FE00214DF21960FCF7C3FE02218F
:1038D0004DF21A60FCF7BEFE01214DF21B60FCF7B1
:1038E000B9FE02214DF21C60FCF7B4FE34214DF20A
:1038F0001D60FCF7AFFE02214DF21E60FCF7AAFE30
:1039000067214DF21F60FCF7A5FE02214DF22060F9
:10391000FCF7A0FE84214DF22160FCF79BFE022102
:103920004DF22260FCF796FEA4214DF22360FCF7D5
:1039300091FE02214DF22460FCF78CFEB7214DF27E
:103940002560FCF787FE02214DF22660FCF782FE1F
:10395000CF214DF22760FCF77DFE02214DF2286059
:10396000FCF778FEDE214DF22960FCF773FE0221A0
:103970004DF22A60FCF76EFEF2214DF22B60FCF74F
:1039800069FE02214DF22C60FCF764FEFE214DF22F
:103990002D60FCF75FFE03214DF22E60FCF75AFE0E
:1039A00010214DF22F60FCF755FE03214DF23060DF
:1039B000FCF750FE33214DF23160FCF74BFE032142
:1039C0004DF23260FCF746FE6D214DF23360FCF79C
:1039D00041FE55214FF47040FCF73CFEAA214FF206
:1039E0000100FCF737FE52214FF20200FCF732FED5
:1039F00008214FF20300FCF72DFE00214FF20400D6
:103A0000FCF728FECC214FF43140FCF723FE0021C7
:103A10004BF20110FCF71EFE05214FF43640FCF777
:103A200019FE70214FF43740FCF714FE70214BF261
:103A30000170FCF70FFE01214FF43840FCF70AFE3D
:103A400003214BF60100FCF705FE03214BF60200B3
:103A5000FCF700FE03214BF60300FCF7FBFD0221FF
:103A60004FF43C40FCF7F6FD00214BF60140FCF71B
:103A7000F1FD00214BF60240FCF7ECFDD0214FF4A4
:103A80004940FCF7E7FD02214CF60110FCF7E2FD8E
:103A900050214CF60210FCF7DDFD50214CF60310CE
:103AA000FCF7D8FD50214CF60410FCF7D3FD0021A3
:103AB0004FF45450FCF7CEFD55214FF46850FCF7FD
:103AC000C9FD4FF48850FCF777FD782000F051FDD8
:103AD0004FF42450FCF770FD76E2FE48808841F6F2
:103AE00063118842F8D1E220FCF766FD4FF4807044
:103AF000F9490861400048611D20F84908608020AC
:103B0000F549486108618000086140100861400083
:103B100048610220F14908608020EF49486108614E
:103B20008000086140100861400048610420EB49B2
:103B300008608020E84948610861800008616420CD
:103B400000F017FDE020FCF737FD4FF48070E249EC
:103B50000861400048610120E04908608020DE499A
:103B600048610861800008610A2000F026FDE0201D
:103B7000FCF722FD4FF48070D7490861400048618E
:103B80000320D64908608020D3494861086180003D
:103B900008610C2000F011FD0120FCF70DFD0A204A
:103BA00000F00BFDE620FCF707FD4FF48070CA49DA
:103BB0000861400048612F20C84908608020C6493C
:103BC0004861086180000861401008614000486158
:103BD000FF20C24908608020BF4948610861800019
:103BE00008614010086140004861FF20BB4908603F
:103BF0008020B9494861086180000861B020FCF765
:103C0000DBFC4FF48070B44908614000486120201B
:103C1000B24908608020B0494861086180000861AD
:103C200040100861400048610020AC4908608020D5
:103C3000A94948610861800008614010086140009E
:103C400048610320A54908608020A34948610861B4
:103C500080000861401008614000486140F21F3058
:103C60009E49086080209C49486108618000086185
:103C70004010086140004861012098490860802098
:103C80009549486108618000086140100861400062
:103C9000486140F2DF109149086080208E494861F8
:103CA0000861800008614010086140004861002000
:103CB0008A4908608020884948610861800008615D
:103CC000B420FCF779FC4FF4807083490861400010
:103CD000486104208149086080207F49486108616B
:103CE00080000861401008614000486140F21F40B8
:103CF0007A4908608020784948610861800008613D
:103D0000401008614000486100207449086080202C
:103D100071494861086180000861401008614000F5
:103D200048612E206D49086080206B494861086118
:103D30008000086140100861400048610020674928
:103D40000860802064494861086180000861401073
:103D500008614000486100206049086080205E4999
:103D600048610861800008614010086140004861B6
:103D700000205A4908608020574948610861800046
:103D80000861401008614000486100205349086004
:103D9000802051494861086180000861B620FCF725
:103DA0000BFC4FF480704C490861400048610220D0
:103DB0004A490860802048494861086180000861DC
:103DC00040100861400048614FF4037043490860A7
:103DD0008020414948610861800008614010086105
:103DE0004000486100203D49086080203A49486110
:103DF0000861800008614010086140004861172098
:103E000036490860802034494861086180000861B3
:103E1000401008614000486115203049086080204A
:103E20002D49486108618000086140100861400028
:103E300048610020294908608020274948610861BD
:103E4000800008614010086140004861002023495B
:103E50000860802020494861086180000861F020E6
:103E6000FCF7AAFB4FF480701B49086140004861D1
:103E700003201A49086080201749486108618000C2
:103E800008612920FCF798FBD020FCF795FB4FF444
:103E90008070114908614000486100200F490860A6
:103EA00080200D494861086180000861BE20FCF750
:103EB00083FB4FF480700849086140004861052089
:103EC0000649086080200449486108618000086153
:103ED000401005E038000020001001400C0C0140AB
:103EE000086140004861FE20F84908608020F849D8
:103EF0004861086180000861401008614000486125
:103F00000120F24908608020F14948610861800081
:103F1000086140100861400048610020EB490860DA
:103F20008020EB4948610861800008614010086109
:103F3000400048610020E54908608020E44948616C
:103F4000086180000861401008614000486100205D
:103F5000DE4908608020DE49486108618000086110
:103F6000B820FCF729FB4FF48070D9490861400064
:103F700048610320D54908608020D549486108611F
:103F80008000086140100861400048610120CF496D
:103F900008608020CE494861086180000861BA202D
:103FA000FCF70AFB4FF48070C94908614000486182
:103FB0000120C64908608020C54948610861800029
:103FC00008616420FDF777F80020FDF7D7F801209D
:103FD000C04908604FF6FF70FDF737FB08BD2DE9BB
:103FE000F04F05460E4617469846DDF824A04FF0E0
:103FF000000B781B401C1FFA80FB34461EE0214654
:104000002846FCF764FBFCF741FB4FF0000911E088
:104010004FF48070AE49086140004861AB48C0F879
:1040200000A08020486108618000086109F101005A
:104030001FFA80F9D945EBDB601C84B24445DEDD14
:10404000BDE8F08F2DE9F84F07460D46904699469A
:10405000DDF828B0A8EB0700401C1FFA80FAA9EB96
:104060000500401C80B20090002420E0281981B295
:104070003846FCF72CFBFCF709FB002613E04FF455
:104080008070934908614000486104FB0A603BF876
:1040900010008E49086080208D49486108618000C9
:1040A0000861701C86B25645E9DB601C84B200983A
:1040B0008442DBDBBDE8F88F2DE9FF4F84B08146F9
:1040C0008A460020039002900698A0EB0905079805
:1040D000A0EB0A06CDF80490CDF800A0002D01DD7C
:1040E000012705E00DB9002702E04FF0FF376D42D0
:1040F000002E02DD4FF0010806E016B94FF000086F
:1041000002E04FF0FF387642B54201DD2C4600E078
:1041100034464FF0000B21E0009A91B2019A90B220
:10412000FCF774FE039828440390029830440290F0
:104130000398A04205DD0398001B039001983844C2
:1041400001900298A04205DD0298001B02900098A1
:10415000404400900BF101001FFA80FB601C834576
:10416000DADD08B0BDE8F08FF0B504460D4616461E
:104170001F462B46324629462046FFF79DFF3B4609
:10418000224629462046FFF797FF3B4632463946EE
:104190002046FFF791FF3B46324629463046FFF75F
:1041A0008BFFF0BD2DE9F04306460F4690460024F4
:1041B00045460320A0EB48093CE07A1B91B2321936
:1041C00090B2FCF723FE3A1B91B2721990B2FCF741
:1041D0001DFE3A1991B2721990B2FCF717FE7A19C6
:1041E00091B2321990B2FCF711FE7A1991B2321BDA
:1041F00090B2FCF70BFE3A1991B2721B90B2FCF729
:1042000005FE7A1B91B2321B90B2FCF7FFFD3A1B00
:1042100091B2721B90B2FCF7F9FD641CB9F1000F6A
:1042200003DAA000801D814404E0601B80000A3096
:1042300081446D1EAC42C0DDBDE8F0832DE9F84F2E
:1042400080460E4617461C46B3462046E31704EB4D
:104250005373DB1021464FEAE47C04EB5C7C4FEAAD
:10426000EC0CA4EBCC0CBCF1000F02D04FF0010C15
:1042700001E04FF0000C6344224604EBD27C4FEA8D
:104280006C0C03FB0CF3DBB20093A7F12000C7B268
:10429000002562E00C2C07D107EB47000E4901EB2B
:1042A000800010F805901FE0102C05D10B4800EBA2
:1042B000071010F8059017E0182C13D107EBC70072
:1042C000074901EB800010F805900DE00C0C01404F
:1042D00000100140A8012242B0590008245E0008E5
:1042E00014640008BDE8F88F4FF0000A2FE009F0D1
:1042F000800030B18F48028831464046FCF7A0FD6F
:1043000007E00A9828B98C48028831464046FCF7F5
:1043100097FD4FEA49604FEA1069701C86B28748E2
:104320004088B04200DCDDE7A6EB0B00A0420AD1DA
:104330005E4608F101001FFA80F880480088404579
:1043400000DCCFE706E00AF1010000F0FF0ABAF155
:10435000080FCCDB00BF681CC5B20098854299DB12
:1043600000BFBFE710B50246012000E050430B1E1E
:10437000A1F10104E1B2F9D110BD2DE9FF4F81B0E7
:10438000074691461E460E9D4FF0000A002439E074
:10439000301B401EC1B20A20FFF7E4FFB9FBF0F06A
:1043A0000A21B0FBF1F201FB1208BAF1000F16D19D
:1043B000701EA04213DDB8F1000F0ED10020AB46F5
:1043C00005EBDB71491001FB0471009088B22B46AC
:1043D00020220299FFF732FF12E04FF0010A00207D
:1043E000AB4605EBDB71491001FB0471009088B20C
:1043F00008F13001CAB22B460299FFF71FFF00BF38
:10440000601CC4B2B442C3DB05B0BDE8F08F2DE937
:10441000FF4F82B0064692461F46DDE90F48002056
:10442000019000254DE0781B401EC1B20A20FFF725
:1044300099FFBAFBF0F00A21B0FBF1F201FB12097F
:10444000019850BB781EA84227DDB9F1000F22D198
:1044500008F0800078B108F00100A34604EBDB719E
:10446000491001FB0561009088B223463022039970
:10447000FFF7E4FE0EE008F00100A34604EBDB7159
:10448000491001FB0561009088B223462022039960
:10449000FFF7D4FE13E00120019008F00100A346CD
:1044A00004EBDB71491001FB0561009088B209F152
:1044B0003001CAB223460399FFF7C0FE00BF681C53
:1044C000C5B2BD42AFDB06B0BDE8F08F2DE9F847BD
:1044D00004460D4690469946DDE9096704F0FF0A57
:1044E00008EB04001FFA80F809EB05001FFA80F9B9
:1044F00016E0444502DB5446A81985B24D4500DB61
:1045000014E0002000903A78334629462046FFF711
:1045100095FE304606EBD07104EB61018CB27F1C36
:1045200038787E2802DC38782028E2DA00BFBDE83F
:10453000F88700001400002016000020380000203A
:1045400010B56FF0040000F0F8FE2E4800682E4908
:10455000B0FBF1F02D4908700846007800EB4001EF
:10456000C1EBC0104FF6FF7101EAC0002849088076
:1045700010BD0146254A12784A434FF0E0235A61A4
:1045800000229A611A46126942F001021A6100BFC4
:104590004FF0E022106900F001021AB100F48032FD
:1045A000002AF5D04FF0E022126922F001024FF00C
:1045B000E0231A6100229A6170470146144A12886A
:1045C0004A434FF0E0235A6100229A611A46126969
:1045D00042F001021A6100BF4FF0E022106900F0C2
:1045E00001021AB100F48032002AF5D04FF0E02227
:1045F000126922F001024FF0E0231A6100229A6151
:10460000704700000000002000127A00180000200F
:104610001A00002000BF704700BF4A4A128802F00B
:104620004002002AF9D0C2B2464B1B1D1A807047C7
:1046300010B586B00446012144F2040000F0C6FB28
:104640004FF40070ADF8140003208DF81600182008
:104650008DF8170005A93C4800F0FCF84FF4806085
:10466000ADF8140004208DF8170005A9364800F0B5
:10467000F1F825208DF8000003208DF801008DF859
:10468000020001208DF80300684600F00CFE019442
:104690000020ADF80800ADF80A00ADF80C00ADF848
:1046A00010000C20ADF80E0001A9264800F035FCE2
:1046B000012240F22551234800F0C7FC0121214886
:1046C00000F0B7FC06B010BD10B540F225511D48F2
:1046D00000F0A0FD10B31B4800F01CFDC4B21B4845
:1046E000008800F40040C8B91848008800F48040F1
:1046F00060B10A2C03D000201449088020E0134840
:10470000008840F400401149088019E00D2C06D1C2
:104710000E48008840F480400C49088010E00B48A7
:104720000088C0F30D000A490C5408480088401C5A
:104730000649088008460088C72801DD0020088057
:1047400010BD00000038014000080140200000209A
:10475000460000200948804709480047FEE7FEE779
:10476000FEE7FEE7FEE7FEE7FEE7FEE7FEE7FEE721
:1047700004480549054A064B7047000067040008D5
:104780003101000870010020700700207003002034
:104790007003002010B50446CC48844208D10121A2
:1047A000042000F02DFB0021042000F029FB46E04E
:1047B000C748844208D10121082000F021FB0021D4
:1047C000082000F01DFB3AE0C248844208D10121D4
:1047D000102000F015FB0021102000F011FB2EE04E
:1047E000BD48844208D10121202000F009FB0021AE
:1047F000202000F005FB22E0B848844208D10121C6
:10480000402000F0FDFA0021402000F0F9FA16E007
:10481000B348844208D10121802000F0F1FA002140
:10482000802000F0EDFA0AE0AE48844207D1012171
:10483000801500F0E5FA0021A01500F0E1FA10BDA6
:1048400010B50121084600F0DBFA0021012000F03C
:10485000D7FA10BD2DE9F0410246002500260020C0
:1048600000230024002791F803C00CF00F0591F8F5
:1048700003C00CF0100CBCF1000F03D091F802C083
:104880004CEA050591F800C0BCF1000F31D0146866
:1048900000202BE04FF0010C0CFA00F3B1F800C03F
:1048A0000CEA03069E4220D183004FF00F0C0CFA55
:1048B00003F7BC4305FA03FC4CEA040491F803C077
:1048C000BCF1280F06D14FF0010C0CFA00FCC2F825
:1048D00014C00AE091F803C0BCF1480F05D14FF0B5
:1048E000010C0CFA00FCC2F810C0401C0828D1D3FF
:1048F0001460B1F800C0BCF1FF0F34DD5468002033
:104900002EE000F1080C4FF0010808FA0CF3B1F8A2
:1049100000C00CEA03069E4221D183004FF00F0C29
:104920000CFA03F7BC4305FA03FC4CEA040491F8C3
:1049300003C0BCF1280F05D100F1080C08FA0CF8EF
:10494000C2F8148091F803C0BCF1480F07D100F100
:10495000080C4FF0010808FA0CF8C2F81080401C4F
:104960000828CED35460BDE8F0814FF6FF71018076
:10497000022181700421C1707047024600209368B3
:104980000B400BB1012000E0002070470146886811
:1049900080B2704702460020D3680B400BB1012063
:1049A00000E0002070470146C86880B2704701618E
:1049B0007047416170470AB1016100E04161704791
:1049C000C16070474FF480320A4382618161826125
:1049D00082698269704702460020434B18684FF68F
:1049E0008073184040EA021008433F4B186070473C
:1049F0003E49C8617047F0B50A46002300240021F3
:104A0000002500F00046B6F1004F02D1364EF169A4
:104A100001E0354E7168C0F3034583B200F44016DF
:104A2000B6F5401F08D121F070612F4E766826F050
:104A300070662D4F7E6012E000F48016B6F5801F80
:104A400006D1032606FA05F4A14341F0706106E0A1
:104A5000460D360103FA06F6B14341F0706122B10A
:104A6000460D360103FA06F6314300F00046B6F172
:104A7000004F02D11C4EF16101E01B4E7160F0BD90
:104A800030B500228B071C0F0F2303FA04F2164BDC
:104A900008338C1053F824309343134C08348D1092
:104AA00044F8253023468C1053F824308C07240F0B
:104AB00000FA04F423430C4C08348D1044F82530DC
:104AC00030BD0A49DC310860704700000008014031
:104AD000000C01400010014000140140001801408A
:104AE000001C014000200140000001400000204265
:104AF000DF48006840F00100DD4908600846406872
:104B0000DC490840DA49486008460068DA4908404C
:104B1000D74908600846006820F4802008600846ED
:104B2000406820F4FE0048604FF41F008860704722
:104B3000CF49096821F48031CD4A116011460968D6
:104B400021F480211160B0F5803F03D0B0F5802FB3
:104B50000ED106E0C649096841F48031C44A1160AB
:104B600007E0C349096841F4A021C14A116000E08F
:104B700000BF00BF704710B501460022002300208F
:104B80004A11012A02D1BA4C236806E0022A02D156
:104B9000B74C236A01E0B64C636A01F01F0201249E
:104BA00094401C400CB1012000E0002010BD38B53D
:104BB000002000900024002500BF3120FFF7DBFF1C
:104BC00005460098401C00900098B0F5A06F01D0F9
:104BD000002DF2D03120FFF7CEFF08B1012400E014
:104BE0000024204638BD01460020A14A106820F06C
:104BF000F80040EAC10010607047A04908607047A3
:104C0000024600209A4B586820F47C1042EA0103C7
:104C10001843974B5860704798490866704701469B
:104C20000020934A506820F003000843506070470A
:104C30008F48406800F00C007047014600208C4A05
:104C4000506820F0F0000843506070470146002093
:104C5000874A506820F4E06008435060704701467E
:104C60000020834A506820F4605040EAC100506040
:104C7000704729B17E4A527A02437D4B5A7204E052
:104C80007B4A527A82437A4B5A7270477B49D831B9
:104C90000860704701460020754A506820F4404083
:104CA0000843506070470021714A20321170704AE9
:104CB00082F82010012802D004280AD104E0012142
:104CC0006B4A2032117005E00521694A20321170CB
:104CD00000E000BF00BF7047694908607047644941
:104CE000096A0143624A11627047654944390860A4
:104CF000704730B500210022002400235C4D6D6810
:104D000005F00C0121B1042905D0082923D105E0C3
:104D10005C4D056022E05B4D05601FE0544D6D6801
:104D200005F47012524D6D6805F48034022505EBD0
:104D300092421CB9544D554305600BE04C4D6D68D3
:104D400005F400351DB1504D5543056002E04D4D51
:104D50005543056002E04B4D056000BF00BF444D68
:104D60006D6805F0F0010909484D6B5C0568DD4090
:104D700045603F4D6D6805F4E061090A434D6B5C89
:104D80004568DD4085603A4D6D6805F46051C90A9B
:104D90003E4D6B5C4568DD40C560354D6D6805F482
:104DA0004041890B3A4D6B5CC568B5FBF3F5056175
:104DB00030BD29B12E4A526902432D4B5A6104E09D
:104DC0002B4A526982432A4B5A61704729B1284ABB
:104DD00092690243264B9A6104E0254A9269824314
:104DE000234B9A61704729B1214AD2690243204B73
:104DF000DA6104E01E4AD26982431D4BDA617047D2
:104E000029B11B4AD2680243194BDA6004E0184A00
:104E1000D2688243164BDA60704729B1144A12698E
:104E20000243134B1A6104E0114A12698243104B8A
:104E30001A61704712494039086070470F49C864C9
:104E400070470B49C87170470948406A40F080704C
:104E500007494862704701460020054A92680A40A7
:104E60000AB1012000E000207047014988727047B4
:104E7000001002400000FFF8FFFFF6FE0000424273
:104E80008004424200127A0000093D002200002006
:104E90003200002010B50446FB48844209D10121AC
:104EA0008803FFF7ADFF00214FF48040FFF7A8FF14
:104EB00032E0F648844209D101214804FFF7ADFFF2
:104EC00000214FF40030FFF7A8FF25E0F0488442AE
:104ED00009D101218804FFF7A0FF00214FF48020B1
:104EE000FFF79BFF18E0EB48844209D10121C80479
:104EF000FFF793FF00214FF40020FFF78EFF0BE038
:104F0000E548844208D101210805FFF786FF00210A
:104F10004FF48010FFF781FF10BD2DE9F04786B0F8
:104F200005460E460024A24600BFA1460027B089D0
:104F300000B100BF2F462C8A4CF6FF700440F08869
:104F400004432C82AC894EF6F3100440B0883189BA
:104F50000843718908430443AC81AC8A4FF6FF4093
:104F60000440B0890443AC8201A8FFF7C2FEC648E2
:104F7000874202D1DDF810A001E0DDF80CA0A8897D
:104F800000F4004040B10AEBCA0000EB0A1031689F
:104F90004900B0FBF1F807E00AEBCA0000EB0A1089
:104FA00031688900B0FBF1F86420B8FBF0F004012F
:104FB0002009642101FB1089A88900F4004040B158
:104FC000322000EBC900B0FBF1F000F00700044311
:104FD00008E0322000EB09106421B0FBF1F000F092
:104FE0000F0004432C8106B0BDE8F0874FF4165142
:104FF000016000218180C18001810C21418100215B
:105000008181704710B502460020108A4FF2FF03DD
:1050100018400B884C8823438C882343CC88234337
:105020001843108210BD0021018041808180C18021
:10503000704721B1828942F40052828104E0828962
:105040004DF6FF731A4082817047F0B50346002485
:1050500000260025002040F66A17B94200D100BFA3
:105060001846C1F3421401F01F06012707FA06F59E
:10507000012C01D10C3004E0022C01D1103000E0F1
:1050800014301AB107682F43076002E00768AF4386
:105090000760F0BD1AB1838A0B43838202E0838AE2
:1050A0008B4383827047028A4FF6F0731A40028264
:1050B000028A0A430282704782894FF2FF731A40C4
:1050C000828182890A438281704721B1828942F0BC
:1050D0000202828104E082894FF6FD731A408281C8
:1050E0007047028A4FF6DF731A400282028A0A432F
:1050F0000282704721B1028A42F48042028204E0B7
:10510000028A4BF6FF731A4002827047C1F308020D
:105110008280704701468888C0F308007047818903
:1051200041F0010181817047028BD2B20283028B70
:1051300042EA012202837047028B02F47F4202831B
:10514000028B0A430283704721B1828A42F0200217
:10515000828204E0828A4FF6DF731A4082827047AF
:1051600021B1828A42F01002828204E0828A4FF6E4
:10517000EF731A408282704721B1828A42F008029E
:10518000828204E0828A4FF6F7731A408282704767
:1051900021B1828942F40042828103E08289C2F314
:1051A0000E028281704721B1828A42F400628282BB
:1051B00004E0828A4FF2FF731A4082827047828A2B
:1051C0004FF6FB731A408282828A0A4382827047BA
:1051D00021B1828A42F00202828204E0828A4FF682
:1051E000FD731A408282704702460020B1F5007FAD
:1051F00000D100BF13880B400BB1012000E000205C
:10520000704701F40072B2F5007F00D100BFCA43BD
:105210000280704770B5024600240023002500205C
:1052200040F66A16B14200D100BFC1F3421501F049
:105230001F03012606FA03F3012D02D1968933409C
:1052400006E0022D02D1168A334001E0968A3340EF
:105250000C12012606FA04F41688344013B10CB17E
:10526000012000E0002070BD10B50022002340F6B0
:105270006A14A14200D100BF0A1201249440A3B2D3
:10528000DC43048010BD00000038014000440040B1
:1052900000480040004C00400050004031490143AC
:1052A000314A1160704770B5002100230F22C47885
:1052B00004B32D4C246804F4E064C4F5E064210ACE
:1052C000C1F10403CA40447804FA03F1847814401D
:1052D00021430901254C0678A155047804F01F05E7
:1052E0000124AC4005786D11AD0005F1E025C5F84D
:1052F000004109E0047804F01F050124AC401C4D76
:105300000678761145F8264070BD1A4A0A400243D5
:10531000154B1B1F1A60704739B1134A121D1268D2
:105320000243114B1B1D1A6006E00F4A121D126842
:1053300082430D4B1B1D1A607047042808D14FF0A3
:10534000E021096941F004014FF0E022116107E01A
:105350004FF0E021096921F004014FF0E0221161D2
:10536000704700000000FA050CED00E000E400E0EA
:1053700080E100E080FFFF1F704700000FB4044988
:1053800010B503AA029800F085F910BC5DF814FB73
:105390001C0000200FB41CB5074B06AA7B446946CD
:1053A0000090059800F05DF90020694600F06CF966
:1053B0001CBC5DF814FB0000E902000070B5044657
:1053C00085690068C10601D5302600E02026C007A7
:1053D00007D070BDD4E9012130469047206A401CB7
:1053E00020626D1EF6D570BD70B5044685690078E3
:1053F000C00707D170BDD4E9012120209047206A61
:10540000401C20626D1EF6D570BD000070B50446CC
:105410000D4621461068AFF300802188090502D5AA
:105420000F4A7A4402E00E4A7A440E32002104F117
:10543000240305E000F00F060009965D5E54491C48
:105440000028F7D120780023000704D5702D02D062
:1054500009B1022311322046BDE8704000F0A2B825
:105460004A1D00002DE9F05F894604464FF0000A0E
:10547000DFF824B1FB44C0F820A02046E16888474B
:1054800000287DD0252806D0D4E901219047206A44
:10549000401C2062F1E700255F462046E16888470E
:1054A0002028064607DB312E05D2B81910F8200C4B
:1054B00008B10543F1E7A80701D525F00405C4F8B4
:1054C0001CA00027C4F818A02A2E09D0304600F0EE
:1054D00029F938B304EB8708303EC8F8186019E0A2
:1054E00059F8041B204604EB87029161E168884764
:1054F000012F064618D1E069002820DA25F02005A2
:105500001DE0D8F8180000EB800006EB40003038B2
:10551000C8F818002046E1688847064600F002F9FE
:105520000028EED1012F0AD02E2E08D12046E168A6
:1055300088477F1C0646022F45F02005C4DBA06982
:10554000002803DA404245F00105A061E80701D0D8
:1055500025F01005A6B1A6F14100192802D8203681
:1055600045F400654A463146204625604D46FAF727
:1055700019FE60B1012807D0ED1D25F0070000E0FD
:1055800007E000F1080978E705F1040975E73046FE
:105590007AE7206ABDE8F09F201D00007047704741
:1055A000704770472DE9F0470D46994692460446EC
:1055B00000F124080168880604D5E06921F0100193
:1055C000216000E00120A84201DD471B00E0002728
:1055D000A1697A1902EB0900081AA0612078C006B7
:1055E00002D42046FFF7EAFE002608E0D4E90121B4
:1055F0001AF806009047206A401C761C20624E452F
:10560000F4DB2078C0060AD52046FFF7D7FE06E077
:10561000D4E9012130209047206A401C2062381EC6
:10562000A7F10107F4DC07E0D4E9012118F805002F
:105630009047206A401C2062281EA5F10105F3DC7A
:105640002046FFF7D1FE2078000602D50220BDE8F3
:10565000F0870120FBE7000001694A1C026108781D
:10566000704700B58FB0CDE90131002105910549A2
:105670007944CDE9031011466846FFF7F3FE0FB0F9
:1056800000BD0000E5FFFFFF0A6802F8010B0A6099
:1056900070470000074B70B50D467B44FFF7E1FFF4
:1056A0000446284600F008F810B14FF0FF3070BDF6
:1056B000204670BD7BEFFFFF007B00F0800070474D
:1056C000754600F02BF8AE4605006946534620F0BB
:1056D0000700854618B020B5FFF74AF8BDE820401E
:1056E0004FF000064FF000074FF000084FF0000B9E
:1056F00021F00701AC46ACE8C009ACE8C009ACE851
:10570000C009ACE8C0098D46704710B50446AFF338
:1057100000802046BDE81040FAF756BD00487047AB
:105720001001002030380A2801D2012070470020E3
:10573000704700004FEA1153A3F58063D3F11E03B5
:10574000A8BFD3F1200C08DB4FF0004242EAC1228F
:1057500052EA505232FA03F0704709420BD4102B30
:10576000C4BF0020704703F5787CBCF1FF3F05D033
:105770004FF0FF3070474FF00000704770B500F0F9
:10578000C3F800BF4992248000207047F0E7B0FAC8
:1057900080F310FA03F10AD0C3F11D0303F580630F
:1057A0004FEA41504FEA035202EBD12170474FF0CC
:1057B00000007047DFF848C170B51CEA111E1EBF1B
:1057C0001CEA13159EEA0C0F95EA0C0F00F06F808F
:1057D00081EA030423EA4C134EEAD47E21EA4C11F9
:1057E00041F4801143F48013AE44A1FB024CA0FBB2
:1057F0000365AEF17F7E361955EB0C05A1FB034C1A
:105800004CF10003A0FB021C16EB0C06654153F1A2
:105810000003094218BF46F0010613F4007F0BD1C4
:105820004FEA03314FEA0530340341EA155140EAAB
:1058300016506FF003020AE04FEAC3214FEAC52079
:10584000F40241EA555140EA56506FF0020202EB71
:105850002E4201EB025585EACE710AD05FEA440C74
:1058600018BF24F0004450F1000041F1000120EA8B
:10587000D47040F2FE7C624500D270BDA84214BFD5
:105880004FF080444FF04044002E08BF0024BEF18A
:10589000806FA8BFA1F1C041BDE8704080F2828056
:1058A0004FF0000001F1C04101F0004170479EEA55
:1058B0000C0F0CEA131518BF95EA0C0F06D04FF029
:1058C000000081EA030E0EF0004170BD00F01CF8EC
:1058D0008900013E00F007B800F009B84FEA430C18
:1058E0005FEA5C5C08D081EA030100F05BB84FEA34
:1058F000410C5FEA5C5CF6D14FF000000149704753
:105900000000FF070000F87F0EF1020E2EF0030EDC
:105910005EF8046B364205D4012A43EB030515F506
:10592000001F12D8012841EB010C1CF5001F0CD8F8
:105930000ED14FEAD17C15F5001F0CEB4C0C0CF18D
:10594000020C08BF4CEBD37C04E04FF0080C01E0E4
:105950004FEAD37C0CEB4C0526FA05F606F0070659
:10596000B6F1040C06D20EEB860CBDE870404CF08C
:10597000010C6047DFE80CF0090B02024FF0004118
:105980004FF00000A1F5002170BD19461046012816
:1059900051EB010418BFD4F5001484BF002001F0BE
:1059A000004170BD0808A0F500114FEA31017047B1
:1059B00000000000000000000000000000000000E7
:1059C0003F400000000000000000300040003000B8
:1059D0004000000009000BC03D000BC03D00090065
:1059E00018C024407FE0224031800000180024C00D
:1059F0001B000D803240018003801C4027401C802A
:105A0000074000401000600000000000000000009F
:105A10000000000000001F802040402000004020C7
:105A200020401F8000000000090006001F800600C3
:105A300009000000040004003F800400040000008E
:105A400000100060000000000000000004000400DE
:105A500004000400040000000000004000000000FA
:105A600000000000002001C00600380040000000D7
:105A70001F802040204020401F8000000000104078
:105A80003FC000400000000018C0214022402440D8
:105A90001840000010802040244024401B8000005B
:105AA00002000D0011003FC0014000003C80244076
:105AB00024402440238000001F80244024403440A0
:105AC000038000003000200027C0380020000000C4
:105AD0001B802440244024401B8000001C0022C066
