:020000040800F2
:1000000038BD00202D02000831020008330200082C
:10001000350200083702000839020008000000001D
:100020000000000000000000000000003B0200088B
:100030003D020008000000003F02000841020008E5
:10004000430200084302000843020008430200087C
:10005000430200084302000843020008430200086C
:10006000430200084302000843020008430200085C
:10007000430200084302000843020008430200084C
:10008000430200084302000843020008430200083C
:10009000430200084302000843020008430200082C
:1000A000430200084302000843020008430200081C
:1000B0004302000843020008996700084302000851
:1000C00043020008430200084302000843020008FC
:1000D00043020008256800084302000843020008A4
:1000E00043020008430200084302000843020008DC
:1000F00043020008430200084302000843020008CC
:1001000043020008430200084302000843020008BB
:1001100043020008430200084302000843020008AB
:10012000430200084302000843020008430200089B
:1001300000F002F800F06BF80AA090E8000C82448E
:100140008344AAF10107DA4501D100F060F8AFF26B
:10015000090EBAE80F0013F0010F18BFFB1A43F0A5
:100160000103184798F40000B8F400000A444FF067
:10017000000C10F8013B13F0070408BF10F8014B06
:100180001D1108BF10F8015B641E05D010F8016B4B
:10019000641E01F8016BF9D113F0080F1EBF10F8AF
:1001A000014BAD1C0C1B09D16D1E58BF01F801CBD2
:1001B000FAD505E014F8016B01F8016B6D1EF9D555
:1001C0009142D6D37047000000230024002500266A
:1001D000103A28BF78C1FBD8520728BF30C148BFAA
:1001E0000B607047642900F09B80752900F09880AF
:1001F000782900F0D180632900F09582732900F0FE
:100200009A82002070471FB51FBD10B510BD00F0C9
:10021000C5FA1146FFF7F7FF0AF034F900F0E3FAE8
:1002200003B4FFF7F2FF03BC06F045FB08480047A4
:10023000FEE7FEE7FEE7FEE7FEE7FEE7FEE7FEE796
:10024000FEE7FEE703480449044A054B70470000F7
:100250003101000838B7002038BD002038B900202F
:1002600038B90020704700000FB4044910B503AA44
:10027000029800F065FA10BC5DF814FB0400002041
:1002800070B5044685690068C10601D5302600E0D6
:100290002026C00707D070BDD4E901213046904721
:1002A000206A401C20626D1EF6D570BD70B50446F4
:1002B00085690078C00707D170BDD4E901212020ED
:1002C0009047206A401C20626D1EF6D570BD70B547
:1002D0000C460546012A05D02878800600D5EA6933
:1002E000002302E0012305E05B1C934202D2E05CA4
:1002F0000028F9D1A869E618C01AA861286A18442C
:1003000028622846FFF7BCFF04E0D5E9012114F874
:10031000010B9047B442F8D32846FFF7C7FF70BDE2
:100320002DE9F0410646002410687529314616A5CE
:1003300010D0AFF30080002802DA404213A507E096
:1003400031688A0701D512A502E0490704D511A535
:10035000012401E0AFF3008000210A2206F1240706
:1003600009E0B0FBF2FCB0FBF2F302FB1C00303002
:1003700078541846491C0028F3D123462A463046B3
:10038000BDE8F04100F06CB9000000002D00000055
:100390002B0000002000000070B504460D462146E9
:1003A0001068AFF300802188090502D50F4A7A440E
:1003B00002E00E4A7A440E32002104F1240305E0E3
:1003C00000F00F060009965D5E54491C0028F7D125
:1003D00020780023000704D5702D02D009B1022334
:1003E00011322046BDE8704000F03AB9AAF0000092
:1003F0002DE9F05F894604464FF0000ADFF874B13A
:10040000FB44C0F820A02046E1688847002874D04B
:10041000252806D0D4E901219047206A401C20629B
:10042000F1E700265F462046E16888472028054618
:1004300007DB312D05D2781910F8200C08B10643DE
:10044000F1E7B00701D526F00406C4F81CA0002788
:10045000C4F818A02A2D09D0284606F025FA38B38A
:1004600004EB8708303DC8F8185019E059F8041B10
:10047000204604EB87029161E1688847012F054619
:1004800018D1E069002820DA26F020061DE0D8F80F
:10049000180000EB800005EB40003038C8F8180069
:1004A0002046E1688847054606F0FEF90028EED1AF
:1004B000012F0AD02E2D08D12046E16888477F1CE5
:1004C0000546022F46F02006C4DBA069002803DAA7
:1004D000404246F00106A061F00701D026F0100668
:1004E0006C2D0BD0682D09D04C2D39D06A2D35D00C
:1004F000742D35D07A2D33D016E038E0E1682F46E0
:1005000020468847B842054609D16C2F26D04FF4C3
:100510008060E168064320468847054604E06C2F6A
:100520001AD04FF4807006430DB3A5F1410019288D
:1005300002D8203546F400664A4629462046266001
:100540004E46FFF74FFE80B101280BD0F61D26F076
:10055000070000F1080956E74020E4E78020D8E7CB
:100560000020D6E706F104094DE7284652E7206A45
:10057000BDE8F09F80F0000040EA0103024630B57C
:100580009B0710D14FF0013400E008C208C91D1BC1
:100590009D4315EAC41FF8D013F0FF0102F8011BB8
:1005A0000DD01B0AF8E711F8013B002B02F8013BC4
:1005B00005D011F8013B002B02F8013BF3D130BD0F
:1005C000421E12F8013F002BFBD111F8013B002B1A
:1005D00002F8013BF9D170474FF0013C50F8042B71
:1005E00051F8043B9A4221D1A2EB0C03934313EA46
:1005F000CC1317D150F8042B51F8043B9A4215D173
:10060000A2EB0C03934313EACC130BD150F8042B49
:1006100051F8043B9A4209D1A2EB0C03934313EA2D
:10062000CC13DBD04FF00000704700BFD01A01BAE6
:10063000B1FA81F101F0180122FA01F0CB40C1F1C9
:100640002001DBB2C0B2C01A2CFA01F3D11A9143D7
:1006500011EAC311E6D17047704770477047704781
:100660002DE9F0470D4699469246044600F12408CC
:100670000168880604D5E06921F01001216000E0DE
:100680000120A84201DD471B00E00027A1697A197B
:1006900002EB0900081AA0612078C00602D42046A7
:1006A000FFF7EEFD002608E0D4E901211AF8060064
:1006B0009047206A401C761C20624E45F4DB20786F
:1006C000C0060AD52046FFF7DBFD06E0D4E901218C
:1006D00030209047206A401C2062381EA7F1010795
:1006E000F4DC07E0D4E9012118F805009047206AFE
:1006F000401C2062281EA5F10105F3DC2046FFF70F
:10070000D5FD2078000602D50220BDE8F087012043
:10071000FBE710B5436913B1AFF3008001E0FFF7C9
:10072000D6FD012010BD127800F124010A700022CC
:100730004A700122EDE711684FF0FF32E9E700004F
:10074000074B70B50D467B4400F011F8044628466F
:1007500000F020F810B14FF0FF3070BD204670BDA2
:100760006B83000001694A1C02610878704700B57C
:100770008FB0CDE901310021059105497944CDE9DA
:10078000031011466846FFF733FE0FB000BD0000AE
:10079000E5FFFFFF007B00F080007047754600F02A
:1007A0002BF8AE4605006946534620F00700854603
:1007B00018B020B5FFF746FDBDE820404FF0000619
:1007C0004FF000074FF000084FF0000B21F0070139
:1007D000AC46ACE8C009ACE8C009ACE8C009ACE87C
:1007E000C0098D46704710B50446AFF3008020461F
:1007F000BDE81040FFF714BD00487047D4B6002094
:100800002DE9F05F81460F4614462046E21704EBBF
:100810005272D2102146E31704EB5373DB10A4EBA2
:10082000C3030BB1012300E000231A44624302F02A
:10083000FF0B99F8006009F1010081460578812ECF
:1008400005DB402D03DBFF2D01D0FF2E0DD14FF036
:10085000000A06E0002007F8010B0AF1010000F091
:10086000FF0ADA45F6DBBDE8F09F7F2D03DAA5F13C
:100870004000C5B202E0A5F14100C5B2A6F1810079
:10088000C6B2BE2000FB065000FB0BF80C2C04D0B7
:10089000102C0CD0182C1ED113E01048D0F80900F1
:1008A00000EB08011822384605F04EFD13E00B4816
:1008B000D0F8110000EB08012022384605F044FD75
:1008C00009E00648D0F8190000EB08014822384634
:1008D00005F03AFD00BF00BF00BFC4E774B60020BA
:1008E00001464906084A926942F00102064B9A61A4
:1008F000064A526822F0E062044B5A601A46526877
:100900000A435A6070470000001002400000014096
:1009100010B51E48806940F004001C4988610846F3
:10092000806940F0100088610120FFF7D9FF184866
:10093000006820F00F00164908600846006840F083
:1009400008000860081D006820F07040091D08605C
:100950000846006840F0004008600D480C30006810
:1009600040F400400A490C3108600A48006820F44D
:100970007000084908600846006840F400000860FC
:100980000846C06840F02000C86010BD001002405A
:10099000000801400010014010B5044614B10120C8
:1009A0001B4908701A48007808B31A48006838B123
:1009B0001948006820B118483C380068012816D151
:1009C0000A2006F07BFD00201149087011480068DC
:1009D00008B9012010BD1048006808B90220F9E7E5
:1009E0000D483C380068012810D10320F2E709487F
:1009F000006801280AD108480068012806D1064885
:100A00003C38006810B90120014908700020E1E776
:100A10000E000020140122423C01214230B5014663
:100A200001F01F04C1F34513CA0AE50205EB4315A3
:100A30001544A8B230BD000070B5044600261D481C
:100A40000588408845431B48808846F60401884253
:100A500016D118488079012812D1002015498871D3
:100A60002A2048812B2088810021084604F02CFD93
:100A70000120104988712B2048812A20888103E0B9
:100A80000021084604F020FD04F0E8FF00260DE0F8
:100A90004FF48070084908614000486107480460CD
:100AA00080204861086180000861761CAE42EFD367
:100AB00070BD0000A0030020001001400C0C01409C
:100AC0002DE9F84F07460D4690469946DDF828B0C7
:100AD000A8EB0700401C1FFA80FAA9EB0500401C98
:100AE00080B20090002420E0281981B2384604F03A
:100AF000EBFC04F0B3FF002613E04FF480700D49C7
:100B000008614000486104FB0A603BF810000A4994
:100B10000860802007494861086180000861701CF6
:100B200086B25645E9DB601C84B200988442DBDB68
:100B3000BDE8F88F001001400C0C014010B50446D0
:100B4000002C66D16C498871F02008804FF4A070A9
:100B500048800846808849F2413188420BD0664877
:100B6000808846F60401884205D06348808845F2B3
:100B7000103188421AD12C205F4908812A204881EF
:100B80002B2088810846808846F60401884205D0DB
:100B90005948808845F21031884206D14FF4A07040
:100BA000554908804FF4F0704880A1E05248808891
:100BB00045F21051884210D14FF430504E4908810F
:100BC0004FF4285048814FF42C5088814FF4F07036
:100BD00008804FF4487048808AE04748808841F692
:100BE000631188420DD12C20434908812B20488174
:100BF0002A2088814FF4F07008804FF448704880B4
:100C000076E022203C4908812020488121208881EB
:100C10006EE00120384988714FF4A0700880F02000
:100C200048800846808849F24131884205D03248E0
:100C3000808845F21031884207D12C202E49088146
:100C40002A2048812B2088813FE02B48808846F667
:100C50000401884207D12C20274908812B20488194
:100C60002A20888131E02448808845F2105188424A
:100C700010D14FF43050204908814FF4285048815A
:100C80004FF42C5088814FF4487008804FF4F07076
:100C900048801AE01848808841F6631188420DD1D7
:100CA0002C20154908812A2048812B2088814FF467
:100CB000487008804FF4F070488006E022200E490A
:100CC000088121204881202088810B48808846F6B1
:100CD0000401884205D00848808845F210318842D6
:100CE00006D14FF4F070044908804FF4A07048809A
:100CF000002004F0BDF910BDA003002070B504462B
:100D00000D461646D348808849F24131884205D0C5
:100D1000D048808845F21031884240D1CD49488979
:100D200004F08AFE4FF48070CB49086140004861AE
:100D30002012CA4908608020C749486108618000C4
:100D400008614010086140004861E0B2C349086092
:100D50008020C1494861086180000861BD498889D7
:100D600004F06AFE4FF48070BB490861400048619E
:100D70002812BA4908608020B7494861086180009C
:100D800008614010086140004861E8B2B34908605A
:100D90008020B14948610861800008613DE1AD48AB
:100DA000808845F21051884250D1AA49488904F000
:100DB00043FE4FF48070A84908614000486120124A
:100DC000A64908608020A449486108618000086144
:100DD000A0494989491C88B204F02EFE4FF4807066
:100DE0009D49086140004861E0B29C49086080204C
:100DF000994948610861800008619649888904F032
:100E00001BFE4FF48070944908614000486128122D
:100E1000924908608020904948610861800008611B
:100E20008C498989491C88B204F006FE4FF4807011
:100E30008949086140004861E8B28849086080201B
:100E400085494861086180000861E6E08148808842
:100E500041F6631188427DD17E48807920B97D4872
:100E60000088401E001B84B27A49488904F0E4FDE2
:100E70004FF480707849086140004861201277493A
:100E80000860802074494861086180000861401052
:100E9000086140004861E0B27049086080206E49F6
:100EA00048610861800008614010086140004861A5
:100EB00020126A4908608020674948610861800003
:100EC00008614010086140004861E0B26349086071
:100ED0008020614948610861800008615D49888916
:100EE00004F0AAFD4FF480705B490861400048613E
:100EF00028125A49086080205749486108618000DB
:100F000008614010086140004861E8B25349086038
:100F100080205149486108618000086140100861E3
:100F20004000486128124D49086080204A494861C4
:100F30000861800008614010086140004861E8B223
:100F40004649086080204449486108618000086182
:100F500063E0FFE73F48808846F60401884249D1B4
:100F60003C488079012804D13A480088401E001B83
:100F700084B23849488904F05FFD4FF480703649E7
:100F800008614000486120123449086080203249DD
:100F900048610861800008614010086140004861B4
:100FA000E0B22E49086080202B494861086180002A
:100FB00008612849888904F03FFD4FF48070264974
:100FC00008614000486128122449086080202249B5
:100FD0004861086180000861401008614000486174
:100FE000E8B21E49086080201B4948610861800002
:100FF000086112E017488079012804D1154800885B
:10100000401E001B84B213494889214604F02EFD7E
:1010100010498889294604F029FD4FF480700E4953
:101020004861400048610B4800890C4908608020F5
:10103000094948610861800008614010086140006A
:1010400048610648066080204861086180000861A8
:1010500070BD0000A0030020001001400C0C0140F6
:101060002DE9FC4F05460E4617469846DDF82C90B4
:10107000002001902C48808846F60401884229D13E
:1010800029488079012825D1AB4635462648008875
:10109000C01B401E86B2474623480088A0EB0B00C9
:1010A000401E1FFA80F800201F4988712A204881BD
:1010B0002B20888143463A4631462846CDF8009099
:1010C000FFF7CEFF0120184988712B2048812A2084
:1010D000888127E0781B401C80B2019034461FE0D5
:1010E0002146284604F0F0F904F0B8FC4FF0000A5D
:1010F00011E04FF480700D490861400048610C48D0
:10110000C0F80090802048610861800008610AF101
:1011100001001FFA80FA01988245EADB601C84B264
:101120004445DDDDBDE8FC8FA00300200010014038
:101130000C0C014010B5FE48806940F00800FC49E5
:1011400088610846806940F010008861084680691F
:1011500040F0010088610120FFF7C2FBF5484068BC
:101160006FF30B00F34948600846406840F23331A2
:101170000843F04948600846006820F07F40086056
:101180000846006840F04C5008600846C06840F4CB
:10119000F860C8604FF03330E7490860091F086005
:1011A0004FF6FF70E44908310860322006F086F9F6
:1011B0000121002004F05AFC322006F07FF90020C3
:1011C00003F0E4FEDD49888008468088FF280ADBBA
:1011D000084680884FF6FF71884204D0D74880883F
:1011E000B0F5134F7ED1D32004F026FC03F092FD1E
:1011F00003F090FD03F08EFDD0498880084680887A
:101200004FF6FF7101EA0020CC49888003F082FD8F
:10121000CA4989880843C94988800846808849F2B4
:10122000413188425ED0BF2004F006FC03F072FD1D
:1012300003F070FD03F06EFD03F06CFDBF49888084
:10124000084680884FF6FF7101EA0020BB4988807C
:1012500003F060FDB94989880843B8498880084689
:10126000808846F60401884274D0D42004F0E4FB60
:1012700003F050FD03F04EFD03F04CFDAF498880B4
:10128000084680884FF6FF7101EA0020AB4988804C
:1012900003F040FDA94989880843A8498880084689
:1012A000808845F21031884254D04FF45A4004F0FF
:1012B000C3FB03F02FFD4FF45B4004F0BDFB03F0D4
:1012C00029FD9E498880084680884FF6FF7101EA13
:1012D00000209A4988804FF45C4004F0ADFB03F095
:1012E00019FD00E036E095498988084393498880D4
:1012F00008468088B0F5004F02D145F21050888032
:101300008E48808845F21051884223D0A12004F0F5
:1013100093FB03F0FFFC8949888003F0FBFC8749BD
:101320008880084680884FF6FF7101EA00208349D3
:10133000888003F0EFFC8149898808437F498880D1
:101340000846808845F26171884203D141F66310F6
:101350007A4988807948818879A0FEF785FF7748A7
:10136000808849F2413188427ED1CF2004F064FB6D
:10137000002004F04FFBC12004F04CFB302004F0AF
:1013800049FBED2004F058FB642004F043FB0320EC
:1013900004F040FB122004F03DFB812004F03AFBF6
:1013A000E82004F049FB852004F034FB102004F011
:1013B00031FB7A2004F02EFBCB2004F03DFB3920DA
:1013C00004F028FB2C2004F025FB002004F022FB75
:1013D000342004F01FFB022004F01CFBF72004F073
:1013E0002BFB202004F016FBEA2004F025FB002054
:1013F00004F010FB002004F00DFBC02004F01CFBE7
:101400001B2004F007FBC12004F016FB012004F0B0
:1014100001FBC52004F010FB302004F0FBFA302063
:1014200004F0F8FAC72004F007FBB72004F0F2FA42
:10143000362004F001FB482004F0ECFA3A2004F0D6
:10144000FBFA552004F0E6FAB12004F0F5FA00208A
:1014500004F0E0FA1A2004F0DDFAB62004F0ECFA09
:101460000A2004F0D7FA00E0A9E0A22004F0D2FAA2
:10147000F22004F0E1FA002004F0CCFA262004F077
:10148000DBFA012004F0C6FAE02004F0D5FA0F20C0
:1014900004F0C0FA2A2004F0BDFA282004F0BAFAB9
:1014A000082004F0B7FA0E2004F0B4FA082004F083
:1014B000B1FA542004F0AEFAA92004F0ABFA4320AC
:1014C00004F0A8FA0A2004F0A5FA0F2004F0A2FA0A
:1014D000002004F09FFA002004F09CFA002004F0A1
:1014E00099FA002004F096FAE12004F0A5FA002011
:1014F00004F090FA152004F08DFA172004F08AFA0F
:10150000072004F087FA112004F084FA062004F082
:1015100081FA2B2004F07EFA562004F07BFA3C205E
:1015200004F078FA052004F075FA102010E00000AD
:101530000010024000100140040C0140A0030020F4
:10154000204C43442049443A25780D0A000000000D
:1015500004F060FA0F2004F05DFA3F2004F05AFA1C
:101560003F2004F057FA0F2004F054FA2B2004F027
:1015700063FA002004F04EFA002004F04BFA012038
:1015800004F048FA3F2004F045FA2A2004F054FA07
:10159000002004F03FFA002004F03CFA002004F0A0
:1015A00039FAEF2004F036FA112004F045FA7820D9
:1015B00005F084FF292004F03FFA03F09ABBFE48AF
:1015C000808846F6040188427ED1112004F034FA66
:1015D000142005F073FFD02004F02EFA072004F049
:1015E00019FA422004F016FA1D2004F013FAD12053
:1015F00004F022FA002004F00DFA1A2004F00AFA8E
:10160000092004F007FAD22004F016FA012004F0B1
:1016100001FA222004F0FEF9C02004F00DFA102097
:1016200004F0F8F93B2004F0F5F9002004F0F2F999
:10163000022004F0EFF9112004F0ECF9C52004F0C9
:10164000FBF9032004F0E6F9C82004F0F5F90020C6
:1016500004F0E0F9252004F0DDF9212004F0DAF9A6
:10166000052004F0D7F9002004F0D4F90A2004F092
:10167000D1F9652004F0CEF9252004F0CBF97720CC
:1016800004F0C8F9502004F0C5F90F2004F0C2F9A5
:10169000002004F0BFF9F82004F0CEF9012004F096
:1016A000B9F9FE2004F0C8F9002004F0B3F90220D3
:1016B00004F0B0F9202004F0BFF9362004F0BCF9A2
:1016C000082004F0A7F900E02AE03A2004F0B4F979
:1016D000552004F09FF92B2004F0AEF9002004F00F
:1016E00099F9002004F096F9012004F093F93F20C5
:1016F00004F090F92A2004F09FF9002004F08AF900
:10170000002004F087F9012004F084F9DF2004F0C0
:1017100081F9782005F0D2FE292004F08DF94CE7FC
:10172000A548808845F21031884240F07C87ED2042
:1017300004F082F9012004F06DF9FE2004F06AF94A
:10174000EE2004F079F9DE2004F064F9212004F0A1
:1017500061F9F12004F070F9012004F05BF9DF2059
:1017600004F06AF9102004F055F9C42004F064F97B
:101770008F2004F04FF9C62004F05EF9002004F039
:1017800049F9E22004F046F9E22004F043F9E220AE
:1017900004F040F9BF2004F04FF9AA2004F03AF910
:1017A000B02004F049F90D2004F034F9002004F0D1
:1017B00031F90D2004F02EF9002004F02BF911204E
:1017C00004F028F9002004F025F9192004F022F98A
:1017D000002004F01FF9212004F01CF9002004F07F
:1017E00019F92D2004F016F9002004F013F93D201A
:1017F00004F010F9002004F00DF95D2004F00AF95E
:10180000002004F007F95D2004F004F9002004F042
:1018100001F9B12004F010F9802004F0FBF8002059
:1018200004F0F8F88B2004F0F5F8002004F0F2F84A
:10183000962004F0EFF8002004F0ECF8B22004F059
:10184000FBF8002004F0E6F8002004F0E3F80220A2
:1018500004F0E0F8002004F0DDF8032004F0DAF8EA
:10186000002004F0D7F8B32004F0E6F8002004F0DC
:10187000D1F8002004F0CEF8002004F0CBF80020CE
:1018800004F0C8F8002004F0C5F8002004F0C2F805
:10189000002004F0BFF8002004F0BCF8002004F0A1
:1018A000B9F8002004F0B6F8002004F0B3F80020E6
:1018B00004F0B0F8002004F0ADF8002004F0AAF81D
:1018C000002004F0A7F8002004F0A4F8002004F0A1
:1018D000A1F8002004F09EF8002004F09BF80020FE
:1018E00004F098F8002004F095F8002004F092F835
:1018F000002004F08FF8002004F08CF8B42004F0ED
:101900009BF88B2004F086F8002004F083F89620E2
:1019100004F080F8002004F07DF8A12004F07AF8AB
:10192000002004F077F8B52004F086F8022004F0D7
:1019300071F8002004F06EF8032004F06BF800202A
:1019400004F068F8042004F065F8002004F062F860
:10195000B62004F071F8002004F05CF8002004F0D8
:1019600059F8B72004F068F8002004F053F800207C
:1019700004F050F83F2004F04DF8002004F04AF83D
:101980005E2004F047F8002004F044F8642004F0DE
:1019900041F8002004F03EF88C2004F03BF80020D1
:1019A00004F038F8AC2004F035F8002004F032F8E8
:1019B000DC2004F02FF801E0A0030020002004F058
:1019C00029F8702004F026F8002004F023F8902075
:1019D00004F020F8002004F01DF8EB2004F01AF8C1
:1019E000002004F017F8DC2004F014F8002004F0C4
:1019F00011F8B82004F020F8002004F00BF80020C3
:101A000004F008F8002004F005F8002004F002F8C3
:101A1000002003F0FFFF002003F0FCFF002003F094
:101A2000F9FF002003F0F6FFBA2004F005F82420A7
:101A300003F0F0FF002003F0EDFF002003F0EAFFC9
:101A4000002003F0E7FFC12003F0F6FF202003F0A1
:101A5000E1FF002003F0DEFF542003F0DBFF002055
:101A600003F0D8FFFF2003F0D5FF002003F0D2FFE2
:101A7000C22003F0E1FF0A2003F0CCFF002003F0B6
:101A8000C9FF042003F0C6FF002003F0C3FFC320FA
:101A900003F0D2FF3C2003F0BDFF002003F0BAFFAB
:101AA0003A2003F0B7FF002003F0B4FF392003F021
:101AB000B1FF002003F0AEFF372003F0ABFF0020A2
:101AC00003F0A8FF3C2003F0A5FF002003F0A2FFD5
:101AD000362003F09FFF002003F09CFF322003F02C
:101AE00099FF002003F096FF2F2003F093FF0020C2
:101AF00003F090FF2C2003F08DFF002003F08AFFFD
:101B0000292003F087FF002003F084FF262003F044
:101B100081FF002003F07EFF242003F07BFF0020E4
:101B200003F078FF242003F075FF002003F072FF1C
:101B3000232003F06FFF002003F06CFF3C2003F034
:101B400069FF002003F066FF362003F063FF0020EA
:101B500003F060FF322003F05DFF002003F05AFF26
:101B60002F2003F057FF002003F054FF2C2003F038
:101B700051FF002003F04EFF292003F04BFF00200F
:101B800003F048FF262003F045FF002003F042FF4A
:101B9000242003F03FFF002003F03CFF242003F04B
:101BA00039FF002003F036FF232003F033FF00202D
:101BB00003F030FFC42003F03FFF622003F02AFF50
:101BC000002003F027FF052003F024FF002003F08E
:101BD00021FF842003F01EFF002003F01BFFF020F4
:101BE00003F018FF002003F015FF182003F012FF88
:101BF000002003F00FFFA42003F00CFF002003F0EF
:101C000009FF182003F006FF002003F003FF502017
:101C100003F000FF002003F0FDFE0C2003F0FAFEAD
:101C2000002003F0F7FE172003F0F4FE002003F07D
:101C3000F1FE952003F0EEFE002003F0EBFEF32012
:101C400003F0E8FE002003F0E5FEE62003F0E2FEEC
:101C5000002003F0DFFEC52003F0EEFE322003F08B
:101C6000D9FE002003F0D6FE442003F0D3FE00206E
:101C700003F0D0FE652003F0CDFE002003F0CAFE85
:101C8000762003F0C7FE002003F0C4FE882003F096
:101C9000C1FE002003F0BEFEC62003F0CDFE2020D2
:101CA00003F0B8FE002003F0B5FE172003F0B2FEEB
:101CB000002003F0AFFE012003F0ACFE002003F093
:101CC000A9FEC72003F0B8FE002003F0A3FE002009
:101CD00003F0A0FE002003F09DFE002003F09AFE1A
:101CE000C82003F0A9FE002003F094FE002003F0BA
:101CF00091FE002003F08EFE002003F08BFEC92031
:101D000003F09AFE002003F085FE002003F082FE1F
:101D1000002003F07FFE002003F07CFE002003F093
:101D200079FE002003F076FE002003F073FE002011
:101D300003F070FE002003F06DFE002003F06AFE49
:101D4000002003F067FE002003F064FE002003F093
:101D500061FE002003F05EFE002003F05BFE002029
:101D600003F058FEE02003F067FE162003F052FE59
:101D7000002003F04FFE1C2003F04CFE002003F077
:101D800049FE212003F046FE002003F043FE3620EA
:101D900003F040FE002003F03DFE462003F03AFE33
:101DA000002003F037FE522003F034FE002003F041
:101DB00031FE642003F02EFE002003F02BFE7A207B
:101DC00003F028FE002003F025FE8B2003F022FE06
:101DD000002003F01FFE992003F01CFE002003F0FA
:101DE00019FEA82003F016FE002003F013FEB92010
:101DF00003F010FE002003F00DFEC42003F00AFEE5
:101E0000002003F007FECA2003F004FE002003F0C8
:101E100001FED22003F0FEFD002003F0FBFDD920DF
:101E200003F0F8FD002003F0F5FDE02003F0F2FDE3
:101E3000002003F0EFFDF32003F0ECFD002003F0A1
:101E4000E9FDE12003F0F8FD162003F0E3FD00209A
:101E500003F0E0FD1C2003F0DDFD002003F0DAFDBF
:101E6000222003F0D7FD002003F0D4FD362003F03C
:101E7000D1FD002003F0CEFD452003F0CBFD002076
:101E800003F0C8FD522003F0C5FD002003F0C2FDA1
:101E9000642003F0BFFD002003F0BCFD7A2003F0B6
:101EA000B9FD002003F0B6FD8B2003F0B3FD002048
:101EB00003F0B0FD992003F0ADFD002003F0AAFD72
:101EC000A82003F0A7FD002003F0A4FDB92003F033
:101ED000A1FD002003F09EFDC42003F09BFD002027
:101EE00003F098FDCA2003F095FD002003F092FD59
:101EF000D22003F08FFD002003F08CFDD82003F0EA
:101F000089FD002003F086FDE02003F083FD002022
:101F100003F080FDF32003F07DFD002003F07AFD47
:101F2000E22003F089FD052003F074FD002003F09A
:101F300071FD0B2003F06EFD002003F06BFD1B20F4
:101F400003F068FD002003F065FD342003F062FD1E
:101F5000002003F05FFD442003F05CFD002003F04F
:101F600059FD4F2003F056FD002003F053FD612082
:101F700003F050FD002003F04DFD792003F04AFDF1
:101F8000002003F047FD882003F044FD002003F00B
:101F900041FD972003F03EFD002003F03BFDA6200D
:101FA00003F038FD002003F035FDB72003F032FDCB
:101FB000002003F02FFDC22003F02CFD002003F0D1
:101FC00029FDC72003F026FD002003F023FDD120CA
:101FD00003F020FD002003F01DFDD62003F01AFDC4
:101FE000002003F017FDDD2003F014FD002003F0B6
:101FF00011FDF32003F00EFD002003F00BFDE320A4
:1020000003F01AFD052003F005FD002003F002FD9A
:102010000A2003F0FFFC002003F0FCFC1C2003F06E
:10202000F9FC002003F0F6FC332003F0F3FC002061
:1020300003F0F0FC442003F0EDFC002003F0EAFC88
:10204000502003F0E7FC002003F0E4FC622003F0E2
:10205000E1FC002003F0DEFC782003F0DBFC002034
:1020600003F0D8FC882003F0D5FC002003F0D2FC5C
:10207000972003F0CFFC002003F0CCFCA62003F057
:10208000C9FC002003F0C6FCB72003F0C3FC00200D
:1020900003F0C0FCC22003F0BDFC002003F0BAFC3A
:1020A000C72003F0B7FC002003F0B4FCD12003F0FC
:1020B000B1FC002003F0AEFCD52003F0ABFC002007
:1020C00003F0A8FCDD2003F0A5FC002003F0A2FC37
:1020D000F32003F09FFC002003F09CFCE42003F0BD
:1020E000ABFC012003F096FC002003F093FC0120E0
:1020F00003F090FC002003F08DFC022003F08AFC2A
:10210000002003F087FC2A2003F084FC002003F069
:1021100081FC3C2003F07EFC002003F07BFC4B2084
:1021200003F078FC002003F075FC5D2003F072FCE6
:10213000002003F06FFC742003F06CFC002003F01F
:1021400069FC842003F066FC002003F063FC93200C
:1021500003F060FC002003F05DFCA22003F05AFCB9
:10216000002003F057FCB32003F054FC002003F0E0
:1021700051FCBE2003F04EFC002003F04BFCC420B9
:1021800003F048FC002003F045FCCD2003F042FCA6
:10219000002003F03FFCD32003F03CFC002003F0C0
:1021A00039FCDD2003F036FC002003F033FCF32083
:1021B00003F030FC002003F02DFCE52003F03CFC94
:1021C000002003F027FC002003F024FC002003F093
:1021D00021FC002003F01EFC022003F01BFC002069
:1021E00003F018FC292003F015FC002003F012FC7A
:1021F0003C2003F00FFC002003F00CFC4B2003F00C
:1022000009FC002003F006FC5D2003F003FC002025
:1022100003F000FC742003F0FDFB002003F0FAFB48
:10222000842003F0F7FB002003F0F4FB932003F07D
:10223000F1FB002003F0EEFBA22003F0EBFB0020FB
:1022400003F0E8FBB32003F0E5FB002003F0E2FB22
:10225000BE2003F0DFFB002003F0DCFBC42003F012
:10226000D9FB002003F0D6FBCD2003F0D3FB0020E8
:1022700003F0D0FBD32003F0CDFB002003F0CAFB1A
:10228000DC2003F0C7FB002003F0C4FBF32003F0C5
:10229000C1FB002003F0BEFBE62003F0CDFB1120C4
:1022A00003F0B8FB002003F0B5FB342003F0B2FBD1
:1022B000002003F0AFFB562003F0ACFB002003F03E
:1022C000A9FB762003F0A6FB002003F0A3FB7720F8
:1022D00003F0A0FB002003F09DFB662003F09AFBB7
:1022E000002003F097FB882003F094FB002003F00C
:1022F00091FB992003F08EFB002003F08BFBBB20A9
:1023000003F088FB002003F085FB992003F082FB9B
:10231000002003F07FFB662003F07CFB002003F02D
:1023200079FB552003F076FB002003F073FB55206A
:1023300003F070FB002003F06DFB452003F06AFB07
:10234000002003F067FB432003F064FB002003F050
:1023500061FB442003F05EFB002003F05BFBE72001
:1023600003F06AFB322003F055FB002003F052FB20
:10237000552003F04FFB002003F04CFB762003F0C8
:1023800049FB002003F046FB662003F043FB0020DE
:1023900003F040FB672003F03DFB002003F03AFB15
:1023A000672003F037FB002003F034FB872003F0A5
:1023B00031FB002003F02EFB992003F02BFB0020C3
:1023C00003F028FBBB2003F025FB002003F022FBD9
:1023D000992003F01FFB002003F01CFB772003F083
:1023E00019FB002003F016FB442003F013FB002030
:1023F00003F010FB562003F00DFB002003F00AFB56
:10240000232003F007FB002003F004FB332003F03C
:1024100001FB002003F0FEFA452003F0FBFA002048
:1024200003F0F8FAE82003F007FB002003F0F2FACB
:10243000002003F0EFFA992003F0ECFA002003F0FB
:10244000E9FA872003F0E6FA002003F0E3FA882097
:1024500003F0E0FA002003F0DDFA772003F0DAFA67
:10246000002003F0D7FA662003F0D4FA002003F02E
:10247000D1FA882003F0CEFA002003F0CBFAAA208C
:1024800003F0C8FA002003F0C5FABB2003F0C2FA3B
:10249000002003F0BFFA992003F0BCFA002003F0FB
:1024A000B9FA662003F0B6FA002003F0B3FA55201B
:1024B00003F0B0FA002003F0ADFA552003F0AAFAB9
:1024C000002003F0A7FA442003F0A4FA002003F050
:1024D000A1FA442003F09EFA002003F09BFA552055
:1024E00003F098FA002003F095FAE92003F0A4FA2B
:1024F000AA2003F08FFA002003F08CFA002003F0EA
:1025000089FA002003F086FA002003F095FAAA2049
:1025100003F080FACF2003F08FFA002003F07AFA5C
:10252000002003F077FA002003F074FA002003F093
:1025300071FA002003F06EFA002003F06BFA00201D
:1025400003F068FA002003F065FA002003F062FA55
:10255000002003F05FFA002003F05CFA002003F093
:1025600059FA002003F056FA002003F053FA002035
:1025700003F050FA002003F04DFA002003F04AFA6D
:10258000F02003F059FA002003F044FA502003F041
:1025900041FA002003F03EFA002003F03BFA00204D
:1025A00003F038FAF32003F047FA002003F032FA80
:1025B000F92003F041FA062003F02CFA102003F072
:1025C00029FA292003F026FA002003F023FA3A2002
:1025D00003F032FA552003F01DFA112003F02CFA13
:1025E000642004F06BFF292003F026FA352003F065
:1025F00023FA002003F00EFA512003F01DFAFF2009
:1026000003F008FA532003F017FA2C2003F002FA23
:10261000552003F011FA822003F0FCF92C2003F07E
:102620000BFA02F066BBFE48808845F210518842E2
:102630007ED155214FF4704003F018FAAA214FF2D1
:10264000010003F013FA52214FF2020003F00EFAD8
:1026500008214FF2030003F009FA01214FF20400B0
:1026600003F004FA0D214FF4304003F0FFF90D217F
:102670004BF2010003F0FAF90D214BF2020003F0D6
:10268000F5F934214FF4364003F0F0F934214BF2E0
:10269000016003F0EBF934214BF2026003F0E6F93C
:1026A0000D214FF4314003F0E1F90D214BF20110FF
:1026B00003F0DCF90D214BF2021003F0D7F93421BD
:1026C0004FF4374003F0D2F934214BF2017003F09C
:1026D000CDF934214BF2027003F0C8F900214FF418
:1026E000324003F0C3F900214BF2012003F0BEF9A0
:1026F00000214BF2022003F0B9F924214FF43840B5
:1027000003F0B4F924214BF6010003F0AFF92421C2
:102710004BF6020003F0AAF901214FF43F4003F009
:10272000A5F90F214FF4334003F0A0F90F2100E089
:10273000FEE34BF2013003F099F90F214BF2023026
:1027400003F094F934214FF4394003F08FF9342128
:102750004BF6011003F08AF934214BF6021003F016
:1027600085F908214FF4354003F080F908214BF238
:10277000015003F07BF908214BF2025003F076F987
:1027800003214FF4424003F071F924214FF43A4001
:1027900003F06CF924214BF6012003F067F92421A2
:1027A0004BF6022003F062F900214FF43C4003F0A5
:1027B0005DF978214BF6014003F058F900214BF602
:1027C000024003F053F900214FF43D4003F04EF96D
:1027D00078214BF6015003F049F900214BF60250E5
:1027E00003F044F900214FF43E4003F03FF9642127
:1027F0004BF6016003F03AF900214FF4514003F029
:1028000035F933214DF2011003F030F900214DF27A
:10281000021003F02BF934214DF2031003F026F9D6
:1028200000214DF2041003F021F93A214DF2051078
:1028300003F01CF900214DF2061003F017F94A21AC
:102840004DF2071003F012F900214DF2081003F0C9
:102850000DF95C214DF2091003F008F900214DF249
:102860000A1003F003F981214DF20B1003F0FEF87A
:1028700000214DF20C1003F0F9F8A6214DF20D10D5
:1028800003F0F4F800214DF20E1003F0EFF8E5210B
:102890004DF20F1003F0EAF801214DF2101003F091
:1028A000E5F813214DF2111003F0E0F801214DF28B
:1028B000121003F0DBF854214DF2131003F0D6F898
:1028C00001214DF2141003F0D1F882214DF21510C0
:1028D00003F0CCF801214DF2161003F0C7F8CA211D
:1028E0004DF2171003F0C2F802214DF2181003F058
:1028F000BDF800214DF2191003F0B8F802214DF295
:102900001A1003F0B3F801214DF21B1003F0AEF8DA
:1029100002214DF21C1003F0A9F834214DF21D10D4
:1029200003F0A4F802214DF21E1003F09FF8672176
:102930004DF21F1003F09AF802214DF2201003F01F
:1029400095F884214DF2211003F090F802214DF208
:10295000221003F08BF8A4214DF2231003F086F827
:1029600002214DF2241003F081F8B7214DF2251019
:1029700003F07CF802214DF2261003F077F8CF2106
:102980004DF2271003F072F802214DF2281003F0E7
:102990006DF8DE214DF2291003F068F802214DF2A6
:1029A0002A1003F063F8F2214DF22B1003F05EF8C9
:1029B00002214DF22C1003F059F8FE214DF22D109A
:1029C00003F054F803214DF22E1003F04FF81021BC
:1029D0004DF22F1003F04AF803214DF2301003F0AE
:1029E00045F833214DF2311003F040F803214DF248
:1029F000321003F03BF86D214DF2331003F036F83E
:102A000000214FF4524003F031F833214DF2012000
:102A100003F02CF800214DF2022003F027F801E02A
:102A2000A003002034214DF2032003F01FF8002101
:102A30004DF2042003F01AF83A214DF2052003F07C
:102A400015F800214DF2062003F010F84A214DF24E
:102A5000072003F00BF800214DF2082003F006F8E0
:102A60005C214DF2092003F001F800214DF20A200B
:102A700002F0FCFF81214DF20B2002F0F7FF002154
:102A80004DF20C2002F0F2FFA6214DF20D2002F0D3
:102A9000EDFF00214DF20E2002F0E8FFE5214DF29E
:102AA0000F2002F0E3FF01214DF2102002F0DEFFC3
:102AB00013214DF2112002F0D9FF01214DF2122015
:102AC00002F0D4FF54214DF2132002F0CFFF012178
:102AD0004DF2142002F0CAFF82214DF2152002F0BF
:102AE000C5FF01214DF2162002F0C0FFCA214DF2B0
:102AF000172002F0BBFF02214DF2182002F0B6FFB2
:102B000000214DF2192002F0B1FF02214DF21A20EE
:102B100002F0ACFF01214DF21B2002F0A7FF0221C1
:102B20004DF21C2002F0A2FF34214DF21D2002F0D4
:102B30009DFF02214DF21E2002F098FF67214DF209
:102B40001F2002F093FF02214DF2202002F08EFFA1
:102B500084214DF2212002F089FF02214DF2222032
:102B600002F084FFA4214DF2232002F07FFF022116
:102B70004DF2242002F07AFFB7214DF2252002F019
:102B800075FF02214DF2262002F070FFCF214DF299
:102B9000272002F06BFF02214DF2282002F066FF91
:102BA000DE214DF2292002F061FF02214DF22A20A0
:102BB00002F05CFFF2214DF22B2002F057FF0221C0
:102BC0004DF22C2002F052FFFE214DF22D2002F09A
:102BD0004DFF03214DF22E2002F048FF10214DF24F
:102BE0002F2002F043FF03214DF2302002F03EFF80
:102BF00033214DF2312002F039FF03214DF2322012
:102C000002F034FF6D214DF2332002F02FFF00213E
:102C10004FF4534002F02AFF33214DF2013002F00D
:102C200025FF00214DF2023002F020FF34214DF249
:102C3000033002F01BFF00214DF2043002F016FFBA
:102C40003A214DF2053002F011FF00214DF206301D
:102C500002F00CFF4A214DF2073002F007FF00217D
:102C60004DF2083002F002FF5C214DF2093002F013
:102C7000FDFE00214DF20A3002F0F8FE81214DF2F6
:102C80000B3002F0F3FE00214DF20C3002F0EEFEAC
:102C9000A6214DF20D3002F0E9FE00214DF20E307A
:102CA00002F0E4FEE5214DF20F3002F0DFFE0121DB
:102CB0004DF2103002F0DAFE13214DF2113002F025
:102CC000D5FE01214DF2123002F0D0FE54214DF21A
:102CD000133002F0CBFE01214DF2143002F0C6FE9B
:102CE00082214DF2153002F0C1FE01214DF2163065
:102CF00002F0BCFECA214DF2173002F0B7FE0221ED
:102D00004DF2183002F0B2FE00214DF2193002F0FF
:102D1000ADFE02214DF21A3002F0A8FE01214DF263
:102D20001B3002F0A3FE02214DF21C3002F09EFE89
:102D300034214DF21D3002F099FE02214DF21E3079
:102D400002F094FE67214DF21F3002F08FFE022147
:102D50004DF2203002F08AFE84214DF2213002F043
:102D600085FE02214DF2223002F080FEA4214DF2B8
:102D7000233002F07BFE02214DF2243002F076FE79
:102D8000B7214DF2253002F071FE02214DF22630BE
:102D900002F06CFECF214DF2273002F067FE0221D7
:102DA0004DF2283002F062FEDE214DF2293002F0B1
:102DB0005DFE02214DF22A3002F058FEF2214DF262
:102DC0002B3002F053FE02214DF22C3002F04EFE69
:102DD000FE214DF22D3002F049FE03214DF22E303E
:102DE00002F044FE10214DF22F3002F03FFE03218D
:102DF0004DF2303002F03AFE33214DF2313002F024
:102E000035FE03214DF2323002F030FE6D214DF2DD
:102E1000333002F02BFE00214FF4544002F026FE26
:102E200033214DF2014002F021FE00214DF202401B
:102E300002F01CFE34214DF2034002F017FE002187
:102E40004DF2044002F012FE3A214DF2054002F02C
:102E50000DFE00214DF2064002F008FE4A214DF21F
:102E6000074002F003FE00214DF2084002F0FEFD93
:102E70005C214DF2094002F0F9FD00214DF20A40BB
:102E800002F0F4FD81214DF20B4002F0EFFD002134
:102E90004DF20C4002F0EAFDA6214DF20D4002F089
:102EA000E5FD00214DF20E4002F0E0FDE5214DF27E
:102EB0000F4002F0DBFD01214DF2104002F0D6FD83
:102EC00013214DF2114002F0D1FD01214DF21240CB
:102ED00002F0CCFD54214DF2134002F0C7FD012158
:102EE0004DF2144002F0C2FD82214DF2154002F075
:102EF000BDFD01214DF2164002F0B8FDCA214DF290
:102F0000174002F0B3FD02214DF2184002F0AEFD71
:102F100000214DF2194002F0A9FD02214DF21A40A4
:102F200002F0A4FD01214DF21B4002F09FFD00E0E4
:102F300004E302214DF21C4002F098FD34214DF2D1
:102F40001D4002F093FD02214DF21E4002F08EFD65
:102F500067214DF21F4002F089FD02214DF2204011
:102F600002F084FD84214DF2214002F07FFD022118
:102F70004DF2224002F07AFDA4214DF2234002F0EE
:102F800075FD02214DF2244002F070FDB7214DF293
:102F9000254002F06BFD02214DF2264002F066FD55
:102FA000CF214DF2274002F061FD02214DF2284071
:102FB00002F05CFDDE214DF2294002F057FD0221B6
:102FC0004DF22A4002F052FDF2214DF22B4002F068
:102FD0004DFD02214DF22C4002F048FDFE214DF244
:102FE0002D4002F043FD03214DF22E4002F03EFD44
:102FF00010214DF22F4002F039FD03214DF23040F7
:1030000002F034FD33214DF2314002F02FFD032157
:103010004DF2324002F02AFD6D214DF2334002F0B4
:1030200025FD00214FF4554002F020FD33214DF2E3
:10303000015002F01BFD00214DF2025002F016FD7E
:1030400034214DF2035002F011FD00214DF20450E5
:1030500002F00CFD3A214DF2055002F007FD00216F
:103060004DF2065002F002FD4A214DF2075002F0E7
:10307000FDFC00214DF2085002F0F8FC5C214DF2FD
:10308000095002F0F3FC00214DF20A5002F0EEFC70
:1030900081214DF20B5002F0E9FC00214DF20C5061
:1030A00002F0E4FCA6214DF20D5002F0DFFC0021FD
:1030B0004DF20E5002F0DAFCE5214DF20F5002F015
:1030C000D5FC01214DF2105002F0D0FC13214DF23D
:1030D000115002F0CBFC01214DF2125002F0C6FC5F
:1030E00054214DF2135002F0C1FC01214DF2145055
:1030F00002F0BCFC82214DF2155002F0B7FC012118
:103100004DF2165002F0B2FCCA214DF2175002F0F7
:10311000ADFC02214DF2185002F0A8FC00214DF246
:10312000195002F0A3FC02214DF21A5002F09EFC4D
:1031300001214DF21B5002F099FC02214DF21C506E
:1031400002F094FC34214DF21D5002F08FFC02215C
:103150004DF21E5002F08AFC67214DF21F5002F022
:1031600085FC02214DF2205002F080FC84214DF2BA
:10317000215002F07BFC02214DF2225002F076FC3D
:10318000A4214DF2235002F071FC02214DF2245093
:1031900002F06CFCB7214DF2255002F067FC0221D1
:1031A0004DF2265002F062FCCF214DF2275002F082
:1031B0005DFC02214DF2285002F058FCDE214DF258
:1031C000295002F053FC02214DF22A5002F04EFC2D
:1031D000F2214DF22B5002F049FC02214DF22C500D
:1031E00002F044FCFE214DF22D5002F03FFC032181
:1031F0004DF22E5002F03AFC10214DF22F5002F009
:1032000035FC03214DF2305002F030FC33214DF2F9
:10321000315002F02BFC03214DF2325002F026FC1B
:103220006D214DF2335002F021FC00214FF4564045
:1032300002F01CFC33214DF2016002F017FC00216A
:103240004DF2026002F012FC34214DF2036002F0F4
:103250000DFC00214DF2046002F008FC3A214DF211
:10326000056002F003FC00214DF2066002F0FEFB57
:103270004A214DF2076002F0F9FB00214DF208608F
:1032800002F0F4FB5C214DF2096002F0EFFB00213B
:103290004DF20A6002F0EAFB81214DF20B6002F070
:1032A000E5FB00214DF20C6002F0E0FBA6214DF29F
:1032B0000D6002F0DBFB00214DF20E6002F0D6FB48
:1032C000E5214DF20F6002F0D1FB01214DF21060BB
:1032D00002F0CCFB13214DF2116002F0C7FB01217B
:1032E0004DF2126002F0C2FB54214DF2136002F065
:1032F000BDFB01214DF2146002F0B8FB82214DF2BA
:10330000156002F0B3FB01214DF2166002F0AEFB36
:10331000CA214DF2176002F0A9FB02214DF218609C
:1033200002F0A4FB00214DF2196002F09FFB022184
:103330004DF21A6002F09AFB01214DF21B6002F07F
:1033400095FB02214DF21C6002F090FB34214DF2FE
:103350001D6002F08BFB02214DF21E6002F086FB25
:1033600067214DF21F6002F081FB02214DF22060C7
:1033700002F07CFB84214DF2216002F077FB0221F8
:103380004DF2226002F072FBA4214DF2236002F0A4
:103390006DFB02214DF2246002F068FBB7214DF273
:1033A000256002F063FB02214DF2266002F05EFB15
:1033B000CF214DF2276002F059FB02214DF2286027
:1033C00002F054FBDE214DF2296002F04FFB022196
:1033D0004DF22A6002F04AFBF2214DF22B6002F01E
:1033E00045FB02214DF22C6002F040FBFE214DF224
:1033F0002D6002F03BFB03214DF22E6002F036FB04
:1034000010214DF22F6002F031FB03214DF23060AC
:1034100002F02CFB33214DF2316002F027FB032137
:103420004DF2326002F022FB6D214DF2336002F06A
:103430001DFB55214FF4704002F018FBAA214FF2FA
:10344000010002F013FB52214FF2020002F00EFBCA
:1034500008214FF2030002F009FB00214FF20400A3
:1034600002F004FBCC214FF4314002F0FFFA0021BE
:103470004BF2011002F0FAFA05214FF4364002F047
:10348000F5FA70214FF4374002F0F0FA70214BF258
:10349000017002F0EBFA01214FF4384002F0E6FA35
:1034A00003214BF6010002F0E1FA03214BF6020082
:1034B00002F0DCFA03214BF6030002F0D7FA0221F6
:1034C0004FF43C4002F0D2FA00214BF6014002F0EA
:1034D000CDFA00214BF6024002F0C8FAD0214FF499
:1034E000494002F0C3FA02214CF6011002F0BEFA84
:1034F00050214CF6021002F0B9FA50214CF603109C
:1035000002F0B4FA50214CF6041002F0AFFA002198
:103510004FF4545002F0AAFA55214FF4685002F0CB
:10352000A5FA4FF4885002F087FA782003F0E4FF00
:103530004FF4245002F080FA01F0DBBBFE48808893
:1035400049F2253188427DD147F6F001E52002F0AD
:103550008DFA4FF48071012002F088FA4FF4E06197
:10356000022002F083FA41F23001032002F07EFAD9
:103570000021042002F07AFA40F20221082002F031
:1035800075FA0021092002F071FA00210A2002F0E8
:103590006DFA00210C2002F069FA00210D2002F0E2
:1035A00065FA00210F2002F061FA0021102002F0DC
:1035B0005DFA0721112002F059FA0021122002F0D1
:1035C00055FA0021132002F051FA0021072002F0E1
:1035D0004DFA41F29061102002F048FA40F22721A2
:1035E000112002F043FA9D21122002F03FFA4FF41D
:1035F000C851132002F03AFA2521292002F036FAA8
:103600000D212B2002F032FA0721302002F02EFA91
:1036100040F20331312002F029FA0321322002F076
:1036200025FA40F20621352002F020FA0821362042
:1036300002F01CFA40F20641372002F017FA4FF46C
:10364000417100E058E0382002F010FA07213920DB
:1036500002F00CFA40F202613C2002F007FA082165
:103660003D2002F003FA0021502002F0FFF9EF2183
:10367000512002F0FBF90021522002F0F7F940F24C
:103680003F11532002F0F2F94FF42741602002F07D
:10369000EDF90121612002F0E9F900216A2002F030
:1036A000E5F90021802002F0E1F90021812002F0FB
:1036B000DDF90021822002F0D9F90021832002F0F7
:1036C000D5F90021842002F0D1F90021852002F0F3
:1036D000CDF91021902002F0C9F94FF4C061922079
:1036E00002F0C4F940F23311072002F0BFF92221A1
:1036F000002002F0BBF91FE78F48808849F228318B
:1037000088427DD141F28F01EC2002F0AFF941F205
:103710003421EF2002F0AAF94FF48071012002F069
:10372000A5F94FF4E061022002F0A0F941F2300166
:10373000032002F09BF90021042002F097F940F2E7
:103740000221082002F092F90021092002F08EF9EE
:1037500000210A2002F08AF901210C2002F086F9EA
:1037600000210D2002F082F900210F2002F07EF9E5
:103770000021102002F07AF90721112002F076F9D9
:103780000021122002F072F90021132002F06EF9DC
:103790000121072002F06AF9322003F08FFE41F286
:1037A0009041102002F062F940F22721112002F02E
:1037B0005DF9322003F082FE8A21122002F056F9D0
:1037C000322003F07BFE4FF4D051132002F04EF96B
:1037D0000621292002F04AF90D212B2002F046F99A
:1037E000322003F06BFE0021202002F03FF900217F
:1037F000212002F03BF9322003F060FE002100E0BE
:1038000075E0302002F032F940F20461312002F01C
:103810002DF940F20531322002F028F9002135203F
:1038200002F024F940F60941362002F01FF94FF466
:103830000171372002F01AF940F20131382002F00C
:1038400015F940F20771392002F010F900213C20EF
:1038500002F00CF940F60A213D2002F007F932206F
:1038600003F02CFE0021502002F000F9EF2151203E
:1038700002F0FCF80021522002F0F8F840F23F116B
:10388000532002F0F3F84FF42741602002F0EEF8E5
:103890000121612002F0EAF800216A2002F0E6F836
:1038A0000021802002F0E2F80021812002F0DEF801
:1038B0000021822002F0DAF80021832002F0D6F8FD
:1038C0000021842002F0D2F80021852002F0CEF8F9
:1038D0001021902002F0CAF84FF4C061922002F04B
:1038E000C5F840F23311072002F0C0F824E6124870
:1038F000808849F2203188427ED10021084602F0BA
:10390000B5F84FF48071012002F0B0F84FF4E06197
:10391000022002F0ABF841F23001032002F0A6F8D9
:103920000021042002F0A2F840F20221082002F057
:103930009DF80021092001E0A003002002F096F884
:1039400000210A2002F092F801210C2002F08EF8EA
:1039500000210D2002F08AF800210F2002F086F8E5
:10396000322003F0ABFD40F20111072002F07EF897
:10397000322003F0A3FD4FF48651102002F076F8B8
:103980000721112002F072F84FF48871122002F022
:103990006DF84FF43061132002F068F800212920FF
:1039A00002F064F844F210012B2002F05FF80021CD
:1039B000502002F05BF8EF21512002F057F800216F
:1039C000522002F053F840F23F11532002F04EF81B
:1039D0004FF41C51602002F049F80121612002F0EF
:1039E00045F800216A2002F041F80021802002F011
:1039F0003DF80021812000E030E002F037F800219E
:103A0000822002F033F80021832002F02FF80021F9
:103A1000842002F02BF80021852002F027F81021E5
:103A2000902002F023F80021922002F01FF80121DB
:103A3000932002F01BF84FF48871952002F016F8DD
:103A40000021972002F012F80021982002F00EF8D1
:103A500040F27311072002F009F86DE5FE488088F6
:103A600049F2313188427DD141F21401E72001F061
:103A7000FDFF4FF48071012001F0F8FF4FF4007159
:103A8000022001F0F3FF41F23801032001F0EEFFC4
:103A900040F20221082001F0E9FF0021092001F095
:103AA000E5FF00210A2001F0E1FF00210C2001F0D8
:103AB000DDFF00210D2001F0D9FF00210F2001F0D2
:103AC000D5FF0021102001F0D1FF0721112001F0C6
:103AD000CDFF0021122001F0C9FF0021132001F0C9
:103AE000C5FFC82003F0EAFC41F29061102001F00C
:103AF000BDFF40F22721112001F0B8FF322003F072
:103B0000DDFC0C21122001F0B1FF322003F0D6FCC5
:103B10004FF40061132001F0A9FF1121292001F0C9
:103B2000A5FF0B212B2001F0A1FF322003F0C6FCE2
:103B30000021202001F09AFF40F23F11212001F0E6
:103B400095FF0021302001F091FF4FF48371312067
:103B500001F08CFF0021322001F088FF4FF4017149
:103B6000352000E064E001F081FF41F20A61362077
:103B700001F07CFF40F20771372001F077FF4FF42E
:103B80008371382001F072FF40F20771392001F093
:103B90006DFF40F202413C2001F068FF40F60F410A
:103BA0003D2001F063FF0021502001F05FFFEF2175
:103BB000512001F05BFF0021522001F057FF40F23D
:103BC0003F11532001F052FF4FF41C51602001F0CF
:103BD0004DFF0121612001F049FF00216A2001F021
:103BE00045FF0021802001F041FF0021812001F0EC
:103BF0003DFF0021822001F039FF0021832001F0E8
:103C000035FF0021842001F031FF0021852001F0E3
:103C10002DFF1021902001F029FF4FF4C061922068
:103C200001F024FF40F23311072001F01FFF83E46D
:103C30008948808845F2084188427DD14FF48071DF
:103C4000012001F013FF4FF4E061022001F00EFFAC
:103C500041F23001032001F009FF0021042001F0AE
:103C600005FF40F20721082001F000FF0021092094
:103C700001F0FCFE00210A2001F0F8FE00210C20DA
:103C800001F0F4FE00210D2001F0F0FE00210F20D4
:103C900001F0ECFE142003F011FC41F2B0611020A1
:103CA00001F0E4FE0121112001F0E0FE01211720C6
:103CB00001F0DCFE4FF49C71122001F0D7FE4FF4AE
:103CC0000061132001F0D2FE0921292001F0CEFE6F
:103CD00009212A2001F0CAFE0021A42001F0C6FE1D
:103CE0000021502001F0C2FEEF21512001F0BEFE64
:103CF0000021522001F0BAFE40F23F11532001F0A2
:103D0000B5FE4FF41C51602001F0B0FE012161208E
:103D100001F0ACFE00216A2001F0A8FE0021802005
:103D200001F0A4FE0021812001F0A0FE00218220EC
:103D300001F09CFE002100E024E0832001F096FECB
:103D40000021842001F092FE0021852001F08EFEEA
:103D50001321902001F08AFE0021922001F086FEBE
:103D60000321932001F082FE4FF48871952001F029
:103D70007DFE40F27311072001F078FE322003F03F
:103D80009DFBB8E43448808841F2055188427DD1DA
:103D90000021072001F06AFE322003F08FFB4FF470
:103DA0008E71122001F062FE0121A42001F05EFE5E
:103DB0000F21082001F05AFE08210A2001F056FECA
:103DC00008210D2001F052FE40F20771302001F071
:103DD0004DFE0721312001F049FE40F203613220FF
:103DE00001F044FE4FF4E061332001F03FFE40F269
:103DF0000221342001F03AFE0221352001F036FE86
:103E000041F60F71362001F031FE40F20771372084
:103E100001F02CFE0021382001F028FE002139207D
:103E200001F024FE40F207713A2001F01FFE00214C
:103E30003B2001F01BFE07213C2001F017FE002172
:103E40003D2001F013FE322003F038FB0121072052
:103E500001F00CFE012101E0A0030020172001F079
:103E600005FE322003F02AFB4FF4BD51102001F073
:103E7000FDFD40F21721112001F0F8FD4FF48F7184
:103E8000122001F0F3FD4FF4706100E098E0132080
:103E900001F0ECFD00212A2001F0E8FD0A21292093
:103EA00001F0E4FD4FF49F71122001F0DFFD0021CD
:103EB000502001F0DBFDEF21512001F0D7FD002162
:103EC000522001F0D3FD40F23F11532001F0CEFD0E
:103ED0004FF41C51602001F0C9FD0121612001F067
:103EE000C5FD00216A2001F0C1FD0021802001F004
:103EF000BDFD0021812001F0B9FD0021822001F0EB
:103F0000B5FD0021832001F0B1FD0021842001F0E6
:103F1000ADFD0021852001F0A9FD1321902001F0C5
:103F2000A5FD4FF44071922001F0A0FD05219320E2
:103F300001F09CFD0021952001F098FD00219720C3
:103F400001F094FD0021982001F090FD4FF4807164
:103F5000012001F08BFD4FF4E061022001F086FDAD
:103F600041F23801032001F081FD0021042001F01D
:103F70007DFD00210C2001F079FD00210F2001F0D2
:103F800075FD0021202001F071FD0021212001F0AC
:103F90006DFD2121072001F069FD142003F08EFA48
:103FA0006121072001F062FD142003F087FA40F23E
:103FB0007311072001F05AFD142003F07FFA95E4F5
:103FC000FE4880884BF2055188427CD1002108468A
:103FD00001F04CFD0021084601F048FD0021084693
:103FE00001F044FD0021084601F040FD0121A4201C
:103FF00001F03CFD142003F061FA4FF41C516020E5
:1040000001F034FD40F20221082001F02FFD4FF4B1
:104010000571302001F02AFD43F21571312001F0C5
:1040200025FD40F20461322001F020FD40F61661CA
:10403000332001F01BFD42F21121342001F016FD66
:104040004FF4A851352001F011FD48F207513620F8
:1040500001F00CFD41F20741372001F007FD41F26C
:104060000341382001F002FD2021392001F0FEFC3F
:104070001A21902001F0FAFC0021102001F0F6FC3A
:104080000721112001F0F2FC0021122001F0EEFCCA
:104090000021132001F0EAFC142003F00FFA4FF482
:1040A000E661102001F0E2FC40F23711112001F02E
:1040B000DDFC142003F002FA4FF4DC71122001F051
:1040C000D5FC142000E085E003F0F8F94FF47061AE
:1040D000132001F0CBFC80212A2001F0C7FC4821ED
:1040E000292001F0C3FC142003F0E8F94FF480719B
:1040F000012001F0BBFC4FF4E061022001F0B6FCAE
:1041000041F23801032001F0B1FC40F20221082005
:1041100001F0ACFC00210A2001F0A8FC00210C20D9
:1041200001F0A4FC00210D2001F0A0FC30210E20A4
:1041300001F09CFC0021502001F098FCEF2151205F
:1041400001F094FC0021522001F090FC40F23F115C
:10415000532001F08BFC4FF41C51602001F086FCD1
:104160000121612001F082FC00216A2001F07EFC27
:104170001121902001F07AFC4FF4C061922001F0EF
:1041800075FC40F20241932001F070FC0221942062
:1041900001F06CFC142003F091F90121072001F0DB
:1041A00065FC142003F08AF96121072001F05EFC10
:1041B00040F27311072001F059FC0021202001F08A
:1041C00055FC0021212001F051FC2221002001F0AA
:1041D0004DFC42E4794880884CF2055188427CD1FC
:1041E0000021084601F042FC0021084601F03EFC97
:1041F000142003F063F90021084601F037FC002188
:10420000084601F033FC0021084601F02FFC002194
:10421000084601F02BFC0121A42001F027FC14200A
:1042200003F04CF94FF41C51602001F01FFC40F6E4
:104230000601082001F01AFC40F20371302001F061
:1042400015FC0121312001F011FC0421322001F084
:104250000DFC4FF48171332001F008FC4FF44071E4
:10426000342001F003FC40F20311352001F0FEFB85
:104270001F21362001F0FAFB40F20371372001F0D4
:10428000F5FB0121382001F0F1FB0421392001F078
:10429000EDFB1521902001F0E9FB4FF48261102025
:1042A00001F0E4FB40F24721112001F0DFFB4FF465
:1042B000DE71122001F0DAFB4FF46061132001F08F
:1042C000D5FB782003F0FAF84FF48071012001F05B
:1042D000CDFB4FF40071022000E052E001F0C6FB7C
:1042E00041F23001032001F0C1FB08210A2001F056
:1042F000BDFB00210C2001F0B9FB20210E2001F0B4
:10430000B5FB00210F2001F0B1FB0021202001F0BE
:10431000ADFB0021212001F0A9FB3D212A2001F065
:10432000A5FB142003F0CAF82D21292001F09EFBE3
:104330000021502001F09AFB4DF2EF01512001F0D5
:1043400095FB0021522001F091FB40F23F115320D8
:1043500001F08CFB0021612001F088FB00216A2024
:1043600001F084FB4FF44071922001F07FFB0521A6
:10437000932001F07BFB4FF48071072001F076FB66
:1043800055E40E48808848F6891188427ED1012183
:10439000002001F06BFB4AF6A401032001F066FB4C
:1043A00000210C2001F062FB40F60C010D2001F011
:1043B0005DFB4FF42C510E2002E00000A003002012
:1043C00001F054FBB0211E2001F050FB42F63F31BA
:1043D000012001F04BFB4FF4C061022001F046FBCD
:1043E0000021102001F042FB46F27801112001F07B
:1043F0003DFB0021052001F039FB0021062001F0E2
:1044000035FB4EF61C71162001F030FB03211720FE
:1044100001F02CFB40F23321072001F027FB0021A3
:104420000B2001F023FB00210F2001F01FFB0021D6
:10443000412001F01BFB0021422001F017FB00216D
:10444000482001F013FB40F23F11492001F00EFB20
:1044500000214A2001F00AFB00214B2001F006FB5D
:104460004FF46F41442001F001FB0021452001F091
:10447000FDFA40F23F11462001F0F8FA40F20771D0
:10448000302001F0F3FA4FF4017100E040E03120F8
:1044900001F0ECFA4FF40171322001F0E7FA40F23A
:1044A0000251332001F0E2FA40F20751342001F0CA
:1044B000DDFA4FF40171352001F0D8FA4FF40171A3
:1044C000362001F0D3FA40F20251372001F0CEFA43
:1044D00040F202313A2001F0C9FA40F202313B20A9
:1044E00001F0C4FA0021232001F0C0FA00212420A9
:1044F00001F0BCFA4FF40041252001F0B7FA002189
:104500004F2001F0B3FA00214E2001F0AFFAF0E3A2
:10451000FE48808844F2315188427DD1012100203B
:1045200001F0A4FA0A2002F0C9FF41F2286110202C
:1045300001F09CFA0E21122001F098FA40F6392180
:10454000132001F093FA0A2002F0B8FF4021112055
:1045500001F08CFA5021152001F088FA0A2002F0AF
:10456000ADFF1E21122001F081FA0A2002F0A6FF01
:104570004FF4B151102001F079FA42F6392113209D
:1045800001F074FA0A2002F099FF4FF480710120C3
:1045900001F06CFA4FF44071022001F067FA41F229
:1045A0003801032001F062FA40F20221082001F0F4
:1045B0005DFA08210A2001F059FA0021302001F0AB
:1045C00055FA40F20241312001F050FA4FF4837164
:1045D000322001F04BFA40F20351332001F046FA49
:1045E0004FF48271342001F041FA40F2013135205C
:1045F00001F03CFA40F20771362001F037FA40F240
:104600000531372001F032FA4FF40271382001F001
:104610002DFA40F60B7100E03CE0392001F026FA5B
:104620000221412001F022FA4FF41C51602001F0D8
:104630001DFA0121612001F019FA4FF40471902054
:1046400001F014FA4FF48571922001F00FFA042161
:10465000932001F00BFA4FF48071A02001F006FACC
:104660000121072001F002FA2121072001F0FEF9C3
:104670002321072001F0FAF93321072001F0F6F990
:1046800040F23311072001F0F1F90021A02001F0E0
:10469000EDF92EE39D48808844F2355188427CD163
:1046A0003021152001F0E2F910219A2001F0DEF905
:1046B0002021112001F0DAF943F22841102001F005
:1046C000D5F90221122001F0D1F941F2380113206D
:1046D00001F0CCF9282002F0F1FE1221084601F089
:1046E000C5F9282002F0EAFE43F22041102001F033
:1046F000BDF943F23801132001F0B8F9462002F069
:10470000DDFE0021302001F0B1F940F202413120FC
:1047100001F0ACF940F20731322001F0A7F94FF473
:104720004171332001F0A2F90421342001F09EF9F7
:1047300040F20141352001F099F940F2077136202D
:1047400001F094F940F20531372001F08FF94FF470
:10475000C261382001F08AF94FF4C261392001F0BA
:1047600085F94FF48071012001F080F94FF4407118
:10477000022001F07BF941F23001032001F076F9CB
:1047800040F60801082001F071F908210A2001F023
:104790006DF94FF41C51602000E033E001F066F940
:1047A0000121612001F062F94FF49F71902001F026
:1047B0005DF94FF48071922001F058F94FF4807147
:1047C000932001F053F94FF44051A02001F04EF92D
:1047D0001021A32001F04AF90121072001F046F938
:1047E0002121072001F042F92321072001F03EF9A1
:1047F0003321072001F03AF940F23311072001F08C
:1048000035F976E24148808841F663118842F8D153
:10481000E22001F011F94FF480703D490861400039
:1048200048611D203B490860802039494861086182
:10483000800008614010086140004861022035494D
:10484000086080203249486108618000086140109A
:1048500008614000486104202E49086080202C49EE
:104860004861086180000861642002F045FEE02094
:1048700001F0E2F84FF4807025490861400048617A
:104880000120244908608020214948610861800096
:1048900008610A2002F012FEE02001F0CDF84FF48A
:1048A00080701B4908614000486103201949086075
:1048B0008020174948610861800008610C2002F0DF
:1048C000FDFD012001F0B8F80A2002F0F7FDE62016
:1048D00001F0B2F84FF480700D4908614000486162
:1048E0002F200C4908608020094948610861800038
:1048F00008614010086140004861FF2005490860D8
:104900008020034948610861800005E0A003002081
:10491000001001400C0C014008614010086140008B
:104920004861FF20F84908608020F8494861086123
:1049300080000861B02001F07FF84FF48070F349E7
:104940000861400048612020EF4908608020EF495D
:1049500048610861800008614010086140004861BA
:104960000020E94908608020E8494861086180002A
:10497000086140100861400048610320E249086076
:104980008020E249486108618000086140100861A8
:104990004000486140F21F30DB4908608020DB495D
:1049A000486108618000086140100861400048616A
:1049B0000120D54908608020D44948610861800001
:1049C0000861401008614000486140F2DF10CE49A4
:1049D00008608020CD49486108618000086140106E
:1049E0000861400048610020C74908608020C7492D
:1049F0004861086180000861B42001F01DF84FF49F
:104A00008070C2490861400048610420BE490860C6
:104A10008020BE494861086180000861401008613B
:104A20004000486140F21F40B74908608020B74904
:104A300048610861800008614010086140004861D9
:104A40000020B14908608020B049486108618000B9
:104A5000086140100861400048612E20AA490860A2
:104A60008020AA49486108618000086140100861FF
:104A7000400048610020A44908608020A3494861A3
:104A80000861800008614010086140004861002012
:104A90009D49086080209D49486108618000086147
:104AA000401008614000486100209749086080205C
:104AB0009649486108618000086140100861400023
:104AC0004861002090490860802090494861086151
:104AD00080000861B62000F0AFFF4FF480708B4972
:104AE00008614000486102208749086080208749AA
:104AF0004861086180000861401008614000486119
:104B00004FF4037080490860802080494861086143
:104B100080000861401008614000486100207A4927
:104B20000860802079494861086180000861401070
:104B3000086140004861172073490860802073496C
:104B400048610861800008614010086140004861C8
:104B500015206D49086080206C494861086180001B
:104B60000861401008614000486100206649086003
:104B70008020664948610861800008614010086132
:104B80004000486100206049086080205F4948611A
:104B9000086180000861F02000F04EFF4FF4807043
:104BA0005A49086140004861032057490860802045
:104BB00056494861086180000861292000F03CFFE7
:104BC000D02000F039FF4FF4807050490861400058
:104BD000486100204C49086080204C4948610861C8
:104BE00080000861BE2000F027FF4FF48070474925
:104BF000086140004861052043490860802043491E
:104C00004861086180000861401008614000486107
:104C1000FE203D49086080203C49486108618000D1
:104C20000861401008614000486101203649086071
:104C300080203649486108618000086140100861A1
:104C40004000486100203049086080202F494861B9
:104C50000861800008614010086140004861002040
:104C6000294908608020294948610861800008615D
:104C700040100861400048610020234908608020FE
:104C800022494861086180000861B82000F0D4FE24
:104C90004FF480701D4908614000486103201A49A3
:104CA000086080201949486108618000086140104F
:104CB00008614000486101201349086080201349C1
:104CC0004861086180000861BA2000F0B5FE4FF429
:104CD00080700E4908614000486101200A4908605F
:104CE00080200A494861086180000861642000F062
:104CF00055F90020FBF722FF0120054908604FF617
:104D0000FF70FBF799FE10BD0C0C01400010014034
:104D1000A801224210B54FF0883017490860091DDC
:104D20000860002014490C31086088151349086197
:104D300040004861402048611148808848F6891148
:104D4000884202D1022002F0D7FB0B4808300068ED
:104D500084B2402009490861C00008614FF0333037
:104D600005490860091D08604FF6FF7002490C31C3
:104D70000860204610BD0000000C014000100140FA
:104D8000A00300202DE9F04105460E467C4800882E
:104D9000A84203DD7A484088B04202DC0020BDE82A
:104DA000F0813146284600F08FFB7548808849F233
:104DB0004131884211D07248808846F60401884209
:104DC0000BD06F48808845F21031884205D06C487E
:104DD000808841F66311884203D12E2000F02CFE1A
:104DE0000DE06748808845F21051884204D14FF4A5
:104DF000385000F021FE02E0222000F01DFE4FF0AE
:104E0000883060490860091D08604FF6FF705D49F1
:104E10000C31086088155C490861400048614020F9
:104E20004861022006F084F956480830006884B2D0
:104E30004020554908615248808841F663118842F4
:104E400010D14FF40070504908614FF033304D4994
:104E50000860091D08604FF6FF704A490C31086070
:104E600020469CE7402048494861022006F060F94E
:104E700044480830006884B24020434908614048F3
:104E8000808849F2413188420BD03D48808845F204
:104E90001031884205D03A48808845F21051884246
:104EA00013D1402038494861022006F041F93548C5
:104EB000083000681FFA80F8402033490861E7B2E3
:104EC0004FF6FF7000EA07270DE02D48808846F670
:104ED0000401884207D140202B49486108612948D4
:104EE0000830006884B24FF40070274908614FF021
:104EF000333024490860091D08604FF6FF702149CE
:104F00000C3108601E48808849F22531884216D04D
:104F10001B48808844F23551884210D01848808858
:104F2000091F88420BD01648808848F689118842AC
:104F300005D0134880884BF20551884201D12046A4
:104F40002DE70F48808849F2413188420BD00C4848
:104F5000808845F21031884205D00948808845F2A2
:104F60001051884207D1E012C002B91240EA411044
:104F700040EAE82013E72046FBF750FD0FE700006A
:104F8000A0030020000C01400010014010B50446B1
:104F9000204600F051FDFFF7BDFE10BD2DE9F041A8
:104FA0000446BE2000F048FD4FF480702D49086192
:104FB0004000486105202C4908608020294948614B
:104FC0000861800008614010086140004861204687
:104FD00007F0CDFD05464FF06632244B07F0DAFDB1
:104FE000074607F097FD2049086080201D49486169
:104FF000086180000861401008614000486101209C
:1050000019490860802017494861086180000861DB
:105010004010086140004861FF201349086080206B
:105020001049486108618000086140100861400033
:10503000486100200C49086080200A4948610861E5
:105040008000086140100861400048610020064966
:105050000860802003494861086180000861BDE85C
:10506000F0810000001001400C0C01406666044015
:10507000F0B5054600240027FC48807901280BD1B3
:10508000FA48808846F60401884205D0F7488088AF
:1050900041F66311884208D1F4488079F0B9F348A9
:1050A000808841F66311884218D1082D15D2DFE8B7
:1050B00005F00406080A0C0E101206250DE007255F
:1050C0000BE0042509E0052507E0012505E00025A2
:1050D00003E0032501E0022500BF00BFE34880880C
:1050E00049F24131884217D0E048808846F60401F1
:1050F000884211D0DD48808845F2103188420BD0BB
:10510000DA48808845F21051884205D0D748808817
:1051100041F6631188427DD1082D1CD2DFE805F0ED
:105120000406090C0F12151800BF14E044F08004A7
:1051300011E044F040040EE044F0C0040BE044F001
:10514000200408E044F0600405E044F0A00402E01C
:1051500044F0E00400BF00BFC448808845F210510D
:10516000884202D14FF4585700E03627BF48808864
:1051700045F2103188420DD0BC48808845F210516C
:10518000884207D0B948808841F66311884201D02F
:1051900044F00804B548808846F60401884201D1ED
:1051A00044F002042146384600F060FCAF48808895
:1051B00041F6631188421DD004F0200068B1AB486D
:1051C0000088AA494988884214DAA8480688408895
:1051D000A6490880084646800CE0A4480088A349F8
:1051E0004988884206DDA148068840889F49088092
:1051F000084646809D48808845F2105188427DD1FE
:105200009A49488900F018FC4FF480709849086169
:10521000400000E030E148610020964908608020AD
:105220009349486108618000086190494989491C97
:1052300088B200F001FC4FF480708D490861400095
:10524000486100208B4908608020894948610861D5
:105250008000086185494989891C88B200F0ECFB0F
:105260004FF4807082490861400048617F4800889F
:10527000401E00127F49086080207D494861086116
:105280008000086179494989C91C88B200F0D4FBC3
:105290004FF4807076490861400048617348007897
:1052A000401EC0B27349086080207149486108619E
:1052B000800008616D49888900F0BEFB4FF4807062
:1052C0006B4908614000486100206A4908608020FD
:1052D0006749486108618000086164498989491CFF
:1052E00088B200F0A9FB4FF480706149086140006A
:1052F000486100205F490860802000E035E05C499B
:10530000486108618000086158498989891C88B210
:1053100000F092FB4FF480705549086140004861ED
:1053200052484088401E001252490860802050496F
:1053300048610861800008614C498989C91C88B2AC
:1053400000F07AFB4FF480704949086140004861E1
:1053500046488078401EC0B24649086080204449D3
:105360004861086180000861ADE04049488900F06B
:1053700063FB4FF480703E490861400048610020A3
:105380003C49086080203A49486108618000086112
:1053900040100861400048610020364908608020C4
:1053A000334948610861800008614010086140008D
:1053B00048612E480088401E00122E490860802057
:1053C0002B49486108618000086140100861400075
:1053D000486126480078401EC0B2264908608020F7
:1053E000234948610861800008612049888900F0EC
:1053F00023FB4FF480701E49086140004861002083
:105400001C49086080201A494861086180000861D1
:105410004010086140004861002016490860802063
:10542000134948610861800008614010086140002C
:1054300048610E484088401E00120E4908608020D6
:105440000B49486108618000086140100861400014
:10545000486106488078401EC0B206490860802036
:10546000034948610861800008612CE0A003002026
:10547000001001400C0C0140082D1CD2DFE805F0A3
:1054800004070A0D0F12151844F0300413E044F01D
:10549000100410E044F020040DE000BF0BE044F0E5
:1054A000380408E044F0280405E044F0180402E061
:1054B00044F0080400BF00BF032744F48054214691
:1054C000384600F0D3FAF0BD30B504460D46EA4840
:1054D000808849F24131884205D0E748808845F20A
:1054E0001031884240D1E449488900F0A5FA4FF4D0
:1054F0008070E2490861400048612012E04908607C
:105500008020DE4948610861800008614010086120
:1055100040004861E0B2DA4908608020D74948611C
:10552000086180000861D449888900F085FA4FF449
:105530008070D2490861400048612812D049086053
:105540008020CE49486108618000086140100861F0
:1055500040004861E8B2CA4908608020C7494861F4
:1055600008618000086186E1C348808846F604012E
:10557000884249D1C0488079012804D1BE480088BA
:10558000401E001B84B2BC49488900F055FA4FF414
:105590008070BA490861400048612012B84908602B
:1055A0008020B649486108618000086140100861A8
:1055B00040004861E0B2B24908608020AF494861CC
:1055C000086180000861AC49888900F035FA4FF421
:1055D0008070AA490861400048612812A849086003
:1055E0008020A64948610861800008614010086178
:1055F00040004861E8B2A249086080209F494861A4
:1056000008618000086136E19B48808841F663119B
:1056100088427DD19848807900283FD196480088FB
:10562000401E001B84B29449488900F005FA4FF4EB
:1056300080709249086140004861002090490860EC
:1056400080208E494861086180000861401008612F
:105650004000486100208A490860802087494861ED
:105660000861800008614010086140004861201214
:105670008349086080208149486108618000086191
:105680004010086140004861E0B27D490860802018
:105690007A49486108618000086141E0764948899B
:1056A00000F0CAF94FF48070744908614000486105
:1056B00020127349086080207049486108618000A9
:1056C00008614010086140004861E0B26C49086020
:1056D00080206A49486108618000086140100861C3
:1056E0004000486164480088401E00126449086018
:1056F00080206249486108618000086140100861AB
:10570000400048615C480078401EC0B25C4900E03F
:1057100047E00860802059494861086180000861BD
:105720005549888900F088F94FF480705349086121
:105730004000486128125249086080204F49486162
:105740000861800008614010086140004861E8B2CB
:105750004B49086080204949486108618000086120
:10576000401008614000486143484088401E0012D4
:105770004349086080204149486108618000086110
:1057800040100861400048613B488078401EC0B22C
:105790003B49086080203949486108618000086100
:1057A00069E03548808845F21051884250D132492D
:1057B000488900F041F94FF4807030490861400099
:1057C000486120122E49086080202C4948610861F8
:1057D0008000086128494989491C88B200F02CF9E9
:1057E0004FF480702549086140004861E0B22449C7
:1057F00008608020214948610861800008611E49D5
:10580000888900F019F94FF480701C490861400044
:10581000486128121A4908608020184948610861C7
:105820008000086114498989491C88B200F004F994
:105830004FF480701149086140004861E8B2104996
:10584000086080200D49486108618000086112E00D
:1058500009488079012804D107480088401E001BB0
:1058600084B205494889214600F000F90249888937
:10587000294600F0FBF830BDA003002000100140D5
:105880000C0C01402DE9F84F80460E4617461C4689
:10589000B3462046E31704EB5373DB1021464FEA6F
:1058A000E47C04EB5C7C4FEAEC0CA4EBCC0CBCF18C
:1058B000000F02D04FF0010C01E04FF0000C6344E8
:1058C000224604EBD27C4FEA6C0C03FB0CF3DBB2F8
:1058D0000093A7F12000C7B2002556E00C2C07D199
:1058E00007EB47002B4901EB800010F8059013E00F
:1058F000102C05D1284800EB071010F805900BE09C
:10590000182C07D107EBC700244901EB800010F8E1
:10591000059001E0BDE8F88F4FF0000A2FE009F094
:10592000800030B11E48028831464046FBF7E6F958
:1059300007E00A9828B91B48028831464046FBF721
:10594000DDF94FEA49604FEA1069701C86B21648CB
:105950004088B04200DCDDE7A6EB0B00A0420AD194
:105960005E4608F101001FFA80F80F4800884045A4
:1059700000DCCFE706E00AF1010000F0FF0ABAF10F
:10598000080FCCDB00BF681CC5B200988542A5DBC0
:1059900000BFBFE7BAD300082ED800081EDE0008FB
:1059A0000A0000200C000020A00300202DE9F84789
:1059B00004460D4690469946DDE9096704F0FF0A62
:1059C00008EB04001FFA80F809EB05001FFA80F9C4
:1059D00016E0444502DB5446A81985B24D4500DB6C
:1059E00014E0002000903A78334629462046FFF71D
:1059F00049FF304606EBD07104EB61018CB27F1C8D
:105A000038787E2802DC38782028E2DA00BFBDE84A
:105A1000F88700004FF48071054A11614900516117
:105A2000044908608021516111618900116170474A
:105A3000001001400C0C01404FF48071054A516187
:105A40004900516104490860802151611161890058
:105A500011617047001001400C0C014000B5024973
:105A60000889FFF7E9FF00BDA003002010B5044638
:105A70000B462046FFF7E0FF4FF4807005490861B0
:105A8000400048610448036080204861086180004C
:105A9000086110BD001001400C0C014018488069DD
:105AA00040F00400164988610846806940F02000F3
:105AB00088611448006820F00F0012490860084609
:105AC000006840F0030008600E480830006840F4A9
:105AD00080700C49083108600B48006820F4706041
